{
  "_format": "hh-sol-artifact-1",
  "contractName": "Chocomold",
  "sourceName": "contracts/Chocomold.sol",
  "abi": [
    {
      "anonymous": false,
      "inputs": [
        {
          "indexed": true,
          "internalType": "address",
          "name": "owner",
          "type": "address"
        },
        {
          "indexed": true,
          "internalType": "address",
          "name": "approved",
          "type": "address"
        },
        {
          "indexed": true,
          "internalType": "uint256",
          "name": "tokenId",
          "type": "uint256"
        }
      ],
      "name": "Approval",
      "type": "event"
    },
    {
      "anonymous": false,
      "inputs": [
        {
          "indexed": true,
          "internalType": "address",
          "name": "owner",
          "type": "address"
        },
        {
          "indexed": true,
          "internalType": "address",
          "name": "operator",
          "type": "address"
        },
        {
          "indexed": false,
          "internalType": "bool",
          "name": "approved",
          "type": "bool"
        }
      ],
      "name": "ApprovalForAll",
      "type": "event"
    },
    {
      "anonymous": false,
      "inputs": [
        {
          "indexed": true,
          "internalType": "address",
          "name": "previousOwner",
          "type": "address"
        },
        {
          "indexed": true,
          "internalType": "address",
          "name": "newOwner",
          "type": "address"
        }
      ],
      "name": "OwnershipTransferred",
      "type": "event"
    },
    {
      "anonymous": false,
      "inputs": [
        {
          "indexed": false,
          "internalType": "address",
          "name": "account",
          "type": "address"
        }
      ],
      "name": "Paused",
      "type": "event"
    },
    {
      "anonymous": false,
      "inputs": [
        {
          "indexed": true,
          "internalType": "address",
          "name": "from",
          "type": "address"
        },
        {
          "indexed": true,
          "internalType": "address",
          "name": "to",
          "type": "address"
        },
        {
          "indexed": true,
          "internalType": "uint256",
          "name": "tokenId",
          "type": "uint256"
        }
      ],
      "name": "Transfer",
      "type": "event"
    },
    {
      "anonymous": false,
      "inputs": [
        {
          "indexed": false,
          "internalType": "address",
          "name": "account",
          "type": "address"
        }
      ],
      "name": "Unpaused",
      "type": "event"
    },
    {
      "inputs": [
        {
          "internalType": "address",
          "name": "to",
          "type": "address"
        },
        {
          "internalType": "uint256",
          "name": "tokenId",
          "type": "uint256"
        }
      ],
      "name": "approve",
      "outputs": [],
      "stateMutability": "nonpayable",
      "type": "function"
    },
    {
      "inputs": [
        {
          "internalType": "address",
          "name": "owner",
          "type": "address"
        }
      ],
      "name": "balanceOf",
      "outputs": [
        {
          "internalType": "uint256",
          "name": "",
          "type": "uint256"
        }
      ],
      "stateMutability": "view",
      "type": "function"
    },
    {
      "inputs": [
        {
          "internalType": "uint256",
          "name": "tokenId",
          "type": "uint256"
        }
      ],
      "name": "burn",
      "outputs": [],
      "stateMutability": "nonpayable",
      "type": "function"
    },
    {
      "inputs": [],
      "name": "customBaseURI",
      "outputs": [
        {
          "internalType": "string",
          "name": "",
          "type": "string"
        }
      ],
      "stateMutability": "view",
      "type": "function"
    },
    {
      "inputs": [],
      "name": "defaultBaseURI",
      "outputs": [
        {
          "internalType": "string",
          "name": "",
          "type": "string"
        }
      ],
      "stateMutability": "view",
      "type": "function"
    },
    {
      "inputs": [
        {
          "internalType": "uint256",
          "name": "tokenId",
          "type": "uint256"
        }
      ],
      "name": "getApproved",
      "outputs": [
        {
          "internalType": "address",
          "name": "",
          "type": "address"
        }
      ],
      "stateMutability": "view",
      "type": "function"
    },
    {
      "inputs": [
        {
          "internalType": "uint256",
          "name": "_tokenId",
          "type": "uint256"
        }
      ],
      "name": "getFeeBps",
      "outputs": [
        {
          "internalType": "uint256[]",
          "name": "",
          "type": "uint256[]"
        }
      ],
      "stateMutability": "view",
      "type": "function"
    },
    {
      "inputs": [
        {
          "internalType": "uint256",
          "name": "_tokenId",
          "type": "uint256"
        }
      ],
      "name": "getFeeRecipients",
      "outputs": [
        {
          "internalType": "address payable[]",
          "name": "",
          "type": "address[]"
        }
      ],
      "stateMutability": "view",
      "type": "function"
    },
    {
      "inputs": [
        {
          "internalType": "address",
          "name": "_owner",
          "type": "address"
        },
        {
          "internalType": "string",
          "name": "_name",
          "type": "string"
        },
        {
          "internalType": "string",
          "name": "_symbol",
          "type": "string"
        }
      ],
      "name": "initialize",
      "outputs": [],
      "stateMutability": "nonpayable",
      "type": "function"
    },
    {
      "inputs": [
        {
          "internalType": "uint256",
          "name": "",
          "type": "uint256"
        }
      ],
      "name": "ipfsHashMemory",
      "outputs": [
        {
          "internalType": "bytes32",
          "name": "",
          "type": "bytes32"
        }
      ],
      "stateMutability": "view",
      "type": "function"
    },
    {
      "inputs": [
        {
          "internalType": "address",
          "name": "owner",
          "type": "address"
        },
        {
          "internalType": "address",
          "name": "operator",
          "type": "address"
        }
      ],
      "name": "isApprovedForAll",
      "outputs": [
        {
          "internalType": "bool",
          "name": "",
          "type": "bool"
        }
      ],
      "stateMutability": "view",
      "type": "function"
    },
    {
      "inputs": [
        {
          "internalType": "address",
          "name": "_to",
          "type": "address"
        },
        {
          "internalType": "uint256",
          "name": "_tokenId",
          "type": "uint256"
        }
      ],
      "name": "mint",
      "outputs": [],
      "stateMutability": "nonpayable",
      "type": "function"
    },
    {
      "inputs": [
        {
          "internalType": "address[]",
          "name": "_toList",
          "type": "address[]"
        },
        {
          "internalType": "uint256[]",
          "name": "_tokenIdList",
          "type": "uint256[]"
        }
      ],
      "name": "mint",
      "outputs": [],
      "stateMutability": "nonpayable",
      "type": "function"
    },
    {
      "inputs": [],
      "name": "name",
      "outputs": [
        {
          "internalType": "string",
          "name": "",
          "type": "string"
        }
      ],
      "stateMutability": "view",
      "type": "function"
    },
    {
      "inputs": [],
      "name": "owner",
      "outputs": [
        {
          "internalType": "address",
          "name": "",
          "type": "address"
        }
      ],
      "stateMutability": "view",
      "type": "function"
    },
    {
      "inputs": [
        {
          "internalType": "uint256",
          "name": "tokenId",
          "type": "uint256"
        }
      ],
      "name": "ownerOf",
      "outputs": [
        {
          "internalType": "address",
          "name": "",
          "type": "address"
        }
      ],
      "stateMutability": "view",
      "type": "function"
    },
    {
      "inputs": [],
      "name": "paused",
      "outputs": [
        {
          "internalType": "bool",
          "name": "",
          "type": "bool"
        }
      ],
      "stateMutability": "view",
      "type": "function"
    },
    {
      "inputs": [],
      "name": "renounceOwnership",
      "outputs": [],
      "stateMutability": "nonpayable",
      "type": "function"
    },
    {
      "inputs": [
        {
          "internalType": "address",
          "name": "from",
          "type": "address"
        },
        {
          "internalType": "address",
          "name": "to",
          "type": "address"
        },
        {
          "internalType": "uint256",
          "name": "tokenId",
          "type": "uint256"
        }
      ],
      "name": "safeTransferFrom",
      "outputs": [],
      "stateMutability": "nonpayable",
      "type": "function"
    },
    {
      "inputs": [
        {
          "internalType": "address",
          "name": "from",
          "type": "address"
        },
        {
          "internalType": "address",
          "name": "to",
          "type": "address"
        },
        {
          "internalType": "uint256",
          "name": "tokenId",
          "type": "uint256"
        },
        {
          "internalType": "bytes",
          "name": "_data",
          "type": "bytes"
        }
      ],
      "name": "safeTransferFrom",
      "outputs": [],
      "stateMutability": "nonpayable",
      "type": "function"
    },
    {
      "inputs": [
        {
          "internalType": "address",
          "name": "operator",
          "type": "address"
        },
        {
          "internalType": "bool",
          "name": "approved",
          "type": "bool"
        }
      ],
      "name": "setApprovalForAll",
      "outputs": [],
      "stateMutability": "nonpayable",
      "type": "function"
    },
    {
      "inputs": [
        {
          "internalType": "string",
          "name": "_customBaseURI",
          "type": "string"
        }
      ],
      "name": "setCustomBaseURI",
      "outputs": [],
      "stateMutability": "nonpayable",
      "type": "function"
    },
    {
      "inputs": [
        {
          "internalType": "uint256",
          "name": "_tokenId",
          "type": "uint256"
        },
        {
          "internalType": "address payable[]",
          "name": "_royaltyAddress",
          "type": "address[]"
        },
        {
          "internalType": "uint256[]",
          "name": "_royalty",
          "type": "uint256[]"
        }
      ],
      "name": "setCustomRoyality",
      "outputs": [],
      "stateMutability": "nonpayable",
      "type": "function"
    },
    {
      "inputs": [
        {
          "internalType": "uint256[]",
          "name": "_tokenIdList",
          "type": "uint256[]"
        },
        {
          "internalType": "address payable[][]",
          "name": "_royaltyAddressList",
          "type": "address[][]"
        },
        {
          "internalType": "uint256[][]",
          "name": "_royaltyList",
          "type": "uint256[][]"
        }
      ],
      "name": "setCustomRoyality",
      "outputs": [],
      "stateMutability": "nonpayable",
      "type": "function"
    },
    {
      "inputs": [
        {
          "internalType": "address payable[]",
          "name": "_royaltyAddress",
          "type": "address[]"
        },
        {
          "internalType": "uint256[]",
          "name": "_royalty",
          "type": "uint256[]"
        }
      ],
      "name": "setDefaultRoyality",
      "outputs": [],
      "stateMutability": "nonpayable",
      "type": "function"
    },
    {
      "inputs": [
        {
          "internalType": "uint256[]",
          "name": "_tokenIdList",
          "type": "uint256[]"
        },
        {
          "internalType": "bytes32[]",
          "name": "_ipfsHashList",
          "type": "bytes32[]"
        }
      ],
      "name": "setIpfsHash",
      "outputs": [],
      "stateMutability": "nonpayable",
      "type": "function"
    },
    {
      "inputs": [
        {
          "internalType": "uint256",
          "name": "_tokenId",
          "type": "uint256"
        },
        {
          "internalType": "bytes32",
          "name": "_ipfsHash",
          "type": "bytes32"
        }
      ],
      "name": "setIpfsHash",
      "outputs": [],
      "stateMutability": "nonpayable",
      "type": "function"
    },
    {
      "inputs": [
        {
          "internalType": "bytes4",
          "name": "_interfaceId",
          "type": "bytes4"
        }
      ],
      "name": "supportsInterface",
      "outputs": [
        {
          "internalType": "bool",
          "name": "",
          "type": "bool"
        }
      ],
      "stateMutability": "view",
      "type": "function"
    },
    {
      "inputs": [],
      "name": "symbol",
      "outputs": [
        {
          "internalType": "string",
          "name": "",
          "type": "string"
        }
      ],
      "stateMutability": "view",
      "type": "function"
    },
    {
      "inputs": [
        {
          "internalType": "uint256",
          "name": "_tokenId",
          "type": "uint256"
        }
      ],
      "name": "tokenURI",
      "outputs": [
        {
          "internalType": "string",
          "name": "",
          "type": "string"
        }
      ],
      "stateMutability": "view",
      "type": "function"
    },
    {
      "inputs": [
        {
          "internalType": "address",
          "name": "from",
          "type": "address"
        },
        {
          "internalType": "address",
          "name": "to",
          "type": "address"
        },
        {
          "internalType": "uint256",
          "name": "tokenId",
          "type": "uint256"
        }
      ],
      "name": "transferFrom",
      "outputs": [],
      "stateMutability": "nonpayable",
      "type": "function"
    },
    {
      "inputs": [
        {
          "internalType": "address",
          "name": "newOwner",
          "type": "address"
        }
      ],
      "name": "transferOwnership",
      "outputs": [],
      "stateMutability": "nonpayable",
      "type": "function"
    }
  ],
  "bytecode": "0x608060405234801561001057600080fd5b50615b2e80620000216000396000f3fe608060405234801561001057600080fd5b50600436106101f05760003560e01c806370a082311161010f578063abcbb7b4116100a2578063e467f7e011610071578063e467f7e01461058b578063e985e9c5146105a7578063f0559fba146105d7578063f2fde38b14610607576101f0565b8063abcbb7b4146104f1578063b88d4fde1461050f578063b9c4d9fb1461052b578063c87b56dd1461055b576101f0565b80638da5cb5b116100de5780638da5cb5b1461047d578063906571471461049b57806395d89b41146104b7578063a22cb465146104d5576101f0565b806370a0823114610409578063715018a6146104395780637496212614610443578063889a3f191461045f576101f0565b806323b872dd11610187578063517f2ac611610156578063517f2ac6146103835780635c975abb1461039f5780636352211e146103bd5780636cc247e0146103ed576101f0565b806323b872dd1461031357806340c10f191461032f57806342842e0e1461034b57806342966c6814610367576101f0565b8063095ea7b3116101c3578063095ea7b31461028f5780630ebd4c7f146102ab5780631b0e1bdd146102db5780631f1288be146102f7576101f0565b806301e8c1b0146101f557806301ffc9a71461021157806306fdde0314610241578063081812fc1461025f575b600080fd5b61020f600480360381019061020a91906143d8565b610623565b005b61022b6004803603810190610226919061431c565b6106af565b604051610238919061509b565b60405180910390f35b6102496106c1565b60405161025691906150d1565b60405180910390f35b610279600480360381019061027491906143af565b610753565b6040516102869190614ff0565b60405180910390f35b6102a960048036038101906102a49190614105565b6107d8565b005b6102c560048036038101906102c091906143af565b6108f0565b6040516102d29190615079565b60405180910390f35b6102f560048036038101906102f091906142b0565b610984565b005b610311600480360381019061030c91906141ad565b610af2565b005b61032d60048036038101906103289190613f80565b610b7c565b005b61034960048036038101906103449190614105565b610bdc565b005b61036560048036038101906103609190613f80565b610c66565b005b610381600480360381019061037c91906143af565b610c86565b005b61039d60048036038101906103989190614457565b610ce2565b005b6103a7610d6c565b6040516103b4919061509b565b60405180910390f35b6103d760048036038101906103d291906143af565b610d83565b6040516103e49190614ff0565b60405180910390f35b6104076004803603810190610402919061436e565b610e35565b005b610423600480360381019061041e9190613f1b565b610ecc565b6040516104309190615393565b60405180910390f35b610441610f84565b005b61045d60048036038101906104589190614219565b6110c1565b005b61046761127e565b60405161047491906150d1565b60405180910390f35b61048561130d565b6040516104929190614ff0565b60405180910390f35b6104b560048036038101906104b09190614086565b611337565b005b6104bf61142e565b6040516104cc91906150d1565b60405180910390f35b6104ef60048036038101906104ea919061404a565b6114c0565b005b6104f9611641565b60405161050691906150d1565b60405180910390f35b61052960048036038101906105249190613fcf565b61165d565b005b610545600480360381019061054091906143af565b6116bf565b6040516105529190615057565b60405180910390f35b610575600480360381019061057091906143af565b611789565b60405161058291906150d1565b60405180910390f35b6105a560048036038101906105a09190614141565b6118c8565b005b6105c160048036038101906105bc9190613f44565b611a36565b6040516105ce919061509b565b60405180910390f35b6105f160048036038101906105ec91906143af565b611aca565b6040516105fe91906150b6565b60405180910390f35b610621600480360381019061061c9190613f1b565b611ae3565b005b61062b611c8f565b73ffffffffffffffffffffffffffffffffffffffff1661064961130d565b73ffffffffffffffffffffffffffffffffffffffff161461069f576040517f08c379a0000000000000000000000000000000000000000000000000000000008152600401610696906152b3565b60405180910390fd5b6106aa838383611c97565b505050565b60006106ba82611d32565b9050919050565b6060609780546106d09061582f565b80601f01602080910402602001604051908101604052809291908181526020018280546106fc9061582f565b80156107495780601f1061071e57610100808354040283529160200191610749565b820191906000526020600020905b81548152906001019060200180831161072c57829003601f168201915b5050505050905090565b600061075e82611dac565b61079d576040517f08c379a000000000000000000000000000000000000000000000000000000000815260040161079490615293565b60405180910390fd5b609b600083815260200190815260200160002060009054906101000a900473ffffffffffffffffffffffffffffffffffffffff169050919050565b60006107e382610d83565b90508073ffffffffffffffffffffffffffffffffffffffff168373ffffffffffffffffffffffffffffffffffffffff161415610854576040517f08c379a000000000000000000000000000000000000000000000000000000000815260040161084b90615313565b60405180910390fd5b8073ffffffffffffffffffffffffffffffffffffffff16610873611c8f565b73ffffffffffffffffffffffffffffffffffffffff1614806108a257506108a18161089c611c8f565b611a36565b5b6108e1576040517f08c379a00000000000000000000000000000000000000000000000000000000081526004016108d8906151f3565b60405180910390fd5b6108eb8383611e18565b505050565b60606000610162600084815260200190815260200160002080549050116109195761016061092e565b61016260008381526020019081526020016000205b80548060200260200160405190810160405280929190818152602001828054801561097857602002820191906000526020600020905b815481526020019060010190808311610964575b50505050509050919050565b61098c611c8f565b73ffffffffffffffffffffffffffffffffffffffff166109aa61130d565b73ffffffffffffffffffffffffffffffffffffffff1614610a00576040517f08c379a00000000000000000000000000000000000000000000000000000000081526004016109f7906152b3565b60405180910390fd5b8051825114610a44576040517f08c379a0000000000000000000000000000000000000000000000000000000008152600401610a3b90615353565b60405180910390fd5b60005b8251811015610aed57610ada838281518110610a8c577f4e487b7100000000000000000000000000000000000000000000000000000000600052603260045260246000fd5b6020026020010151838381518110610acd577f4e487b7100000000000000000000000000000000000000000000000000000000600052603260045260246000fd5b6020026020010151611ed1565b8080610ae590615861565b915050610a47565b505050565b610afa611c8f565b73ffffffffffffffffffffffffffffffffffffffff16610b1861130d565b73ffffffffffffffffffffffffffffffffffffffff1614610b6e576040517f08c379a0000000000000000000000000000000000000000000000000000000008152600401610b65906152b3565b60405180910390fd5b610b788282611eee565b5050565b610b8d610b87611c8f565b82611f66565b610bcc576040517f08c379a0000000000000000000000000000000000000000000000000000000008152600401610bc390615333565b60405180910390fd5b610bd7838383612044565b505050565b610be4611c8f565b73ffffffffffffffffffffffffffffffffffffffff16610c0261130d565b73ffffffffffffffffffffffffffffffffffffffff1614610c58576040517f08c379a0000000000000000000000000000000000000000000000000000000008152600401610c4f906152b3565b60405180910390fd5b610c6282826122a0565b5050565b610c818383836040518060200160405280600081525061165d565b505050565b610c97610c91611c8f565b82611f66565b610cd6576040517f08c379a0000000000000000000000000000000000000000000000000000000008152600401610ccd90615373565b60405180910390fd5b610cdf8161246e565b50565b610cea611c8f565b73ffffffffffffffffffffffffffffffffffffffff16610d0861130d565b73ffffffffffffffffffffffffffffffffffffffff1614610d5e576040517f08c379a0000000000000000000000000000000000000000000000000000000008152600401610d55906152b3565b60405180910390fd5b610d688282611ed1565b5050565b600060fb60009054906101000a900460ff16905090565b6000806099600084815260200190815260200160002060009054906101000a900473ffffffffffffffffffffffffffffffffffffffff169050600073ffffffffffffffffffffffffffffffffffffffff168173ffffffffffffffffffffffffffffffffffffffff161415610e2c576040517f08c379a0000000000000000000000000000000000000000000000000000000008152600401610e2390615233565b60405180910390fd5b80915050919050565b610e3d611c8f565b73ffffffffffffffffffffffffffffffffffffffff16610e5b61130d565b73ffffffffffffffffffffffffffffffffffffffff1614610eb1576040517f08c379a0000000000000000000000000000000000000000000000000000000008152600401610ea8906152b3565b60405180910390fd5b806101649080519060200190610ec8929190613896565b5050565b60008073ffffffffffffffffffffffffffffffffffffffff168273ffffffffffffffffffffffffffffffffffffffff161415610f3d576040517f08c379a0000000000000000000000000000000000000000000000000000000008152600401610f3490615213565b60405180910390fd5b609a60008373ffffffffffffffffffffffffffffffffffffffff1673ffffffffffffffffffffffffffffffffffffffff168152602001908152602001600020549050919050565b610f8c611c8f565b73ffffffffffffffffffffffffffffffffffffffff16610faa61130d565b73ffffffffffffffffffffffffffffffffffffffff1614611000576040517f08c379a0000000000000000000000000000000000000000000000000000000008152600401610ff7906152b3565b60405180910390fd5b600073ffffffffffffffffffffffffffffffffffffffff16603360009054906101000a900473ffffffffffffffffffffffffffffffffffffffff1673ffffffffffffffffffffffffffffffffffffffff167f8be0079c531659141344cd1fd0a4f28419497f9722a3daafe3b4186f6b6457e060405160405180910390a36000603360006101000a81548173ffffffffffffffffffffffffffffffffffffffff021916908373ffffffffffffffffffffffffffffffffffffffff160217905550565b6110c9611c8f565b73ffffffffffffffffffffffffffffffffffffffff166110e761130d565b73ffffffffffffffffffffffffffffffffffffffff161461113d576040517f08c379a0000000000000000000000000000000000000000000000000000000008152600401611134906152b3565b60405180910390fd5b8151835114801561114f575080518351145b61118e576040517f08c379a000000000000000000000000000000000000000000000000000000000815260040161118590615353565b60405180910390fd5b60005b8351811015611278576112658482815181106111d6577f4e487b7100000000000000000000000000000000000000000000000000000000600052603260045260246000fd5b6020026020010151848381518110611217577f4e487b7100000000000000000000000000000000000000000000000000000000600052603260045260246000fd5b6020026020010151848481518110611258577f4e487b7100000000000000000000000000000000000000000000000000000000600052603260045260246000fd5b6020026020010151611c97565b808061127090615861565b915050611191565b50505050565b610164805461128c9061582f565b80601f01602080910402602001604051908101604052809291908181526020018280546112b89061582f565b80156113055780601f106112da57610100808354040283529160200191611305565b820191906000526020600020905b8154815290600101906020018083116112e857829003601f168201915b505050505081565b6000603360009054906101000a900473ffffffffffffffffffffffffffffffffffffffff16905090565b600060019054906101000a900460ff168061135d575060008054906101000a900460ff16155b61139c576040517f08c379a000000000000000000000000000000000000000000000000000000000815260040161139390615253565b60405180910390fd5b60008060019054906101000a900460ff1615905080156113ec576001600060016101000a81548160ff02191690831515021790555060016000806101000a81548160ff0219169083151502179055505b6113f46124af565b6113fd84611ae3565b6114078383612631565b80156114285760008060016101000a81548160ff0219169083151502179055505b50505050565b60606098805461143d9061582f565b80601f01602080910402602001604051908101604052809291908181526020018280546114699061582f565b80156114b65780601f1061148b576101008083540402835291602001916114b6565b820191906000526020600020905b81548152906001019060200180831161149957829003601f168201915b5050505050905090565b6114c8611c8f565b73ffffffffffffffffffffffffffffffffffffffff168273ffffffffffffffffffffffffffffffffffffffff161415611536576040517f08c379a000000000000000000000000000000000000000000000000000000000815260040161152d90615193565b60405180910390fd5b80609c6000611543611c8f565b73ffffffffffffffffffffffffffffffffffffffff1673ffffffffffffffffffffffffffffffffffffffff16815260200190815260200160002060008473ffffffffffffffffffffffffffffffffffffffff1673ffffffffffffffffffffffffffffffffffffffff16815260200190815260200160002060006101000a81548160ff0219169083151502179055508173ffffffffffffffffffffffffffffffffffffffff166115f0611c8f565b73ffffffffffffffffffffffffffffffffffffffff167f17307eab39ab6107e8899845ad3d59bd9653f200f220920489ca2b5937696c3183604051611635919061509b565b60405180910390a35050565b604051806060016040528060278152602001615a986027913981565b61166e611668611c8f565b83611f66565b6116ad576040517f08c379a00000000000000000000000000000000000000000000000000000000081526004016116a490615333565b60405180910390fd5b6116b98484848461273a565b50505050565b60606000610161600084815260200190815260200160002080549050116116e85761015f6116fd565b61016160008381526020019081526020016000205b80548060200260200160405190810160405280929190818152602001828054801561177d57602002820191906000526020600020905b8160009054906101000a900473ffffffffffffffffffffffffffffffffffffffff1673ffffffffffffffffffffffffffffffffffffffff1681526020019060010190808311611733575b50505050509050919050565b606061179482611dac565b6117d3576040517f08c379a00000000000000000000000000000000000000000000000000000000081526004016117ca906151d3565b60405180910390fd5b6000610163600084815260200190815260200160002054146118235761181c611817611812610163600086815260200190815260200160002054612796565b6127bf565b612c34565b90506118c3565b600061016480546118339061582f565b9050111561184b5761184482612c5d565b90506118c3565b604051806060016040528060278152602001615a986027913961186d46612d04565b611895306040516020016118819190614f15565b604051602081830303815290604052612eb1565b61189e85612d04565b6040516020016118b19493929190614f54565b60405160208183030381529060405290505b919050565b6118d0611c8f565b73ffffffffffffffffffffffffffffffffffffffff166118ee61130d565b73ffffffffffffffffffffffffffffffffffffffff1614611944576040517f08c379a000000000000000000000000000000000000000000000000000000000815260040161193b906152b3565b60405180910390fd5b8051825114611988576040517f08c379a000000000000000000000000000000000000000000000000000000000815260040161197f90615353565b60405180910390fd5b60005b8151811015611a3157611a1e8382815181106119d0577f4e487b7100000000000000000000000000000000000000000000000000000000600052603260045260246000fd5b6020026020010151838381518110611a11577f4e487b7100000000000000000000000000000000000000000000000000000000600052603260045260246000fd5b60200260200101516122a0565b8080611a2990615861565b91505061198b565b505050565b6000609c60008473ffffffffffffffffffffffffffffffffffffffff1673ffffffffffffffffffffffffffffffffffffffff16815260200190815260200160002060008373ffffffffffffffffffffffffffffffffffffffff1673ffffffffffffffffffffffffffffffffffffffff16815260200190815260200160002060009054906101000a900460ff16905092915050565b6101636020528060005260406000206000915090505481565b611aeb611c8f565b73ffffffffffffffffffffffffffffffffffffffff16611b0961130d565b73ffffffffffffffffffffffffffffffffffffffff1614611b5f576040517f08c379a0000000000000000000000000000000000000000000000000000000008152600401611b56906152b3565b60405180910390fd5b600073ffffffffffffffffffffffffffffffffffffffff168173ffffffffffffffffffffffffffffffffffffffff161415611bcf576040517f08c379a0000000000000000000000000000000000000000000000000000000008152600401611bc690615133565b60405180910390fd5b8073ffffffffffffffffffffffffffffffffffffffff16603360009054906101000a900473ffffffffffffffffffffffffffffffffffffffff1673ffffffffffffffffffffffffffffffffffffffff167f8be0079c531659141344cd1fd0a4f28419497f9722a3daafe3b4186f6b6457e060405160405180910390a380603360006101000a81548173ffffffffffffffffffffffffffffffffffffffff021916908373ffffffffffffffffffffffffffffffffffffffff16021790555050565b600033905090565b8051825114611cdb576040517f08c379a0000000000000000000000000000000000000000000000000000000008152600401611cd290615353565b60405180910390fd5b8161016160008581526020019081526020016000209080519060200190611d0392919061391c565b508061016260008581526020019081526020016000209080519060200190611d2c9291906139a6565b50505050565b60007fb7799584000000000000000000000000000000000000000000000000000000007bffffffffffffffffffffffffffffffffffffffffffffffffffffffff1916827bffffffffffffffffffffffffffffffffffffffffffffffffffffffff19161480611da55750611da482613301565b5b9050919050565b60008073ffffffffffffffffffffffffffffffffffffffff166099600084815260200190815260200160002060009054906101000a900473ffffffffffffffffffffffffffffffffffffffff1673ffffffffffffffffffffffffffffffffffffffff1614159050919050565b81609b600083815260200190815260200160002060006101000a81548173ffffffffffffffffffffffffffffffffffffffff021916908373ffffffffffffffffffffffffffffffffffffffff160217905550808273ffffffffffffffffffffffffffffffffffffffff16611e8b83610d83565b73ffffffffffffffffffffffffffffffffffffffff167f8c5be1e5ebec7d5bd14f71427d1e84f3dd0314c0f7b2291e5b200ac8c7c3b92560405160405180910390a45050565b806101636000848152602001908152602001600020819055505050565b8051825114611f32576040517f08c379a0000000000000000000000000000000000000000000000000000000008152600401611f2990615353565b60405180910390fd5b8161015f9080519060200190611f4992919061391c565b50806101609080519060200190611f619291906139a6565b505050565b6000611f7182611dac565b611fb0576040517f08c379a0000000000000000000000000000000000000000000000000000000008152600401611fa7906151b3565b60405180910390fd5b6000611fbb83610d83565b90508073ffffffffffffffffffffffffffffffffffffffff168473ffffffffffffffffffffffffffffffffffffffff16148061202a57508373ffffffffffffffffffffffffffffffffffffffff1661201284610753565b73ffffffffffffffffffffffffffffffffffffffff16145b8061203b575061203a8185611a36565b5b91505092915050565b8273ffffffffffffffffffffffffffffffffffffffff1661206482610d83565b73ffffffffffffffffffffffffffffffffffffffff16146120ba576040517f08c379a00000000000000000000000000000000000000000000000000000000081526004016120b1906152d3565b60405180910390fd5b600073ffffffffffffffffffffffffffffffffffffffff168273ffffffffffffffffffffffffffffffffffffffff16141561212a576040517f08c379a000000000000000000000000000000000000000000000000000000000815260040161212190615173565b60405180910390fd5b6121358383836133e3565b612140600082611e18565b6001609a60008573ffffffffffffffffffffffffffffffffffffffff1673ffffffffffffffffffffffffffffffffffffffff168152602001908152602001600020600082825461219091906156e8565b925050819055506001609a60008473ffffffffffffffffffffffffffffffffffffffff1673ffffffffffffffffffffffffffffffffffffffff16815260200190815260200160002060008282546121e79190615607565b92505081905550816099600083815260200190815260200160002060006101000a81548173ffffffffffffffffffffffffffffffffffffffff021916908373ffffffffffffffffffffffffffffffffffffffff160217905550808273ffffffffffffffffffffffffffffffffffffffff168473ffffffffffffffffffffffffffffffffffffffff167fddf252ad1be2c89b69c2b068fc378daa952ba7f163c4a11628f55a4df523b3ef60405160405180910390a4505050565b600073ffffffffffffffffffffffffffffffffffffffff168273ffffffffffffffffffffffffffffffffffffffff161415612310576040517f08c379a000000000000000000000000000000000000000000000000000000000815260040161230790615273565b60405180910390fd5b61231981611dac565b15612359576040517f08c379a000000000000000000000000000000000000000000000000000000000815260040161235090615153565b60405180910390fd5b612365600083836133e3565b6001609a60008473ffffffffffffffffffffffffffffffffffffffff1673ffffffffffffffffffffffffffffffffffffffff16815260200190815260200160002060008282546123b59190615607565b92505081905550816099600083815260200190815260200160002060006101000a81548173ffffffffffffffffffffffffffffffffffffffff021916908373ffffffffffffffffffffffffffffffffffffffff160217905550808273ffffffffffffffffffffffffffffffffffffffff16600073ffffffffffffffffffffffffffffffffffffffff167fddf252ad1be2c89b69c2b068fc378daa952ba7f163c4a11628f55a4df523b3ef60405160405180910390a45050565b612477816133f3565b6000610163600083815260200190815260200160002054146124ac576101636000828152602001908152602001600020600090555b50565b600060019054906101000a900460ff16806124d5575060008054906101000a900460ff16155b612514576040517f08c379a000000000000000000000000000000000000000000000000000000000815260040161250b90615253565b60405180910390fd5b60008060019054906101000a900460ff161590508015612564576001600060016101000a81548160ff02191690831515021790555060016000806101000a81548160ff0219169083151502179055505b600061256e611c8f565b905080603360006101000a81548173ffffffffffffffffffffffffffffffffffffffff021916908373ffffffffffffffffffffffffffffffffffffffff1602179055508073ffffffffffffffffffffffffffffffffffffffff16600073ffffffffffffffffffffffffffffffffffffffff167f8be0079c531659141344cd1fd0a4f28419497f9722a3daafe3b4186f6b6457e060405160405180910390a350801561262e5760008060016101000a81548160ff0219169083151502179055505b50565b600060019054906101000a900460ff1680612657575060008054906101000a900460ff16155b612696576040517f08c379a000000000000000000000000000000000000000000000000000000000815260040161268d90615253565b60405180910390fd5b60008060019054906101000a900460ff1615905080156126e6576001600060016101000a81548160ff02191690831515021790555060016000806101000a81548160ff0219169083151502179055505b82609790805190602001906126fc929190613896565b508160989080519060200190612713929190613896565b5080156127355760008060016101000a81548160ff0219169083151502179055505b505050565b612745848484612044565b61275184848484613481565b612790576040517f08c379a000000000000000000000000000000000000000000000000000000000815260040161278790615113565b60405180910390fd5b50505050565b6060816040516020016127a99190614fca565b6040516020818303038152906040529050919050565b606060006040518060600160405280603a8152602001615abf603a913990506000602e67ffffffffffffffff811115612821577f4e487b7100000000000000000000000000000000000000000000000000000000600052604160045260246000fd5b60405190808252806020026020018201604052801561284f5781602001602082028036833780820191505090505b5090506000602e67ffffffffffffffff811115612895577f4e487b7100000000000000000000000000000000000000000000000000000000600052604160045260246000fd5b6040519080825280601f01601f1916602001820160405280156128c75781602001600182028036833780820191505090505b509050600082600081518110612906577f4e487b7100000000000000000000000000000000000000000000000000000000600052603260045260246000fd5b602002602001019060ff16908160ff168152505060006001905060005b8651811015612afc576000878281518110612967577f4e487b7100000000000000000000000000000000000000000000000000000000600052603260045260246000fd5b602001015160f81c60f81b60f81c60ff16905060005b8360ff16811015612a60576101008682815181106129c4577f4e487b7100000000000000000000000000000000000000000000000000000000600052603260045260246000fd5b602002602001015160ff166129d9919061568e565b826129e49190615607565b9150603a826129f39190615902565b868281518110612a2c577f4e487b7100000000000000000000000000000000000000000000000000000000600052603260045260246000fd5b602002602001019060ff16908160ff1681525050603a82612a4d919061565d565b915080612a5990615861565b905061297d565b505b6000811115612aea57603a81612a789190615902565b858460ff1681518110612ab4577f4e487b7100000000000000000000000000000000000000000000000000000000600052603260045260246000fd5b602002602001019060ff16908160ff16815250508280612ad3906158aa565b935050603a81612ae3919061565d565b9050612a62565b5080612af590615861565b9050612923565b5060005b8160ff16811015612c2757848482600185612b1b919061571c565b60ff16612b2891906156e8565b81518110612b5f577f4e487b7100000000000000000000000000000000000000000000000000000000600052603260045260246000fd5b602002602001015160ff1681518110612ba1577f4e487b7100000000000000000000000000000000000000000000000000000000600052603260045260246000fd5b602001015160f81c60f81b838281518110612be5577f4e487b7100000000000000000000000000000000000000000000000000000000600052603260045260246000fd5b60200101907effffffffffffffffffffffffffffffffffffffffffffffffffffffffffffff1916908160001a9053508080612c1f90615861565b915050612b00565b5081945050505050919050565b606081604051602001612c479190614fa8565b6040516020818303038152906040529050919050565b6060612c6882611dac565b612ca7576040517f08c379a0000000000000000000000000000000000000000000000000000000008152600401612c9e906152f3565b60405180910390fd5b6000612cb1613618565b90506000815111612cd15760405180602001604052806000815250612cfc565b80612cdb84612d04565b604051602001612cec929190614f30565b6040516020818303038152906040525b915050919050565b60606000821415612d4c576040518060400160405280600181526020017f30000000000000000000000000000000000000000000000000000000000000008152509050612eac565b600082905060005b60008214612d7e578080612d6790615861565b915050600a82612d77919061565d565b9150612d54565b60008167ffffffffffffffff811115612dc0577f4e487b7100000000000000000000000000000000000000000000000000000000600052604160045260246000fd5b6040519080825280601f01601f191660200182016040528015612df25781602001600182028036833780820191505090505b5090505b60008514612ea557600182612e0b91906156e8565b9150600a85612e1a9190615902565b6030612e269190615607565b60f81b818381518110612e62577f4e487b7100000000000000000000000000000000000000000000000000000000600052603260045260246000fd5b60200101907effffffffffffffffffffffffffffffffffffffffffffffffffffffffffffff1916908160001a905350600a85612e9e919061565d565b9450612df6565b8093505050505b919050565b606060006040518060400160405280601081526020017f30313233343536373839616263646566000000000000000000000000000000008152509050600060028451612efd919061568e565b6002612f099190615607565b67ffffffffffffffff811115612f48577f4e487b7100000000000000000000000000000000000000000000000000000000600052604160045260246000fd5b6040519080825280601f01601f191660200182016040528015612f7a5781602001600182028036833780820191505090505b5090507f300000000000000000000000000000000000000000000000000000000000000081600081518110612fd8577f4e487b7100000000000000000000000000000000000000000000000000000000600052603260045260246000fd5b60200101907effffffffffffffffffffffffffffffffffffffffffffffffffffffffffffff1916908160001a9053507f780000000000000000000000000000000000000000000000000000000000000081600181518110613062577f4e487b7100000000000000000000000000000000000000000000000000000000600052603260045260246000fd5b60200101907effffffffffffffffffffffffffffffffffffffffffffffffffffffffffffff1916908160001a90535060005b84518110156132f6578260048683815181106130d9577f4e487b7100000000000000000000000000000000000000000000000000000000600052603260045260246000fd5b602001015160f81c60f81b7effffffffffffffffffffffffffffffffffffffffffffffffffffffffffffff1916901c60f81c60ff1681518110613145577f4e487b7100000000000000000000000000000000000000000000000000000000600052603260045260246000fd5b602001015160f81c60f81b8260028361315e919061568e565b600261316a9190615607565b815181106131a1577f4e487b7100000000000000000000000000000000000000000000000000000000600052603260045260246000fd5b60200101907effffffffffffffffffffffffffffffffffffffffffffffffffffffffffffff1916908160001a90535082600f60f81b86838151811061320f577f4e487b7100000000000000000000000000000000000000000000000000000000600052603260045260246000fd5b602001015160f81c60f81b1660f81c60ff1681518110613258577f4e487b7100000000000000000000000000000000000000000000000000000000600052603260045260246000fd5b602001015160f81c60f81b82600283613271919061568e565b600361327d9190615607565b815181106132b4577f4e487b7100000000000000000000000000000000000000000000000000000000600052603260045260246000fd5b60200101907effffffffffffffffffffffffffffffffffffffffffffffffffffffffffffff1916908160001a90535080806132ee90615861565b915050613094565b508092505050919050565b60007f80ac58cd000000000000000000000000000000000000000000000000000000007bffffffffffffffffffffffffffffffffffffffffffffffffffffffff1916827bffffffffffffffffffffffffffffffffffffffffffffffffffffffff191614806133cc57507f5b5e139f000000000000000000000000000000000000000000000000000000007bffffffffffffffffffffffffffffffffffffffffffffffffffffffff1916827bffffffffffffffffffffffffffffffffffffffffffffffffffffffff1916145b806133dc57506133db826136ab565b5b9050919050565b6133ee838383613715565b505050565b6133fc8161376d565b6000610161600083815260200190815260200160002080549050111561343d576101616000828152602001908152602001600020600061343c91906139f3565b5b6000610162600083815260200190815260200160002080549050111561347e576101626000828152602001908152602001600020600061347d9190613a14565b5b50565b60006134a28473ffffffffffffffffffffffffffffffffffffffff1661387e565b1561360b578373ffffffffffffffffffffffffffffffffffffffff1663150b7a026134cb611c8f565b8786866040518563ffffffff1660e01b81526004016134ed949392919061500b565b602060405180830381600087803b15801561350757600080fd5b505af192505050801561353857506040513d601f19601f820116820180604052508101906135359190614345565b60015b6135bb573d8060008114613568576040519150601f19603f3d011682016040523d82523d6000602084013e61356d565b606091505b506000815114156135b3576040517f08c379a00000000000000000000000000000000000000000000000000000000081526004016135aa90615113565b60405180910390fd5b805181602001fd5b63150b7a0260e01b7bffffffffffffffffffffffffffffffffffffffffffffffffffffffff1916817bffffffffffffffffffffffffffffffffffffffffffffffffffffffff191614915050613610565b600190505b949350505050565b606061016480546136289061582f565b80601f01602080910402602001604051908101604052809291908181526020018280546136549061582f565b80156136a15780601f10613676576101008083540402835291602001916136a1565b820191906000526020600020905b81548152906001019060200180831161368457829003601f168201915b5050505050905090565b60007f01ffc9a7000000000000000000000000000000000000000000000000000000007bffffffffffffffffffffffffffffffffffffffffffffffffffffffff1916827bffffffffffffffffffffffffffffffffffffffffffffffffffffffff1916149050919050565b613720838383613891565b613728610d6c565b15613768576040517f08c379a000000000000000000000000000000000000000000000000000000000815260040161375f906150f3565b60405180910390fd5b505050565b600061377882610d83565b9050613786816000846133e3565b613791600083611e18565b6001609a60008373ffffffffffffffffffffffffffffffffffffffff1673ffffffffffffffffffffffffffffffffffffffff16815260200190815260200160002060008282546137e191906156e8565b925050819055506099600083815260200190815260200160002060006101000a81549073ffffffffffffffffffffffffffffffffffffffff021916905581600073ffffffffffffffffffffffffffffffffffffffff168273ffffffffffffffffffffffffffffffffffffffff167fddf252ad1be2c89b69c2b068fc378daa952ba7f163c4a11628f55a4df523b3ef60405160405180910390a45050565b600080823b905060008111915050919050565b505050565b8280546138a29061582f565b90600052602060002090601f0160209004810192826138c4576000855561390b565b82601f106138dd57805160ff191683800117855561390b565b8280016001018555821561390b579182015b8281111561390a5782518255916020019190600101906138ef565b5b5090506139189190613a35565b5090565b828054828255906000526020600020908101928215613995579160200282015b828111156139945782518260006101000a81548173ffffffffffffffffffffffffffffffffffffffff021916908373ffffffffffffffffffffffffffffffffffffffff1602179055509160200191906001019061393c565b5b5090506139a29190613a35565b5090565b8280548282559060005260206000209081019282156139e2579160200282015b828111156139e15782518255916020019190600101906139c6565b5b5090506139ef9190613a35565b5090565b5080546000825590600052602060002090810190613a119190613a35565b50565b5080546000825590600052602060002090810190613a329190613a35565b50565b5b80821115613a4e576000816000905550600101613a36565b5090565b6000613a65613a60846153df565b6153ae565b90508083825260208201905082856020860282011115613a8457600080fd5b60005b85811015613ab45781613a9a8882613d38565b845260208401935060208301925050600181019050613a87565b5050509392505050565b6000613ad1613acc8461540b565b6153ae565b90508083825260208201905082856020860282011115613af057600080fd5b60005b85811015613b205781613b068882613d4d565b845260208401935060208301925050600181019050613af3565b5050509392505050565b6000613b3d613b3884615437565b6153ae565b9050808382526020820190508260005b85811015613b7d5781358501613b638882613d8c565b845260208401935060208301925050600181019050613b4d565b5050509392505050565b6000613b9a613b9584615463565b6153ae565b9050808382526020820190508260005b85811015613bda5781358501613bc08882613e34565b845260208401935060208301925050600181019050613baa565b5050509392505050565b6000613bf7613bf28461548f565b6153ae565b90508083825260208201905082856020860282011115613c1657600080fd5b60005b85811015613c465781613c2c8882613e73565b845260208401935060208301925050600181019050613c19565b5050509392505050565b6000613c63613c5e846154bb565b6153ae565b90508083825260208201905082856020860282011115613c8257600080fd5b60005b85811015613cb25781613c988882613f06565b845260208401935060208301925050600181019050613c85565b5050509392505050565b6000613ccf613cca846154e7565b6153ae565b905082815260208101848484011115613ce757600080fd5b613cf28482856157ed565b509392505050565b6000613d0d613d0884615517565b6153ae565b905082815260208101848484011115613d2557600080fd5b613d308482856157ed565b509392505050565b600081359050613d4781615a0d565b92915050565b600081359050613d5c81615a24565b92915050565b600082601f830112613d7357600080fd5b8135613d83848260208601613a52565b91505092915050565b600082601f830112613d9d57600080fd5b8135613dad848260208601613abe565b91505092915050565b600082601f830112613dc757600080fd5b8135613dd7848260208601613b2a565b91505092915050565b600082601f830112613df157600080fd5b8135613e01848260208601613b87565b91505092915050565b600082601f830112613e1b57600080fd5b8135613e2b848260208601613be4565b91505092915050565b600082601f830112613e4557600080fd5b8135613e55848260208601613c50565b91505092915050565b600081359050613e6d81615a3b565b92915050565b600081359050613e8281615a52565b92915050565b600081359050613e9781615a69565b92915050565b600081519050613eac81615a69565b92915050565b600082601f830112613ec357600080fd5b8135613ed3848260208601613cbc565b91505092915050565b600082601f830112613eed57600080fd5b8135613efd848260208601613cfa565b91505092915050565b600081359050613f1581615a80565b92915050565b600060208284031215613f2d57600080fd5b6000613f3b84828501613d38565b91505092915050565b60008060408385031215613f5757600080fd5b6000613f6585828601613d38565b9250506020613f7685828601613d38565b9150509250929050565b600080600060608486031215613f9557600080fd5b6000613fa386828701613d38565b9350506020613fb486828701613d38565b9250506040613fc586828701613f06565b9150509250925092565b60008060008060808587031215613fe557600080fd5b6000613ff387828801613d38565b945050602061400487828801613d38565b935050604061401587828801613f06565b925050606085013567ffffffffffffffff81111561403257600080fd5b61403e87828801613eb2565b91505092959194509250565b6000806040838503121561405d57600080fd5b600061406b85828601613d38565b925050602061407c85828601613e5e565b9150509250929050565b60008060006060848603121561409b57600080fd5b60006140a986828701613d38565b935050602084013567ffffffffffffffff8111156140c657600080fd5b6140d286828701613edc565b925050604084013567ffffffffffffffff8111156140ef57600080fd5b6140fb86828701613edc565b9150509250925092565b6000806040838503121561411857600080fd5b600061412685828601613d38565b925050602061413785828601613f06565b9150509250929050565b6000806040838503121561415457600080fd5b600083013567ffffffffffffffff81111561416e57600080fd5b61417a85828601613d62565b925050602083013567ffffffffffffffff81111561419757600080fd5b6141a385828601613e34565b9150509250929050565b600080604083850312156141c057600080fd5b600083013567ffffffffffffffff8111156141da57600080fd5b6141e685828601613d8c565b925050602083013567ffffffffffffffff81111561420357600080fd5b61420f85828601613e34565b9150509250929050565b60008060006060848603121561422e57600080fd5b600084013567ffffffffffffffff81111561424857600080fd5b61425486828701613e34565b935050602084013567ffffffffffffffff81111561427157600080fd5b61427d86828701613db6565b925050604084013567ffffffffffffffff81111561429a57600080fd5b6142a686828701613de0565b9150509250925092565b600080604083850312156142c357600080fd5b600083013567ffffffffffffffff8111156142dd57600080fd5b6142e985828601613e34565b925050602083013567ffffffffffffffff81111561430657600080fd5b61431285828601613e0a565b9150509250929050565b60006020828403121561432e57600080fd5b600061433c84828501613e88565b91505092915050565b60006020828403121561435757600080fd5b600061436584828501613e9d565b91505092915050565b60006020828403121561438057600080fd5b600082013567ffffffffffffffff81111561439a57600080fd5b6143a684828501613edc565b91505092915050565b6000602082840312156143c157600080fd5b60006143cf84828501613f06565b91505092915050565b6000806000606084860312156143ed57600080fd5b60006143fb86828701613f06565b935050602084013567ffffffffffffffff81111561441857600080fd5b61442486828701613d8c565b925050604084013567ffffffffffffffff81111561444157600080fd5b61444d86828701613e34565b9150509250925092565b6000806040838503121561446a57600080fd5b600061447885828601613f06565b925050602061448985828601613e73565b9150509250929050565b600061449f83836144c3565b60208301905092915050565b60006144b78383614ef7565b60208301905092915050565b6144cc81615762565b82525050565b6144db81615750565b82525050565b6144f26144ed82615750565b6158d4565b82525050565b600061450382615567565b61450d81856155ad565b935061451883615547565b8060005b838110156145495781516145308882614493565b975061453b83615593565b92505060018101905061451c565b5085935050505092915050565b600061456182615572565b61456b81856155be565b935061457683615557565b8060005b838110156145a757815161458e88826144ab565b9750614599836155a0565b92505060018101905061457a565b5085935050505092915050565b6145bd81615774565b82525050565b6145cc81615780565b82525050565b6145e36145de82615780565b6158e6565b82525050565b60006145f48261557d565b6145fe81856155cf565b935061460e8185602086016157fc565b614617816159ef565b840191505092915050565b600061462d8261557d565b61463781856155e0565b93506146478185602086016157fc565b80840191505092915050565b600061465e82615588565b61466881856155eb565b93506146788185602086016157fc565b614681816159ef565b840191505092915050565b600061469782615588565b6146a181856155fc565b93506146b18185602086016157fc565b80840191505092915050565b60006146ca602b836155eb565b91507f4552433732315061757361626c653a20746f6b656e207472616e73666572207760008301527f68696c65207061757365640000000000000000000000000000000000000000006020830152604082019050919050565b60006147306032836155eb565b91507f4552433732313a207472616e7366657220746f206e6f6e20455243373231526560008301527f63656976657220696d706c656d656e74657200000000000000000000000000006020830152604082019050919050565b60006147966026836155eb565b91507f4f776e61626c653a206e6577206f776e657220697320746865207a65726f206160008301527f64647265737300000000000000000000000000000000000000000000000000006020830152604082019050919050565b60006147fc601c836155eb565b91507f4552433732313a20746f6b656e20616c7265616479206d696e746564000000006000830152602082019050919050565b600061483c6024836155eb565b91507f4552433732313a207472616e7366657220746f20746865207a65726f2061646460008301527f72657373000000000000000000000000000000000000000000000000000000006020830152604082019050919050565b60006148a26019836155eb565b91507f4552433732313a20617070726f766520746f2063616c6c6572000000000000006000830152602082019050919050565b60006148e2602c836155eb565b91507f4552433732313a206f70657261746f7220717565727920666f72206e6f6e657860008301527f697374656e7420746f6b656e00000000000000000000000000000000000000006020830152604082019050919050565b60006149486007836155fc565b91507f697066733a2f2f000000000000000000000000000000000000000000000000006000830152600782019050919050565b60006149886010836155eb565b91507f746f6b656e206d757374206578697374000000000000000000000000000000006000830152602082019050919050565b60006149c86002836155fc565b91507f12200000000000000000000000000000000000000000000000000000000000006000830152600282019050919050565b6000614a086038836155eb565b91507f4552433732313a20617070726f76652063616c6c6572206973206e6f74206f7760008301527f6e6572206e6f7220617070726f76656420666f7220616c6c00000000000000006020830152604082019050919050565b6000614a6e602a836155eb565b91507f4552433732313a2062616c616e636520717565727920666f7220746865207a6560008301527f726f2061646472657373000000000000000000000000000000000000000000006020830152604082019050919050565b6000614ad46029836155eb565b91507f4552433732313a206f776e657220717565727920666f72206e6f6e657869737460008301527f656e7420746f6b656e00000000000000000000000000000000000000000000006020830152604082019050919050565b6000614b3a602e836155eb565b91507f496e697469616c697a61626c653a20636f6e747261637420697320616c72656160008301527f647920696e697469616c697a65640000000000000000000000000000000000006020830152604082019050919050565b6000614ba06020836155eb565b91507f4552433732313a206d696e7420746f20746865207a65726f20616464726573736000830152602082019050919050565b6000614be0602c836155eb565b91507f4552433732313a20617070726f76656420717565727920666f72206e6f6e657860008301527f697374656e7420746f6b656e00000000000000000000000000000000000000006020830152604082019050919050565b6000614c466020836155eb565b91507f4f776e61626c653a2063616c6c6572206973206e6f7420746865206f776e65726000830152602082019050919050565b6000614c866029836155eb565b91507f4552433732313a207472616e73666572206f6620746f6b656e2074686174206960008301527f73206e6f74206f776e00000000000000000000000000000000000000000000006020830152604082019050919050565b6000614cec602f836155eb565b91507f4552433732314d657461646174613a2055524920717565727920666f72206e6f60008301527f6e6578697374656e7420746f6b656e00000000000000000000000000000000006020830152604082019050919050565b6000614d526021836155eb565b91507f4552433732313a20617070726f76616c20746f2063757272656e74206f776e6560008301527f72000000000000000000000000000000000000000000000000000000000000006020830152604082019050919050565b6000614db86031836155eb565b91507f4552433732313a207472616e736665722063616c6c6572206973206e6f74206f60008301527f776e6572206e6f7220617070726f7665640000000000000000000000000000006020830152604082019050919050565b6000614e1e6019836155eb565b91507f696e707574206c656e677468206d7573742062652073616d65000000000000006000830152602082019050919050565b6000614e5e6030836155eb565b91507f4552433732314275726e61626c653a2063616c6c6572206973206e6f74206f7760008301527f6e6572206e6f7220617070726f766564000000000000000000000000000000006020830152604082019050919050565b6000614ec46001836155fc565b91507f2f000000000000000000000000000000000000000000000000000000000000006000830152600182019050919050565b614f00816157d6565b82525050565b614f0f816157d6565b82525050565b6000614f2182846144e1565b60148201915081905092915050565b6000614f3c828561468c565b9150614f48828461468c565b91508190509392505050565b6000614f60828761468c565b9150614f6c828661468c565b9150614f7782614eb7565b9150614f83828561468c565b9150614f8e82614eb7565b9150614f9a828461468c565b915081905095945050505050565b6000614fb38261493b565b9150614fbf8284614622565b915081905092915050565b6000614fd5826149bb565b9150614fe182846145d2565b60208201915081905092915050565b600060208201905061500560008301846144d2565b92915050565b600060808201905061502060008301876144d2565b61502d60208301866144d2565b61503a6040830185614f06565b818103606083015261504c81846145e9565b905095945050505050565b6000602082019050818103600083015261507181846144f8565b905092915050565b600060208201905081810360008301526150938184614556565b905092915050565b60006020820190506150b060008301846145b4565b92915050565b60006020820190506150cb60008301846145c3565b92915050565b600060208201905081810360008301526150eb8184614653565b905092915050565b6000602082019050818103600083015261510c816146bd565b9050919050565b6000602082019050818103600083015261512c81614723565b9050919050565b6000602082019050818103600083015261514c81614789565b9050919050565b6000602082019050818103600083015261516c816147ef565b9050919050565b6000602082019050818103600083015261518c8161482f565b9050919050565b600060208201905081810360008301526151ac81614895565b9050919050565b600060208201905081810360008301526151cc816148d5565b9050919050565b600060208201905081810360008301526151ec8161497b565b9050919050565b6000602082019050818103600083015261520c816149fb565b9050919050565b6000602082019050818103600083015261522c81614a61565b9050919050565b6000602082019050818103600083015261524c81614ac7565b9050919050565b6000602082019050818103600083015261526c81614b2d565b9050919050565b6000602082019050818103600083015261528c81614b93565b9050919050565b600060208201905081810360008301526152ac81614bd3565b9050919050565b600060208201905081810360008301526152cc81614c39565b9050919050565b600060208201905081810360008301526152ec81614c79565b9050919050565b6000602082019050818103600083015261530c81614cdf565b9050919050565b6000602082019050818103600083015261532c81614d45565b9050919050565b6000602082019050818103600083015261534c81614dab565b9050919050565b6000602082019050818103600083015261536c81614e11565b9050919050565b6000602082019050818103600083015261538c81614e51565b9050919050565b60006020820190506153a86000830184614f06565b92915050565b6000604051905081810181811067ffffffffffffffff821117156153d5576153d46159c0565b5b8060405250919050565b600067ffffffffffffffff8211156153fa576153f96159c0565b5b602082029050602081019050919050565b600067ffffffffffffffff821115615426576154256159c0565b5b602082029050602081019050919050565b600067ffffffffffffffff821115615452576154516159c0565b5b602082029050602081019050919050565b600067ffffffffffffffff82111561547e5761547d6159c0565b5b602082029050602081019050919050565b600067ffffffffffffffff8211156154aa576154a96159c0565b5b602082029050602081019050919050565b600067ffffffffffffffff8211156154d6576154d56159c0565b5b602082029050602081019050919050565b600067ffffffffffffffff821115615502576155016159c0565b5b601f19601f8301169050602081019050919050565b600067ffffffffffffffff821115615532576155316159c0565b5b601f19601f8301169050602081019050919050565b6000819050602082019050919050565b6000819050602082019050919050565b600081519050919050565b600081519050919050565b600081519050919050565b600081519050919050565b6000602082019050919050565b6000602082019050919050565b600082825260208201905092915050565b600082825260208201905092915050565b600082825260208201905092915050565b600081905092915050565b600082825260208201905092915050565b600081905092915050565b6000615612826157d6565b915061561d836157d6565b9250827fffffffffffffffffffffffffffffffffffffffffffffffffffffffffffffffff0382111561565257615651615933565b5b828201905092915050565b6000615668826157d6565b9150615673836157d6565b92508261568357615682615962565b5b828204905092915050565b6000615699826157d6565b91506156a4836157d6565b9250817fffffffffffffffffffffffffffffffffffffffffffffffffffffffffffffffff04831182151516156156dd576156dc615933565b5b828202905092915050565b60006156f3826157d6565b91506156fe836157d6565b92508282101561571157615710615933565b5b828203905092915050565b6000615727826157e0565b9150615732836157e0565b92508282101561574557615744615933565b5b828203905092915050565b600061575b826157b6565b9050919050565b600061576d826157b6565b9050919050565b60008115159050919050565b6000819050919050565b60007fffffffff0000000000000000000000000000000000000000000000000000000082169050919050565b600073ffffffffffffffffffffffffffffffffffffffff82169050919050565b6000819050919050565b600060ff82169050919050565b82818337600083830152505050565b60005b8381101561581a5780820151818401526020810190506157ff565b83811115615829576000848401525b50505050565b6000600282049050600182168061584757607f821691505b6020821081141561585b5761585a615991565b5b50919050565b600061586c826157d6565b91507fffffffffffffffffffffffffffffffffffffffffffffffffffffffffffffffff82141561589f5761589e615933565b5b600182019050919050565b60006158b5826157e0565b915060ff8214156158c9576158c8615933565b5b600182019050919050565b60006158df826158f0565b9050919050565b6000819050919050565b60006158fb82615a00565b9050919050565b600061590d826157d6565b9150615918836157d6565b92508261592857615927615962565b5b828206905092915050565b7f4e487b7100000000000000000000000000000000000000000000000000000000600052601160045260246000fd5b7f4e487b7100000000000000000000000000000000000000000000000000000000600052601260045260246000fd5b7f4e487b7100000000000000000000000000000000000000000000000000000000600052602260045260246000fd5b7f4e487b7100000000000000000000000000000000000000000000000000000000600052604160045260246000fd5b6000601f19601f8301169050919050565b60008160601b9050919050565b615a1681615750565b8114615a2157600080fd5b50565b615a2d81615762565b8114615a3857600080fd5b50565b615a4481615774565b8114615a4f57600080fd5b50565b615a5b81615780565b8114615a6657600080fd5b50565b615a728161578a565b8114615a7d57600080fd5b50565b615a89816157d6565b8114615a9457600080fd5b5056fe68747470733a2f2f666163746f72792e63686f636f6d696e742e6170702f6d657461646174612f31323334353637383941424344454647484a4b4c4d4e505152535455565758595a6162636465666768696a6b6d6e6f707172737475767778797aa264697066735822122071d069abc62399ee44981a62682dec0d5229cc6840a6872849876889e3e67ee764736f6c63430008000033",
  "linkReferences": {},
  "deployedLinkReferences": {}
}