{
  "contractName": "CreateAndAddExtension",
  "abi": [
    {
      "constant": false,
      "inputs": [
        {
          "name": "extension",
          "type": "address"
        }
      ],
      "name": "addExtension",
      "outputs": [],
      "payable": false,
      "stateMutability": "nonpayable",
      "type": "function"
    },
    {
      "constant": false,
      "inputs": [
        {
          "name": "proxyFactory",
          "type": "address"
        },
        {
          "name": "data",
          "type": "bytes"
        }
      ],
      "name": "createAndAddExtension",
      "outputs": [],
      "payable": false,
      "stateMutability": "nonpayable",
      "type": "function"
    }
  ],
  "bytecode": "0x6060604052341561000f57600080fd5b61023f8061001e6000396000f30060606040526004361061004c576000357c0100000000000000000000000000000000000000000000000000000000900463ffffffff168063170ff3e11461005157806324aae6941461008a575b600080fd5b341561005c57600080fd5b610088600480803573ffffffffffffffffffffffffffffffffffffffff16906020019091905050610106565b005b341561009557600080fd5b610104600480803573ffffffffffffffffffffffffffffffffffffffff1690602001909190803590602001908201803590602001908080601f0160208091040260200160405190810160405280939291908181526020018383808284378201915050505050509190505061010b565b005b600080fd5b600061011783836101cc565b90503073ffffffffffffffffffffffffffffffffffffffff1663170ff3e1826040518263ffffffff167c0100000000000000000000000000000000000000000000000000000000028152600401808273ffffffffffffffffffffffffffffffffffffffff1673ffffffffffffffffffffffffffffffffffffffff168152602001915050600060405180830381600087803b15156101b357600080fd5b6102c65a03f115156101c457600080fd5b505050505050565b600060405160208184516020860187600019f4600081146101ec576101f1565b600080fd5b5073ffffffffffffffffffffffffffffffffffffffff815116915050929150505600a165627a7a723058208120395f85344344c66227841e7bb657a31240594ca20234664dc785131ecbcd0029",
  "source": "pragma solidity 0.4.19;\nimport \"../Extension.sol\";\n\n\n/// @title Create and Add Extension - Allows to create and add a new extension in one transaction.\n/// @author Stefan George - <stefan@gnosis.pm>\ncontract CreateAndAddExtension {\n\n    /// @dev Function required to compile contract. Gnosis Safe function is called instead.\n    /// @param extension Not used.\n    function addExtension(Extension extension)\n        public\n    {\n        revert();\n    }\n\n    /// @dev Allows to create and add a new extension in one transaction.\n    /// @param proxyFactory Extension factory contract.\n    /// @param data Extension constructor payload.\n    function createAndAddExtension(address proxyFactory, bytes data)\n        public\n    {\n        Extension extension = createExtension(proxyFactory, data);\n        this.addExtension(extension);\n    }\n\n    function createExtension(address proxyFactory, bytes data)\n        internal\n        returns (Extension extension)\n    {\n        assembly {\n            let output := mload(0x40)\n            switch delegatecall(not(0), proxyFactory, add(data, 0x20), mload(data), output, 0x20)\n            case 0 { revert(0, 0) }\n            extension := and(mload(output), 0xffffffffffffffffffffffffffffffffffffffff)\n        }\n    }\n}\n",
  "sourcePath": "/Users/apanizo/git/gnosis/safe-contracts/contracts/libraries/CreateAndAddExtension.sol",
  "compiler": {
    "name": "solc",
    "version": "0.4.19+commit.c4cbbb05.Emscripten.clang"
  },
  "schemaVersion": "2.0.0",
  "updatedAt": "2018-05-04T13:47:03.968Z"
}