{
  "contractName": "CreateAndAddModule",
  "abi": [
    {
      "constant": false,
      "inputs": [
        {
          "name": "module",
          "type": "address"
        }
      ],
      "name": "addModule",
      "outputs": [],
      "payable": false,
      "stateMutability": "nonpayable",
      "type": "function"
    },
    {
      "constant": false,
      "inputs": [
        {
          "name": "proxyFactory",
          "type": "address"
        },
        {
          "name": "data",
          "type": "bytes"
        }
      ],
      "name": "createAndAddModule",
      "outputs": [],
      "payable": false,
      "stateMutability": "nonpayable",
      "type": "function"
    }
  ],
  "bytecode": "0x608060405234801561001057600080fd5b50610253806100206000396000f30060806040526004361061004c576000357c0100000000000000000000000000000000000000000000000000000000900463ffffffff1680631ed86f1914610051578063250ad41214610094575b600080fd5b34801561005d57600080fd5b50610092600480360381019080803573ffffffffffffffffffffffffffffffffffffffff16906020019092919050505061011d565b005b3480156100a057600080fd5b5061011b600480360381019080803573ffffffffffffffffffffffffffffffffffffffff169060200190929190803590602001908201803590602001908080601f0160208091040260200160405190810160405280939291908181526020018383808284378201915050505050509192919290505050610122565b005b600080fd5b600061012e83836101e8565b90503073ffffffffffffffffffffffffffffffffffffffff16631ed86f19826040518263ffffffff167c0100000000000000000000000000000000000000000000000000000000028152600401808273ffffffffffffffffffffffffffffffffffffffff1673ffffffffffffffffffffffffffffffffffffffff168152602001915050600060405180830381600087803b1580156101cb57600080fd5b505af11580156101df573d6000803e3d6000fd5b50505050505050565b60006040516000602082855160208701885af4141561020657600080fd5b73ffffffffffffffffffffffffffffffffffffffff815116915050929150505600a165627a7a72305820a69aa3f8b7eccb408d63a4c5990d1f9082b38369bf3c801ed918bfa3abd34d320029",
  "source": "pragma solidity 0.4.23;\nimport \"../Module.sol\";\n\n\n/// @title Create and Add Module - Allows to create and add a new module in one transaction.\n/// @author Stefan George - <stefan@gnosis.pm>\ncontract CreateAndAddModule {\n\n    /// @dev Function required to compile contract. Gnosis Safe function is called instead.\n    /// @param module Not used.\n    function addModule(Module module)\n        public\n    {\n        revert();\n    }\n\n    /// @dev Allows to create and add a new module in one transaction.\n    /// @param proxyFactory Module proxy factory contract.\n    /// @param data Module constructor payload.\n    function createAndAddModule(address proxyFactory, bytes data)\n        public\n    {\n        Module module = createModule(proxyFactory, data);\n        this.addModule(module);\n    }\n\n    function createModule(address proxyFactory, bytes data)\n        internal\n        returns (Module module)\n    {\n        // solium-disable-next-line security/no-inline-assembly\n        assembly {\n            let output := mload(0x40)\n            if eq(delegatecall(gas, proxyFactory, add(data, 0x20), mload(data), output, 0x20), 0) { revert(0, 0) }\n            module := and(mload(output), 0xffffffffffffffffffffffffffffffffffffffff)\n        }\n    }\n}\n",
  "sourcePath": "/Users/apanizo/git/gnosis/safe-contracts/contracts/libraries/CreateAndAddModule.sol",
  "compiler": {
    "name": "solc",
    "version": "0.4.23+commit.124ca40d.Emscripten.clang"
  },
  "schemaVersion": "2.0.0",
  "updatedAt": "2018-05-10T11:07:04.706Z"
}