{
  "contractName": "DailyLimitModule",
  "abi": [
    {
      "constant": true,
      "inputs": [],
      "name": "manager",
      "outputs": [
        {
          "name": "",
          "type": "address"
        }
      ],
      "payable": false,
      "stateMutability": "view",
      "type": "function"
    },
    {
      "constant": false,
      "inputs": [
        {
          "name": "_masterCopy",
          "type": "address"
        }
      ],
      "name": "changeMasterCopy",
      "outputs": [],
      "payable": false,
      "stateMutability": "nonpayable",
      "type": "function"
    },
    {
      "constant": true,
      "inputs": [],
      "name": "NAME",
      "outputs": [
        {
          "name": "",
          "type": "string"
        }
      ],
      "payable": false,
      "stateMutability": "view",
      "type": "function"
    },
    {
      "constant": true,
      "inputs": [
        {
          "name": "",
          "type": "address"
        }
      ],
      "name": "dailyLimits",
      "outputs": [
        {
          "name": "dailyLimit",
          "type": "uint256"
        },
        {
          "name": "spentToday",
          "type": "uint256"
        },
        {
          "name": "lastDay",
          "type": "uint256"
        }
      ],
      "payable": false,
      "stateMutability": "view",
      "type": "function"
    },
    {
      "constant": true,
      "inputs": [],
      "name": "VERSION",
      "outputs": [
        {
          "name": "",
          "type": "string"
        }
      ],
      "payable": false,
      "stateMutability": "view",
      "type": "function"
    },
    {
      "constant": false,
      "inputs": [
        {
          "name": "tokens",
          "type": "address[]"
        },
        {
          "name": "_dailyLimits",
          "type": "uint256[]"
        }
      ],
      "name": "setup",
      "outputs": [],
      "payable": false,
      "stateMutability": "nonpayable",
      "type": "function"
    },
    {
      "constant": false,
      "inputs": [
        {
          "name": "token",
          "type": "address"
        },
        {
          "name": "dailyLimit",
          "type": "uint256"
        }
      ],
      "name": "changeDailyLimit",
      "outputs": [],
      "payable": false,
      "stateMutability": "nonpayable",
      "type": "function"
    },
    {
      "constant": false,
      "inputs": [
        {
          "name": "token",
          "type": "address"
        },
        {
          "name": "to",
          "type": "address"
        },
        {
          "name": "amount",
          "type": "uint256"
        }
      ],
      "name": "executeDailyLimit",
      "outputs": [],
      "payable": false,
      "stateMutability": "nonpayable",
      "type": "function"
    },
    {
      "constant": true,
      "inputs": [],
      "name": "today",
      "outputs": [
        {
          "name": "",
          "type": "uint256"
        }
      ],
      "payable": false,
      "stateMutability": "view",
      "type": "function"
    }
  ],
  "bytecode": "0x608060405234801561001057600080fd5b5061129b806100206000396000f300608060405260043610610099576000357c0100000000000000000000000000000000000000000000000000000000900463ffffffff16806328814f031461009e578063481c6a751461014757806363bae7c31461019e5780637de7edef1461020b57806381c5e03b1461024e578063a3f4df7e1461029b578063b74e452b1461032b578063d7bffc9214610356578063ffa1ad74146103bb575b600080fd5b3480156100aa57600080fd5b50610145600480360381019080803590602001908201803590602001908080602002602001604051908101604052809392919081815260200183836020028082843782019150505050505091929192908035906020019082018035906020019080806020026020016040519081016040528093929190818152602001838360200280828437820191505050505050919291929050505061044b565b005b34801561015357600080fd5b5061015c6104ea565b604051808273ffffffffffffffffffffffffffffffffffffffff1673ffffffffffffffffffffffffffffffffffffffff16815260200191505060405180910390f35b3480156101aa57600080fd5b50610209600480360381019080803573ffffffffffffffffffffffffffffffffffffffff169060200190929190803573ffffffffffffffffffffffffffffffffffffffff16906020019092919080359060200190929190505050610510565b005b34801561021757600080fd5b5061024c600480360381019080803573ffffffffffffffffffffffffffffffffffffffff169060200190929190505050610d00565b005b34801561025a57600080fd5b50610299600480360381019080803573ffffffffffffffffffffffffffffffffffffffff16906020019092919080359060200190929190505050610ee3565b005b3480156102a757600080fd5b506102b0611019565b6040518080602001828103825283818151815260200191508051906020019080838360005b838110156102f05780820151818401526020810190506102d5565b50505050905090810190601f16801561031d5780820380516001836020036101000a031916815260200191505b509250505060405180910390f35b34801561033757600080fd5b50610340611052565b6040518082815260200191505060405180910390f35b34801561036257600080fd5b50610397600480360381019080803573ffffffffffffffffffffffffffffffffffffffff16906020019092919050505061106a565b60405180848152602001838152602001828152602001935050505060405180910390f35b3480156103c757600080fd5b506103d0611094565b6040518080602001828103825283818151815260200191508051906020019080838360005b838110156104105780820151818401526020810190506103f5565b50505050905090810190601f16801561043d5780820380516001836020036101000a031916815260200191505b509250505060405180910390f35b60006104556110cd565b600090505b82518110156104e557818181518110151561047157fe5b9060200190602002015160026000858481518110151561048d57fe5b9060200190602002015173ffffffffffffffffffffffffffffffffffffffff1673ffffffffffffffffffffffffffffffffffffffff16815260200190815260200160002060000181905550808060010191505061045a565b505050565b600160009054906101000a900473ffffffffffffffffffffffffffffffffffffffff1681565b6060600160009054906101000a900473ffffffffffffffffffffffffffffffffffffffff1673ffffffffffffffffffffffffffffffffffffffff16632f54bf6e336040518263ffffffff167c0100000000000000000000000000000000000000000000000000000000028152600401808273ffffffffffffffffffffffffffffffffffffffff1673ffffffffffffffffffffffffffffffffffffffff168152602001915050602060405180830381600087803b1580156105cf57600080fd5b505af11580156105e3573d6000803e3d6000fd5b505050506040513d60208110156105f957600080fd5b810190808051906020019092919050505015156106a4576040517f08c379a00000000000000000000000000000000000000000000000000000000081526004018080602001828103825260258152602001807f4d6574686f642063616e206f6e6c792062652063616c6c656420627920616e2081526020017f6f776e657200000000000000000000000000000000000000000000000000000081525060400191505060405180910390fd5b60008373ffffffffffffffffffffffffffffffffffffffff1614151515610733576040517f08c379a000000000000000000000000000000000000000000000000000000000815260040180806020018281038252601b8152602001807f496e76616c696420746f20616464726573732070726f7669646564000000000081525060200191505060405180910390fd5b6000821115156107ab576040517f08c379a00000000000000000000000000000000000000000000000000000000081526004018080602001828103825260178152602001807f496e76616c696420616d6f756e742070726f766964656400000000000000000081525060200191505060405180910390fd5b6107b584836111c0565b1515610829576040517f08c379a000000000000000000000000000000000000000000000000000000000815260040180806020018281038252601c8152602001807f4461696c79206c696d697420686173206265656e20726561636865640000000081525060200191505060405180910390fd5b81600260008673ffffffffffffffffffffffffffffffffffffffff1673ffffffffffffffffffffffffffffffffffffffff1681526020019081526020016000206001016000828254019250508190555060008473ffffffffffffffffffffffffffffffffffffffff161415610a3c57600160009054906101000a900473ffffffffffffffffffffffffffffffffffffffff1673ffffffffffffffffffffffffffffffffffffffff1663468721a7848460006040518463ffffffff167c0100000000000000000000000000000000000000000000000000000000028152600401808473ffffffffffffffffffffffffffffffffffffffff1673ffffffffffffffffffffffffffffffffffffffff1681526020018381526020018060200183600281111561095157fe5b60ff168152602001828103825260008152602001602001945050505050602060405180830381600087803b15801561098857600080fd5b505af115801561099c573d6000803e3d6000fd5b505050506040513d60208110156109b257600080fd5b81019080805190602001909291905050501515610a37576040517f08c379a00000000000000000000000000000000000000000000000000000000081526004018080602001828103825260208152602001807f436f756c64206e6f742065786563757465206574686572207472616e7366657281525060200191505060405180910390fd5b610cfa565b8282604051602401808373ffffffffffffffffffffffffffffffffffffffff1673ffffffffffffffffffffffffffffffffffffffff168152602001828152602001925050506040516020818303038152906040527fa9059cbb000000000000000000000000000000000000000000000000000000007bffffffffffffffffffffffffffffffffffffffffffffffffffffffff19166020820180517bffffffffffffffffffffffffffffffffffffffffffffffffffffffff83818316178352505050509050600160009054906101000a900473ffffffffffffffffffffffffffffffffffffffff1673ffffffffffffffffffffffffffffffffffffffff1663468721a78560008460006040518563ffffffff167c0100000000000000000000000000000000000000000000000000000000028152600401808573ffffffffffffffffffffffffffffffffffffffff1673ffffffffffffffffffffffffffffffffffffffff16815260200184815260200180602001836002811115610bbb57fe5b60ff168152602001828103825284818151815260200191508051906020019080838360005b83811015610bfb578082015181840152602081019050610be0565b50505050905090810190601f168015610c285780820380516001836020036101000a031916815260200191505b5095505050505050602060405180830381600087803b158015610c4a57600080fd5b505af1158015610c5e573d6000803e3d6000fd5b505050506040513d6020811015610c7457600080fd5b81019080805190602001909291905050501515610cf9576040517f08c379a00000000000000000000000000000000000000000000000000000000081526004018080602001828103825260208152602001807f436f756c64206e6f74206578656375746520746f6b656e207472616e7366657281525060200191505060405180910390fd5b5b50505050565b600160009054906101000a900473ffffffffffffffffffffffffffffffffffffffff1673ffffffffffffffffffffffffffffffffffffffff163373ffffffffffffffffffffffffffffffffffffffff16141515610deb576040517f08c379a00000000000000000000000000000000000000000000000000000000081526004018080602001828103825260268152602001807f4d6574686f642063616e206f6e6c792062652063616c6c65642066726f6d206d81526020017f616e61676572000000000000000000000000000000000000000000000000000081525060400191505060405180910390fd5b60008173ffffffffffffffffffffffffffffffffffffffff1614151515610ea0576040517f08c379a00000000000000000000000000000000000000000000000000000000081526004018080602001828103825260248152602001807f496e76616c6964206d617374657220636f707920616464726573732070726f7681526020017f696465640000000000000000000000000000000000000000000000000000000081525060400191505060405180910390fd5b806000806101000a81548173ffffffffffffffffffffffffffffffffffffffff021916908373ffffffffffffffffffffffffffffffffffffffff16021790555050565b600160009054906101000a900473ffffffffffffffffffffffffffffffffffffffff1673ffffffffffffffffffffffffffffffffffffffff163373ffffffffffffffffffffffffffffffffffffffff16141515610fce576040517f08c379a00000000000000000000000000000000000000000000000000000000081526004018080602001828103825260268152602001807f4d6574686f642063616e206f6e6c792062652063616c6c65642066726f6d206d81526020017f616e61676572000000000000000000000000000000000000000000000000000081525060400191505060405180910390fd5b80600260008473ffffffffffffffffffffffffffffffffffffffff1673ffffffffffffffffffffffffffffffffffffffff168152602001908152602001600020600001819055505050565b6040805190810160405280601281526020017f4461696c79204c696d6974204d6f64756c65000000000000000000000000000081525081565b6000620151804281151561106257fe5b064203905090565b60026020528060005260406000206000915090508060000154908060010154908060020154905083565b6040805190810160405280600581526020017f302e302e3200000000000000000000000000000000000000000000000000000081525081565b6000600160009054906101000a900473ffffffffffffffffffffffffffffffffffffffff1673ffffffffffffffffffffffffffffffffffffffff1614151561117d576040517f08c379a000000000000000000000000000000000000000000000000000000000815260040180806020018281038252601c8152602001807f4d616e616765722068617320616c7265616479206265656e207365740000000081525060200191505060405180910390fd5b33600160006101000a81548173ffffffffffffffffffffffffffffffffffffffff021916908373ffffffffffffffffffffffffffffffffffffffff160217905550565b600080600260008573ffffffffffffffffffffffffffffffffffffffff1673ffffffffffffffffffffffffffffffffffffffff16815260200190815260200160002090508060020154611211611052565b11156112325761121f611052565b8160020181905550600081600101819055505b806000015483826001015401111580156112555750806001015483826001015401115b156112635760019150611268565b600091505b50929150505600a165627a7a72305820c9fff2d2f4e7a988305f955b24a67b14ce9f8eb1e561d62a099c2c918f82fd300029",
  "source": "pragma solidity 0.4.24;\nimport \"../base/Module.sol\";\nimport \"../base/ModuleManager.sol\";\nimport \"../base/OwnerManager.sol\";\nimport \"../common/Enum.sol\";\n\n\n/// @title Daily Limit Module - Allows to transfer limited amounts of ERC20 tokens and Ether without confirmations.\n/// @author Stefan George - <stefan@gnosis.pm>\ncontract DailyLimitModule is Module {\n\n    string public constant NAME = \"Daily Limit Module\";\n    string public constant VERSION = \"0.0.2\";\n\n    // dailyLimits mapping maps token address to daily limit settings.\n    mapping (address => DailyLimit) public dailyLimits;\n\n    struct DailyLimit {\n        uint256 dailyLimit;\n        uint256 spentToday;\n        uint256 lastDay;\n    }\n\n    /// @dev Setup function sets initial storage of contract.\n    /// @param tokens List of token addresses. Ether is represented with address 0x0.\n    /// @param _dailyLimits List of daily limits in smalles units (e.g. Wei for Ether).\n    function setup(address[] tokens, uint256[] _dailyLimits)\n        public\n    {\n        setManager();\n        for (uint256 i = 0; i < tokens.length; i++)\n            dailyLimits[tokens[i]].dailyLimit = _dailyLimits[i];\n    }\n\n    /// @dev Allows to update the daily limit for a specified token. This can only be done via a Safe transaction.\n    /// @param token Token contract address.\n    /// @param dailyLimit Daily limit in smallest token unit.\n    function changeDailyLimit(address token, uint256 dailyLimit)\n        public\n        authorized\n    {\n        dailyLimits[token].dailyLimit = dailyLimit;\n    }\n\n    /// @dev Returns if Safe transaction is a valid daily limit transaction.\n    /// @param token Address of the token that should be transfered (0 for Ether)\n    /// @param to Address to which the tokens should be transfered\n    /// @param amount Amount of tokens (or Ether) that should be transfered\n    /// @return Returns if transaction can be executed.\n    function executeDailyLimit(address token, address to, uint256 amount)\n        public\n    {\n        // Only Safe owners are allowed to execute daily limit transactions.\n        require(OwnerManager(manager).isOwner(msg.sender), \"Method can only be called by an owner\");\n        require(to != 0, \"Invalid to address provided\");\n        require(amount > 0, \"Invalid amount provided\");\n        // Validate that transfer is not exceeding daily limit.\n        require(isUnderLimit(token, amount), \"Daily limit has been reached\");\n        dailyLimits[token].spentToday += amount;\n        if (token == 0) {\n            require(manager.execTransactionFromModule(to, amount, \"\", Enum.Operation.Call), \"Could not execute ether transfer\");\n        } else {\n            bytes memory data = abi.encodeWithSignature(\"transfer(address,uint256)\", to, amount);\n            require(manager.execTransactionFromModule(token, 0, data, Enum.Operation.Call), \"Could not execute token transfer\");\n        }\n    }\n\n    function isUnderLimit(address token, uint256 amount)\n        internal\n        returns (bool)\n    {\n        DailyLimit storage dailyLimit = dailyLimits[token];\n        if (today() > dailyLimit.lastDay) {\n            dailyLimit.lastDay = today();\n            dailyLimit.spentToday = 0;\n        }\n        if (dailyLimit.spentToday + amount <= dailyLimit.dailyLimit && \n            dailyLimit.spentToday + amount > dailyLimit.spentToday)\n            return true;\n        return false;\n    }\n\n    /// @dev Returns last midnight as Unix timestamp.\n    /// @return Unix timestamp.\n    function today()\n        public\n        view\n        returns (uint)\n    {\n        return now - (now % 1 days);\n    }\n}\n",
  "sourcePath": "/Users/apanizo/git/gnosis/safe-contracts/contracts/modules/DailyLimitModule.sol",
  "compiler": {
    "name": "solc",
    "version": "0.4.24+commit.e67f0147.Emscripten.clang"
  },
  "schemaVersion": "2.0.0",
  "updatedAt": "2018-09-26T08:56:03.722Z"
}