{
  "contractName": "DailyLimitModule",
  "abi": [
    {
      "constant": true,
      "inputs": [],
      "name": "TRANSFER_FUNCTION_IDENTIFIER",
      "outputs": [
        {
          "name": "",
          "type": "bytes4"
        }
      ],
      "payable": false,
      "stateMutability": "view",
      "type": "function"
    },
    {
      "constant": true,
      "inputs": [],
      "name": "manager",
      "outputs": [
        {
          "name": "",
          "type": "address"
        }
      ],
      "payable": false,
      "stateMutability": "view",
      "type": "function"
    },
    {
      "constant": false,
      "inputs": [
        {
          "name": "_masterCopy",
          "type": "address"
        }
      ],
      "name": "changeMasterCopy",
      "outputs": [],
      "payable": false,
      "stateMutability": "nonpayable",
      "type": "function"
    },
    {
      "constant": true,
      "inputs": [],
      "name": "NAME",
      "outputs": [
        {
          "name": "",
          "type": "string"
        }
      ],
      "payable": false,
      "stateMutability": "view",
      "type": "function"
    },
    {
      "constant": true,
      "inputs": [
        {
          "name": "",
          "type": "address"
        }
      ],
      "name": "dailyLimits",
      "outputs": [
        {
          "name": "dailyLimit",
          "type": "uint256"
        },
        {
          "name": "spentToday",
          "type": "uint256"
        },
        {
          "name": "lastDay",
          "type": "uint256"
        }
      ],
      "payable": false,
      "stateMutability": "view",
      "type": "function"
    },
    {
      "constant": true,
      "inputs": [],
      "name": "VERSION",
      "outputs": [
        {
          "name": "",
          "type": "string"
        }
      ],
      "payable": false,
      "stateMutability": "view",
      "type": "function"
    },
    {
      "constant": false,
      "inputs": [
        {
          "name": "tokens",
          "type": "address[]"
        },
        {
          "name": "_dailyLimits",
          "type": "uint256[]"
        }
      ],
      "name": "setup",
      "outputs": [],
      "payable": false,
      "stateMutability": "nonpayable",
      "type": "function"
    },
    {
      "constant": false,
      "inputs": [
        {
          "name": "token",
          "type": "address"
        },
        {
          "name": "dailyLimit",
          "type": "uint256"
        }
      ],
      "name": "changeDailyLimit",
      "outputs": [],
      "payable": false,
      "stateMutability": "nonpayable",
      "type": "function"
    },
    {
      "constant": false,
      "inputs": [
        {
          "name": "to",
          "type": "address"
        },
        {
          "name": "value",
          "type": "uint256"
        },
        {
          "name": "data",
          "type": "bytes"
        }
      ],
      "name": "executeDailyLimit",
      "outputs": [],
      "payable": false,
      "stateMutability": "nonpayable",
      "type": "function"
    },
    {
      "constant": true,
      "inputs": [],
      "name": "today",
      "outputs": [
        {
          "name": "",
          "type": "uint256"
        }
      ],
      "payable": false,
      "stateMutability": "view",
      "type": "function"
    }
  ],
  "bytecode": "0x608060405234801561001057600080fd5b50610d72806100206000396000f3006080604052600436106100a4576000357c0100000000000000000000000000000000000000000000000000000000900463ffffffff16806328814f03146100a9578063430e47f814610152578063481c6a75146101bb5780637de7edef1461021257806381c5e03b14610255578063a3f4df7e146102a2578063b74e452b14610332578063d7bffc921461035d578063fce7379a146103c2578063ffa1ad7414610455575b600080fd5b3480156100b557600080fd5b5061015060048036038101908080359060200190820180359060200190808060200260200160405190810160405280939291908181526020018383602002808284378201915050505050509192919290803590602001908201803590602001908080602002602001604051908101604052809392919081815260200183836020028082843782019150505050505091929192905050506104e5565b005b34801561015e57600080fd5b50610167610584565b60405180827bffffffffffffffffffffffffffffffffffffffffffffffffffffffff19167bffffffffffffffffffffffffffffffffffffffffffffffffffffffff1916815260200191505060405180910390f35b3480156101c757600080fd5b506101d06105a8565b604051808273ffffffffffffffffffffffffffffffffffffffff1673ffffffffffffffffffffffffffffffffffffffff16815260200191505060405180910390f35b34801561021e57600080fd5b50610253600480360381019080803573ffffffffffffffffffffffffffffffffffffffff1690602001909291905050506105ce565b005b34801561026157600080fd5b506102a0600480360381019080803573ffffffffffffffffffffffffffffffffffffffff16906020019092919080359060200190929190505050610693565b005b3480156102ae57600080fd5b506102b761073a565b6040518080602001828103825283818151815260200191508051906020019080838360005b838110156102f75780820151818401526020810190506102dc565b50505050905090810190601f1680156103245780820380516001836020036101000a031916815260200191505b509250505060405180910390f35b34801561033e57600080fd5b50610347610773565b6040518082815260200191505060405180910390f35b34801561036957600080fd5b5061039e600480360381019080803573ffffffffffffffffffffffffffffffffffffffff16906020019092919050505061078b565b60405180848152602001838152602001828152602001935050505060405180910390f35b3480156103ce57600080fd5b50610453600480360381019080803573ffffffffffffffffffffffffffffffffffffffff16906020019092919080359060200190929190803590602001908201803590602001908080601f01602080910402602001604051908101604052809392919081815260200183838082843782019150505050505091929192905050506107b5565b005b34801561046157600080fd5b5061046a6107c6565b6040518080602001828103825283818151815260200191508051906020019080838360005b838110156104aa57808201518184015260208101905061048f565b50505050905090810190601f1680156104d75780820380516001836020036101000a031916815260200191505b509250505060405180910390f35b60006104ef6107ff565b600090505b825181101561057f57818181518110151561050b57fe5b9060200190602002015160026000858481518110151561052757fe5b9060200190602002015173ffffffffffffffffffffffffffffffffffffffff1673ffffffffffffffffffffffffffffffffffffffff1681526020019081526020016000206000018190555080806001019150506104f4565b505050565b7fa9059cbb0000000000000000000000000000000000000000000000000000000081565b600160009054906101000a900473ffffffffffffffffffffffffffffffffffffffff1681565b600160009054906101000a900473ffffffffffffffffffffffffffffffffffffffff1673ffffffffffffffffffffffffffffffffffffffff163373ffffffffffffffffffffffffffffffffffffffff1614151561062a57600080fd5b60008173ffffffffffffffffffffffffffffffffffffffff161415151561065057600080fd5b806000806101000a81548173ffffffffffffffffffffffffffffffffffffffff021916908373ffffffffffffffffffffffffffffffffffffffff16021790555050565b600160009054906101000a900473ffffffffffffffffffffffffffffffffffffffff1673ffffffffffffffffffffffffffffffffffffffff163373ffffffffffffffffffffffffffffffffffffffff161415156106ef57600080fd5b80600260008473ffffffffffffffffffffffffffffffffffffffff1673ffffffffffffffffffffffffffffffffffffffff168152602001908152602001600020600001819055505050565b6040805190810160405280601281526020017f4461696c79204c696d6974204d6f64756c65000000000000000000000000000081525081565b6000620151804281151561078357fe5b064203905090565b60026020528060005260406000206000915090508060000154908060010154908060020154905083565b6107c133848484610889565b505050565b6040805190810160405280600581526020017f302e302e3100000000000000000000000000000000000000000000000000000081525081565b6000600160009054906101000a900473ffffffffffffffffffffffffffffffffffffffff1673ffffffffffffffffffffffffffffffffffffffff1614151561084657600080fd5b33600160006101000a81548173ffffffffffffffffffffffffffffffffffffffff021916908373ffffffffffffffffffffffffffffffffffffffff160217905550565b600080600080600160009054906101000a900473ffffffffffffffffffffffffffffffffffffffff1673ffffffffffffffffffffffffffffffffffffffff16632f54bf6e896040518263ffffffff167c0100000000000000000000000000000000000000000000000000000000028152600401808273ffffffffffffffffffffffffffffffffffffffff1673ffffffffffffffffffffffffffffffffffffffff168152602001915050602060405180830381600087803b15801561094c57600080fd5b505af1158015610960573d6000803e3d6000fd5b505050506040513d602081101561097657600080fd5b8101908080519060200190929190505050151561099257600080fd5b600085511480156109a35750600086115b806109bb5750600085511180156109ba5750600086145b5b15156109c657600080fd5b6000855114156109df5760009350869250859150610a64565b8693506020850151905060248501519250604485015191507fa9059cbb000000000000000000000000000000000000000000000000000000007bffffffffffffffffffffffffffffffffffffffffffffffffffffffff1916817bffffffffffffffffffffffffffffffffffffffffffffffffffffffff1916141515610a6357600080fd5b5b60008373ffffffffffffffffffffffffffffffffffffffff1614151515610a8a57600080fd5b600082111515610a9957600080fd5b610aa38483610c97565b1515610aae57600080fd5b81600260008673ffffffffffffffffffffffffffffffffffffffff1673ffffffffffffffffffffffffffffffffffffffff16815260200190815260200160002060010160008282540192505081905550600160009054906101000a900473ffffffffffffffffffffffffffffffffffffffff1673ffffffffffffffffffffffffffffffffffffffff1663468721a788888860006040518563ffffffff167c0100000000000000000000000000000000000000000000000000000000028152600401808573ffffffffffffffffffffffffffffffffffffffff1673ffffffffffffffffffffffffffffffffffffffff16815260200184815260200180602001836002811115610bb857fe5b60ff168152602001828103825284818151815260200191508051906020019080838360005b83811015610bf8578082015181840152602081019050610bdd565b50505050905090810190601f168015610c255780820380516001836020036101000a031916815260200191505b5095505050505050602060405180830381600087803b158015610c4757600080fd5b505af1158015610c5b573d6000803e3d6000fd5b505050506040513d6020811015610c7157600080fd5b81019080805190602001909291905050501515610c8d57600080fd5b5050505050505050565b600080600260008573ffffffffffffffffffffffffffffffffffffffff1673ffffffffffffffffffffffffffffffffffffffff16815260200190815260200160002090508060020154610ce8610773565b1115610d0957610cf6610773565b8160020181905550600081600101819055505b80600001548382600101540111158015610d2c5750806001015483826001015401115b15610d3a5760019150610d3f565b600091505b50929150505600a165627a7a723058202b262db46605128446bbaae57646d72dc1cd47e08c0421acebf8b1657c881b990029",
  "source": "pragma solidity 0.4.23;\nimport \"../Module.sol\";\nimport \"../ModuleManager.sol\";\nimport \"../OwnerManager.sol\";\nimport \"../Enum.sol\";\n\n\n/// @title Daily Limit Module - Allows to transfer limited amounts of ERC20 tokens and Ether without confirmations.\n/// @author Stefan George - <stefan@gnosis.pm>\ncontract DailyLimitModule is Module {\n\n    string public constant NAME = \"Daily Limit Module\";\n    string public constant VERSION = \"0.0.1\";\n    bytes4 public constant TRANSFER_FUNCTION_IDENTIFIER = hex\"a9059cbb\";\n\n    // dailyLimits mapping maps token address to daily limit settings.\n    mapping (address => DailyLimit) public dailyLimits;\n\n    struct DailyLimit {\n        uint256 dailyLimit;\n        uint256 spentToday;\n        uint256 lastDay;\n    }\n\n    /// @dev Setup function sets initial storage of contract.\n    /// @param tokens List of token addresses. Ether is represented with address 0x0.\n    /// @param _dailyLimits List of daily limits in smalles units (e.g. Wei for Ether).\n    function setup(address[] tokens, uint256[] _dailyLimits)\n        public\n    {\n        setManager();\n        for (uint256 i = 0; i < tokens.length; i++)\n            dailyLimits[tokens[i]].dailyLimit = _dailyLimits[i];\n    }\n\n    /// @dev Allows to update the daily limit for a specified token. This can only be done via a Safe transaction.\n    /// @param token Token contract address.\n    /// @param dailyLimit Daily limit in smallest token unit.\n    function changeDailyLimit(address token, uint256 dailyLimit)\n        public\n        authorized\n    {\n        dailyLimits[token].dailyLimit = dailyLimit;\n    }\n\n    function executeInternal(address sender, address to, uint256 value, bytes data)\n        internal\n    {\n        // Only Safe owners are allowed to execute daily limit transactions.\n        require(OwnerManager(manager).isOwner(sender));\n        // Data has to encode a token transfer or has to be empty.\n        require(data.length == 0 && value > 0 || data.length > 0 && value == 0);\n        address token;\n        address receiver;\n        uint256 amount;\n        if (data.length == 0) {\n            token = 0;\n            receiver = to;\n            amount = value;\n        }\n        else {\n            token = to;\n            bytes4 functionIdentifier;\n            // solium-disable-next-line security/no-inline-assembly\n            assembly {\n                functionIdentifier := mload(add(data, 0x20))\n                receiver := mload(add(data, 0x24))\n                amount := mload(add(data, 0x44))\n            }\n            require(functionIdentifier == TRANSFER_FUNCTION_IDENTIFIER);\n        }\n        require(receiver != 0);\n        require(amount > 0);\n        // Validate that transfer is not exceeding daily limit.\n        require(isUnderLimit(token, amount));\n        dailyLimits[token].spentToday += amount;\n        require(manager.execTransactionFromModule(to, value, data, Enum.Operation.Call));\n    }\n\n    /// @dev Returns if Safe transaction is a valid daily limit transaction.\n    /// @param to Receiver address in case of Ether transfer, token address in case of a token transfer.\n    /// @param value Ether value in case of an Ether transfer.\n    /// @param data Encoded token transfer. Empty in case of Ether transfer.\n    /// @return Returns if transaction can be executed.\n    function executeDailyLimit(address to, uint256 value, bytes data)\n        public\n    {\n        executeInternal(msg.sender, to, value, data);\n    }\n\n    function isUnderLimit(address token, uint256 amount)\n        internal\n        returns (bool)\n    {\n        DailyLimit storage dailyLimit = dailyLimits[token];\n        if (today() > dailyLimit.lastDay) {\n            dailyLimit.lastDay = today();\n            dailyLimit.spentToday = 0;\n        }\n        if (   dailyLimit.spentToday + amount <= dailyLimit.dailyLimit\n            && dailyLimit.spentToday + amount > dailyLimit.spentToday)\n            return true;\n        return false;\n    }\n\n    /// @dev Returns last midnight as Unix timestamp.\n    /// @return Unix timestamp.\n    function today()\n        public\n        view\n        returns (uint)\n    {\n        return now - (now % 1 days);\n    }\n}\n",
  "sourcePath": "/Users/apanizo/git/gnosis/safe-contracts/contracts/modules/DailyLimitModule.sol",
  "compiler": {
    "name": "solc",
    "version": "0.4.23+commit.124ca40d.Emscripten.clang"
  },
  "schemaVersion": "2.0.0",
  "updatedAt": "2018-05-26T06:28:28.347Z"
}