{
  "contractName": "Executor",
  "abi": [
    {
      "constant": true,
      "inputs": [],
      "name": "NAME",
      "outputs": [
        {
          "name": "",
          "type": "string"
        }
      ],
      "payable": false,
      "stateMutability": "view",
      "type": "function"
    },
    {
      "constant": true,
      "inputs": [],
      "name": "VERSION",
      "outputs": [
        {
          "name": "",
          "type": "string"
        }
      ],
      "payable": false,
      "stateMutability": "view",
      "type": "function"
    },
    {
      "payable": true,
      "stateMutability": "payable",
      "type": "fallback"
    },
    {
      "anonymous": false,
      "inputs": [
        {
          "indexed": false,
          "name": "newContract",
          "type": "address"
        }
      ],
      "name": "ContractCreation",
      "type": "event"
    }
  ],
  "bytecode": "0x608060405234801561001057600080fd5b5061020c806100206000396000f30060806040526004361061004c576000357c0100000000000000000000000000000000000000000000000000000000900463ffffffff168063a3f4df7e1461004e578063ffa1ad74146100de575b005b34801561005a57600080fd5b5061006361016e565b6040518080602001828103825283818151815260200191508051906020019080838360005b838110156100a3578082015181840152602081019050610088565b50505050905090810190601f1680156100d05780820380516001836020036101000a031916815260200191505b509250505060405180910390f35b3480156100ea57600080fd5b506100f36101a7565b6040518080602001828103825283818151815260200191508051906020019080838360005b83811015610133578082015181840152602081019050610118565b50505050905090810190601f1680156101605780820380516001836020036101000a031916815260200191505b509250505060405180910390f35b6040805190810160405280600881526020017f4578656375746f7200000000000000000000000000000000000000000000000081525081565b6040805190810160405280600581526020017f302e302e31000000000000000000000000000000000000000000000000000000815250815600a165627a7a7230582092293e9246a4255b2851599879c24fc9479e6864c75aafeae58e8e9f2e031ac10029",
  "source": "pragma solidity 0.4.24;\nimport \"./Enum.sol\";\nimport \"./EtherPaymentFallback.sol\";\n\n\n/// @title Executor - A contract that can execute transactions\n/// @author Richard Meissner - <richard@gnosis.pm>\ncontract Executor is EtherPaymentFallback {\n\n    event ContractCreation(address newContract);\n\n    string public constant NAME = \"Executor\";\n    string public constant VERSION = \"0.0.1\";\n\n    function execute(address to, uint256 value, bytes data, Enum.Operation operation, uint256 txGas)\n        internal\n        returns (bool success)\n    {\n        if (operation == Enum.Operation.Call)\n            success = executeCall(to, value, data, txGas);\n        else if (operation == Enum.Operation.DelegateCall)\n            success = executeDelegateCall(to, data, txGas);\n        else {\n            address newContract = executeCreate(data);\n            success = newContract != 0;\n            emit ContractCreation(newContract);\n        }\n    }\n\n    function executeCall(address to, uint256 value, bytes data, uint256 txGas)\n        internal\n        returns (bool success)\n    {\n        // solium-disable-next-line security/no-inline-assembly\n        assembly {\n            success := call(txGas, to, value, add(data, 0x20), mload(data), 0, 0)\n        }\n    }\n\n    function executeDelegateCall(address to, bytes data, uint256 txGas)\n        internal\n        returns (bool success)\n    {\n        // solium-disable-next-line security/no-inline-assembly\n        assembly {\n            success := delegatecall(txGas, to, add(data, 0x20), mload(data), 0, 0)\n        }\n    }\n\n    function executeCreate(bytes data)\n        internal\n        returns (address newContract)\n    {\n        // solium-disable-next-line security/no-inline-assembly\n        assembly {\n            newContract := create(0, add(data, 0x20), mload(data))\n        }\n    }\n}\n",
  "sourcePath": "/Users/apanizo/git/gnosis/safe-contracts/contracts/Executor.sol",
  "compiler": {
    "name": "solc",
    "version": "0.4.24+commit.e67f0147.Emscripten.clang"
  },
  "schemaVersion": "2.0.0",
  "updatedAt": "2018-08-20T07:44:41.083Z"
}