{
  "contractName": "GnosisSafeTeamEdition",
  "abi": [
    {
      "constant": true,
      "inputs": [
        {
          "name": "",
          "type": "uint256"
        }
      ],
      "name": "owners",
      "outputs": [
        {
          "name": "",
          "type": "address"
        }
      ],
      "payable": false,
      "stateMutability": "view",
      "type": "function"
    },
    {
      "constant": false,
      "inputs": [
        {
          "name": "owner",
          "type": "address"
        },
        {
          "name": "_threshold",
          "type": "uint8"
        }
      ],
      "name": "addOwner",
      "outputs": [],
      "payable": false,
      "stateMutability": "nonpayable",
      "type": "function"
    },
    {
      "constant": false,
      "inputs": [
        {
          "name": "module",
          "type": "address"
        }
      ],
      "name": "addModule",
      "outputs": [],
      "payable": false,
      "stateMutability": "nonpayable",
      "type": "function"
    },
    {
      "constant": true,
      "inputs": [
        {
          "name": "owner",
          "type": "address"
        }
      ],
      "name": "isOwner",
      "outputs": [
        {
          "name": "",
          "type": "bool"
        }
      ],
      "payable": false,
      "stateMutability": "view",
      "type": "function"
    },
    {
      "constant": true,
      "inputs": [],
      "name": "threshold",
      "outputs": [
        {
          "name": "",
          "type": "uint8"
        }
      ],
      "payable": false,
      "stateMutability": "view",
      "type": "function"
    },
    {
      "constant": true,
      "inputs": [
        {
          "name": "",
          "type": "address"
        }
      ],
      "name": "isModule",
      "outputs": [
        {
          "name": "",
          "type": "bool"
        }
      ],
      "payable": false,
      "stateMutability": "view",
      "type": "function"
    },
    {
      "constant": false,
      "inputs": [
        {
          "name": "oldOwnerIndex",
          "type": "uint256"
        },
        {
          "name": "oldOwner",
          "type": "address"
        },
        {
          "name": "newOwner",
          "type": "address"
        }
      ],
      "name": "replaceOwner",
      "outputs": [],
      "payable": false,
      "stateMutability": "nonpayable",
      "type": "function"
    },
    {
      "constant": false,
      "inputs": [
        {
          "name": "moduleIndex",
          "type": "uint256"
        },
        {
          "name": "module",
          "type": "address"
        }
      ],
      "name": "removeModule",
      "outputs": [],
      "payable": false,
      "stateMutability": "nonpayable",
      "type": "function"
    },
    {
      "constant": false,
      "inputs": [
        {
          "name": "_masterCopy",
          "type": "address"
        }
      ],
      "name": "changeMasterCopy",
      "outputs": [],
      "payable": false,
      "stateMutability": "nonpayable",
      "type": "function"
    },
    {
      "constant": true,
      "inputs": [
        {
          "name": "",
          "type": "uint256"
        }
      ],
      "name": "modules",
      "outputs": [
        {
          "name": "",
          "type": "address"
        }
      ],
      "payable": false,
      "stateMutability": "view",
      "type": "function"
    },
    {
      "constant": false,
      "inputs": [
        {
          "name": "ownerIndex",
          "type": "uint256"
        },
        {
          "name": "owner",
          "type": "address"
        },
        {
          "name": "_threshold",
          "type": "uint8"
        }
      ],
      "name": "removeOwner",
      "outputs": [],
      "payable": false,
      "stateMutability": "nonpayable",
      "type": "function"
    },
    {
      "constant": false,
      "inputs": [
        {
          "name": "_owners",
          "type": "address[]"
        },
        {
          "name": "_threshold",
          "type": "uint8"
        },
        {
          "name": "to",
          "type": "address"
        },
        {
          "name": "data",
          "type": "bytes"
        }
      ],
      "name": "setup",
      "outputs": [],
      "payable": false,
      "stateMutability": "nonpayable",
      "type": "function"
    },
    {
      "constant": true,
      "inputs": [],
      "name": "getOwners",
      "outputs": [
        {
          "name": "",
          "type": "address[]"
        }
      ],
      "payable": false,
      "stateMutability": "view",
      "type": "function"
    },
    {
      "constant": true,
      "inputs": [],
      "name": "NAME",
      "outputs": [
        {
          "name": "",
          "type": "string"
        }
      ],
      "payable": false,
      "stateMutability": "view",
      "type": "function"
    },
    {
      "constant": false,
      "inputs": [
        {
          "name": "to",
          "type": "address"
        },
        {
          "name": "value",
          "type": "uint256"
        },
        {
          "name": "data",
          "type": "bytes"
        },
        {
          "name": "operation",
          "type": "uint8"
        }
      ],
      "name": "executeModule",
      "outputs": [
        {
          "name": "success",
          "type": "bool"
        }
      ],
      "payable": false,
      "stateMutability": "nonpayable",
      "type": "function"
    },
    {
      "constant": true,
      "inputs": [],
      "name": "getModules",
      "outputs": [
        {
          "name": "",
          "type": "address[]"
        }
      ],
      "payable": false,
      "stateMutability": "view",
      "type": "function"
    },
    {
      "constant": true,
      "inputs": [
        {
          "name": "",
          "type": "bytes32"
        },
        {
          "name": "",
          "type": "address"
        }
      ],
      "name": "isConfirmed",
      "outputs": [
        {
          "name": "",
          "type": "bool"
        }
      ],
      "payable": false,
      "stateMutability": "view",
      "type": "function"
    },
    {
      "constant": false,
      "inputs": [
        {
          "name": "_threshold",
          "type": "uint8"
        }
      ],
      "name": "changeThreshold",
      "outputs": [],
      "payable": false,
      "stateMutability": "nonpayable",
      "type": "function"
    },
    {
      "constant": true,
      "inputs": [
        {
          "name": "",
          "type": "bytes32"
        }
      ],
      "name": "isExecuted",
      "outputs": [
        {
          "name": "",
          "type": "bool"
        }
      ],
      "payable": false,
      "stateMutability": "view",
      "type": "function"
    },
    {
      "constant": true,
      "inputs": [],
      "name": "VERSION",
      "outputs": [
        {
          "name": "",
          "type": "string"
        }
      ],
      "payable": false,
      "stateMutability": "view",
      "type": "function"
    },
    {
      "payable": true,
      "stateMutability": "payable",
      "type": "fallback"
    },
    {
      "anonymous": false,
      "inputs": [
        {
          "indexed": false,
          "name": "newContract",
          "type": "address"
        }
      ],
      "name": "ContractCreation",
      "type": "event"
    },
    {
      "constant": false,
      "inputs": [
        {
          "name": "to",
          "type": "address"
        },
        {
          "name": "value",
          "type": "uint256"
        },
        {
          "name": "data",
          "type": "bytes"
        },
        {
          "name": "operation",
          "type": "uint8"
        },
        {
          "name": "nonce",
          "type": "uint256"
        }
      ],
      "name": "confirmTransaction",
      "outputs": [],
      "payable": false,
      "stateMutability": "nonpayable",
      "type": "function"
    },
    {
      "constant": false,
      "inputs": [
        {
          "name": "to",
          "type": "address"
        },
        {
          "name": "value",
          "type": "uint256"
        },
        {
          "name": "data",
          "type": "bytes"
        },
        {
          "name": "operation",
          "type": "uint8"
        },
        {
          "name": "nonce",
          "type": "uint256"
        }
      ],
      "name": "executeTransaction",
      "outputs": [],
      "payable": false,
      "stateMutability": "nonpayable",
      "type": "function"
    },
    {
      "constant": true,
      "inputs": [
        {
          "name": "to",
          "type": "address"
        },
        {
          "name": "value",
          "type": "uint256"
        },
        {
          "name": "data",
          "type": "bytes"
        },
        {
          "name": "operation",
          "type": "uint8"
        },
        {
          "name": "nonce",
          "type": "uint256"
        }
      ],
      "name": "getTransactionHash",
      "outputs": [
        {
          "name": "",
          "type": "bytes32"
        }
      ],
      "payable": false,
      "stateMutability": "view",
      "type": "function"
    }
  ],
  "bytecode": "0x608060405234801561001057600080fd5b50612345806100206000396000f300608060405260043610610133576000357c0100000000000000000000000000000000000000000000000000000000900463ffffffff168063025e7c27146101355780630e5229b0146101a25780631ed86f19146101f25780632b500041146102355780632b5b1f82146102fb5780632f54bf6e146103a557806342cde4e81461040057806342f6e3891461043157806354e99c6e1461048c5780637c6401d3146104f95780637de7edef1461054657806381b2248a14610589578063842b954e146105f65780639681467f14610650578063a04222e1146106fa578063a0e67e2b146107d3578063a3f4df7e1461083f578063b021640a146108cf578063b2494df314610987578063b79ffaff146109f3578063b7f3358d14610a5c578063e52cb36a14610a8c578063ffa1ad7414610ad5575b005b34801561014157600080fd5b5061016060048036038101908080359060200190929190505050610b65565b604051808273ffffffffffffffffffffffffffffffffffffffff1673ffffffffffffffffffffffffffffffffffffffff16815260200191505060405180910390f35b3480156101ae57600080fd5b506101f0600480360381019080803573ffffffffffffffffffffffffffffffffffffffff169060200190929190803560ff169060200190929190505050610ba3565b005b3480156101fe57600080fd5b50610233600480360381019080803573ffffffffffffffffffffffffffffffffffffffff169060200190929190505050610d46565b005b34801561024157600080fd5b506102dd600480360381019080803573ffffffffffffffffffffffffffffffffffffffff16906020019092919080359060200190929190803590602001908201803590602001908080601f0160208091040260200160405190810160405280939291908181526020018383808284378201915050505050509192919290803560ff16906020019092919080359060200190929190505050610ec0565b60405180826000191660001916815260200191505060405180910390f35b34801561030757600080fd5b506103a3600480360381019080803573ffffffffffffffffffffffffffffffffffffffff16906020019092919080359060200190929190803590602001908201803590602001908080601f0160208091040260200160405190810160405280939291908181526020018383808284378201915050505050509192919290803560ff169060200190929190803590602001909291905050506110dc565b005b3480156103b157600080fd5b506103e6600480360381019080803573ffffffffffffffffffffffffffffffffffffffff169060200190929190505050611230565b604051808215151515815260200191505060405180910390f35b34801561040c57600080fd5b50610415611286565b604051808260ff1660ff16815260200191505060405180910390f35b34801561043d57600080fd5b50610472600480360381019080803573ffffffffffffffffffffffffffffffffffffffff16906020019092919050505061129d565b604051808215151515815260200191505060405180910390f35b34801561049857600080fd5b506104f760048036038101908080359060200190929190803573ffffffffffffffffffffffffffffffffffffffff169060200190929190803573ffffffffffffffffffffffffffffffffffffffff1690602001909291905050506112bd565b005b34801561050557600080fd5b5061054460048036038101908080359060200190929190803573ffffffffffffffffffffffffffffffffffffffff1690602001909291905050506114f6565b005b34801561055257600080fd5b50610587600480360381019080803573ffffffffffffffffffffffffffffffffffffffff1690602001909291905050506116ac565b005b34801561059557600080fd5b506105b46004803603810190808035906020019092919050505061174f565b604051808273ffffffffffffffffffffffffffffffffffffffff1673ffffffffffffffffffffffffffffffffffffffff16815260200191505060405180910390f35b34801561060257600080fd5b5061064e60048036038101908080359060200190929190803573ffffffffffffffffffffffffffffffffffffffff169060200190929190803560ff16906020019092919050505061178d565b005b34801561065c57600080fd5b506106f8600480360381019080803573ffffffffffffffffffffffffffffffffffffffff16906020019092919080359060200190929190803590602001908201803590602001908080601f0160208091040260200160405190810160405280939291908181526020018383808284378201915050505050509192919290803560ff16906020019092919080359060200190929190505050611988565b005b34801561070657600080fd5b506107d160048036038101908080359060200190820180359060200190808060200260200160405190810160405280939291908181526020018383602002808284378201915050505050509192919290803560ff169060200190929190803573ffffffffffffffffffffffffffffffffffffffff169060200190929190803590602001908201803590602001908080601f0160208091040260200160405190810160405280939291908181526020018383808284378201915050505050509192919290505050611a2b565b005b3480156107df57600080fd5b506107e8611a45565b6040518080602001828103825283818151815260200191508051906020019060200280838360005b8381101561082b578082015181840152602081019050610810565b505050509050019250505060405180910390f35b34801561084b57600080fd5b50610854611ad3565b6040518080602001828103825283818151815260200191508051906020019080838360005b83811015610894578082015181840152602081019050610879565b50505050905090810190601f1680156108c15780820380516001836020036101000a031916815260200191505b509250505060405180910390f35b3480156108db57600080fd5b5061096d600480360381019080803573ffffffffffffffffffffffffffffffffffffffff16906020019092919080359060200190929190803590602001908201803590602001908080601f0160208091040260200160405190810160405280939291908181526020018383808284378201915050505050509192919290803560ff169060200190929190505050611b0c565b604051808215151515815260200191505060405180910390f35b34801561099357600080fd5b5061099c611b7d565b6040518080602001828103825283818151815260200191508051906020019060200280838360005b838110156109df5780820151818401526020810190506109c4565b505050509050019250505060405180910390f35b3480156109ff57600080fd5b50610a426004803603810190808035600019169060200190929190803573ffffffffffffffffffffffffffffffffffffffff169060200190929190505050611c0b565b604051808215151515815260200191505060405180910390f35b348015610a6857600080fd5b50610a8a600480360381019080803560ff169060200190929190505050611c3a565b005b348015610a9857600080fd5b50610abb6004803603810190808035600019169060200190929190505050611cbc565b604051808215151515815260200191505060405180910390f35b348015610ae157600080fd5b50610aea611cdc565b6040518080602001828103825283818151815260200191508051906020019080838360005b83811015610b2a578082015181840152602081019050610b0f565b50505050905090810190601f168015610b575780820380516001836020036101000a031916815260200191505b509250505060405180910390f35b600381815481101515610b7457fe5b906000526020600020016000915054906101000a900473ffffffffffffffffffffffffffffffffffffffff1681565b3073ffffffffffffffffffffffffffffffffffffffff163373ffffffffffffffffffffffffffffffffffffffff16141515610bdd57600080fd5b60008273ffffffffffffffffffffffffffffffffffffffff1614151515610c0357600080fd5b600560008373ffffffffffffffffffffffffffffffffffffffff1673ffffffffffffffffffffffffffffffffffffffff16815260200190815260200160002060009054906101000a900460ff16151515610c5c57600080fd5b60038290806001815401808255809150509060018203906000526020600020016000909192909190916101000a81548173ffffffffffffffffffffffffffffffffffffffff021916908373ffffffffffffffffffffffffffffffffffffffff160217905550506001600560008473ffffffffffffffffffffffffffffffffffffffff1673ffffffffffffffffffffffffffffffffffffffff16815260200190815260200160002060006101000a81548160ff0219169083151502179055508060ff16600460009054906101000a900460ff1660ff16141515610d4257610d4181611c3a565b5b5050565b3073ffffffffffffffffffffffffffffffffffffffff163373ffffffffffffffffffffffffffffffffffffffff16141515610d8057600080fd5b60008173ffffffffffffffffffffffffffffffffffffffff1614151515610da657600080fd5b600260008273ffffffffffffffffffffffffffffffffffffffff1673ffffffffffffffffffffffffffffffffffffffff16815260200190815260200160002060009054906101000a900460ff16151515610dff57600080fd5b60018190806001815401808255809150509060018203906000526020600020016000909192909190916101000a81548173ffffffffffffffffffffffffffffffffffffffff021916908373ffffffffffffffffffffffffffffffffffffffff160217905550506001600260008373ffffffffffffffffffffffffffffffffffffffff1673ffffffffffffffffffffffffffffffffffffffff16815260200190815260200160002060006101000a81548160ff02191690831515021790555050565b600060197f01000000000000000000000000000000000000000000000000000000000000000260007f01000000000000000000000000000000000000000000000000000000000000000230888888888860405180897effffffffffffffffffffffffffffffffffffffffffffffffffffffffffffff19167effffffffffffffffffffffffffffffffffffffffffffffffffffffffffffff19168152600101887effffffffffffffffffffffffffffffffffffffffffffffffffffffffffffff19167effffffffffffffffffffffffffffffffffffffffffffffffffffffffffffff191681526001018773ffffffffffffffffffffffffffffffffffffffff1673ffffffffffffffffffffffffffffffffffffffff166c010000000000000000000000000281526014018673ffffffffffffffffffffffffffffffffffffffff1673ffffffffffffffffffffffffffffffffffffffff166c0100000000000000000000000002815260140185815260200184805190602001908083835b602083101515611061578051825260208201915060208101905060208303925061103c565b6001836020036101000a03801982511681845116808217855250505050505090500183600281111561108f57fe5b60ff167f0100000000000000000000000000000000000000000000000000000000000000028152600101828152602001985050505050505050506040518091039020905095945050505050565b6000600560003373ffffffffffffffffffffffffffffffffffffffff1673ffffffffffffffffffffffffffffffffffffffff16815260200190815260200160002060009054906101000a900460ff16151561113657600080fd5b6111438686868686610ec0565b905060076000826000191660001916815260200190815260200160002060003373ffffffffffffffffffffffffffffffffffffffff1673ffffffffffffffffffffffffffffffffffffffff16815260200190815260200160002060009054906101000a900460ff161515156111b757600080fd5b600160076000836000191660001916815260200190815260200160002060003373ffffffffffffffffffffffffffffffffffffffff1673ffffffffffffffffffffffffffffffffffffffff16815260200190815260200160002060006101000a81548160ff021916908315150217905550505050505050565b6000600560008373ffffffffffffffffffffffffffffffffffffffff1673ffffffffffffffffffffffffffffffffffffffff16815260200190815260200160002060009054906101000a900460ff169050919050565b6000600460009054906101000a900460ff16905090565b60026020528060005260406000206000915054906101000a900460ff1681565b3073ffffffffffffffffffffffffffffffffffffffff163373ffffffffffffffffffffffffffffffffffffffff161415156112f757600080fd5b60008173ffffffffffffffffffffffffffffffffffffffff161415151561131d57600080fd5b600560008273ffffffffffffffffffffffffffffffffffffffff1673ffffffffffffffffffffffffffffffffffffffff16815260200190815260200160002060009054906101000a900460ff1615151561137657600080fd5b8173ffffffffffffffffffffffffffffffffffffffff1660038481548110151561139c57fe5b9060005260206000200160009054906101000a900473ffffffffffffffffffffffffffffffffffffffff1673ffffffffffffffffffffffffffffffffffffffff161415156113e957600080fd5b6000600560008473ffffffffffffffffffffffffffffffffffffffff1673ffffffffffffffffffffffffffffffffffffffff16815260200190815260200160002060006101000a81548160ff0219169083151502179055506001600560008373ffffffffffffffffffffffffffffffffffffffff1673ffffffffffffffffffffffffffffffffffffffff16815260200190815260200160002060006101000a81548160ff021916908315150217905550806003848154811015156114a957fe5b9060005260206000200160006101000a81548173ffffffffffffffffffffffffffffffffffffffff021916908373ffffffffffffffffffffffffffffffffffffffff160217905550505050565b3073ffffffffffffffffffffffffffffffffffffffff163373ffffffffffffffffffffffffffffffffffffffff1614151561153057600080fd5b8073ffffffffffffffffffffffffffffffffffffffff1660018381548110151561155657fe5b9060005260206000200160009054906101000a900473ffffffffffffffffffffffffffffffffffffffff1673ffffffffffffffffffffffffffffffffffffffff161415156115a357600080fd5b6000600260008373ffffffffffffffffffffffffffffffffffffffff1673ffffffffffffffffffffffffffffffffffffffff16815260200190815260200160002060006101000a81548160ff02191690831515021790555060018080805490500381548110151561161057fe5b9060005260206000200160009054906101000a900473ffffffffffffffffffffffffffffffffffffffff1660018381548110151561164a57fe5b9060005260206000200160006101000a81548173ffffffffffffffffffffffffffffffffffffffff021916908373ffffffffffffffffffffffffffffffffffffffff16021790555060018054809190600190036116a791906121cf565b505050565b3073ffffffffffffffffffffffffffffffffffffffff163373ffffffffffffffffffffffffffffffffffffffff161415156116e657600080fd5b60008173ffffffffffffffffffffffffffffffffffffffff161415151561170c57600080fd5b806000806101000a81548173ffffffffffffffffffffffffffffffffffffffff021916908373ffffffffffffffffffffffffffffffffffffffff16021790555050565b60018181548110151561175e57fe5b906000526020600020016000915054906101000a900473ffffffffffffffffffffffffffffffffffffffff1681565b3073ffffffffffffffffffffffffffffffffffffffff163373ffffffffffffffffffffffffffffffffffffffff161415156117c757600080fd5b8060ff16600160038054905003101515156117e157600080fd5b8173ffffffffffffffffffffffffffffffffffffffff1660038481548110151561180757fe5b9060005260206000200160009054906101000a900473ffffffffffffffffffffffffffffffffffffffff1673ffffffffffffffffffffffffffffffffffffffff1614151561185457600080fd5b6000600560008473ffffffffffffffffffffffffffffffffffffffff1673ffffffffffffffffffffffffffffffffffffffff16815260200190815260200160002060006101000a81548160ff02191690831515021790555060036001600380549050038154811015156118c357fe5b9060005260206000200160009054906101000a900473ffffffffffffffffffffffffffffffffffffffff166003848154811015156118fd57fe5b9060005260206000200160006101000a81548173ffffffffffffffffffffffffffffffffffffffff021916908373ffffffffffffffffffffffffffffffffffffffff160217905550600380548091906001900361195a91906121fb565b508060ff16600460009054906101000a900460ff1660ff161415156119835761198281611c3a565b5b505050565b60006119978686868686610ec0565b905060066000826000191660001916815260200190815260200160002060009054906101000a900460ff161515156119ce57600080fd5b6119d781611d15565b600160066000836000191660001916815260200190815260200160002060006101000a81548160ff021916908315150217905550611a18868686865a611ec7565b1515611a2357600080fd5b505050505050565b611a358484611fc4565b611a3f8282612152565b50505050565b60606003805480602002602001604051908101604052809291908181526020018280548015611ac957602002820191906000526020600020905b8160009054906101000a900473ffffffffffffffffffffffffffffffffffffffff1673ffffffffffffffffffffffffffffffffffffffff1681526020019060010190808311611a7f575b5050505050905090565b6040805190810160405280601881526020017f476e6f7369732053616665205465616d2045646974696f6e000000000000000081525081565b6000600260003373ffffffffffffffffffffffffffffffffffffffff1673ffffffffffffffffffffffffffffffffffffffff16815260200190815260200160002060009054906101000a900460ff161515611b6657600080fd5b611b73858585855a611ec7565b9050949350505050565b60606001805480602002602001604051908101604052809291908181526020018280548015611c0157602002820191906000526020600020905b8160009054906101000a900473ffffffffffffffffffffffffffffffffffffffff1673ffffffffffffffffffffffffffffffffffffffff1681526020019060010190808311611bb7575b5050505050905090565b60076020528160005260406000206020528060005260406000206000915091509054906101000a900460ff1681565b3073ffffffffffffffffffffffffffffffffffffffff163373ffffffffffffffffffffffffffffffffffffffff16141515611c7457600080fd5b6003805490508160ff1611151515611c8b57600080fd5b60018160ff1610151515611c9e57600080fd5b80600460006101000a81548160ff021916908360ff16021790555050565b60066020528060005260406000206000915054906101000a900460ff1681565b6040805190810160405280600581526020017f302e302e3100000000000000000000000000000000000000000000000000000081525081565b60008060008060009350600092505b600380549050831015611e9f57600383815481101515611d4057fe5b9060005260206000200160009054906101000a900473ffffffffffffffffffffffffffffffffffffffff16915060076000866000191660001916815260200190815260200160002060008373ffffffffffffffffffffffffffffffffffffffff1673ffffffffffffffffffffffffffffffffffffffff16815260200190815260200160002060009054906101000a900460ff1690503373ffffffffffffffffffffffffffffffffffffffff168273ffffffffffffffffffffffffffffffffffffffff161480611e0c5750805b15611e92578015611e8957600060076000876000191660001916815260200190815260200160002060008473ffffffffffffffffffffffffffffffffffffffff1673ffffffffffffffffffffffffffffffffffffffff16815260200190815260200160002060006101000a81548160ff0219169083151502179055505b83806001019450505b8280600101935050611d24565b600460009054906101000a900460ff1660ff168410151515611ec057600080fd5b5050505050565b60008060006002811115611ed757fe5b846002811115611ee357fe5b1415611efc57611ef58787878661218d565b9150611fba565b60016002811115611f0957fe5b846002811115611f1557fe5b1415611f2d57611f268786856121a6565b9150611fb9565b611f36856121bd565b905060008173ffffffffffffffffffffffffffffffffffffffff16141591507f4db17dd5e4732fb6da34a148104a592783ca119a1e7bb8829eba6cbadef0b51181604051808273ffffffffffffffffffffffffffffffffffffffff1673ffffffffffffffffffffffffffffffffffffffff16815260200191505060405180910390a15b5b5095945050505050565b6000806000600460009054906101000a900460ff1660ff16141515611fe857600080fd5b83518360ff1611151515611ffb57600080fd5b60018360ff161015151561200e57600080fd5b600091505b835182101561211a57838281518110151561202a57fe5b90602001906020020151905060008173ffffffffffffffffffffffffffffffffffffffff161415151561205c57600080fd5b600560008273ffffffffffffffffffffffffffffffffffffffff1673ffffffffffffffffffffffffffffffffffffffff16815260200190815260200160002060009054906101000a900460ff161515156120b557600080fd5b6001600560008373ffffffffffffffffffffffffffffffffffffffff1673ffffffffffffffffffffffffffffffffffffffff16815260200190815260200160002060006101000a81548160ff0219169083151502179055508180600101925050612013565b8360039080519060200190612130929190612227565b5082600460006101000a81548160ff021916908360ff16021790555050505050565b60008273ffffffffffffffffffffffffffffffffffffffff161415156121895761217d82825a6121a6565b151561218857600080fd5b5b5050565b6000806000845160208601878987f19050949350505050565b60008060008451602086018786f490509392505050565b60008151602083016000f09050919050565b8154818355818111156121f6578183600052602060002091820191016121f591906122b1565b5b505050565b8154818355818111156122225781836000526020600020918201910161222191906122b1565b5b505050565b8280548282559060005260206000209081019282156122a0579160200282015b8281111561229f5782518260006101000a81548173ffffffffffffffffffffffffffffffffffffffff021916908373ffffffffffffffffffffffffffffffffffffffff16021790555091602001919060010190612247565b5b5090506122ad91906122d6565b5090565b6122d391905b808211156122cf5760008160009055506001016122b7565b5090565b90565b61231691905b8082111561231257600081816101000a81549073ffffffffffffffffffffffffffffffffffffffff0219169055506001016122dc565b5090565b905600a165627a7a72305820ab4d09dc7a7a64b6f63048cb825754216f413beab85cd31284921e0b2018b7030029",
  "source": "pragma solidity 0.4.23;\nimport \"./GnosisSafe.sol\";\nimport \"./MasterCopy.sol\";\n\n\n/// @title Gnosis Safe Team Edition - A multisignature wallet with support for confirmations.\n/// @author Stefan George - <stefan@gnosis.pm>\n/// @author Richard Meissner - <richard@gnosis.pm>\ncontract GnosisSafeTeamEdition is MasterCopy, GnosisSafe {\n\n    string public constant NAME = \"Gnosis Safe Team Edition\";\n    string public constant VERSION = \"0.0.1\";\n\n    // isExecuted mapping allows to check if a transaction (by hash) was already executed.\n    mapping (bytes32 => bool) public isExecuted;\n\n    // isConfirmed mapping allows to check if a transaction (by hash) was confirmed by an owner.\n    mapping (bytes32 => mapping(address => bool)) public isConfirmed;\n\n    /// @dev Allows to confirm a Safe transaction with a regular transaction.\n    ///      This can only be done from an owner address.\n    /// @param to Destination address.\n    /// @param value Ether value.\n    /// @param data Data payload.\n    /// @param operation Operation type.\n    /// @param nonce Transaction nonce.\n    function confirmTransaction(address to, uint256 value, bytes data, Enum.Operation operation, uint256 nonce)\n        public\n    {\n        // Only Safe owners are allowed to confirm Safe transactions.\n        require(isOwner[msg.sender]);\n        bytes32 transactionHash = getTransactionHash(to, value, data, operation, nonce);\n        // It is only possible to confirm a transaction once.\n        require(!isConfirmed[transactionHash][msg.sender]);\n        isConfirmed[transactionHash][msg.sender] = true;\n    }\n\n    /// @dev Allows to execute a Safe transaction confirmed by required number of owners.\n    /// @param to Destination address of Safe transaction.\n    /// @param value Ether value of Safe transaction.\n    /// @param data Data payload of Safe transaction.\n    /// @param operation Operation type of Safe transaction.\n    /// @param nonce Nonce used for this Safe transaction.\n    function executeTransaction(\n        address to, \n        uint256 value, \n        bytes data, \n        Enum.Operation operation, \n        uint256 nonce\n    )\n        public\n    {\n        bytes32 transactionHash = getTransactionHash(to, value, data, operation, nonce);\n        require(!isExecuted[transactionHash]);\n        checkAndClearConfirmations(transactionHash);\n        // Mark as executed and execute transaction.\n        isExecuted[transactionHash] = true;\n        require(execute(to, value, data, operation, gasleft()));\n    }\n\n    function checkAndClearConfirmations(bytes32 transactionHash)\n        internal\n    {\n        uint256 confirmations = 0;\n        // Validate threshold is reached.\n        for (uint256 i = 0; i < owners.length; i++) {\n            address owner = owners[i];\n            bool ownerConfirmed = isConfirmed[transactionHash][owner];\n            if(owner == msg.sender || ownerConfirmed) {\n                if (ownerConfirmed) {\n                    isConfirmed[transactionHash][owner] = false;\n                }\n                confirmations ++;\n            }\n        }\n        require(confirmations >= threshold);\n    }\n\n    /// @dev Returns hash to be signed by owners.\n    /// @param to Destination address.\n    /// @param value Ether value.\n    /// @param data Data payload.\n    /// @param operation Operation type.\n    /// @param nonce Transaction nonce.\n    /// @return Transaction hash.\n    function getTransactionHash(\n        address to, \n        uint256 value, \n        bytes data, \n        Enum.Operation operation, \n        uint256 nonce\n    )\n        public\n        view\n        returns (bytes32)\n    {\n        return keccak256(byte(0x19), byte(0), this, to, value, data, operation, nonce);\n    }\n}\n",
  "sourcePath": "/Users/apanizo/git/gnosis/safe-contracts/contracts/GnosisSafeTeamEdition.sol",
  "compiler": {
    "name": "solc",
    "version": "0.4.23+commit.124ca40d.Emscripten.clang"
  },
  "schemaVersion": "2.0.0",
  "updatedAt": "2018-05-14T07:39:37.956Z"
}