{
  "contractName": "GnosisSafeTeamEdition",
  "abi": [
    {
      "constant": false,
      "inputs": [
        {
          "name": "owner",
          "type": "address"
        },
        {
          "name": "_threshold",
          "type": "uint256"
        }
      ],
      "name": "addOwnerWithThreshold",
      "outputs": [],
      "payable": false,
      "stateMutability": "nonpayable",
      "type": "function"
    },
    {
      "constant": false,
      "inputs": [
        {
          "name": "_owners",
          "type": "address[]"
        },
        {
          "name": "_threshold",
          "type": "uint256"
        },
        {
          "name": "to",
          "type": "address"
        },
        {
          "name": "data",
          "type": "bytes"
        }
      ],
      "name": "setup",
      "outputs": [],
      "payable": false,
      "stateMutability": "nonpayable",
      "type": "function"
    },
    {
      "constant": true,
      "inputs": [],
      "name": "DOMAIN_SEPERATOR_TYPEHASH",
      "outputs": [
        {
          "name": "",
          "type": "bytes32"
        }
      ],
      "payable": false,
      "stateMutability": "view",
      "type": "function"
    },
    {
      "constant": true,
      "inputs": [
        {
          "name": "owner",
          "type": "address"
        }
      ],
      "name": "isOwner",
      "outputs": [
        {
          "name": "",
          "type": "bool"
        }
      ],
      "payable": false,
      "stateMutability": "view",
      "type": "function"
    },
    {
      "constant": false,
      "inputs": [
        {
          "name": "to",
          "type": "address"
        },
        {
          "name": "value",
          "type": "uint256"
        },
        {
          "name": "data",
          "type": "bytes"
        },
        {
          "name": "operation",
          "type": "uint8"
        }
      ],
      "name": "execTransactionFromModule",
      "outputs": [
        {
          "name": "success",
          "type": "bool"
        }
      ],
      "payable": false,
      "stateMutability": "nonpayable",
      "type": "function"
    },
    {
      "constant": false,
      "inputs": [
        {
          "name": "module",
          "type": "address"
        }
      ],
      "name": "enableModule",
      "outputs": [],
      "payable": false,
      "stateMutability": "nonpayable",
      "type": "function"
    },
    {
      "constant": false,
      "inputs": [
        {
          "name": "_threshold",
          "type": "uint256"
        }
      ],
      "name": "changeThreshold",
      "outputs": [],
      "payable": false,
      "stateMutability": "nonpayable",
      "type": "function"
    },
    {
      "constant": false,
      "inputs": [
        {
          "name": "_masterCopy",
          "type": "address"
        }
      ],
      "name": "changeMasterCopy",
      "outputs": [],
      "payable": false,
      "stateMutability": "nonpayable",
      "type": "function"
    },
    {
      "constant": true,
      "inputs": [],
      "name": "SENTINEL_MODULES",
      "outputs": [
        {
          "name": "",
          "type": "address"
        }
      ],
      "payable": false,
      "stateMutability": "view",
      "type": "function"
    },
    {
      "constant": true,
      "inputs": [],
      "name": "SENTINEL_OWNERS",
      "outputs": [
        {
          "name": "",
          "type": "address"
        }
      ],
      "payable": false,
      "stateMutability": "view",
      "type": "function"
    },
    {
      "constant": true,
      "inputs": [
        {
          "name": "",
          "type": "bytes32"
        },
        {
          "name": "",
          "type": "address"
        }
      ],
      "name": "isApproved",
      "outputs": [
        {
          "name": "",
          "type": "uint256"
        }
      ],
      "payable": false,
      "stateMutability": "view",
      "type": "function"
    },
    {
      "constant": true,
      "inputs": [],
      "name": "getOwners",
      "outputs": [
        {
          "name": "",
          "type": "address[]"
        }
      ],
      "payable": false,
      "stateMutability": "view",
      "type": "function"
    },
    {
      "constant": true,
      "inputs": [],
      "name": "NAME",
      "outputs": [
        {
          "name": "",
          "type": "string"
        }
      ],
      "payable": false,
      "stateMutability": "view",
      "type": "function"
    },
    {
      "constant": true,
      "inputs": [],
      "name": "getModules",
      "outputs": [
        {
          "name": "",
          "type": "address[]"
        }
      ],
      "payable": false,
      "stateMutability": "view",
      "type": "function"
    },
    {
      "constant": true,
      "inputs": [],
      "name": "domainSeperator",
      "outputs": [
        {
          "name": "",
          "type": "bytes32"
        }
      ],
      "payable": false,
      "stateMutability": "view",
      "type": "function"
    },
    {
      "constant": true,
      "inputs": [],
      "name": "SAFE_TX_TYPEHASH",
      "outputs": [
        {
          "name": "",
          "type": "bytes32"
        }
      ],
      "payable": false,
      "stateMutability": "view",
      "type": "function"
    },
    {
      "constant": false,
      "inputs": [
        {
          "name": "prevModule",
          "type": "address"
        },
        {
          "name": "module",
          "type": "address"
        }
      ],
      "name": "disableModule",
      "outputs": [],
      "payable": false,
      "stateMutability": "nonpayable",
      "type": "function"
    },
    {
      "constant": false,
      "inputs": [
        {
          "name": "prevOwner",
          "type": "address"
        },
        {
          "name": "oldOwner",
          "type": "address"
        },
        {
          "name": "newOwner",
          "type": "address"
        }
      ],
      "name": "swapOwner",
      "outputs": [],
      "payable": false,
      "stateMutability": "nonpayable",
      "type": "function"
    },
    {
      "constant": true,
      "inputs": [
        {
          "name": "",
          "type": "bytes32"
        }
      ],
      "name": "isExecuted",
      "outputs": [
        {
          "name": "",
          "type": "uint256"
        }
      ],
      "payable": false,
      "stateMutability": "view",
      "type": "function"
    },
    {
      "constant": true,
      "inputs": [],
      "name": "getThreshold",
      "outputs": [
        {
          "name": "",
          "type": "uint256"
        }
      ],
      "payable": false,
      "stateMutability": "view",
      "type": "function"
    },
    {
      "constant": false,
      "inputs": [
        {
          "name": "prevOwner",
          "type": "address"
        },
        {
          "name": "owner",
          "type": "address"
        },
        {
          "name": "_threshold",
          "type": "uint256"
        }
      ],
      "name": "removeOwner",
      "outputs": [],
      "payable": false,
      "stateMutability": "nonpayable",
      "type": "function"
    },
    {
      "constant": true,
      "inputs": [],
      "name": "VERSION",
      "outputs": [
        {
          "name": "",
          "type": "string"
        }
      ],
      "payable": false,
      "stateMutability": "view",
      "type": "function"
    },
    {
      "payable": true,
      "stateMutability": "payable",
      "type": "fallback"
    },
    {
      "anonymous": false,
      "inputs": [
        {
          "indexed": false,
          "name": "newContract",
          "type": "address"
        }
      ],
      "name": "ContractCreation",
      "type": "event"
    },
    {
      "constant": false,
      "inputs": [
        {
          "name": "transactionHash",
          "type": "bytes32"
        }
      ],
      "name": "approveTransactionByHash",
      "outputs": [],
      "payable": false,
      "stateMutability": "nonpayable",
      "type": "function"
    },
    {
      "constant": false,
      "inputs": [
        {
          "name": "to",
          "type": "address"
        },
        {
          "name": "value",
          "type": "uint256"
        },
        {
          "name": "data",
          "type": "bytes"
        },
        {
          "name": "operation",
          "type": "uint8"
        },
        {
          "name": "nonce",
          "type": "uint256"
        }
      ],
      "name": "approveTransactionWithParameters",
      "outputs": [],
      "payable": false,
      "stateMutability": "nonpayable",
      "type": "function"
    },
    {
      "constant": false,
      "inputs": [
        {
          "name": "to",
          "type": "address"
        },
        {
          "name": "value",
          "type": "uint256"
        },
        {
          "name": "data",
          "type": "bytes"
        },
        {
          "name": "operation",
          "type": "uint8"
        },
        {
          "name": "nonce",
          "type": "uint256"
        }
      ],
      "name": "execTransactionIfApproved",
      "outputs": [],
      "payable": false,
      "stateMutability": "nonpayable",
      "type": "function"
    },
    {
      "constant": true,
      "inputs": [
        {
          "name": "to",
          "type": "address"
        },
        {
          "name": "value",
          "type": "uint256"
        },
        {
          "name": "data",
          "type": "bytes"
        },
        {
          "name": "operation",
          "type": "uint8"
        },
        {
          "name": "nonce",
          "type": "uint256"
        }
      ],
      "name": "getTransactionHash",
      "outputs": [
        {
          "name": "",
          "type": "bytes32"
        }
      ],
      "payable": false,
      "stateMutability": "view",
      "type": "function"
    }
  ],
  "bytecode": "0x608060405234801561001057600080fd5b5061415b806100206000396000f300608060405260043610610153576000357c0100000000000000000000000000000000000000000000000000000000900463ffffffff168062249a7a146101555780630d582f13146101865780630ec78d9e146101d3578063153414fa146102a95780631da5187f1461035357806324cd131f146103865780632b500041146104305780632f54bf6e146104f6578063468721a714610551578063610b592514610609578063694e80c31461064c5780637de7edef1461067957806385e332cd146106bc5780638cff635514610713578063a09e89f51461076a578063a0e67e2b146107cf578063a3f4df7e1461083b578063b2494df3146108cb578063cb73ac5614610937578063ccafc3871461096a578063e009cfde1461099d578063e318b52b14610a00578063e52cb36a14610a83578063e75235b814610ac8578063f8dc5dd914610af3578063ffa1ad7414610b60575b005b34801561016157600080fd5b506101846004803603810190808035600019169060200190929190505050610bf0565b005b34801561019257600080fd5b506101d1600480360381019080803573ffffffffffffffffffffffffffffffffffffffff16906020019092919080359060200190929190505050610df8565b005b3480156101df57600080fd5b506102a76004803603810190808035906020019082018035906020019080806020026020016040519081016040528093929190818152602001838360200280828437820191505050505050919291929080359060200190929190803573ffffffffffffffffffffffffffffffffffffffff169060200190929190803590602001908201803590602001908080601f01602080910402602001604051908101604052809392919081815260200183838082843782019150505050505091929192905050506111fe565b005b3480156102b557600080fd5b50610351600480360381019080803573ffffffffffffffffffffffffffffffffffffffff16906020019092919080359060200190929190803590602001908201803590602001908080601f0160208091040260200160405190810160405280939291908181526020018383808284378201915050505050509192919290803560ff16906020019092919080359060200190929190505050611384565b005b34801561035f57600080fd5b506103686113a0565b60405180826000191660001916815260200191505060405180910390f35b34801561039257600080fd5b5061042e600480360381019080803573ffffffffffffffffffffffffffffffffffffffff16906020019092919080359060200190929190803590602001908201803590602001908080601f0160208091040260200160405190810160405280939291908181526020018383808284378201915050505050509192919290803560ff169060200190929190803590602001909291905050506113c7565b005b34801561043c57600080fd5b506104d8600480360381019080803573ffffffffffffffffffffffffffffffffffffffff16906020019092919080359060200190929190803590602001908201803590602001908080601f0160208091040260200160405190810160405280939291908181526020018383808284378201915050505050509192919290803560ff1690602001909291908035906020019092919050505061156a565b60405180826000191660001916815260200191505060405180910390f35b34801561050257600080fd5b50610537600480360381019080803573ffffffffffffffffffffffffffffffffffffffff16906020019092919050505061189f565b604051808215151515815260200191505060405180910390f35b34801561055d57600080fd5b506105ef600480360381019080803573ffffffffffffffffffffffffffffffffffffffff16906020019092919080359060200190929190803590602001908201803590602001908080601f0160208091040260200160405190810160405280939291908181526020018383808284378201915050505050509192919290803560ff169060200190929190505050611921565b604051808215151515815260200191505060405180910390f35b34801561061557600080fd5b5061064a600480360381019080803573ffffffffffffffffffffffffffffffffffffffff169060200190929190505050611a4d565b005b34801561065857600080fd5b5061067760048036038101908080359060200190929190505050611e2b565b005b34801561068557600080fd5b506106ba600480360381019080803573ffffffffffffffffffffffffffffffffffffffff16906020019092919050505061203d565b005b3480156106c857600080fd5b506106d16121fe565b604051808273ffffffffffffffffffffffffffffffffffffffff1673ffffffffffffffffffffffffffffffffffffffff16815260200191505060405180910390f35b34801561071f57600080fd5b50610728612203565b604051808273ffffffffffffffffffffffffffffffffffffffff1673ffffffffffffffffffffffffffffffffffffffff16815260200191505060405180910390f35b34801561077657600080fd5b506107b96004803603810190808035600019169060200190929190803573ffffffffffffffffffffffffffffffffffffffff169060200190929190505050612208565b6040518082815260200191505060405180910390f35b3480156107db57600080fd5b506107e461222d565b6040518080602001828103825283818151815260200191508051906020019060200280838360005b8381101561082757808201518184015260208101905061080c565b505050509050019250505060405180910390f35b34801561084757600080fd5b506108506123c8565b6040518080602001828103825283818151815260200191508051906020019080838360005b83811015610890578082015181840152602081019050610875565b50505050905090810190601f1680156108bd5780820380516001836020036101000a031916815260200191505b509250505060405180910390f35b3480156108d757600080fd5b506108e0612401565b6040518080602001828103825283818151815260200191508051906020019060200280838360005b83811015610923578082015181840152602081019050610908565b505050509050019250505060405180910390f35b34801561094357600080fd5b5061094c6126a8565b60405180826000191660001916815260200191505060405180910390f35b34801561097657600080fd5b5061097f6126ae565b60405180826000191660001916815260200191505060405180910390f35b3480156109a957600080fd5b506109fe600480360381019080803573ffffffffffffffffffffffffffffffffffffffff169060200190929190803573ffffffffffffffffffffffffffffffffffffffff1690602001909291905050506126d5565b005b348015610a0c57600080fd5b50610a81600480360381019080803573ffffffffffffffffffffffffffffffffffffffff169060200190929190803573ffffffffffffffffffffffffffffffffffffffff169060200190929190803573ffffffffffffffffffffffffffffffffffffffff169060200190929190505050612aee565b005b348015610a8f57600080fd5b50610ab2600480360381019080803560001916906020019092919050505061313b565b6040518082815260200191505060405180910390f35b348015610ad457600080fd5b50610add613153565b6040518082815260200191505060405180910390f35b348015610aff57600080fd5b50610b5e600480360381019080803573ffffffffffffffffffffffffffffffffffffffff169060200190929190803573ffffffffffffffffffffffffffffffffffffffff1690602001909291908035906020019092919050505061315d565b005b348015610b6c57600080fd5b50610b75613642565b6040518080602001828103825283818151815260200191508051906020019080838360005b83811015610bb5578082015181840152602081019050610b9a565b50505050905090810190601f168015610be25780820380516001836020036101000a031916815260200191505b509250505060405180910390f35b6000600260003373ffffffffffffffffffffffffffffffffffffffff1673ffffffffffffffffffffffffffffffffffffffff16815260200190815260200160002060009054906101000a900473ffffffffffffffffffffffffffffffffffffffff1673ffffffffffffffffffffffffffffffffffffffff1614151515610cde576040517f08c379a00000000000000000000000000000000000000000000000000000000081526004018080602001828103825260168152602001807f53656e646572206973206e6f7420616e206f776e65720000000000000000000081525060200191505060405180910390fd5b600060066000836000191660001916815260200190815260200160002054141515610d97576040517f08c379a00000000000000000000000000000000000000000000000000000000081526004018080602001828103825260218152602001807f53616665207472616e73616374696f6e20616c7265616479206578656375746581526020017f640000000000000000000000000000000000000000000000000000000000000081525060400191505060405180910390fd5b600160076000836000191660001916815260200190815260200160002060003373ffffffffffffffffffffffffffffffffffffffff1673ffffffffffffffffffffffffffffffffffffffff1681526020019081526020016000208190555050565b3073ffffffffffffffffffffffffffffffffffffffff163373ffffffffffffffffffffffffffffffffffffffff16141515610ec1576040517f08c379a000000000000000000000000000000000000000000000000000000000815260040180806020018281038252602c8152602001807f4d6574686f642063616e206f6e6c792062652063616c6c65642066726f6d207481526020017f68697320636f6e7472616374000000000000000000000000000000000000000081525060400191505060405180910390fd5b60008273ffffffffffffffffffffffffffffffffffffffff1614158015610f155750600173ffffffffffffffffffffffffffffffffffffffff168273ffffffffffffffffffffffffffffffffffffffff1614155b1515610f89576040517f08c379a000000000000000000000000000000000000000000000000000000000815260040180806020018281038252601e8152602001807f496e76616c6964206f776e657220616464726573732070726f7669646564000081525060200191505060405180910390fd5b6000600260008473ffffffffffffffffffffffffffffffffffffffff1673ffffffffffffffffffffffffffffffffffffffff16815260200190815260200160002060009054906101000a900473ffffffffffffffffffffffffffffffffffffffff1673ffffffffffffffffffffffffffffffffffffffff16141515611076576040517f08c379a000000000000000000000000000000000000000000000000000000000815260040180806020018281038252601b8152602001807f4164647265737320697320616c726561647920616e206f776e6572000000000081525060200191505060405180910390fd5b60026000600173ffffffffffffffffffffffffffffffffffffffff1673ffffffffffffffffffffffffffffffffffffffff16815260200190815260200160002060009054906101000a900473ffffffffffffffffffffffffffffffffffffffff16600260008473ffffffffffffffffffffffffffffffffffffffff1673ffffffffffffffffffffffffffffffffffffffff16815260200190815260200160002060006101000a81548173ffffffffffffffffffffffffffffffffffffffff021916908373ffffffffffffffffffffffffffffffffffffffff1602179055508160026000600173ffffffffffffffffffffffffffffffffffffffff1673ffffffffffffffffffffffffffffffffffffffff16815260200190815260200160002060006101000a81548173ffffffffffffffffffffffffffffffffffffffff021916908373ffffffffffffffffffffffffffffffffffffffff160217905550600360008154809291906001019190505550806004541415156111fa576111f981611e2b565b5b5050565b60006001026005546000191614151561127f576040517f08c379a000000000000000000000000000000000000000000000000000000000815260040180806020018281038252601d8152602001807f446f6d61696e20536570657261746f7220616c7265616479207365742100000081525060200191505060405180910390fd5b7f035aff83d86937d35b32e04f0ddc6ff469290eef2f1b692d8a815c89404d4749600102306040516020018083600019166000191681526020018273ffffffffffffffffffffffffffffffffffffffff1673ffffffffffffffffffffffffffffffffffffffff168152602001925050506040516020818303038152906040526040518082805190602001908083835b602083101515611333578051825260208201915060208101905060208303925061130e565b6001836020036101000a038019825116818451168082178552505050505050905001915050604051809103902060058160001916905550611374848461367b565b61137e8282613b3b565b50505050565b611399611394868686868661156a565b610bf0565b5050505050565b7f035aff83d86937d35b32e04f0ddc6ff469290eef2f1b692d8a815c89404d474960010281565b60006113d6868686868661156a565b9050600060066000836000191660001916815260200190815260200160002054141515611491576040517f08c379a00000000000000000000000000000000000000000000000000000000081526004018080602001828103825260218152602001807f53616665207472616e73616374696f6e20616c7265616479206578656375746581526020017f640000000000000000000000000000000000000000000000000000000000000081525060400191505060405180910390fd5b61149a81613d72565b6001600660008360001916600019168152602001908152602001600020819055506114c8868686865a613ff0565b1515611562576040517f08c379a00000000000000000000000000000000000000000000000000000000081526004018080602001828103825260228152602001807f436f756c64206e6f7420657865637574652073616665207472616e736163746981526020017f6f6e00000000000000000000000000000000000000000000000000000000000081525060400191505060405180910390fd5b505050505050565b6000807f5d1bba48ff479eb8a88ec6029f6b5eebc805c7dcb87470d5b1121d36d824c8736001028787876040518082805190602001908083835b6020831015156115c957805182526020820191506020810190506020830392506115a4565b6001836020036101000a038019825116818451168082178552505050505050905001915050604051809103902087876040516020018087600019166000191681526020018673ffffffffffffffffffffffffffffffffffffffff1673ffffffffffffffffffffffffffffffffffffffff168152602001858152602001846000191660001916815260200183600281111561165f57fe5b60ff16815260200182815260200196505050505050506040516020818303038152906040526040518082805190602001908083835b6020831015156116b95780518252602082019150602081019050602083039250611694565b6001836020036101000a0380198251168184511680821785525050505050509050019150506040518091039020905060197f01000000000000000000000000000000000000000000000000000000000000000260017f010000000000000000000000000000000000000000000000000000000000000002308360405160200180857effffffffffffffffffffffffffffffffffffffffffffffffffffffffffffff19167effffffffffffffffffffffffffffffffffffffffffffffffffffffffffffff19168152600101847effffffffffffffffffffffffffffffffffffffffffffffffffffffffffffff19167effffffffffffffffffffffffffffffffffffffffffffffffffffffffffffff191681526001018373ffffffffffffffffffffffffffffffffffffffff1673ffffffffffffffffffffffffffffffffffffffff166c0100000000000000000000000002815260140182600019166000191681526020019450505050506040516020818303038152906040526040518082805190602001908083835b6020831015156118665780518252602082019150602081019050602083039250611841565b6001836020036101000a038019825116818451168082178552505050505050905001915050604051809103902091505095945050505050565b600080600260008473ffffffffffffffffffffffffffffffffffffffff1673ffffffffffffffffffffffffffffffffffffffff16815260200190815260200160002060009054906101000a900473ffffffffffffffffffffffffffffffffffffffff1673ffffffffffffffffffffffffffffffffffffffff1614159050919050565b600080600160003373ffffffffffffffffffffffffffffffffffffffff1673ffffffffffffffffffffffffffffffffffffffff16815260200190815260200160002060009054906101000a900473ffffffffffffffffffffffffffffffffffffffff1673ffffffffffffffffffffffffffffffffffffffff1614151515611a36576040517f08c379a00000000000000000000000000000000000000000000000000000000081526004018080602001828103825260308152602001807f4d6574686f642063616e206f6e6c792062652063616c6c65642066726f6d206181526020017f6e20656e61626c6564206d6f64756c650000000000000000000000000000000081525060400191505060405180910390fd5b611a43858585855a613ff0565b9050949350505050565b3073ffffffffffffffffffffffffffffffffffffffff163373ffffffffffffffffffffffffffffffffffffffff16141515611b16576040517f08c379a000000000000000000000000000000000000000000000000000000000815260040180806020018281038252602c8152602001807f4d6574686f642063616e206f6e6c792062652063616c6c65642066726f6d207481526020017f68697320636f6e7472616374000000000000000000000000000000000000000081525060400191505060405180910390fd5b60008173ffffffffffffffffffffffffffffffffffffffff1614158015611b6a5750600173ffffffffffffffffffffffffffffffffffffffff168173ffffffffffffffffffffffffffffffffffffffff1614155b1515611bde576040517f08c379a000000000000000000000000000000000000000000000000000000000815260040180806020018281038252601f8152602001807f496e76616c6964206d6f64756c6520616464726573732070726f76696465640081525060200191505060405180910390fd5b6000600160008373ffffffffffffffffffffffffffffffffffffffff1673ffffffffffffffffffffffffffffffffffffffff16815260200190815260200160002060009054906101000a900473ffffffffffffffffffffffffffffffffffffffff1673ffffffffffffffffffffffffffffffffffffffff16141515611ccb576040517f08c379a000000000000000000000000000000000000000000000000000000000815260040180806020018281038252601d8152602001807f4d6f64756c652068617320616c7265616479206265656e20616464656400000081525060200191505060405180910390fd5b60016000600173ffffffffffffffffffffffffffffffffffffffff1673ffffffffffffffffffffffffffffffffffffffff16815260200190815260200160002060009054906101000a900473ffffffffffffffffffffffffffffffffffffffff16600160008373ffffffffffffffffffffffffffffffffffffffff1673ffffffffffffffffffffffffffffffffffffffff16815260200190815260200160002060006101000a81548173ffffffffffffffffffffffffffffffffffffffff021916908373ffffffffffffffffffffffffffffffffffffffff1602179055508060016000600173ffffffffffffffffffffffffffffffffffffffff1673ffffffffffffffffffffffffffffffffffffffff16815260200190815260200160002060006101000a81548173ffffffffffffffffffffffffffffffffffffffff021916908373ffffffffffffffffffffffffffffffffffffffff16021790555050565b3073ffffffffffffffffffffffffffffffffffffffff163373ffffffffffffffffffffffffffffffffffffffff16141515611ef4576040517f08c379a000000000000000000000000000000000000000000000000000000000815260040180806020018281038252602c8152602001807f4d6574686f642063616e206f6e6c792062652063616c6c65642066726f6d207481526020017f68697320636f6e7472616374000000000000000000000000000000000000000081525060400191505060405180910390fd5b6003548111151515611f94576040517f08c379a00000000000000000000000000000000000000000000000000000000081526004018080602001828103825260238152602001807f5468726573686f6c642063616e6e6f7420657863656564206f776e657220636f81526020017f756e74000000000000000000000000000000000000000000000000000000000081525060400191505060405180910390fd5b60018110151515612033576040517f08c379a00000000000000000000000000000000000000000000000000000000081526004018080602001828103825260248152602001807f5468726573686f6c64206e6565647320746f206265206772656174657220746881526020017f616e20300000000000000000000000000000000000000000000000000000000081525060400191505060405180910390fd5b8060048190555050565b3073ffffffffffffffffffffffffffffffffffffffff163373ffffffffffffffffffffffffffffffffffffffff16141515612106576040517f08c379a000000000000000000000000000000000000000000000000000000000815260040180806020018281038252602c8152602001807f4d6574686f642063616e206f6e6c792062652063616c6c65642066726f6d207481526020017f68697320636f6e7472616374000000000000000000000000000000000000000081525060400191505060405180910390fd5b60008173ffffffffffffffffffffffffffffffffffffffff16141515156121bb576040517f08c379a00000000000000000000000000000000000000000000000000000000081526004018080602001828103825260248152602001807f496e76616c6964206d617374657220636f707920616464726573732070726f7681526020017f696465640000000000000000000000000000000000000000000000000000000081525060400191505060405180910390fd5b806000806101000a81548173ffffffffffffffffffffffffffffffffffffffff021916908373ffffffffffffffffffffffffffffffffffffffff16021790555050565b600181565b600181565b6007602052816000526040600020602052806000526040600020600091509150505481565b6060806000806003546040519080825280602002602001820160405280156122645781602001602082028038833980820191505090505b5092506000915060026000600173ffffffffffffffffffffffffffffffffffffffff1673ffffffffffffffffffffffffffffffffffffffff16815260200190815260200160002060009054906101000a900473ffffffffffffffffffffffffffffffffffffffff1690505b600173ffffffffffffffffffffffffffffffffffffffff168173ffffffffffffffffffffffffffffffffffffffff161415156123bf5780838381518110151561231457fe5b9060200190602002019073ffffffffffffffffffffffffffffffffffffffff16908173ffffffffffffffffffffffffffffffffffffffff1681525050600260008273ffffffffffffffffffffffffffffffffffffffff1673ffffffffffffffffffffffffffffffffffffffff16815260200190815260200160002060009054906101000a900473ffffffffffffffffffffffffffffffffffffffff16905081806001019250506122cf565b82935050505090565b6040805190810160405280601881526020017f476e6f7369732053616665205465616d2045646974696f6e000000000000000081525081565b606060008060606000925060016000600173ffffffffffffffffffffffffffffffffffffffff1673ffffffffffffffffffffffffffffffffffffffff16815260200190815260200160002060009054906101000a900473ffffffffffffffffffffffffffffffffffffffff1691505b600173ffffffffffffffffffffffffffffffffffffffff168273ffffffffffffffffffffffffffffffffffffffff1614151561251557600160008373ffffffffffffffffffffffffffffffffffffffff1673ffffffffffffffffffffffffffffffffffffffff16815260200190815260200160002060009054906101000a900473ffffffffffffffffffffffffffffffffffffffff1691508280600101935050612470565b826040519080825280602002602001820160405280156125445781602001602082028038833980820191505090505b5090506000925060016000600173ffffffffffffffffffffffffffffffffffffffff1673ffffffffffffffffffffffffffffffffffffffff16815260200190815260200160002060009054906101000a900473ffffffffffffffffffffffffffffffffffffffff1691505b600173ffffffffffffffffffffffffffffffffffffffff168273ffffffffffffffffffffffffffffffffffffffff1614151561269f578181848151811015156125f457fe5b9060200190602002019073ffffffffffffffffffffffffffffffffffffffff16908173ffffffffffffffffffffffffffffffffffffffff1681525050600160008373ffffffffffffffffffffffffffffffffffffffff1673ffffffffffffffffffffffffffffffffffffffff16815260200190815260200160002060009054906101000a900473ffffffffffffffffffffffffffffffffffffffff16915082806001019350506125af565b80935050505090565b60055481565b7f5d1bba48ff479eb8a88ec6029f6b5eebc805c7dcb87470d5b1121d36d824c87360010281565b3073ffffffffffffffffffffffffffffffffffffffff163373ffffffffffffffffffffffffffffffffffffffff1614151561279e576040517f08c379a000000000000000000000000000000000000000000000000000000000815260040180806020018281038252602c8152602001807f4d6574686f642063616e206f6e6c792062652063616c6c65642066726f6d207481526020017f68697320636f6e7472616374000000000000000000000000000000000000000081525060400191505060405180910390fd5b60008173ffffffffffffffffffffffffffffffffffffffff16141580156127f25750600173ffffffffffffffffffffffffffffffffffffffff168173ffffffffffffffffffffffffffffffffffffffff1614155b1515612866576040517f08c379a000000000000000000000000000000000000000000000000000000000815260040180806020018281038252601f8152602001807f496e76616c6964206d6f64756c6520616464726573732070726f76696465640081525060200191505060405180910390fd5b8073ffffffffffffffffffffffffffffffffffffffff16600160008473ffffffffffffffffffffffffffffffffffffffff1673ffffffffffffffffffffffffffffffffffffffff16815260200190815260200160002060009054906101000a900473ffffffffffffffffffffffffffffffffffffffff1673ffffffffffffffffffffffffffffffffffffffff1614151561298e576040517f08c379a00000000000000000000000000000000000000000000000000000000081526004018080602001828103825260288152602001807f496e76616c696420707265764d6f64756c652c206d6f64756c6520706169722081526020017f70726f766964656400000000000000000000000000000000000000000000000081525060400191505060405180910390fd5b600160008273ffffffffffffffffffffffffffffffffffffffff1673ffffffffffffffffffffffffffffffffffffffff16815260200190815260200160002060009054906101000a900473ffffffffffffffffffffffffffffffffffffffff16600160008473ffffffffffffffffffffffffffffffffffffffff1673ffffffffffffffffffffffffffffffffffffffff16815260200190815260200160002060006101000a81548173ffffffffffffffffffffffffffffffffffffffff021916908373ffffffffffffffffffffffffffffffffffffffff1602179055506000600160008373ffffffffffffffffffffffffffffffffffffffff1673ffffffffffffffffffffffffffffffffffffffff16815260200190815260200160002060006101000a81548173ffffffffffffffffffffffffffffffffffffffff021916908373ffffffffffffffffffffffffffffffffffffffff1602179055505050565b3073ffffffffffffffffffffffffffffffffffffffff163373ffffffffffffffffffffffffffffffffffffffff16141515612bb7576040517f08c379a000000000000000000000000000000000000000000000000000000000815260040180806020018281038252602c8152602001807f4d6574686f642063616e206f6e6c792062652063616c6c65642066726f6d207481526020017f68697320636f6e7472616374000000000000000000000000000000000000000081525060400191505060405180910390fd5b60008173ffffffffffffffffffffffffffffffffffffffff1614158015612c0b5750600173ffffffffffffffffffffffffffffffffffffffff168173ffffffffffffffffffffffffffffffffffffffff1614155b1515612c7f576040517f08c379a000000000000000000000000000000000000000000000000000000000815260040180806020018281038252601e8152602001807f496e76616c6964206f776e657220616464726573732070726f7669646564000081525060200191505060405180910390fd5b6000600260008373ffffffffffffffffffffffffffffffffffffffff1673ffffffffffffffffffffffffffffffffffffffff16815260200190815260200160002060009054906101000a900473ffffffffffffffffffffffffffffffffffffffff1673ffffffffffffffffffffffffffffffffffffffff16141515612d6c576040517f08c379a000000000000000000000000000000000000000000000000000000000815260040180806020018281038252601b8152602001807f4164647265737320697320616c726561647920616e206f776e6572000000000081525060200191505060405180910390fd5b60008273ffffffffffffffffffffffffffffffffffffffff1614158015612dc05750600173ffffffffffffffffffffffffffffffffffffffff168273ffffffffffffffffffffffffffffffffffffffff1614155b1515612e34576040517f08c379a000000000000000000000000000000000000000000000000000000000815260040180806020018281038252601e8152602001807f496e76616c6964206f776e657220616464726573732070726f7669646564000081525060200191505060405180910390fd5b8173ffffffffffffffffffffffffffffffffffffffff16600260008573ffffffffffffffffffffffffffffffffffffffff1673ffffffffffffffffffffffffffffffffffffffff16815260200190815260200160002060009054906101000a900473ffffffffffffffffffffffffffffffffffffffff1673ffffffffffffffffffffffffffffffffffffffff16141515612f5c576040517f08c379a00000000000000000000000000000000000000000000000000000000081526004018080602001828103825260268152602001807f496e76616c696420707265764f776e65722c206f776e6572207061697220707281526020017f6f7669646564000000000000000000000000000000000000000000000000000081525060400191505060405180910390fd5b600260008373ffffffffffffffffffffffffffffffffffffffff1673ffffffffffffffffffffffffffffffffffffffff16815260200190815260200160002060009054906101000a900473ffffffffffffffffffffffffffffffffffffffff16600260008373ffffffffffffffffffffffffffffffffffffffff1673ffffffffffffffffffffffffffffffffffffffff16815260200190815260200160002060006101000a81548173ffffffffffffffffffffffffffffffffffffffff021916908373ffffffffffffffffffffffffffffffffffffffff16021790555080600260008573ffffffffffffffffffffffffffffffffffffffff1673ffffffffffffffffffffffffffffffffffffffff16815260200190815260200160002060006101000a81548173ffffffffffffffffffffffffffffffffffffffff021916908373ffffffffffffffffffffffffffffffffffffffff1602179055506000600260008473ffffffffffffffffffffffffffffffffffffffff1673ffffffffffffffffffffffffffffffffffffffff16815260200190815260200160002060006101000a81548173ffffffffffffffffffffffffffffffffffffffff021916908373ffffffffffffffffffffffffffffffffffffffff160217905550505050565b60066020528060005260406000206000915090505481565b6000600454905090565b3073ffffffffffffffffffffffffffffffffffffffff163373ffffffffffffffffffffffffffffffffffffffff16141515613226576040517f08c379a000000000000000000000000000000000000000000000000000000000815260040180806020018281038252602c8152602001807f4d6574686f642063616e206f6e6c792062652063616c6c65642066726f6d207481526020017f68697320636f6e7472616374000000000000000000000000000000000000000081525060400191505060405180910390fd5b80600160035403101515156132c9576040517f08c379a00000000000000000000000000000000000000000000000000000000081526004018080602001828103825260358152602001807f4e6577206f776e657220636f756e74206e6565647320746f206265206c61726781526020017f6572207468616e206e6577207468726573686f6c64000000000000000000000081525060400191505060405180910390fd5b60008273ffffffffffffffffffffffffffffffffffffffff161415801561331d5750600173ffffffffffffffffffffffffffffffffffffffff168273ffffffffffffffffffffffffffffffffffffffff1614155b1515613391576040517f08c379a000000000000000000000000000000000000000000000000000000000815260040180806020018281038252601e8152602001807f496e76616c6964206f776e657220616464726573732070726f7669646564000081525060200191505060405180910390fd5b8173ffffffffffffffffffffffffffffffffffffffff16600260008573ffffffffffffffffffffffffffffffffffffffff1673ffffffffffffffffffffffffffffffffffffffff16815260200190815260200160002060009054906101000a900473ffffffffffffffffffffffffffffffffffffffff1673ffffffffffffffffffffffffffffffffffffffff161415156134b9576040517f08c379a00000000000000000000000000000000000000000000000000000000081526004018080602001828103825260268152602001807f496e76616c696420707265764f776e65722c206f776e6572207061697220707281526020017f6f7669646564000000000000000000000000000000000000000000000000000081525060400191505060405180910390fd5b600260008373ffffffffffffffffffffffffffffffffffffffff1673ffffffffffffffffffffffffffffffffffffffff16815260200190815260200160002060009054906101000a900473ffffffffffffffffffffffffffffffffffffffff16600260008573ffffffffffffffffffffffffffffffffffffffff1673ffffffffffffffffffffffffffffffffffffffff16815260200190815260200160002060006101000a81548173ffffffffffffffffffffffffffffffffffffffff021916908373ffffffffffffffffffffffffffffffffffffffff1602179055506000600260008473ffffffffffffffffffffffffffffffffffffffff1673ffffffffffffffffffffffffffffffffffffffff16815260200190815260200160002060006101000a81548173ffffffffffffffffffffffffffffffffffffffff021916908373ffffffffffffffffffffffffffffffffffffffff160217905550600360008154809291906001900391905055508060045414151561363d5761363c81611e2b565b5b505050565b6040805190810160405280600581526020017f302e302e3100000000000000000000000000000000000000000000000000000081525081565b6000806000806004541415156136f9576040517f08c379a000000000000000000000000000000000000000000000000000000000815260040180806020018281038252601e8152602001807f4f776e657273206861766520616c7265616479206265656e207365747570000081525060200191505060405180910390fd5b84518411151515613798576040517f08c379a00000000000000000000000000000000000000000000000000000000081526004018080602001828103825260238152602001807f5468726573686f6c642063616e6e6f7420657863656564206f776e657220636f81526020017f756e74000000000000000000000000000000000000000000000000000000000081525060400191505060405180910390fd5b60018410151515613837576040517f08c379a00000000000000000000000000000000000000000000000000000000081526004018080602001828103825260248152602001807f5468726573686f6c64206e6565647320746f206265206772656174657220746881526020017f616e20300000000000000000000000000000000000000000000000000000000081525060400191505060405180910390fd5b60019250600091505b8451821015613aa657848281518110151561385757fe5b90602001906020020151905060008173ffffffffffffffffffffffffffffffffffffffff16141580156138b75750600173ffffffffffffffffffffffffffffffffffffffff168173ffffffffffffffffffffffffffffffffffffffff1614155b151561392b576040517f08c379a000000000000000000000000000000000000000000000000000000000815260040180806020018281038252601e8152602001807f496e76616c6964206f776e657220616464726573732070726f7669646564000081525060200191505060405180910390fd5b6000600260008373ffffffffffffffffffffffffffffffffffffffff1673ffffffffffffffffffffffffffffffffffffffff16815260200190815260200160002060009054906101000a900473ffffffffffffffffffffffffffffffffffffffff1673ffffffffffffffffffffffffffffffffffffffff16141515613a18576040517f08c379a00000000000000000000000000000000000000000000000000000000081526004018080602001828103825260208152602001807f4475706c6963617465206f776e657220616464726573732070726f766964656481525060200191505060405180910390fd5b80600260008573ffffffffffffffffffffffffffffffffffffffff1673ffffffffffffffffffffffffffffffffffffffff16815260200190815260200160002060006101000a81548173ffffffffffffffffffffffffffffffffffffffff021916908373ffffffffffffffffffffffffffffffffffffffff1602179055508092508180600101925050613840565b6001600260008573ffffffffffffffffffffffffffffffffffffffff1673ffffffffffffffffffffffffffffffffffffffff16815260200190815260200160002060006101000a81548173ffffffffffffffffffffffffffffffffffffffff021916908373ffffffffffffffffffffffffffffffffffffffff1602179055508451600381905550836004819055505050505050565b600060016000600173ffffffffffffffffffffffffffffffffffffffff1673ffffffffffffffffffffffffffffffffffffffff16815260200190815260200160002060009054906101000a900473ffffffffffffffffffffffffffffffffffffffff1673ffffffffffffffffffffffffffffffffffffffff16141515613c4f576040517f08c379a00000000000000000000000000000000000000000000000000000000081526004018080602001828103825260258152602001807f4d6f64756c6573206861766520616c7265616479206265656e20696e6974696181526020017f6c697a656400000000000000000000000000000000000000000000000000000081525060400191505060405180910390fd5b6001806000600173ffffffffffffffffffffffffffffffffffffffff1673ffffffffffffffffffffffffffffffffffffffff16815260200190815260200160002060006101000a81548173ffffffffffffffffffffffffffffffffffffffff021916908373ffffffffffffffffffffffffffffffffffffffff16021790555060008273ffffffffffffffffffffffffffffffffffffffff16141515613d6e57613cf982825a6140ed565b1515613d6d576040517f08c379a000000000000000000000000000000000000000000000000000000000815260040180806020018281038252601f8152602001807f436f756c64206e6f742066696e69736820696e697469616c697a6174696f6e0081525060200191505060405180910390fd5b5b5050565b60008060008060076000866000191660001916815260200190815260200160002093506000925060026000600173ffffffffffffffffffffffffffffffffffffffff1673ffffffffffffffffffffffffffffffffffffffff16815260200190815260200160002060009054906101000a900473ffffffffffffffffffffffffffffffffffffffff1691505b600173ffffffffffffffffffffffffffffffffffffffff168273ffffffffffffffffffffffffffffffffffffffff16141515613f6f5760008460008473ffffffffffffffffffffffffffffffffffffffff1673ffffffffffffffffffffffffffffffffffffffff16815260200190815260200160002054141590503373ffffffffffffffffffffffffffffffffffffffff168273ffffffffffffffffffffffffffffffffffffffff161480613eaf5750805b15613f08578015613eff5760008460008473ffffffffffffffffffffffffffffffffffffffff1673ffffffffffffffffffffffffffffffffffffffff168152602001908152602001600020819055505b82806001019350505b600260008373ffffffffffffffffffffffffffffffffffffffff1673ffffffffffffffffffffffffffffffffffffffff16815260200190815260200160002060009054906101000a900473ffffffffffffffffffffffffffffffffffffffff169150613dfd565b6004548310151515613fe9576040517f08c379a00000000000000000000000000000000000000000000000000000000081526004018080602001828103825260188152602001807f4e6f7420656e6f75676820636f6e6669726d6174696f6e73000000000000000081525060200191505060405180910390fd5b5050505050565b6000806000600281111561400057fe5b84600281111561400c57fe5b14156140255761401e87878786614104565b91506140e3565b6001600281111561403257fe5b84600281111561403e57fe5b14156140565761404f8786856140ed565b91506140e2565b61405f8561411d565b905060008173ffffffffffffffffffffffffffffffffffffffff16141591507f4db17dd5e4732fb6da34a148104a592783ca119a1e7bb8829eba6cbadef0b51181604051808273ffffffffffffffffffffffffffffffffffffffff1673ffffffffffffffffffffffffffffffffffffffff16815260200191505060405180910390a15b5b5095945050505050565b60008060008451602086018786f490509392505050565b6000806000845160208601878987f19050949350505050565b60008151602083016000f090509190505600a165627a7a7230582031102eb032deb2807d57bb3656f8ed6ee67350204a56a68129268fd2246445fe0029",
  "source": "pragma solidity 0.4.24;\nimport \"./GnosisSafe.sol\";\nimport \"./MasterCopy.sol\";\n\n\n/// @title Gnosis Safe Team Edition - A multisignature wallet with support for confirmations.\n/// @author Stefan George - <stefan@gnosis.pm>\n/// @author Richard Meissner - <richard@gnosis.pm>\ncontract GnosisSafeTeamEdition is MasterCopy, GnosisSafe {\n\n    string public constant NAME = \"Gnosis Safe Team Edition\"; \n    string public constant VERSION = \"0.0.1\";\n    //keccak256(\n    //    \"TeamSafeTx(address to,uint256 value,bytes data,uint8 operation,uint256 nonce)\"\n    //);\n    bytes32 public constant SAFE_TX_TYPEHASH = 0x5d1bba48ff479eb8a88ec6029f6b5eebc805c7dcb87470d5b1121d36d824c873;\n\n    // isExecuted mapping allows to check if a transaction (by hash) was already executed.\n    mapping (bytes32 => uint256) public isExecuted;\n\n    // isApproved mapping allows to check if a transaction (by hash) was confirmed by an owner.\n    // uint256 is used to optimize the generated assembly. if 0 then false else true\n    mapping (bytes32 => mapping(address => uint256)) public isApproved;\n\n    /// @dev Allows to confirm a Safe transaction with a regular transaction.\n    ///      This can only be done from an owner address.\n    /// @param transactionHash Hash of the Safe transaction.\n    function approveTransactionByHash(bytes32 transactionHash)\n        public\n    {\n        // Only Safe owners are allowed to confirm Safe transactions.\n        require(owners[msg.sender] != 0, \"Sender is not an owner\");\n        // It should not be possible to confirm an executed transaction\n        require(isExecuted[transactionHash] == 0, \"Safe transaction already executed\");\n        isApproved[transactionHash][msg.sender] = 1;\n    }\n\n    /// @dev Allows to confirm a Safe transaction with a regular transaction.\n    ///      This can only be done from an owner address.\n    /// @param to Destination address of Safe transaction.\n    /// @param value Ether value of Safe transaction.\n    /// @param data Data payload of Safe transaction.\n    /// @param operation Operation type of Safe transaction.\n    /// @param nonce Nonce used for this Safe transaction.\n    function approveTransactionWithParameters(\n        address to, \n        uint256 value, \n        bytes data, \n        Enum.Operation operation, \n        uint256 nonce\n    )\n        public\n    {\n        approveTransactionByHash(getTransactionHash(to, value, data, operation, nonce));\n    }\n\n    /// @dev Allows to execute a Safe transaction confirmed by required number of owners. If the sender is an owner this is automatically confirmed.\n    /// @param to Destination address of Safe transaction.\n    /// @param value Ether value of Safe transaction.\n    /// @param data Data payload of Safe transaction.\n    /// @param operation Operation type of Safe transaction.\n    /// @param nonce Nonce used for this Safe transaction.\n    function execTransactionIfApproved(\n        address to, \n        uint256 value, \n        bytes data, \n        Enum.Operation operation, \n        uint256 nonce\n    )\n        public\n    {\n        bytes32 transactionHash = getTransactionHash(to, value, data, operation, nonce);\n        require(isExecuted[transactionHash] == 0, \"Safe transaction already executed\");\n        checkAndClearConfirmations(transactionHash);\n        // Mark as executed and execute transaction.\n        isExecuted[transactionHash] = 1;\n        require(execute(to, value, data, operation, gasleft()), \"Could not execute safe transaction\");\n    }\n\n    function checkAndClearConfirmations(bytes32 transactionHash)\n        internal\n    {\n        mapping(address => uint256) approvals = isApproved[transactionHash];\n        uint256 confirmations = 0;\n        // Validate threshold is reached.\n        address currentOwner = owners[SENTINEL_OWNERS];\n        while (currentOwner != SENTINEL_OWNERS) {\n            bool ownerConfirmed = approvals[currentOwner] != 0;\n            if(currentOwner == msg.sender || ownerConfirmed) {\n                if (ownerConfirmed) {\n                    approvals[currentOwner] = 0;\n                }\n                confirmations ++;\n            }\n            currentOwner = owners[currentOwner];\n        }\n        require(confirmations >= threshold, \"Not enough confirmations\");\n    }\n\n    /// @dev Returns hash to be signed by owners.\n    /// @param to Destination address.\n    /// @param value Ether value.\n    /// @param data Data payload.\n    /// @param operation Operation type.\n    /// @param nonce Transaction nonce.\n    /// @return Transaction hash.\n    function getTransactionHash(\n        address to, \n        uint256 value, \n        bytes data, \n        Enum.Operation operation, \n        uint256 nonce\n    )\n        public\n        view\n        returns (bytes32)\n    {\n        bytes32 safeTxHash = keccak256(\n            abi.encode(SAFE_TX_TYPEHASH, to, value, keccak256(data), operation, nonce)\n        );\n        return keccak256(\n            abi.encodePacked(byte(0x19), byte(1), this, safeTxHash)\n        );\n    }\n}\n",
  "sourcePath": "/Users/apanizo/git/gnosis/safe-contracts/contracts/GnosisSafeTeamEdition.sol",
  "compiler": {
    "name": "solc",
    "version": "0.4.24+commit.e67f0147.Emscripten.clang"
  },
  "schemaVersion": "2.0.0",
  "updatedAt": "2018-08-20T07:50:29.706Z"
}