{
  "contractName": "GnosisSafe",
  "abi": [
    {
      "constant": false,
      "inputs": [
        {
          "name": "owner",
          "type": "address"
        },
        {
          "name": "_threshold",
          "type": "uint256"
        }
      ],
      "name": "addOwnerWithThreshold",
      "outputs": [],
      "payable": false,
      "stateMutability": "nonpayable",
      "type": "function"
    },
    {
      "constant": true,
      "inputs": [],
      "name": "DOMAIN_SEPARATOR_TYPEHASH",
      "outputs": [
        {
          "name": "",
          "type": "bytes32"
        }
      ],
      "payable": false,
      "stateMutability": "view",
      "type": "function"
    },
    {
      "constant": true,
      "inputs": [
        {
          "name": "owner",
          "type": "address"
        }
      ],
      "name": "isOwner",
      "outputs": [
        {
          "name": "",
          "type": "bool"
        }
      ],
      "payable": false,
      "stateMutability": "view",
      "type": "function"
    },
    {
      "constant": false,
      "inputs": [
        {
          "name": "to",
          "type": "address"
        },
        {
          "name": "value",
          "type": "uint256"
        },
        {
          "name": "data",
          "type": "bytes"
        },
        {
          "name": "operation",
          "type": "uint8"
        }
      ],
      "name": "execTransactionFromModule",
      "outputs": [
        {
          "name": "success",
          "type": "bool"
        }
      ],
      "payable": false,
      "stateMutability": "nonpayable",
      "type": "function"
    },
    {
      "constant": true,
      "inputs": [
        {
          "name": "",
          "type": "bytes32"
        }
      ],
      "name": "signedMessages",
      "outputs": [
        {
          "name": "",
          "type": "uint256"
        }
      ],
      "payable": false,
      "stateMutability": "view",
      "type": "function"
    },
    {
      "constant": false,
      "inputs": [
        {
          "name": "module",
          "type": "address"
        }
      ],
      "name": "enableModule",
      "outputs": [],
      "payable": false,
      "stateMutability": "nonpayable",
      "type": "function"
    },
    {
      "constant": false,
      "inputs": [
        {
          "name": "_threshold",
          "type": "uint256"
        }
      ],
      "name": "changeThreshold",
      "outputs": [],
      "payable": false,
      "stateMutability": "nonpayable",
      "type": "function"
    },
    {
      "constant": true,
      "inputs": [
        {
          "name": "",
          "type": "address"
        },
        {
          "name": "",
          "type": "bytes32"
        }
      ],
      "name": "approvedHashes",
      "outputs": [
        {
          "name": "",
          "type": "uint256"
        }
      ],
      "payable": false,
      "stateMutability": "view",
      "type": "function"
    },
    {
      "constant": false,
      "inputs": [
        {
          "name": "_masterCopy",
          "type": "address"
        }
      ],
      "name": "changeMasterCopy",
      "outputs": [],
      "payable": false,
      "stateMutability": "nonpayable",
      "type": "function"
    },
    {
      "constant": true,
      "inputs": [],
      "name": "SENTINEL_MODULES",
      "outputs": [
        {
          "name": "",
          "type": "address"
        }
      ],
      "payable": false,
      "stateMutability": "view",
      "type": "function"
    },
    {
      "constant": true,
      "inputs": [],
      "name": "SENTINEL_OWNERS",
      "outputs": [
        {
          "name": "",
          "type": "address"
        }
      ],
      "payable": false,
      "stateMutability": "view",
      "type": "function"
    },
    {
      "constant": true,
      "inputs": [],
      "name": "getOwners",
      "outputs": [
        {
          "name": "",
          "type": "address[]"
        }
      ],
      "payable": false,
      "stateMutability": "view",
      "type": "function"
    },
    {
      "constant": true,
      "inputs": [],
      "name": "NAME",
      "outputs": [
        {
          "name": "",
          "type": "string"
        }
      ],
      "payable": false,
      "stateMutability": "view",
      "type": "function"
    },
    {
      "constant": true,
      "inputs": [],
      "name": "nonce",
      "outputs": [
        {
          "name": "",
          "type": "uint256"
        }
      ],
      "payable": false,
      "stateMutability": "view",
      "type": "function"
    },
    {
      "constant": true,
      "inputs": [],
      "name": "getModules",
      "outputs": [
        {
          "name": "",
          "type": "address[]"
        }
      ],
      "payable": false,
      "stateMutability": "view",
      "type": "function"
    },
    {
      "constant": true,
      "inputs": [],
      "name": "SAFE_MSG_TYPEHASH",
      "outputs": [
        {
          "name": "",
          "type": "bytes32"
        }
      ],
      "payable": false,
      "stateMutability": "view",
      "type": "function"
    },
    {
      "constant": true,
      "inputs": [],
      "name": "SAFE_TX_TYPEHASH",
      "outputs": [
        {
          "name": "",
          "type": "bytes32"
        }
      ],
      "payable": false,
      "stateMutability": "view",
      "type": "function"
    },
    {
      "constant": false,
      "inputs": [
        {
          "name": "prevModule",
          "type": "address"
        },
        {
          "name": "module",
          "type": "address"
        }
      ],
      "name": "disableModule",
      "outputs": [],
      "payable": false,
      "stateMutability": "nonpayable",
      "type": "function"
    },
    {
      "constant": false,
      "inputs": [
        {
          "name": "prevOwner",
          "type": "address"
        },
        {
          "name": "oldOwner",
          "type": "address"
        },
        {
          "name": "newOwner",
          "type": "address"
        }
      ],
      "name": "swapOwner",
      "outputs": [],
      "payable": false,
      "stateMutability": "nonpayable",
      "type": "function"
    },
    {
      "constant": true,
      "inputs": [],
      "name": "getThreshold",
      "outputs": [
        {
          "name": "",
          "type": "uint256"
        }
      ],
      "payable": false,
      "stateMutability": "view",
      "type": "function"
    },
    {
      "constant": true,
      "inputs": [],
      "name": "domainSeparator",
      "outputs": [
        {
          "name": "",
          "type": "bytes32"
        }
      ],
      "payable": false,
      "stateMutability": "view",
      "type": "function"
    },
    {
      "constant": false,
      "inputs": [
        {
          "name": "prevOwner",
          "type": "address"
        },
        {
          "name": "owner",
          "type": "address"
        },
        {
          "name": "_threshold",
          "type": "uint256"
        }
      ],
      "name": "removeOwner",
      "outputs": [],
      "payable": false,
      "stateMutability": "nonpayable",
      "type": "function"
    },
    {
      "constant": true,
      "inputs": [],
      "name": "VERSION",
      "outputs": [
        {
          "name": "",
          "type": "string"
        }
      ],
      "payable": false,
      "stateMutability": "view",
      "type": "function"
    },
    {
      "payable": true,
      "stateMutability": "payable",
      "type": "fallback"
    },
    {
      "anonymous": false,
      "inputs": [
        {
          "indexed": false,
          "name": "txHash",
          "type": "bytes32"
        }
      ],
      "name": "ExecutionFailed",
      "type": "event"
    },
    {
      "anonymous": false,
      "inputs": [
        {
          "indexed": false,
          "name": "owner",
          "type": "address"
        }
      ],
      "name": "AddedOwner",
      "type": "event"
    },
    {
      "anonymous": false,
      "inputs": [
        {
          "indexed": false,
          "name": "owner",
          "type": "address"
        }
      ],
      "name": "RemovedOwner",
      "type": "event"
    },
    {
      "anonymous": false,
      "inputs": [
        {
          "indexed": false,
          "name": "threshold",
          "type": "uint256"
        }
      ],
      "name": "ChangedThreshold",
      "type": "event"
    },
    {
      "anonymous": false,
      "inputs": [
        {
          "indexed": false,
          "name": "module",
          "type": "address"
        }
      ],
      "name": "EnabledModule",
      "type": "event"
    },
    {
      "anonymous": false,
      "inputs": [
        {
          "indexed": false,
          "name": "module",
          "type": "address"
        }
      ],
      "name": "DisabledModule",
      "type": "event"
    },
    {
      "anonymous": false,
      "inputs": [
        {
          "indexed": false,
          "name": "newContract",
          "type": "address"
        }
      ],
      "name": "ContractCreation",
      "type": "event"
    },
    {
      "constant": false,
      "inputs": [
        {
          "name": "_owners",
          "type": "address[]"
        },
        {
          "name": "_threshold",
          "type": "uint256"
        },
        {
          "name": "to",
          "type": "address"
        },
        {
          "name": "data",
          "type": "bytes"
        }
      ],
      "name": "setup",
      "outputs": [],
      "payable": false,
      "stateMutability": "nonpayable",
      "type": "function"
    },
    {
      "constant": false,
      "inputs": [
        {
          "name": "to",
          "type": "address"
        },
        {
          "name": "value",
          "type": "uint256"
        },
        {
          "name": "data",
          "type": "bytes"
        },
        {
          "name": "operation",
          "type": "uint8"
        },
        {
          "name": "safeTxGas",
          "type": "uint256"
        },
        {
          "name": "dataGas",
          "type": "uint256"
        },
        {
          "name": "gasPrice",
          "type": "uint256"
        },
        {
          "name": "gasToken",
          "type": "address"
        },
        {
          "name": "refundReceiver",
          "type": "address"
        },
        {
          "name": "signatures",
          "type": "bytes"
        }
      ],
      "name": "execTransaction",
      "outputs": [
        {
          "name": "success",
          "type": "bool"
        }
      ],
      "payable": false,
      "stateMutability": "nonpayable",
      "type": "function"
    },
    {
      "constant": false,
      "inputs": [
        {
          "name": "to",
          "type": "address"
        },
        {
          "name": "value",
          "type": "uint256"
        },
        {
          "name": "data",
          "type": "bytes"
        },
        {
          "name": "operation",
          "type": "uint8"
        }
      ],
      "name": "requiredTxGas",
      "outputs": [
        {
          "name": "",
          "type": "uint256"
        }
      ],
      "payable": false,
      "stateMutability": "nonpayable",
      "type": "function"
    },
    {
      "constant": false,
      "inputs": [
        {
          "name": "hashToApprove",
          "type": "bytes32"
        }
      ],
      "name": "approveHash",
      "outputs": [],
      "payable": false,
      "stateMutability": "nonpayable",
      "type": "function"
    },
    {
      "constant": false,
      "inputs": [
        {
          "name": "_data",
          "type": "bytes"
        }
      ],
      "name": "signMessage",
      "outputs": [],
      "payable": false,
      "stateMutability": "nonpayable",
      "type": "function"
    },
    {
      "constant": false,
      "inputs": [
        {
          "name": "_data",
          "type": "bytes"
        },
        {
          "name": "_signature",
          "type": "bytes"
        }
      ],
      "name": "isValidSignature",
      "outputs": [
        {
          "name": "isValid",
          "type": "bool"
        }
      ],
      "payable": false,
      "stateMutability": "nonpayable",
      "type": "function"
    },
    {
      "constant": true,
      "inputs": [
        {
          "name": "message",
          "type": "bytes"
        }
      ],
      "name": "getMessageHash",
      "outputs": [
        {
          "name": "",
          "type": "bytes32"
        }
      ],
      "payable": false,
      "stateMutability": "view",
      "type": "function"
    },
    {
      "constant": true,
      "inputs": [
        {
          "name": "to",
          "type": "address"
        },
        {
          "name": "value",
          "type": "uint256"
        },
        {
          "name": "data",
          "type": "bytes"
        },
        {
          "name": "operation",
          "type": "uint8"
        },
        {
          "name": "safeTxGas",
          "type": "uint256"
        },
        {
          "name": "dataGas",
          "type": "uint256"
        },
        {
          "name": "gasPrice",
          "type": "uint256"
        },
        {
          "name": "gasToken",
          "type": "address"
        },
        {
          "name": "refundReceiver",
          "type": "address"
        },
        {
          "name": "_nonce",
          "type": "uint256"
        }
      ],
      "name": "encodeTransactionData",
      "outputs": [
        {
          "name": "",
          "type": "bytes"
        }
      ],
      "payable": false,
      "stateMutability": "view",
      "type": "function"
    },
    {
      "constant": true,
      "inputs": [
        {
          "name": "to",
          "type": "address"
        },
        {
          "name": "value",
          "type": "uint256"
        },
        {
          "name": "data",
          "type": "bytes"
        },
        {
          "name": "operation",
          "type": "uint8"
        },
        {
          "name": "safeTxGas",
          "type": "uint256"
        },
        {
          "name": "dataGas",
          "type": "uint256"
        },
        {
          "name": "gasPrice",
          "type": "uint256"
        },
        {
          "name": "gasToken",
          "type": "address"
        },
        {
          "name": "refundReceiver",
          "type": "address"
        },
        {
          "name": "_nonce",
          "type": "uint256"
        }
      ],
      "name": "getTransactionHash",
      "outputs": [
        {
          "name": "",
          "type": "bytes32"
        }
      ],
      "payable": false,
      "stateMutability": "view",
      "type": "function"
    }
  ],
  "bytecode": "0x608060405234801561001057600080fd5b506154e4806100206000396000f300608060405260043610610196576000357c0100000000000000000000000000000000000000000000000000000000900463ffffffff1680630a1028c4146101985780630d582f131461021d5780630ec78d9e1461026a5780631db61b541461034057806320c13b0b146103735780632f54bf6e1461043a578063468721a7146104955780635ae6bd371461054d578063610b592514610592578063694e80c3146105d55780636a761202146106025780637d8329741461075e5780637de7edef146107c357806385a5affe1461080657806385e332cd1461086f5780638cff6355146108c6578063a0e67e2b1461091d578063a3f4df7e14610989578063affed0e014610a19578063b2494df314610a44578063c0856ffc14610ab0578063c4ca3a9c14610ae3578063ccafc38714610b97578063d4d9bdcd14610bca578063d8d11f7814610bfb578063e009cfde14610d1f578063e318b52b14610d82578063e75235b814610e05578063e86637db14610e30578063f698da2514610fb1578063f8dc5dd914610fe4578063ffa1ad7414611051575b005b3480156101a457600080fd5b506101ff600480360381019080803590602001908201803590602001908080601f01602080910402602001604051908101604052809392919081815260200183838082843782019150505050505091929192905050506110e1565b60405180826000191660001916815260200191505060405180910390f35b34801561022957600080fd5b50610268600480360381019080803573ffffffffffffffffffffffffffffffffffffffff16906020019092919080359060200190929190505050611387565b005b34801561027657600080fd5b5061033e6004803603810190808035906020019082018035906020019080806020026020016040519081016040528093929190818152602001838360200280828437820191505050505050919291929080359060200190929190803573ffffffffffffffffffffffffffffffffffffffff169060200190929190803590602001908201803590602001908080601f01602080910402602001604051908101604052809392919081815260200183838082843782019150505050505091929192905050506117f0565b005b34801561034c57600080fd5b5061035561196e565b60405180826000191660001916815260200191505060405180910390f35b34801561037f57600080fd5b50610420600480360381019080803590602001908201803590602001908080601f0160208091040260200160405190810160405280939291908181526020018383808284378201915050505050509192919290803590602001908201803590602001908080601f0160208091040260200160405190810160405280939291908181526020018383808284378201915050505050509192919290505050611995565b604051808215151515815260200191505060405180910390f35b34801561044657600080fd5b5061047b600480360381019080803573ffffffffffffffffffffffffffffffffffffffff1690602001909291905050506119eb565b604051808215151515815260200191505060405180910390f35b3480156104a157600080fd5b50610533600480360381019080803573ffffffffffffffffffffffffffffffffffffffff16906020019092919080359060200190929190803590602001908201803590602001908080601f0160208091040260200160405190810160405280939291908181526020018383808284378201915050505050509192919290803560ff169060200190929190505050611a6d565b604051808215151515815260200191505060405180910390f35b34801561055957600080fd5b5061057c6004803603810190808035600019169060200190929190505050611b99565b6040518082815260200191505060405180910390f35b34801561059e57600080fd5b506105d3600480360381019080803573ffffffffffffffffffffffffffffffffffffffff169060200190929190505050611bb1565b005b3480156105e157600080fd5b5061060060048036038101908080359060200190929190505050611ff2565b005b34801561060e57600080fd5b50610744600480360381019080803573ffffffffffffffffffffffffffffffffffffffff16906020019092919080359060200190929190803590602001908201803590602001908080601f0160208091040260200160405190810160405280939291908181526020018383808284378201915050505050509192919290803560ff169060200190929190803590602001909291908035906020019092919080359060200190929190803573ffffffffffffffffffffffffffffffffffffffff169060200190929190803573ffffffffffffffffffffffffffffffffffffffff169060200190929190803590602001908201803590602001908080601f016020809104026020016040519081016040528093929190818152602001838380828437820191505050505050919291929050505061223d565b604051808215151515815260200191505060405180910390f35b34801561076a57600080fd5b506107ad600480360381019080803573ffffffffffffffffffffffffffffffffffffffff16906020019092919080356000191690602001909291905050506124e8565b6040518082815260200191505060405180910390f35b3480156107cf57600080fd5b50610804600480360381019080803573ffffffffffffffffffffffffffffffffffffffff16906020019092919050505061250d565b005b34801561081257600080fd5b5061086d600480360381019080803590602001908201803590602001908080601f01602080910402602001604051908101604052809392919081815260200183838082843782019150505050505091929192905050506126ce565b005b34801561087b57600080fd5b506108846127c3565b604051808273ffffffffffffffffffffffffffffffffffffffff1673ffffffffffffffffffffffffffffffffffffffff16815260200191505060405180910390f35b3480156108d257600080fd5b506108db6127c8565b604051808273ffffffffffffffffffffffffffffffffffffffff1673ffffffffffffffffffffffffffffffffffffffff16815260200191505060405180910390f35b34801561092957600080fd5b506109326127cd565b6040518080602001828103825283818151815260200191508051906020019060200280838360005b8381101561097557808201518184015260208101905061095a565b505050509050019250505060405180910390f35b34801561099557600080fd5b5061099e612968565b6040518080602001828103825283818151815260200191508051906020019080838360005b838110156109de5780820151818401526020810190506109c3565b50505050905090810190601f168015610a0b5780820380516001836020036101000a031916815260200191505b509250505060405180910390f35b348015610a2557600080fd5b50610a2e6129a1565b6040518082815260200191505060405180910390f35b348015610a5057600080fd5b50610a596129a7565b6040518080602001828103825283818151815260200191508051906020019060200280838360005b83811015610a9c578082015181840152602081019050610a81565b505050509050019250505060405180910390f35b348015610abc57600080fd5b50610ac5612c4e565b60405180826000191660001916815260200191505060405180910390f35b348015610aef57600080fd5b50610b81600480360381019080803573ffffffffffffffffffffffffffffffffffffffff16906020019092919080359060200190929190803590602001908201803590602001908080601f0160208091040260200160405190810160405280939291908181526020018383808284378201915050505050509192919290803560ff169060200190929190505050612c75565b6040518082815260200191505060405180910390f35b348015610ba357600080fd5b50610bac612e24565b60405180826000191660001916815260200191505060405180910390f35b348015610bd657600080fd5b50610bf96004803603810190808035600019169060200190929190505050612e4b565b005b348015610c0757600080fd5b50610d01600480360381019080803573ffffffffffffffffffffffffffffffffffffffff16906020019092919080359060200190929190803590602001908201803590602001908080601f0160208091040260200160405190810160405280939291908181526020018383808284378201915050505050509192919290803560ff169060200190929190803590602001909291908035906020019092919080359060200190929190803573ffffffffffffffffffffffffffffffffffffffff169060200190929190803573ffffffffffffffffffffffffffffffffffffffff16906020019092919080359060200190929190505050612f9a565b60405180826000191660001916815260200191505060405180910390f35b348015610d2b57600080fd5b50610d80600480360381019080803573ffffffffffffffffffffffffffffffffffffffff169060200190929190803573ffffffffffffffffffffffffffffffffffffffff169060200190929190505050613020565b005b348015610d8e57600080fd5b50610e03600480360381019080803573ffffffffffffffffffffffffffffffffffffffff169060200190929190803573ffffffffffffffffffffffffffffffffffffffff169060200190929190803573ffffffffffffffffffffffffffffffffffffffff16906020019092919050505061349c565b005b348015610e1157600080fd5b50610e1a613baf565b6040518082815260200191505060405180910390f35b348015610e3c57600080fd5b50610f36600480360381019080803573ffffffffffffffffffffffffffffffffffffffff16906020019092919080359060200190929190803590602001908201803590602001908080601f0160208091040260200160405190810160405280939291908181526020018383808284378201915050505050509192919290803560ff169060200190929190803590602001909291908035906020019092919080359060200190929190803573ffffffffffffffffffffffffffffffffffffffff169060200190929190803573ffffffffffffffffffffffffffffffffffffffff16906020019092919080359060200190929190505050613bb9565b6040518080602001828103825283818151815260200191508051906020019080838360005b83811015610f76578082015181840152602081019050610f5b565b50505050905090810190601f168015610fa35780820380516001836020036101000a031916815260200191505b509250505060405180910390f35b348015610fbd57600080fd5b50610fc6613ee1565b60405180826000191660001916815260200191505060405180910390f35b348015610ff057600080fd5b5061104f600480360381019080803573ffffffffffffffffffffffffffffffffffffffff169060200190929190803573ffffffffffffffffffffffffffffffffffffffff16906020019092919080359060200190929190505050613ee7565b005b34801561105d57600080fd5b5061106661442f565b6040518080602001828103825283818151815260200191508051906020019080838360005b838110156110a657808201518184015260208101905061108b565b50505050905090810190601f1680156110d35780820380516001836020036101000a031916815260200191505b509250505060405180910390f35b6000807f60b3cbf8b4a223d68d641b3b6ddf9a298e7f33710cf3d3a9d1146b5a6150fbca600102836040518082805190602001908083835b60208310151561113e5780518252602082019150602081019050602083039250611119565b6001836020036101000a03801982511681845116808217855250505050505090500191505060405180910390206040516020018083600019166000191681526020018260001916600019168152602001925050506040516020818303038152906040526040518082805190602001908083835b6020831015156111d657805182526020820191506020810190506020830392506111b1565b6001836020036101000a0380198251168184511680821785525050505050509050019150506040518091039020905060197f01000000000000000000000000000000000000000000000000000000000000000260017f0100000000000000000000000000000000000000000000000000000000000000026006548360405160200180857effffffffffffffffffffffffffffffffffffffffffffffffffffffffffffff19167effffffffffffffffffffffffffffffffffffffffffffffffffffffffffffff19168152600101847effffffffffffffffffffffffffffffffffffffffffffffffffffffffffffff19167effffffffffffffffffffffffffffffffffffffffffffffffffffffffffffff19168152600101836000191660001916815260200182600019166000191681526020019450505050506040516020818303038152906040526040518082805190602001908083835b602083101515611352578051825260208201915060208101905060208303925061132d565b6001836020036101000a0380198251168184511680821785525050505050509050019150506040518091039020915050919050565b3073ffffffffffffffffffffffffffffffffffffffff163373ffffffffffffffffffffffffffffffffffffffff16141515611450576040517f08c379a000000000000000000000000000000000000000000000000000000000815260040180806020018281038252602c8152602001807f4d6574686f642063616e206f6e6c792062652063616c6c65642066726f6d207481526020017f68697320636f6e7472616374000000000000000000000000000000000000000081525060400191505060405180910390fd5b60008273ffffffffffffffffffffffffffffffffffffffff16141580156114a45750600173ffffffffffffffffffffffffffffffffffffffff168273ffffffffffffffffffffffffffffffffffffffff1614155b1515611518576040517f08c379a000000000000000000000000000000000000000000000000000000000815260040180806020018281038252601e8152602001807f496e76616c6964206f776e657220616464726573732070726f7669646564000081525060200191505060405180910390fd5b6000600260008473ffffffffffffffffffffffffffffffffffffffff1673ffffffffffffffffffffffffffffffffffffffff16815260200190815260200160002060009054906101000a900473ffffffffffffffffffffffffffffffffffffffff1673ffffffffffffffffffffffffffffffffffffffff16141515611605576040517f08c379a000000000000000000000000000000000000000000000000000000000815260040180806020018281038252601b8152602001807f4164647265737320697320616c726561647920616e206f776e6572000000000081525060200191505060405180910390fd5b60026000600173ffffffffffffffffffffffffffffffffffffffff1673ffffffffffffffffffffffffffffffffffffffff16815260200190815260200160002060009054906101000a900473ffffffffffffffffffffffffffffffffffffffff16600260008473ffffffffffffffffffffffffffffffffffffffff1673ffffffffffffffffffffffffffffffffffffffff16815260200190815260200160002060006101000a81548173ffffffffffffffffffffffffffffffffffffffff021916908373ffffffffffffffffffffffffffffffffffffffff1602179055508160026000600173ffffffffffffffffffffffffffffffffffffffff1673ffffffffffffffffffffffffffffffffffffffff16815260200190815260200160002060006101000a81548173ffffffffffffffffffffffffffffffffffffffff021916908373ffffffffffffffffffffffffffffffffffffffff1602179055506003600081548092919060010191905055507f9465fa0c962cc76958e6373a993326400c1c94f8be2fe3a952adfa7f60b2ea2682604051808273ffffffffffffffffffffffffffffffffffffffff1673ffffffffffffffffffffffffffffffffffffffff16815260200191505060405180910390a1806004541415156117ec576117eb81611ff2565b5b5050565b600060010260065460001916141515611871576040517f08c379a000000000000000000000000000000000000000000000000000000000815260040180806020018281038252601d8152602001807f446f6d61696e20536570617261746f7220616c7265616479207365742100000081525060200191505060405180910390fd5b7f035aff83d86937d35b32e04f0ddc6ff469290eef2f1b692d8a815c89404d4749600102306040516020018083600019166000191681526020018273ffffffffffffffffffffffffffffffffffffffff1673ffffffffffffffffffffffffffffffffffffffff168152602001925050506040516020818303038152906040526040518082805190602001908083835b6020831015156119255780518252602082019150602081019050602083039250611900565b6001836020036101000a03801982511681845116808217855250505050505090500191505060405180910390206006816000191690555061196884848484614468565b50505050565b7f035aff83d86937d35b32e04f0ddc6ff469290eef2f1b692d8a815c89404d474960010281565b6000806119a1846110e1565b90506000835114156119d457600060076000836000191660001916815260200190815260200160002054141591506119e4565b6119e18185856000614482565b91505b5092915050565b600080600260008473ffffffffffffffffffffffffffffffffffffffff1673ffffffffffffffffffffffffffffffffffffffff16815260200190815260200160002060009054906101000a900473ffffffffffffffffffffffffffffffffffffffff1673ffffffffffffffffffffffffffffffffffffffff1614159050919050565b600080600160003373ffffffffffffffffffffffffffffffffffffffff1673ffffffffffffffffffffffffffffffffffffffff16815260200190815260200160002060009054906101000a900473ffffffffffffffffffffffffffffffffffffffff1673ffffffffffffffffffffffffffffffffffffffff1614151515611b82576040517f08c379a00000000000000000000000000000000000000000000000000000000081526004018080602001828103825260308152602001807f4d6574686f642063616e206f6e6c792062652063616c6c65642066726f6d206181526020017f6e20656e61626c6564206d6f64756c650000000000000000000000000000000081525060400191505060405180910390fd5b611b8f858585855a614938565b9050949350505050565b60076020528060005260406000206000915090505481565b3073ffffffffffffffffffffffffffffffffffffffff163373ffffffffffffffffffffffffffffffffffffffff16141515611c7a576040517f08c379a000000000000000000000000000000000000000000000000000000000815260040180806020018281038252602c8152602001807f4d6574686f642063616e206f6e6c792062652063616c6c65642066726f6d207481526020017f68697320636f6e7472616374000000000000000000000000000000000000000081525060400191505060405180910390fd5b60008173ffffffffffffffffffffffffffffffffffffffff1614158015611cce5750600173ffffffffffffffffffffffffffffffffffffffff168173ffffffffffffffffffffffffffffffffffffffff1614155b1515611d42576040517f08c379a000000000000000000000000000000000000000000000000000000000815260040180806020018281038252601f8152602001807f496e76616c6964206d6f64756c6520616464726573732070726f76696465640081525060200191505060405180910390fd5b6000600160008373ffffffffffffffffffffffffffffffffffffffff1673ffffffffffffffffffffffffffffffffffffffff16815260200190815260200160002060009054906101000a900473ffffffffffffffffffffffffffffffffffffffff1673ffffffffffffffffffffffffffffffffffffffff16141515611e2f576040517f08c379a000000000000000000000000000000000000000000000000000000000815260040180806020018281038252601d8152602001807f4d6f64756c652068617320616c7265616479206265656e20616464656400000081525060200191505060405180910390fd5b60016000600173ffffffffffffffffffffffffffffffffffffffff1673ffffffffffffffffffffffffffffffffffffffff16815260200190815260200160002060009054906101000a900473ffffffffffffffffffffffffffffffffffffffff16600160008373ffffffffffffffffffffffffffffffffffffffff1673ffffffffffffffffffffffffffffffffffffffff16815260200190815260200160002060006101000a81548173ffffffffffffffffffffffffffffffffffffffff021916908373ffffffffffffffffffffffffffffffffffffffff1602179055508060016000600173ffffffffffffffffffffffffffffffffffffffff1673ffffffffffffffffffffffffffffffffffffffff16815260200190815260200160002060006101000a81548173ffffffffffffffffffffffffffffffffffffffff021916908373ffffffffffffffffffffffffffffffffffffffff1602179055507fecdf3a3effea5783a3c4c2140e677577666428d44ed9d474a0b3a4c9943f844081604051808273ffffffffffffffffffffffffffffffffffffffff1673ffffffffffffffffffffffffffffffffffffffff16815260200191505060405180910390a150565b3073ffffffffffffffffffffffffffffffffffffffff163373ffffffffffffffffffffffffffffffffffffffff161415156120bb576040517f08c379a000000000000000000000000000000000000000000000000000000000815260040180806020018281038252602c8152602001807f4d6574686f642063616e206f6e6c792062652063616c6c65642066726f6d207481526020017f68697320636f6e7472616374000000000000000000000000000000000000000081525060400191505060405180910390fd5b600354811115151561215b576040517f08c379a00000000000000000000000000000000000000000000000000000000081526004018080602001828103825260238152602001807f5468726573686f6c642063616e6e6f7420657863656564206f776e657220636f81526020017f756e74000000000000000000000000000000000000000000000000000000000081525060400191505060405180910390fd5b600181101515156121fa576040517f08c379a00000000000000000000000000000000000000000000000000000000081526004018080602001828103825260248152602001807f5468726573686f6c64206e6565647320746f206265206772656174657220746881526020017f616e20300000000000000000000000000000000000000000000000000000000081525060400191505060405180910390fd5b806004819055507f610f7ff2b304ae8903c3de74c60c6ab1f7d6226b3f52c5161905bb5ad4039c936004546040518082815260200191505060405180910390a150565b60008060605a91506122598d8d8d8d8d8d8d8d8d600554613bb9565b90506122ca816040518082805190602001908083835b602083101515612294578051825260208201915060208101905060208303925061226f565b6001836020036101000a038019825116818451168082178552505050505050905001915050604051809103902082866001614482565b151561233e576040517f08c379a000000000000000000000000000000000000000000000000000000000815260040180806020018281038252601b8152602001807f496e76616c6964207369676e6174757265732070726f7669646564000000000081525060200191505060405180910390fd5b600560008154809291906001019190505550885a101515156123ee576040517f08c379a000000000000000000000000000000000000000000000000000000000815260040180806020018281038252602a8152602001807f4e6f7420656e6f7567682067617320746f20657865637574652073616665207481526020017f72616e73616374696f6e0000000000000000000000000000000000000000000081525060400191505060405180910390fd5b6124168d8d8d8d60008e148015612405575060008c145b61240f578d612411565b5a5b614938565b92508215156124c1577fabfd711ecdd15ae3a6b3ad16ff2e9d81aec026a39d16725ee164be4fbf857a7c816040518082805190602001908083835b6020831015156124765780518252602082019150602081019050602083039250612451565b6001836020036101000a038019825116818451168082178552505050505050905001915050604051809103902060405180826000191660001916815260200191505060405180910390a15b60008711156124d8576124d78289898989614a35565b5b50509a9950505050505050505050565b6008602052816000526040600020602052806000526040600020600091509150505481565b3073ffffffffffffffffffffffffffffffffffffffff163373ffffffffffffffffffffffffffffffffffffffff161415156125d6576040517f08c379a000000000000000000000000000000000000000000000000000000000815260040180806020018281038252602c8152602001807f4d6574686f642063616e206f6e6c792062652063616c6c65642066726f6d207481526020017f68697320636f6e7472616374000000000000000000000000000000000000000081525060400191505060405180910390fd5b60008173ffffffffffffffffffffffffffffffffffffffff161415151561268b576040517f08c379a00000000000000000000000000000000000000000000000000000000081526004018080602001828103825260248152602001807f496e76616c6964206d617374657220636f707920616464726573732070726f7681526020017f696465640000000000000000000000000000000000000000000000000000000081525060400191505060405180910390fd5b806000806101000a81548173ffffffffffffffffffffffffffffffffffffffff021916908373ffffffffffffffffffffffffffffffffffffffff16021790555050565b3073ffffffffffffffffffffffffffffffffffffffff163373ffffffffffffffffffffffffffffffffffffffff16141515612797576040517f08c379a000000000000000000000000000000000000000000000000000000000815260040180806020018281038252602c8152602001807f4d6574686f642063616e206f6e6c792062652063616c6c65642066726f6d207481526020017f68697320636f6e7472616374000000000000000000000000000000000000000081525060400191505060405180910390fd5b6001600760006127a6846110e1565b600019166000191681526020019081526020016000208190555050565b600181565b600181565b6060806000806003546040519080825280602002602001820160405280156128045781602001602082028038833980820191505090505b5092506000915060026000600173ffffffffffffffffffffffffffffffffffffffff1673ffffffffffffffffffffffffffffffffffffffff16815260200190815260200160002060009054906101000a900473ffffffffffffffffffffffffffffffffffffffff1690505b600173ffffffffffffffffffffffffffffffffffffffff168173ffffffffffffffffffffffffffffffffffffffff1614151561295f578083838151811015156128b457fe5b9060200190602002019073ffffffffffffffffffffffffffffffffffffffff16908173ffffffffffffffffffffffffffffffffffffffff1681525050600260008273ffffffffffffffffffffffffffffffffffffffff1673ffffffffffffffffffffffffffffffffffffffff16815260200190815260200160002060009054906101000a900473ffffffffffffffffffffffffffffffffffffffff169050818060010192505061286f565b82935050505090565b6040805190810160405280600b81526020017f476e6f736973205361666500000000000000000000000000000000000000000081525081565b60055481565b606060008060606000925060016000600173ffffffffffffffffffffffffffffffffffffffff1673ffffffffffffffffffffffffffffffffffffffff16815260200190815260200160002060009054906101000a900473ffffffffffffffffffffffffffffffffffffffff1691505b600173ffffffffffffffffffffffffffffffffffffffff168273ffffffffffffffffffffffffffffffffffffffff16141515612abb57600160008373ffffffffffffffffffffffffffffffffffffffff1673ffffffffffffffffffffffffffffffffffffffff16815260200190815260200160002060009054906101000a900473ffffffffffffffffffffffffffffffffffffffff1691508280600101935050612a16565b82604051908082528060200260200182016040528015612aea5781602001602082028038833980820191505090505b5090506000925060016000600173ffffffffffffffffffffffffffffffffffffffff1673ffffffffffffffffffffffffffffffffffffffff16815260200190815260200160002060009054906101000a900473ffffffffffffffffffffffffffffffffffffffff1691505b600173ffffffffffffffffffffffffffffffffffffffff168273ffffffffffffffffffffffffffffffffffffffff16141515612c4557818184815181101515612b9a57fe5b9060200190602002019073ffffffffffffffffffffffffffffffffffffffff16908173ffffffffffffffffffffffffffffffffffffffff1681525050600160008373ffffffffffffffffffffffffffffffffffffffff1673ffffffffffffffffffffffffffffffffffffffff16815260200190815260200160002060009054906101000a900473ffffffffffffffffffffffffffffffffffffffff1691508280600101935050612b55565b80935050505090565b7f60b3cbf8b4a223d68d641b3b6ddf9a298e7f33710cf3d3a9d1146b5a6150fbca60010281565b60008060003073ffffffffffffffffffffffffffffffffffffffff163373ffffffffffffffffffffffffffffffffffffffff16141515612d43576040517f08c379a000000000000000000000000000000000000000000000000000000000815260040180806020018281038252602c8152602001807f4d6574686f642063616e206f6e6c792062652063616c6c65642066726f6d207481526020017f68697320636f6e7472616374000000000000000000000000000000000000000081525060400191505060405180910390fd5b5a9150612d53878787875a614938565b1515612d5e57600080fd5b5a8203905080604051602001808281526020019150506040516020818303038152906040526040517f08c379a00000000000000000000000000000000000000000000000000000000081526004018080602001828103825283818151815260200191508051906020019080838360005b83811015612de9578082015181840152602081019050612dce565b50505050905090810190601f168015612e165780820380516001836020036101000a031916815260200191505b509250505060405180910390fd5b7f14d461bc7412367e924637b363c7bf29b8f47e2f84869f4426e5633d8af47b2060010281565b6000600260003373ffffffffffffffffffffffffffffffffffffffff1673ffffffffffffffffffffffffffffffffffffffff16815260200190815260200160002060009054906101000a900473ffffffffffffffffffffffffffffffffffffffff1673ffffffffffffffffffffffffffffffffffffffff1614151515612f39576040517f08c379a000000000000000000000000000000000000000000000000000000000815260040180806020018281038252601e8152602001807f4f6e6c79206f776e6572732063616e20617070726f766520612068617368000081525060200191505060405180910390fd5b6001600860003373ffffffffffffffffffffffffffffffffffffffff1673ffffffffffffffffffffffffffffffffffffffff168152602001908152602001600020600083600019166000191681526020019081526020016000208190555050565b6000612fae8b8b8b8b8b8b8b8b8b8b613bb9565b6040518082805190602001908083835b602083101515612fe35780518252602082019150602081019050602083039250612fbe565b6001836020036101000a038019825116818451168082178552505050505050905001915050604051809103902090509a9950505050505050505050565b3073ffffffffffffffffffffffffffffffffffffffff163373ffffffffffffffffffffffffffffffffffffffff161415156130e9576040517f08c379a000000000000000000000000000000000000000000000000000000000815260040180806020018281038252602c8152602001807f4d6574686f642063616e206f6e6c792062652063616c6c65642066726f6d207481526020017f68697320636f6e7472616374000000000000000000000000000000000000000081525060400191505060405180910390fd5b60008173ffffffffffffffffffffffffffffffffffffffff161415801561313d5750600173ffffffffffffffffffffffffffffffffffffffff168173ffffffffffffffffffffffffffffffffffffffff1614155b15156131b1576040517f08c379a000000000000000000000000000000000000000000000000000000000815260040180806020018281038252601f8152602001807f496e76616c6964206d6f64756c6520616464726573732070726f76696465640081525060200191505060405180910390fd5b8073ffffffffffffffffffffffffffffffffffffffff16600160008473ffffffffffffffffffffffffffffffffffffffff1673ffffffffffffffffffffffffffffffffffffffff16815260200190815260200160002060009054906101000a900473ffffffffffffffffffffffffffffffffffffffff1673ffffffffffffffffffffffffffffffffffffffff161415156132d9576040517f08c379a00000000000000000000000000000000000000000000000000000000081526004018080602001828103825260288152602001807f496e76616c696420707265764d6f64756c652c206d6f64756c6520706169722081526020017f70726f766964656400000000000000000000000000000000000000000000000081525060400191505060405180910390fd5b600160008273ffffffffffffffffffffffffffffffffffffffff1673ffffffffffffffffffffffffffffffffffffffff16815260200190815260200160002060009054906101000a900473ffffffffffffffffffffffffffffffffffffffff16600160008473ffffffffffffffffffffffffffffffffffffffff1673ffffffffffffffffffffffffffffffffffffffff16815260200190815260200160002060006101000a81548173ffffffffffffffffffffffffffffffffffffffff021916908373ffffffffffffffffffffffffffffffffffffffff1602179055506000600160008373ffffffffffffffffffffffffffffffffffffffff1673ffffffffffffffffffffffffffffffffffffffff16815260200190815260200160002060006101000a81548173ffffffffffffffffffffffffffffffffffffffff021916908373ffffffffffffffffffffffffffffffffffffffff1602179055507faab4fa2b463f581b2b32cb3b7e3b704b9ce37cc209b5fb4d77e593ace405427681604051808273ffffffffffffffffffffffffffffffffffffffff1673ffffffffffffffffffffffffffffffffffffffff16815260200191505060405180910390a15050565b3073ffffffffffffffffffffffffffffffffffffffff163373ffffffffffffffffffffffffffffffffffffffff16141515613565576040517f08c379a000000000000000000000000000000000000000000000000000000000815260040180806020018281038252602c8152602001807f4d6574686f642063616e206f6e6c792062652063616c6c65642066726f6d207481526020017f68697320636f6e7472616374000000000000000000000000000000000000000081525060400191505060405180910390fd5b60008173ffffffffffffffffffffffffffffffffffffffff16141580156135b95750600173ffffffffffffffffffffffffffffffffffffffff168173ffffffffffffffffffffffffffffffffffffffff1614155b151561362d576040517f08c379a000000000000000000000000000000000000000000000000000000000815260040180806020018281038252601e8152602001807f496e76616c6964206f776e657220616464726573732070726f7669646564000081525060200191505060405180910390fd5b6000600260008373ffffffffffffffffffffffffffffffffffffffff1673ffffffffffffffffffffffffffffffffffffffff16815260200190815260200160002060009054906101000a900473ffffffffffffffffffffffffffffffffffffffff1673ffffffffffffffffffffffffffffffffffffffff1614151561371a576040517f08c379a000000000000000000000000000000000000000000000000000000000815260040180806020018281038252601b8152602001807f4164647265737320697320616c726561647920616e206f776e6572000000000081525060200191505060405180910390fd5b60008273ffffffffffffffffffffffffffffffffffffffff161415801561376e5750600173ffffffffffffffffffffffffffffffffffffffff168273ffffffffffffffffffffffffffffffffffffffff1614155b15156137e2576040517f08c379a000000000000000000000000000000000000000000000000000000000815260040180806020018281038252601e8152602001807f496e76616c6964206f776e657220616464726573732070726f7669646564000081525060200191505060405180910390fd5b8173ffffffffffffffffffffffffffffffffffffffff16600260008573ffffffffffffffffffffffffffffffffffffffff1673ffffffffffffffffffffffffffffffffffffffff16815260200190815260200160002060009054906101000a900473ffffffffffffffffffffffffffffffffffffffff1673ffffffffffffffffffffffffffffffffffffffff1614151561390a576040517f08c379a00000000000000000000000000000000000000000000000000000000081526004018080602001828103825260268152602001807f496e76616c696420707265764f776e65722c206f776e6572207061697220707281526020017f6f7669646564000000000000000000000000000000000000000000000000000081525060400191505060405180910390fd5b600260008373ffffffffffffffffffffffffffffffffffffffff1673ffffffffffffffffffffffffffffffffffffffff16815260200190815260200160002060009054906101000a900473ffffffffffffffffffffffffffffffffffffffff16600260008373ffffffffffffffffffffffffffffffffffffffff1673ffffffffffffffffffffffffffffffffffffffff16815260200190815260200160002060006101000a81548173ffffffffffffffffffffffffffffffffffffffff021916908373ffffffffffffffffffffffffffffffffffffffff16021790555080600260008573ffffffffffffffffffffffffffffffffffffffff1673ffffffffffffffffffffffffffffffffffffffff16815260200190815260200160002060006101000a81548173ffffffffffffffffffffffffffffffffffffffff021916908373ffffffffffffffffffffffffffffffffffffffff1602179055506000600260008473ffffffffffffffffffffffffffffffffffffffff1673ffffffffffffffffffffffffffffffffffffffff16815260200190815260200160002060006101000a81548173ffffffffffffffffffffffffffffffffffffffff021916908373ffffffffffffffffffffffffffffffffffffffff1602179055507ff8d49fc529812e9a7c5c50e69c20f0dccc0db8fa95c98bc58cc9a4f1c1299eaf82604051808273ffffffffffffffffffffffffffffffffffffffff1673ffffffffffffffffffffffffffffffffffffffff16815260200191505060405180910390a17f9465fa0c962cc76958e6373a993326400c1c94f8be2fe3a952adfa7f60b2ea2681604051808273ffffffffffffffffffffffffffffffffffffffff1673ffffffffffffffffffffffffffffffffffffffff16815260200191505060405180910390a1505050565b6000600454905090565b606060007f14d461bc7412367e924637b363c7bf29b8f47e2f84869f4426e5633d8af47b206001028c8c8c6040518082805190602001908083835b602083101515613c195780518252602082019150602081019050602083039250613bf4565b6001836020036101000a03801982511681845116808217855250505050505090500191505060405180910390208c8c8c8c8c8c8c604051602001808c600019166000191681526020018b73ffffffffffffffffffffffffffffffffffffffff1673ffffffffffffffffffffffffffffffffffffffff1681526020018a81526020018960001916600019168152602001886002811115613cb457fe5b60ff1681526020018781526020018681526020018581526020018473ffffffffffffffffffffffffffffffffffffffff1673ffffffffffffffffffffffffffffffffffffffff1681526020018373ffffffffffffffffffffffffffffffffffffffff1673ffffffffffffffffffffffffffffffffffffffff1681526020018281526020019b5050505050505050505050506040516020818303038152906040526040518082805190602001908083835b602083101515613d895780518252602082019150602081019050602083039250613d64565b6001836020036101000a0380198251168184511680821785525050505050509050019150506040518091039020905060197f01000000000000000000000000000000000000000000000000000000000000000260017f0100000000000000000000000000000000000000000000000000000000000000026006548360405160200180857effffffffffffffffffffffffffffffffffffffffffffffffffffffffffffff19167effffffffffffffffffffffffffffffffffffffffffffffffffffffffffffff19168152600101847effffffffffffffffffffffffffffffffffffffffffffffffffffffffffffff19167effffffffffffffffffffffffffffffffffffffffffffffffffffffffffffff19168152600101836000191660001916815260200182600019166000191681526020019450505050506040516020818303038152906040529150509a9950505050505050505050565b60065481565b3073ffffffffffffffffffffffffffffffffffffffff163373ffffffffffffffffffffffffffffffffffffffff16141515613fb0576040517f08c379a000000000000000000000000000000000000000000000000000000000815260040180806020018281038252602c8152602001807f4d6574686f642063616e206f6e6c792062652063616c6c65642066726f6d207481526020017f68697320636f6e7472616374000000000000000000000000000000000000000081525060400191505060405180910390fd5b8060016003540310151515614053576040517f08c379a00000000000000000000000000000000000000000000000000000000081526004018080602001828103825260358152602001807f4e6577206f776e657220636f756e74206e6565647320746f206265206c61726781526020017f6572207468616e206e6577207468726573686f6c64000000000000000000000081525060400191505060405180910390fd5b60008273ffffffffffffffffffffffffffffffffffffffff16141580156140a75750600173ffffffffffffffffffffffffffffffffffffffff168273ffffffffffffffffffffffffffffffffffffffff1614155b151561411b576040517f08c379a000000000000000000000000000000000000000000000000000000000815260040180806020018281038252601e8152602001807f496e76616c6964206f776e657220616464726573732070726f7669646564000081525060200191505060405180910390fd5b8173ffffffffffffffffffffffffffffffffffffffff16600260008573ffffffffffffffffffffffffffffffffffffffff1673ffffffffffffffffffffffffffffffffffffffff16815260200190815260200160002060009054906101000a900473ffffffffffffffffffffffffffffffffffffffff1673ffffffffffffffffffffffffffffffffffffffff16141515614243576040517f08c379a00000000000000000000000000000000000000000000000000000000081526004018080602001828103825260268152602001807f496e76616c696420707265764f776e65722c206f776e6572207061697220707281526020017f6f7669646564000000000000000000000000000000000000000000000000000081525060400191505060405180910390fd5b600260008373ffffffffffffffffffffffffffffffffffffffff1673ffffffffffffffffffffffffffffffffffffffff16815260200190815260200160002060009054906101000a900473ffffffffffffffffffffffffffffffffffffffff16600260008573ffffffffffffffffffffffffffffffffffffffff1673ffffffffffffffffffffffffffffffffffffffff16815260200190815260200160002060006101000a81548173ffffffffffffffffffffffffffffffffffffffff021916908373ffffffffffffffffffffffffffffffffffffffff1602179055506000600260008473ffffffffffffffffffffffffffffffffffffffff1673ffffffffffffffffffffffffffffffffffffffff16815260200190815260200160002060006101000a81548173ffffffffffffffffffffffffffffffffffffffff021916908373ffffffffffffffffffffffffffffffffffffffff160217905550600360008154809291906001900391905055507ff8d49fc529812e9a7c5c50e69c20f0dccc0db8fa95c98bc58cc9a4f1c1299eaf82604051808273ffffffffffffffffffffffffffffffffffffffff1673ffffffffffffffffffffffffffffffffffffffff16815260200191505060405180910390a18060045414151561442a5761442981611ff2565b5b505050565b6040805190810160405280600581526020017f302e302e3200000000000000000000000000000000000000000000000000000081525081565b6144728484614c37565b61447c82826150f7565b50505050565b600080600080600080600060606041600454028a5110156144a65760009750614929565b60009650600091505b600454821015614924576144c38a8361532e565b80955081965082975050505060008560ff16141561467a57836001900495506020838b010190508573ffffffffffffffffffffffffffffffffffffffff166320c13b0b8c836040518363ffffffff167c0100000000000000000000000000000000000000000000000000000000028152600401808060200180602001838103835285818151815260200191508051906020019080838360005b8381101561457757808201518184015260208101905061455c565b50505050905090810190601f1680156145a45780820380516001836020036101000a031916815260200191505b50838103825284818151815260200191508051906020019080838360005b838110156145dd5780820151818401526020810190506145c2565b50505050905090810190601f16801561460a5780820380516001836020036101000a031916815260200191505b50945050505050602060405180830381600087803b15801561462b57600080fd5b505af115801561463f573d6000803e3d6000fd5b505050506040513d602081101561465557600080fd5b810190808051906020019092919050505015156146755760009750614929565b614856565b60018560ff1614156147d157836001900495508573ffffffffffffffffffffffffffffffffffffffff163373ffffffffffffffffffffffffffffffffffffffff161415801561472157506000600860008873ffffffffffffffffffffffffffffffffffffffff1673ffffffffffffffffffffffffffffffffffffffff16815260200190815260200160002060008e6000191660001916815260200190815260200160002054145b1561472f5760009750614929565b88801561476857508573ffffffffffffffffffffffffffffffffffffffff163373ffffffffffffffffffffffffffffffffffffffff1614155b156147cc576000600860008873ffffffffffffffffffffffffffffffffffffffff1673ffffffffffffffffffffffffffffffffffffffff16815260200190815260200160002060008e60001916600019168152602001908152602001600020819055505b614855565b60018c868686604051600081526020016040526040518085600019166000191681526020018460ff1660ff1681526020018360001916600019168152602001826000191660001916815260200194505050505060206040516020810390808403906000865af1158015614848573d6000803e3d6000fd5b5050506020604051035195505b5b8673ffffffffffffffffffffffffffffffffffffffff168673ffffffffffffffffffffffffffffffffffffffff1611158061490657506000600260008873ffffffffffffffffffffffffffffffffffffffff1673ffffffffffffffffffffffffffffffffffffffff16815260200190815260200160002060009054906101000a900473ffffffffffffffffffffffffffffffffffffffff1673ffffffffffffffffffffffffffffffffffffffff16145b156149145760009750614929565b85965081806001019250506144af565b600197505b50505050505050949350505050565b6000806000600281111561494857fe5b84600281111561495457fe5b141561496d576149668787878661535d565b9150614a2b565b6001600281111561497a57fe5b84600281111561498657fe5b141561499e57614997878685615376565b9150614a2a565b6149a78561538d565b905060008173ffffffffffffffffffffffffffffffffffffffff16141591507f4db17dd5e4732fb6da34a148104a592783ca119a1e7bb8829eba6cbadef0b51181604051808273ffffffffffffffffffffffffffffffffffffffff1673ffffffffffffffffffffffffffffffffffffffff16815260200191505060405180910390a15b5b5095945050505050565b60008084865a890301029150600073ffffffffffffffffffffffffffffffffffffffff168373ffffffffffffffffffffffffffffffffffffffff1614614a7b5782614a7d565b325b9050600073ffffffffffffffffffffffffffffffffffffffff168473ffffffffffffffffffffffffffffffffffffffff161415614b88578073ffffffffffffffffffffffffffffffffffffffff166108fc839081150290604051600060405180830381858888f193505050501515614b83576040517f08c379a00000000000000000000000000000000000000000000000000000000081526004018080602001828103825260228152602001807f436f756c64206e6f74207061792067617320636f73747320776974682065746881526020017f657200000000000000000000000000000000000000000000000000000000000081525060400191505060405180910390fd5b614c2e565b614b9384828461539f565b1515614c2d576040517f08c379a00000000000000000000000000000000000000000000000000000000081526004018080602001828103825260228152602001807f436f756c64206e6f74207061792067617320636f737473207769746820746f6b81526020017f656e00000000000000000000000000000000000000000000000000000000000081525060400191505060405180910390fd5b5b50505050505050565b600080600080600454141515614cb5576040517f08c379a000000000000000000000000000000000000000000000000000000000815260040180806020018281038252601e8152602001807f4f776e657273206861766520616c7265616479206265656e207365747570000081525060200191505060405180910390fd5b84518411151515614d54576040517f08c379a00000000000000000000000000000000000000000000000000000000081526004018080602001828103825260238152602001807f5468726573686f6c642063616e6e6f7420657863656564206f776e657220636f81526020017f756e74000000000000000000000000000000000000000000000000000000000081525060400191505060405180910390fd5b60018410151515614df3576040517f08c379a00000000000000000000000000000000000000000000000000000000081526004018080602001828103825260248152602001807f5468726573686f6c64206e6565647320746f206265206772656174657220746881526020017f616e20300000000000000000000000000000000000000000000000000000000081525060400191505060405180910390fd5b60019250600091505b8451821015615062578482815181101515614e1357fe5b90602001906020020151905060008173ffffffffffffffffffffffffffffffffffffffff1614158015614e735750600173ffffffffffffffffffffffffffffffffffffffff168173ffffffffffffffffffffffffffffffffffffffff1614155b1515614ee7576040517f08c379a000000000000000000000000000000000000000000000000000000000815260040180806020018281038252601e8152602001807f496e76616c6964206f776e657220616464726573732070726f7669646564000081525060200191505060405180910390fd5b6000600260008373ffffffffffffffffffffffffffffffffffffffff1673ffffffffffffffffffffffffffffffffffffffff16815260200190815260200160002060009054906101000a900473ffffffffffffffffffffffffffffffffffffffff1673ffffffffffffffffffffffffffffffffffffffff16141515614fd4576040517f08c379a00000000000000000000000000000000000000000000000000000000081526004018080602001828103825260208152602001807f4475706c6963617465206f776e657220616464726573732070726f766964656481525060200191505060405180910390fd5b80600260008573ffffffffffffffffffffffffffffffffffffffff1673ffffffffffffffffffffffffffffffffffffffff16815260200190815260200160002060006101000a81548173ffffffffffffffffffffffffffffffffffffffff021916908373ffffffffffffffffffffffffffffffffffffffff1602179055508092508180600101925050614dfc565b6001600260008573ffffffffffffffffffffffffffffffffffffffff1673ffffffffffffffffffffffffffffffffffffffff16815260200190815260200160002060006101000a81548173ffffffffffffffffffffffffffffffffffffffff021916908373ffffffffffffffffffffffffffffffffffffffff1602179055508451600381905550836004819055505050505050565b600060016000600173ffffffffffffffffffffffffffffffffffffffff1673ffffffffffffffffffffffffffffffffffffffff16815260200190815260200160002060009054906101000a900473ffffffffffffffffffffffffffffffffffffffff1673ffffffffffffffffffffffffffffffffffffffff1614151561520b576040517f08c379a00000000000000000000000000000000000000000000000000000000081526004018080602001828103825260258152602001807f4d6f64756c6573206861766520616c7265616479206265656e20696e6974696181526020017f6c697a656400000000000000000000000000000000000000000000000000000081525060400191505060405180910390fd5b6001806000600173ffffffffffffffffffffffffffffffffffffffff1673ffffffffffffffffffffffffffffffffffffffff16815260200190815260200160002060006101000a81548173ffffffffffffffffffffffffffffffffffffffff021916908373ffffffffffffffffffffffffffffffffffffffff16021790555060008273ffffffffffffffffffffffffffffffffffffffff1614151561532a576152b582825a615376565b1515615329576040517f08c379a000000000000000000000000000000000000000000000000000000000815260040180806020018281038252601f8152602001807f436f756c64206e6f742066696e69736820696e697469616c697a6174696f6e0081525060200191505060405180910390fd5b5b5050565b60008060008360410260208101860151925060408101860151915060ff60418201870151169350509250925092565b6000806000845160208601878987f19050949350505050565b60008060008451602086018786f490509392505050565b60008151602083016000f09050919050565b600060608383604051602401808373ffffffffffffffffffffffffffffffffffffffff1673ffffffffffffffffffffffffffffffffffffffff168152602001828152602001925050506040516020818303038152906040527fa9059cbb000000000000000000000000000000000000000000000000000000007bffffffffffffffffffffffffffffffffffffffffffffffffffffffff19166020820180517bffffffffffffffffffffffffffffffffffffffffffffffffffffffff838183161783525050505090506000808251602084016000896127105a03f16040513d6000823e3d6000811461549b57602081146154a357600094506154ad565b8294506154ad565b8151158315171594505b5050505093925050505600a165627a7a72305820c970763346c3e3eca7d7279c490fc28fd06dd7888989f01a151084588f520e3d0029",
  "source": "pragma solidity 0.4.24;\nimport \"./base/BaseSafe.sol\";\nimport \"./common/MasterCopy.sol\";\nimport \"./common/SignatureDecoder.sol\";\nimport \"./common/SecuredTokenTransfer.sol\";\nimport \"./interfaces/ISignatureValidator.sol\";\n\n/// @title Gnosis Safe - A multisignature wallet with support for confirmations using signed messages based on ERC191.\n/// @author Stefan George - <stefan@gnosis.pm>\n/// @author Richard Meissner - <richard@gnosis.pm>\n/// @author Ricardo Guilherme Schmidt - (Status Research & Development GmbH) - Gas Token Payment\ncontract GnosisSafe is MasterCopy, BaseSafe, SignatureDecoder, SecuredTokenTransfer, ISignatureValidator {\n\n    string public constant NAME = \"Gnosis Safe\";\n    string public constant VERSION = \"0.0.2\";\n\n    //keccak256(\n    //    \"EIP712Domain(address verifyingContract)\"\n    //);\n    bytes32 public constant DOMAIN_SEPARATOR_TYPEHASH = 0x035aff83d86937d35b32e04f0ddc6ff469290eef2f1b692d8a815c89404d4749;\n\n    //keccak256(\n    //    \"SafeTx(address to,uint256 value,bytes data,uint8 operation,uint256 safeTxGas,uint256 dataGas,uint256 gasPrice,address gasToken,address refundReceiver,uint256 nonce)\"\n    //);\n    bytes32 public constant SAFE_TX_TYPEHASH = 0x14d461bc7412367e924637b363c7bf29b8f47e2f84869f4426e5633d8af47b20;\n\n    //keccak256(\n    //    \"SafeMessage(bytes message)\"\n    //);\n    bytes32 public constant SAFE_MSG_TYPEHASH = 0x60b3cbf8b4a223d68d641b3b6ddf9a298e7f33710cf3d3a9d1146b5a6150fbca;\n\n    event ExecutionFailed(bytes32 txHash);\n\n    uint256 public nonce;\n    bytes32 public domainSeparator;\n    // Mapping to keep track of all message hashes that have been approve by ALL REQUIRED owners\n    mapping(bytes32 => uint256) public signedMessages;\n    // Mapping to keep track of all hashes (message or transaction) that have been approve by ANY owners\n    mapping(address => mapping(bytes32 => uint256)) public approvedHashes;\n\n    /// @dev Setup function sets initial storage of contract.\n    /// @param _owners List of Safe owners.\n    /// @param _threshold Number of required confirmations for a Safe transaction.\n    /// @param to Contract address for optional delegate call.\n    /// @param data Data payload for optional delegate call.\n    function setup(address[] _owners, uint256 _threshold, address to, bytes data)\n        public\n    {\n        require(domainSeparator == 0, \"Domain Separator already set!\");\n        domainSeparator = keccak256(abi.encode(DOMAIN_SEPARATOR_TYPEHASH, this));\n        setupSafe(_owners, _threshold, to, data);\n    }\n\n    /// @dev Allows to execute a Safe transaction confirmed by required number of owners and then pays the account that submitted the transaction.\n    ///      Note: The fees are always transfered, even if the user transaction fails.\n    /// @param to Destination address of Safe transaction.\n    /// @param value Ether value of Safe transaction.\n    /// @param data Data payload of Safe transaction.\n    /// @param operation Operation type of Safe transaction.\n    /// @param safeTxGas Gas that should be used for the Safe transaction.\n    /// @param dataGas Gas costs for data used to trigger the safe transaction and to pay the payment transfer\n    /// @param gasPrice Gas price that should be used for the payment calculation.\n    /// @param gasToken Token address (or 0 if ETH) that is used for the payment.\n    /// @param refundReceiver Address of receiver of gas payment (or 0 if tx.origin).\n    /// @param signatures Packed signature data ({bytes32 r}{bytes32 s}{uint8 v})\n    function execTransaction(\n        address to,\n        uint256 value,\n        bytes data,\n        Enum.Operation operation,\n        uint256 safeTxGas,\n        uint256 dataGas,\n        uint256 gasPrice,\n        address gasToken,\n        address refundReceiver,\n        bytes signatures\n    )\n        public\n        returns (bool success)\n    {\n        uint256 startGas = gasleft();\n        bytes memory txHashData = encodeTransactionData(\n            to, value, data, operation, // Transaction info\n            safeTxGas, dataGas, gasPrice, gasToken, refundReceiver, // Payment info\n            nonce\n        );\n        require(checkSignatures(keccak256(txHashData), txHashData, signatures, true), \"Invalid signatures provided\");\n        // Increase nonce and execute transaction.\n        nonce++;\n        require(gasleft() >= safeTxGas, \"Not enough gas to execute safe transaction\");\n        // If no safeTxGas has been set and the gasPrice is 0 we assume that all available gas can be used\n        success = execute(to, value, data, operation, safeTxGas == 0 && gasPrice == 0 ? gasleft() : safeTxGas);\n        if (!success) {\n            emit ExecutionFailed(keccak256(txHashData));\n        }\n\n        // We transfer the calculated tx costs to the tx.origin to avoid sending it to intermediate contracts that have made calls\n        if (gasPrice > 0) {\n            handlePayment(startGas, dataGas, gasPrice, gasToken, refundReceiver);\n        }\n    }\n\n    function handlePayment(\n        uint256 gasUsed,\n        uint256 dataGas,\n        uint256 gasPrice,\n        address gasToken,\n        address refundReceiver\n    )\n        private\n    {\n        uint256 amount = ((gasUsed - gasleft()) + dataGas) * gasPrice;\n        // solium-disable-next-line security/no-tx-origin\n        address receiver = refundReceiver == address(0) ? tx.origin : refundReceiver;\n        if (gasToken == address(0)) {\n                // solium-disable-next-line security/no-send\n            require(receiver.send(amount), \"Could not pay gas costs with ether\");\n        } else {\n            require(transferToken(gasToken, receiver, amount), \"Could not pay gas costs with token\");\n        }\n    }\n\n    /**\n    * @dev Should return whether the signature provided is valid for the provided data, hash\n    * @param dataHash Hash of the data (could be either a message hash or transaction hash)\n    * @param data That should be signed (this is passed to an external validator contract)\n    * @param signatures Signature data that should be verified. Can be ECDSA signature, contract signature (EIP-1271) or approved hash.\n    * @param consumeHash Indicates that in case of an approved hash the storage can be freed to save gas\n    * @return a bool upon valid or invalid signature with corresponding _data\n    */\n    function checkSignatures(bytes32 dataHash, bytes data, bytes signatures, bool consumeHash)\n        internal\n        returns (bool)\n    {\n        // Check that the provided signature data is not too short\n        if (signatures.length < threshold * 65) {\n            return false;\n        }\n        // There cannot be an owner with address 0.\n        address lastOwner = address(0);\n        address currentOwner;\n        uint8 v;\n        bytes32 r;\n        bytes32 s;\n        uint256 i;\n        for (i = 0; i < threshold; i++) {\n            (v, r, s) = signatureSplit(signatures, i);\n            // If v is 0 then it is a contract signature\n            if (v == 0) {\n                // When handling contract signatures the address of the contract is encoded into r\n                currentOwner = address(r);\n                bytes memory contractSignature;\n                // solium-disable-next-line security/no-inline-assembly\n                assembly {\n                    // The signature data for contract signatures is appended to the concatenated signatures and the offset is stored in s\n                    contractSignature := add(add(signatures, s), 0x20)\n                }\n                if (!ISignatureValidator(currentOwner).isValidSignature(data, contractSignature)) {\n                    return false;\n                }\n            // If v is 1 then it is an approved hash\n            } else if (v == 1) {\n                // When handling approved hashes the address of the approver is encoded into r\n                currentOwner = address(r);\n                // Hashes are automatically approved by the sender of the message or when they have been pre-approved via a separate transaction\n                if (msg.sender != currentOwner && approvedHashes[currentOwner][dataHash] == 0) {\n                    return false;\n                }\n                // Hash has been marked for consumption. If this hash was pre-approved free storage\n                if (consumeHash && msg.sender != currentOwner) {\n                    approvedHashes[currentOwner][dataHash] = 0;\n                }\n            } else {\n                // Use ecrecover with the messageHash for EOA signatures\n                currentOwner = ecrecover(dataHash, v, r, s);\n            }\n            if (currentOwner <= lastOwner || owners[currentOwner] == 0) {\n                return false;\n            }\n            lastOwner = currentOwner;\n        }\n        return true;\n    }\n\n    /// @dev Allows to estimate a Safe transaction.\n    ///      This method is only meant for estimation purpose, therfore two different protection mechanism against execution in a transaction have been made:\n    ///      1.) The method can only be called from the safe itself\n    ///      2.) The response is returned with a revert\n    ///      When estimating set `from` to the address of the safe.\n    ///      Since the `estimateGas` function includes refunds, call this method to get an estimated of the costs that are deducted from the safe with `execTransaction`\n    /// @param to Destination address of Safe transaction.\n    /// @param value Ether value of Safe transaction.\n    /// @param data Data payload of Safe transaction.\n    /// @param operation Operation type of Safe transaction.\n    /// @return Estimate without refunds and overhead fees (base transaction and payload data gas costs).\n    function requiredTxGas(address to, uint256 value, bytes data, Enum.Operation operation)\n        public\n        authorized\n        returns (uint256)\n    {\n        uint256 startGas = gasleft();\n        // We don't provide an error message here, as we use it to return the estimate\n        // solium-disable-next-line error-reason\n        require(execute(to, value, data, operation, gasleft()));\n        uint256 requiredGas = startGas - gasleft();\n        // Convert response to string and return via error message\n        revert(string(abi.encodePacked(requiredGas)));\n    }\n\n    /**\n    * @dev Marks a hash as approved. This can be used to validate a hash that is used by a signature.\n    * @param hashToApprove The hash that should be marked as approved for signatures that are verified by this contract.\n    */\n    function approveHash(bytes32 hashToApprove)\n        public\n    {\n        require(owners[msg.sender] != 0, \"Only owners can approve a hash\");\n        approvedHashes[msg.sender][hashToApprove] = 1;\n    }\n\n    /**\n    * @dev Marks a message as signed\n    * @param _data Arbitrary length data that should be marked as signed on the behalf of address(this)\n    */\n    function signMessage(bytes _data)\n        public\n        authorized\n    {\n        signedMessages[getMessageHash(_data)] = 1;\n    }\n\n    /**\n    * @dev Should return whether the signature provided is valid for the provided data\n    * @param _data Arbitrary length data signed on the behalf of address(this)\n    * @param _signature Signature byte array associated with _data\n    * @return a bool upon valid or invalid signature with corresponding _data\n    */\n    function isValidSignature(bytes _data, bytes _signature)\n        public\n        returns (bool isValid)\n    {\n        bytes32 messageHash = getMessageHash(_data);\n        if (_signature.length == 0) {\n            isValid = signedMessages[messageHash] != 0;\n        } else {\n            // consumeHash needs to be false, as the state should not be changed\n            isValid = checkSignatures(messageHash, _data, _signature, false);\n        }\n    }\n\n    /// @dev Returns hash of a message that can be signed by owners.\n    /// @param message Message that should be hashed\n    /// @return Message hash.\n    function getMessageHash(\n        bytes message\n    )\n        public\n        view\n        returns (bytes32)\n    {\n        bytes32 safeMessageHash = keccak256(\n            abi.encode(SAFE_MSG_TYPEHASH, keccak256(message))\n        );\n        return keccak256(\n            abi.encodePacked(byte(0x19), byte(1), domainSeparator, safeMessageHash)\n        );\n    }\n\n    /// @dev Returns the bytes that are hashed to be signed by owners.\n    /// @param to Destination address.\n    /// @param value Ether value.\n    /// @param data Data payload.\n    /// @param operation Operation type.\n    /// @param safeTxGas Fas that should be used for the safe transaction.\n    /// @param dataGas Gas costs for data used to trigger the safe transaction.\n    /// @param gasPrice Maximum gas price that should be used for this transaction.\n    /// @param gasToken Token address (or 0 if ETH) that is used for the payment.\n    /// @param refundReceiver Address of receiver of gas payment (or 0 if tx.origin).\n    /// @param _nonce Transaction nonce.\n    /// @return Transaction hash bytes.\n    function encodeTransactionData(\n        address to,\n        uint256 value,\n        bytes data,\n        Enum.Operation operation,\n        uint256 safeTxGas,\n        uint256 dataGas,\n        uint256 gasPrice,\n        address gasToken,\n        address refundReceiver,\n        uint256 _nonce\n    )\n        public\n        view\n        returns (bytes)\n    {\n        bytes32 safeTxHash = keccak256(\n            abi.encode(SAFE_TX_TYPEHASH, to, value, keccak256(data), operation, safeTxGas, dataGas, gasPrice, gasToken, refundReceiver, _nonce)\n        );\n        return abi.encodePacked(byte(0x19), byte(1), domainSeparator, safeTxHash);\n    }\n\n    /// @dev Returns hash to be signed by owners.\n    /// @param to Destination address.\n    /// @param value Ether value.\n    /// @param data Data payload.\n    /// @param operation Operation type.\n    /// @param safeTxGas Fas that should be used for the safe transaction.\n    /// @param dataGas Gas costs for data used to trigger the safe transaction.\n    /// @param gasPrice Maximum gas price that should be used for this transaction.\n    /// @param gasToken Token address (or 0 if ETH) that is used for the payment.\n    /// @param refundReceiver Address of receiver of gas payment (or 0 if tx.origin).\n    /// @param _nonce Transaction nonce.\n    /// @return Transaction hash.\n    function getTransactionHash(\n        address to,\n        uint256 value,\n        bytes data,\n        Enum.Operation operation,\n        uint256 safeTxGas,\n        uint256 dataGas,\n        uint256 gasPrice,\n        address gasToken,\n        address refundReceiver,\n        uint256 _nonce\n    )\n        public\n        view\n        returns (bytes32)\n    {\n        return keccak256(encodeTransactionData(to, value, data, operation, safeTxGas, dataGas, gasPrice, gasToken, refundReceiver, _nonce));\n    }\n}\n",
  "sourcePath": "/Users/apanizo/git/gnosis/safe-contracts/contracts/GnosisSafe.sol",
  "compiler": {
    "name": "solc",
    "version": "0.4.24+commit.e67f0147.Emscripten.clang"
  },
  "schemaVersion": "2.0.0",
  "updatedAt": "2018-10-05T14:43:41.464Z"
}