{
  "contractName": "GnosisSafePersonalEdition",
  "abi": [
    {
      "constant": true,
      "inputs": [
        {
          "name": "",
          "type": "uint256"
        }
      ],
      "name": "owners",
      "outputs": [
        {
          "name": "",
          "type": "address"
        }
      ],
      "payable": false,
      "stateMutability": "view",
      "type": "function"
    },
    {
      "constant": false,
      "inputs": [
        {
          "name": "owner",
          "type": "address"
        },
        {
          "name": "_threshold",
          "type": "uint8"
        }
      ],
      "name": "addOwner",
      "outputs": [],
      "payable": false,
      "stateMutability": "nonpayable",
      "type": "function"
    },
    {
      "constant": false,
      "inputs": [
        {
          "name": "module",
          "type": "address"
        }
      ],
      "name": "addModule",
      "outputs": [],
      "payable": false,
      "stateMutability": "nonpayable",
      "type": "function"
    },
    {
      "constant": true,
      "inputs": [
        {
          "name": "owner",
          "type": "address"
        }
      ],
      "name": "isOwner",
      "outputs": [
        {
          "name": "",
          "type": "bool"
        }
      ],
      "payable": false,
      "stateMutability": "view",
      "type": "function"
    },
    {
      "constant": true,
      "inputs": [],
      "name": "threshold",
      "outputs": [
        {
          "name": "",
          "type": "uint8"
        }
      ],
      "payable": false,
      "stateMutability": "view",
      "type": "function"
    },
    {
      "constant": true,
      "inputs": [
        {
          "name": "",
          "type": "address"
        }
      ],
      "name": "isModule",
      "outputs": [
        {
          "name": "",
          "type": "bool"
        }
      ],
      "payable": false,
      "stateMutability": "view",
      "type": "function"
    },
    {
      "constant": false,
      "inputs": [
        {
          "name": "oldOwnerIndex",
          "type": "uint256"
        },
        {
          "name": "oldOwner",
          "type": "address"
        },
        {
          "name": "newOwner",
          "type": "address"
        }
      ],
      "name": "replaceOwner",
      "outputs": [],
      "payable": false,
      "stateMutability": "nonpayable",
      "type": "function"
    },
    {
      "constant": false,
      "inputs": [
        {
          "name": "moduleIndex",
          "type": "uint256"
        },
        {
          "name": "module",
          "type": "address"
        }
      ],
      "name": "removeModule",
      "outputs": [],
      "payable": false,
      "stateMutability": "nonpayable",
      "type": "function"
    },
    {
      "constant": false,
      "inputs": [
        {
          "name": "_masterCopy",
          "type": "address"
        }
      ],
      "name": "changeMasterCopy",
      "outputs": [],
      "payable": false,
      "stateMutability": "nonpayable",
      "type": "function"
    },
    {
      "constant": true,
      "inputs": [
        {
          "name": "",
          "type": "uint256"
        }
      ],
      "name": "modules",
      "outputs": [
        {
          "name": "",
          "type": "address"
        }
      ],
      "payable": false,
      "stateMutability": "view",
      "type": "function"
    },
    {
      "constant": false,
      "inputs": [
        {
          "name": "ownerIndex",
          "type": "uint256"
        },
        {
          "name": "owner",
          "type": "address"
        },
        {
          "name": "_threshold",
          "type": "uint8"
        }
      ],
      "name": "removeOwner",
      "outputs": [],
      "payable": false,
      "stateMutability": "nonpayable",
      "type": "function"
    },
    {
      "constant": false,
      "inputs": [
        {
          "name": "_owners",
          "type": "address[]"
        },
        {
          "name": "_threshold",
          "type": "uint8"
        },
        {
          "name": "to",
          "type": "address"
        },
        {
          "name": "data",
          "type": "bytes"
        }
      ],
      "name": "setup",
      "outputs": [],
      "payable": false,
      "stateMutability": "nonpayable",
      "type": "function"
    },
    {
      "constant": true,
      "inputs": [],
      "name": "getOwners",
      "outputs": [
        {
          "name": "",
          "type": "address[]"
        }
      ],
      "payable": false,
      "stateMutability": "view",
      "type": "function"
    },
    {
      "constant": true,
      "inputs": [],
      "name": "NAME",
      "outputs": [
        {
          "name": "",
          "type": "string"
        }
      ],
      "payable": false,
      "stateMutability": "view",
      "type": "function"
    },
    {
      "constant": true,
      "inputs": [],
      "name": "nonce",
      "outputs": [
        {
          "name": "",
          "type": "uint256"
        }
      ],
      "payable": false,
      "stateMutability": "view",
      "type": "function"
    },
    {
      "constant": false,
      "inputs": [
        {
          "name": "to",
          "type": "address"
        },
        {
          "name": "value",
          "type": "uint256"
        },
        {
          "name": "data",
          "type": "bytes"
        },
        {
          "name": "operation",
          "type": "uint8"
        }
      ],
      "name": "executeModule",
      "outputs": [
        {
          "name": "success",
          "type": "bool"
        }
      ],
      "payable": false,
      "stateMutability": "nonpayable",
      "type": "function"
    },
    {
      "constant": true,
      "inputs": [],
      "name": "getModules",
      "outputs": [
        {
          "name": "",
          "type": "address[]"
        }
      ],
      "payable": false,
      "stateMutability": "view",
      "type": "function"
    },
    {
      "constant": false,
      "inputs": [
        {
          "name": "_threshold",
          "type": "uint8"
        }
      ],
      "name": "changeThreshold",
      "outputs": [],
      "payable": false,
      "stateMutability": "nonpayable",
      "type": "function"
    },
    {
      "constant": true,
      "inputs": [],
      "name": "VERSION",
      "outputs": [
        {
          "name": "",
          "type": "string"
        }
      ],
      "payable": false,
      "stateMutability": "view",
      "type": "function"
    },
    {
      "payable": true,
      "stateMutability": "payable",
      "type": "fallback"
    },
    {
      "anonymous": false,
      "inputs": [],
      "name": "ExecutionFailed",
      "type": "event"
    },
    {
      "anonymous": false,
      "inputs": [
        {
          "indexed": false,
          "name": "newContract",
          "type": "address"
        }
      ],
      "name": "ContractCreation",
      "type": "event"
    },
    {
      "constant": false,
      "inputs": [
        {
          "name": "to",
          "type": "address"
        },
        {
          "name": "value",
          "type": "uint256"
        },
        {
          "name": "data",
          "type": "bytes"
        },
        {
          "name": "operation",
          "type": "uint8"
        },
        {
          "name": "safeTxGas",
          "type": "uint256"
        },
        {
          "name": "dataGas",
          "type": "uint256"
        },
        {
          "name": "gasPrice",
          "type": "uint256"
        },
        {
          "name": "v",
          "type": "uint8[]"
        },
        {
          "name": "r",
          "type": "bytes32[]"
        },
        {
          "name": "s",
          "type": "bytes32[]"
        }
      ],
      "name": "payAndExecuteTransaction",
      "outputs": [],
      "payable": false,
      "stateMutability": "nonpayable",
      "type": "function"
    },
    {
      "constant": true,
      "inputs": [
        {
          "name": "executionGas",
          "type": "uint256"
        },
        {
          "name": "dataGas",
          "type": "uint256"
        }
      ],
      "name": "totalGasCosts",
      "outputs": [
        {
          "name": "",
          "type": "uint256"
        }
      ],
      "payable": false,
      "stateMutability": "pure",
      "type": "function"
    },
    {
      "constant": false,
      "inputs": [
        {
          "name": "to",
          "type": "address"
        },
        {
          "name": "value",
          "type": "uint256"
        },
        {
          "name": "data",
          "type": "bytes"
        },
        {
          "name": "operation",
          "type": "uint8"
        }
      ],
      "name": "estimate",
      "outputs": [
        {
          "name": "",
          "type": "uint256"
        }
      ],
      "payable": false,
      "stateMutability": "nonpayable",
      "type": "function"
    },
    {
      "constant": true,
      "inputs": [
        {
          "name": "to",
          "type": "address"
        },
        {
          "name": "value",
          "type": "uint256"
        },
        {
          "name": "data",
          "type": "bytes"
        },
        {
          "name": "operation",
          "type": "uint8"
        },
        {
          "name": "safeTxGas",
          "type": "uint256"
        },
        {
          "name": "dataGas",
          "type": "uint256"
        },
        {
          "name": "gasPrice",
          "type": "uint256"
        },
        {
          "name": "_nonce",
          "type": "uint256"
        }
      ],
      "name": "getTransactionHash",
      "outputs": [
        {
          "name": "",
          "type": "bytes32"
        }
      ],
      "payable": false,
      "stateMutability": "view",
      "type": "function"
    }
  ],
  "bytecode": "0x608060405234801561001057600080fd5b50612339806100206000396000f300608060405260043610610133576000357c0100000000000000000000000000000000000000000000000000000000900463ffffffff168063025e7c27146101355780630e5229b0146101a25780631ed86f19146101f25780632f54bf6e1461023557806342cde4e81461029057806342f6e389146102c15780634db5d0391461031c57806351cf63851461040057806354e99c6e146104b45780637b6d3eeb146105215780637c6401d3146106a85780637de7edef146106f557806381b2248a14610738578063842b954e146107a5578063a04222e1146107ff578063a0e67e2b146108d8578063a3f4df7e14610944578063ad8a0450146109d4578063affed0e014610a1f578063b021640a14610a4a578063b2494df314610b02578063b7f3358d14610b6e578063ffa1ad7414610b9e575b005b34801561014157600080fd5b5061016060048036038101908080359060200190929190505050610c2e565b604051808273ffffffffffffffffffffffffffffffffffffffff1673ffffffffffffffffffffffffffffffffffffffff16815260200191505060405180910390f35b3480156101ae57600080fd5b506101f0600480360381019080803573ffffffffffffffffffffffffffffffffffffffff169060200190929190803560ff169060200190929190505050610c6c565b005b3480156101fe57600080fd5b50610233600480360381019080803573ffffffffffffffffffffffffffffffffffffffff169060200190929190505050610e0f565b005b34801561024157600080fd5b50610276600480360381019080803573ffffffffffffffffffffffffffffffffffffffff169060200190929190505050610f89565b604051808215151515815260200191505060405180910390f35b34801561029c57600080fd5b506102a5610fdf565b604051808260ff1660ff16815260200191505060405180910390f35b3480156102cd57600080fd5b50610302600480360381019080803573ffffffffffffffffffffffffffffffffffffffff169060200190929190505050610ff6565b604051808215151515815260200191505060405180910390f35b34801561032857600080fd5b506103e2600480360381019080803573ffffffffffffffffffffffffffffffffffffffff16906020019092919080359060200190929190803590602001908201803590602001908080601f0160208091040260200160405190810160405280939291908181526020018383808284378201915050505050509192919290803560ff16906020019092919080359060200190929190803590602001909291908035906020019092919080359060200190929190505050611016565b60405180826000191660001916815260200191505060405180910390f35b34801561040c57600080fd5b5061049e600480360381019080803573ffffffffffffffffffffffffffffffffffffffff16906020019092919080359060200190929190803590602001908201803590602001908080601f0160208091040260200160405190810160405280939291908181526020018383808284378201915050505050509192919290803560ff16906020019092919050505061124d565b6040518082815260200191505060405180910390f35b3480156104c057600080fd5b5061051f60048036038101908080359060200190929190803573ffffffffffffffffffffffffffffffffffffffff169060200190929190803573ffffffffffffffffffffffffffffffffffffffff1690602001909291905050506112b3565b005b34801561052d57600080fd5b506106a6600480360381019080803573ffffffffffffffffffffffffffffffffffffffff16906020019092919080359060200190929190803590602001908201803590602001908080601f0160208091040260200160405190810160405280939291908181526020018383808284378201915050505050509192919290803560ff1690602001909291908035906020019092919080359060200190929190803590602001909291908035906020019082018035906020019080806020026020016040519081016040528093929190818152602001838360200280828437820191505050505050919291929080359060200190820180359060200190808060200260200160405190810160405280939291908181526020018383602002808284378201915050505050509192919290803590602001908201803590602001908080602002602001604051908101604052809392919081815260200183836020028082843782019150505050505091929192905050506114ec565b005b3480156106b457600080fd5b506106f360048036038101908080359060200190929190803573ffffffffffffffffffffffffffffffffffffffff1690602001909291905050506115d9565b005b34801561070157600080fd5b50610736600480360381019080803573ffffffffffffffffffffffffffffffffffffffff16906020019092919050505061178f565b005b34801561074457600080fd5b5061076360048036038101908080359060200190929190505050611832565b604051808273ffffffffffffffffffffffffffffffffffffffff1673ffffffffffffffffffffffffffffffffffffffff16815260200191505060405180910390f35b3480156107b157600080fd5b506107fd60048036038101908080359060200190929190803573ffffffffffffffffffffffffffffffffffffffff169060200190929190803560ff169060200190929190505050611870565b005b34801561080b57600080fd5b506108d660048036038101908080359060200190820180359060200190808060200260200160405190810160405280939291908181526020018383602002808284378201915050505050509192919290803560ff169060200190929190803573ffffffffffffffffffffffffffffffffffffffff169060200190929190803590602001908201803590602001908080601f0160208091040260200160405190810160405280939291908181526020018383808284378201915050505050509192919290505050611a6b565b005b3480156108e457600080fd5b506108ed611a85565b6040518080602001828103825283818151815260200191508051906020019060200280838360005b83811015610930578082015181840152602081019050610915565b505050509050019250505060405180910390f35b34801561095057600080fd5b50610959611b13565b6040518080602001828103825283818151815260200191508051906020019080838360005b8381101561099957808201518184015260208101905061097e565b50505050905090810190601f1680156109c65780820380516001836020036101000a031916815260200191505b509250505060405180910390f35b3480156109e057600080fd5b50610a096004803603810190808035906020019092919080359060200190929190505050611b4c565b6040518082815260200191505060405180910390f35b348015610a2b57600080fd5b50610a34611b61565b6040518082815260200191505060405180910390f35b348015610a5657600080fd5b50610ae8600480360381019080803573ffffffffffffffffffffffffffffffffffffffff16906020019092919080359060200190929190803590602001908201803590602001908080601f0160208091040260200160405190810160405280939291908181526020018383808284378201915050505050509192919290803560ff169060200190929190505050611b67565b604051808215151515815260200191505060405180910390f35b348015610b0e57600080fd5b50610b17611bd8565b6040518080602001828103825283818151815260200191508051906020019060200280838360005b83811015610b5a578082015181840152602081019050610b3f565b505050509050019250505060405180910390f35b348015610b7a57600080fd5b50610b9c600480360381019080803560ff169060200190929190505050611c66565b005b348015610baa57600080fd5b50610bb3611ce8565b6040518080602001828103825283818151815260200191508051906020019080838360005b83811015610bf3578082015181840152602081019050610bd8565b50505050905090810190601f168015610c205780820380516001836020036101000a031916815260200191505b509250505060405180910390f35b600381815481101515610c3d57fe5b906000526020600020016000915054906101000a900473ffffffffffffffffffffffffffffffffffffffff1681565b3073ffffffffffffffffffffffffffffffffffffffff163373ffffffffffffffffffffffffffffffffffffffff16141515610ca657600080fd5b60008273ffffffffffffffffffffffffffffffffffffffff1614151515610ccc57600080fd5b600560008373ffffffffffffffffffffffffffffffffffffffff1673ffffffffffffffffffffffffffffffffffffffff16815260200190815260200160002060009054906101000a900460ff16151515610d2557600080fd5b60038290806001815401808255809150509060018203906000526020600020016000909192909190916101000a81548173ffffffffffffffffffffffffffffffffffffffff021916908373ffffffffffffffffffffffffffffffffffffffff160217905550506001600560008473ffffffffffffffffffffffffffffffffffffffff1673ffffffffffffffffffffffffffffffffffffffff16815260200190815260200160002060006101000a81548160ff0219169083151502179055508060ff16600460009054906101000a900460ff1660ff16141515610e0b57610e0a81611c66565b5b5050565b3073ffffffffffffffffffffffffffffffffffffffff163373ffffffffffffffffffffffffffffffffffffffff16141515610e4957600080fd5b60008173ffffffffffffffffffffffffffffffffffffffff1614151515610e6f57600080fd5b600260008273ffffffffffffffffffffffffffffffffffffffff1673ffffffffffffffffffffffffffffffffffffffff16815260200190815260200160002060009054906101000a900460ff16151515610ec857600080fd5b60018190806001815401808255809150509060018203906000526020600020016000909192909190916101000a81548173ffffffffffffffffffffffffffffffffffffffff021916908373ffffffffffffffffffffffffffffffffffffffff160217905550506001600260008373ffffffffffffffffffffffffffffffffffffffff1673ffffffffffffffffffffffffffffffffffffffff16815260200190815260200160002060006101000a81548160ff02191690831515021790555050565b6000600560008373ffffffffffffffffffffffffffffffffffffffff1673ffffffffffffffffffffffffffffffffffffffff16815260200190815260200160002060009054906101000a900460ff169050919050565b6000600460009054906101000a900460ff16905090565b60026020528060005260406000206000915054906101000a900460ff1681565b600060197f01000000000000000000000000000000000000000000000000000000000000000260007f010000000000000000000000000000000000000000000000000000000000000002308b8b8b8b8b8b8b8b604051808c7effffffffffffffffffffffffffffffffffffffffffffffffffffffffffffff19167effffffffffffffffffffffffffffffffffffffffffffffffffffffffffffff191681526001018b7effffffffffffffffffffffffffffffffffffffffffffffffffffffffffffff19167effffffffffffffffffffffffffffffffffffffffffffffffffffffffffffff191681526001018a73ffffffffffffffffffffffffffffffffffffffff1673ffffffffffffffffffffffffffffffffffffffff166c010000000000000000000000000281526014018973ffffffffffffffffffffffffffffffffffffffff1673ffffffffffffffffffffffffffffffffffffffff166c0100000000000000000000000002815260140188815260200187805190602001908083835b6020831015156111ba5780518252602082019150602081019050602083039250611195565b6001836020036101000a0380198251168184511680821785525050505050509050018660028111156111e857fe5b60ff167f01000000000000000000000000000000000000000000000000000000000000000281526001018581526020018481526020018381526020018281526020019b5050505050505050505050506040518091039020905098975050505050505050565b6000803073ffffffffffffffffffffffffffffffffffffffff163373ffffffffffffffffffffffffffffffffffffffff1614151561128a57600080fd5b5a905061129a868686865a611d21565b15156112a557600080fd5b5a8103915050949350505050565b3073ffffffffffffffffffffffffffffffffffffffff163373ffffffffffffffffffffffffffffffffffffffff161415156112ed57600080fd5b60008173ffffffffffffffffffffffffffffffffffffffff161415151561131357600080fd5b600560008273ffffffffffffffffffffffffffffffffffffffff1673ffffffffffffffffffffffffffffffffffffffff16815260200190815260200160002060009054906101000a900460ff1615151561136c57600080fd5b8173ffffffffffffffffffffffffffffffffffffffff1660038481548110151561139257fe5b9060005260206000200160009054906101000a900473ffffffffffffffffffffffffffffffffffffffff1673ffffffffffffffffffffffffffffffffffffffff161415156113df57600080fd5b6000600560008473ffffffffffffffffffffffffffffffffffffffff1673ffffffffffffffffffffffffffffffffffffffff16815260200190815260200160002060006101000a81548160ff0219169083151502179055506001600560008373ffffffffffffffffffffffffffffffffffffffff1673ffffffffffffffffffffffffffffffffffffffff16815260200190815260200160002060006101000a81548160ff0219169083151502179055508060038481548110151561149f57fe5b9060005260206000200160006101000a81548173ffffffffffffffffffffffffffffffffffffffff021916908373ffffffffffffffffffffffffffffffffffffffff160217905550505050565b6000805a915061150f6115078d8d8d8d8d8d8d600654611016565b868686611e1e565b600660008154809291906001019190505550876127105a031015151561153457600080fd5b6115418c8c8c8c8c611d21565b1515611574577facfdb444727b3b8994850a379f4bfc8a5ca665a55604339199daafa16f687b1a60405160405180910390a15b6115805a830388611b4c565b90503273ffffffffffffffffffffffffffffffffffffffff166108fc8783029081150290604051600060405180830381858888f193505050501580156115ca573d6000803e3d6000fd5b50505050505050505050505050565b3073ffffffffffffffffffffffffffffffffffffffff163373ffffffffffffffffffffffffffffffffffffffff1614151561161357600080fd5b8073ffffffffffffffffffffffffffffffffffffffff1660018381548110151561163957fe5b9060005260206000200160009054906101000a900473ffffffffffffffffffffffffffffffffffffffff1673ffffffffffffffffffffffffffffffffffffffff1614151561168657600080fd5b6000600260008373ffffffffffffffffffffffffffffffffffffffff1673ffffffffffffffffffffffffffffffffffffffff16815260200190815260200160002060006101000a81548160ff0219169083151502179055506001808080549050038154811015156116f357fe5b9060005260206000200160009054906101000a900473ffffffffffffffffffffffffffffffffffffffff1660018381548110151561172d57fe5b9060005260206000200160006101000a81548173ffffffffffffffffffffffffffffffffffffffff021916908373ffffffffffffffffffffffffffffffffffffffff160217905550600180548091906001900361178a91906121c3565b505050565b3073ffffffffffffffffffffffffffffffffffffffff163373ffffffffffffffffffffffffffffffffffffffff161415156117c957600080fd5b60008173ffffffffffffffffffffffffffffffffffffffff16141515156117ef57600080fd5b806000806101000a81548173ffffffffffffffffffffffffffffffffffffffff021916908373ffffffffffffffffffffffffffffffffffffffff16021790555050565b60018181548110151561184157fe5b906000526020600020016000915054906101000a900473ffffffffffffffffffffffffffffffffffffffff1681565b3073ffffffffffffffffffffffffffffffffffffffff163373ffffffffffffffffffffffffffffffffffffffff161415156118aa57600080fd5b8060ff16600160038054905003101515156118c457600080fd5b8173ffffffffffffffffffffffffffffffffffffffff166003848154811015156118ea57fe5b9060005260206000200160009054906101000a900473ffffffffffffffffffffffffffffffffffffffff1673ffffffffffffffffffffffffffffffffffffffff1614151561193757600080fd5b6000600560008473ffffffffffffffffffffffffffffffffffffffff1673ffffffffffffffffffffffffffffffffffffffff16815260200190815260200160002060006101000a81548160ff02191690831515021790555060036001600380549050038154811015156119a657fe5b9060005260206000200160009054906101000a900473ffffffffffffffffffffffffffffffffffffffff166003848154811015156119e057fe5b9060005260206000200160006101000a81548173ffffffffffffffffffffffffffffffffffffffff021916908373ffffffffffffffffffffffffffffffffffffffff1602179055506003805480919060019003611a3d91906121ef565b508060ff16600460009054906101000a900460ff1660ff16141515611a6657611a6581611c66565b5b505050565b611a758484611fb8565b611a7f8282612146565b50505050565b60606003805480602002602001604051908101604052809291908181526020018280548015611b0957602002820191906000526020600020905b8160009054906101000a900473ffffffffffffffffffffffffffffffffffffffff1673ffffffffffffffffffffffffffffffffffffffff1681526020019060010190808311611abf575b5050505050905090565b6040805190810160405280601c81526020017f476e6f736973205361666520506572736f6e616c2045646974696f6e0000000081525081565b60006152086127108385010101905092915050565b60065481565b6000600260003373ffffffffffffffffffffffffffffffffffffffff1673ffffffffffffffffffffffffffffffffffffffff16815260200190815260200160002060009054906101000a900460ff161515611bc157600080fd5b611bce858585855a611d21565b9050949350505050565b60606001805480602002602001604051908101604052809291908181526020018280548015611c5c57602002820191906000526020600020905b8160009054906101000a900473ffffffffffffffffffffffffffffffffffffffff1673ffffffffffffffffffffffffffffffffffffffff1681526020019060010190808311611c12575b5050505050905090565b3073ffffffffffffffffffffffffffffffffffffffff163373ffffffffffffffffffffffffffffffffffffffff16141515611ca057600080fd5b6003805490508160ff1611151515611cb757600080fd5b60018160ff1610151515611cca57600080fd5b80600460006101000a81548160ff021916908360ff16021790555050565b6040805190810160405280600581526020017f302e302e3100000000000000000000000000000000000000000000000000000081525081565b60008060006002811115611d3157fe5b846002811115611d3d57fe5b1415611d5657611d4f87878786612181565b9150611e14565b60016002811115611d6357fe5b846002811115611d6f57fe5b1415611d8757611d8087868561219a565b9150611e13565b611d90856121b1565b905060008173ffffffffffffffffffffffffffffffffffffffff16141591507f4db17dd5e4732fb6da34a148104a592783ca119a1e7bb8829eba6cbadef0b51181604051808273ffffffffffffffffffffffffffffffffffffffff1673ffffffffffffffffffffffffffffffffffffffff16815260200191505060405180910390a15b5b5095945050505050565b6000806000809250600090505b600460009054906101000a900460ff1660ff16811015611faf576001878783815181101515611e5657fe5b906020019060200201518784815181101515611e6e57fe5b906020019060200201518785815181101515611e8657fe5b90602001906020020151604051600081526020016040526040518085600019166000191681526020018460ff1660ff1681526020018360001916600019168152602001826000191660001916815260200194505050505060206040516020810390808403906000865af1158015611f01573d6000803e3d6000fd5b505050602060405103519150600560008373ffffffffffffffffffffffffffffffffffffffff1673ffffffffffffffffffffffffffffffffffffffff16815260200190815260200160002060009054906101000a900460ff161515611f6557600080fd5b8273ffffffffffffffffffffffffffffffffffffffff168273ffffffffffffffffffffffffffffffffffffffff16111515611f9f57600080fd5b8192508080600101915050611e2b565b50505050505050565b6000806000600460009054906101000a900460ff1660ff16141515611fdc57600080fd5b83518360ff1611151515611fef57600080fd5b60018360ff161015151561200257600080fd5b600091505b835182101561210e57838281518110151561201e57fe5b90602001906020020151905060008173ffffffffffffffffffffffffffffffffffffffff161415151561205057600080fd5b600560008273ffffffffffffffffffffffffffffffffffffffff1673ffffffffffffffffffffffffffffffffffffffff16815260200190815260200160002060009054906101000a900460ff161515156120a957600080fd5b6001600560008373ffffffffffffffffffffffffffffffffffffffff1673ffffffffffffffffffffffffffffffffffffffff16815260200190815260200160002060006101000a81548160ff0219169083151502179055508180600101925050612007565b836003908051906020019061212492919061221b565b5082600460006101000a81548160ff021916908360ff16021790555050505050565b60008273ffffffffffffffffffffffffffffffffffffffff1614151561217d5761217182825a61219a565b151561217c57600080fd5b5b5050565b6000806000845160208601878987f19050949350505050565b60008060008451602086018786f490509392505050565b60008151602083016000f09050919050565b8154818355818111156121ea578183600052602060002091820191016121e991906122a5565b5b505050565b8154818355818111156122165781836000526020600020918201910161221591906122a5565b5b505050565b828054828255906000526020600020908101928215612294579160200282015b828111156122935782518260006101000a81548173ffffffffffffffffffffffffffffffffffffffff021916908373ffffffffffffffffffffffffffffffffffffffff1602179055509160200191906001019061223b565b5b5090506122a191906122ca565b5090565b6122c791905b808211156122c35760008160009055506001016122ab565b5090565b90565b61230a91905b8082111561230657600081816101000a81549073ffffffffffffffffffffffffffffffffffffffff0219169055506001016122d0565b5090565b905600a165627a7a72305820ca10892c4ea05a472842c591f096020bf8935e317ef2e73a23019987aca937590029",
  "source": "pragma solidity 0.4.23;\nimport \"./GnosisSafe.sol\";\nimport \"./MasterCopy.sol\";\n\n\n/// @title Gnosis Safe Personal Edition - A multisignature wallet with support for confirmations using signed messages based on ERC191.\n/// @author Stefan George - <stefan@gnosis.pm>\n/// @author Richard Meissner - <richard@gnosis.pm>\ncontract GnosisSafePersonalEdition is MasterCopy, GnosisSafe {\n\n    string public constant NAME = \"Gnosis Safe Personal Edition\";\n    string public constant VERSION = \"0.0.1\";\n    \n    uint256 internal constant BASE_TX_GAS_COSTS = 21000;\n    uint256 internal constant PAYMENT_GAS_COSTS = 10000;\n\n    event ExecutionFailed();\n\n    uint256 public nonce;\n\n    /// @dev Allows to execute a Safe transaction confirmed by required number of owners.\n    /// @param to Destination address of Safe transaction.\n    /// @param value Ether value of Safe transaction.\n    /// @param data Data payload of Safe transaction.\n    /// @param operation Operation type of Safe transaction.\n    /// @param safeTxGas Gas that should be used for the Safe transaction.\n    /// @param dataGas Gas costs for data used to trigger the safe transaction.\n    /// @param gasPrice Gas price that should be used for the payment calculation.\n    /// @param v Array of signature V values sorted by owner addresses.\n    /// @param r Array of signature R values sorted by owner addresses.\n    /// @param s Array of signature S values sorted by owner addresses.\n    function payAndExecuteTransaction(\n        address to, \n        uint256 value, \n        bytes data, \n        Enum.Operation operation, \n        uint256 safeTxGas,\n        uint256 dataGas,\n        uint256 gasPrice,\n        uint8[] v, \n        bytes32[] r, \n        bytes32[] s\n    )\n        public\n    {\n        uint256 startGas = gasleft();\n        checkHash(getTransactionHash(to, value, data, operation, safeTxGas, dataGas, gasPrice, nonce), v, r, s);\n        // Increase nonce and execute transaction.\n        nonce++;\n        require(gasleft() - PAYMENT_GAS_COSTS >= safeTxGas);\n        if (!execute(to, value, data, operation, safeTxGas)) {\n            emit ExecutionFailed();\n        }\n        uint256 gasCosts = totalGasCosts(startGas - gasleft(), dataGas);\n\n        // We transfer the calculated tx costs to the tx.origin to avoid sending it to intermediate contracts that have made calls\n        // solium-disable-next-line security/no-tx-origin\n        tx.origin.transfer(gasCosts * gasPrice);\n    }\n\n    /// @dev Calculates the total gas costs for a safe transaction with the gas costs for the execution of the transaction.\n    /// @param executionGas Gas costs for the execution of the safe transaction.\n    /// @param dataGas Gas costs for data used to trigger the safe transaction.\n    /// @return Total gas costs for the execution (this includes gas costs for the payment to tx.origin, base transaction and payload data).\n    function totalGasCosts(uint256 executionGas, uint256 dataGas) \n        public \n        pure\n        returns (uint256) \n    {\n        return executionGas + dataGas + PAYMENT_GAS_COSTS + BASE_TX_GAS_COSTS;\n    }\n\n    /// @dev Allows to estimate a Safe transaction. \n    ///      This method can only be used by the safe itself in a transaction. When estimating set `from` to the address of the safe.\n    ///      Since the `estimateGas` function includes refunds, call this method to get an estimated of the costs that are deducted from the safe with `payAndExecuteTransaction`\n    /// @param to Destination address of Safe transaction.\n    /// @param value Ether value of Safe transaction.\n    /// @param data Data payload of Safe transaction.\n    /// @param operation Operation type of Safe transaction.\n    /// @return Estimate without refunds and overhead fees (base transaction and payload data gas costs).\n    function estimate(address to, uint256 value, bytes data, Enum.Operation operation)\n        public\n        authorized\n        returns (uint256)\n    {\n        uint256 startGas = gasleft();\n        require(execute(to, value, data, operation, gasleft()));\n        return startGas - gasleft();\n    }\n\n    function checkHash(bytes32 hash, uint8[] v, bytes32[] r, bytes32[] s)\n        internal\n        view\n    {\n        // There cannot be an owner with address 0.\n        address lastOwner = address(0);\n        address currentOwner;\n        uint256 i;\n        // Validate threshold is reached.\n        for (i = 0; i < threshold; i++) {\n            currentOwner = ecrecover(hash, v[i], r[i], s[i]);\n            require(isOwner[currentOwner]);\n            require(currentOwner > lastOwner);\n            lastOwner = currentOwner;\n        }\n    }\n\n    /// @dev Returns hash to be signed by owners.\n    /// @param to Destination address.\n    /// @param value Ether value.\n    /// @param data Data payload.\n    /// @param operation Operation type.\n    /// @param safeTxGas Fas that should be used for the safe transaction.\n    /// @param dataGas Gas costs for data used to trigger the safe transaction.\n    /// @param gasPrice Maximum gas price that should be used for this transaction.\n    /// @param _nonce Transaction nonce.\n    /// @return Transaction hash.\n    function getTransactionHash(\n        address to, \n        uint256 value, \n        bytes data, \n        Enum.Operation operation, \n        uint256 safeTxGas, \n        uint256 dataGas, \n        uint256 gasPrice, \n        uint256 _nonce\n    )\n        public\n        view\n        returns (bytes32)\n    {\n        return keccak256(byte(0x19), byte(0), this, to, value, data, operation, safeTxGas, dataGas, gasPrice, _nonce);\n    }\n}\n",
  "sourcePath": "/Users/apanizo/git/gnosis/safe-contracts/contracts/GnosisSafePersonalEdition.sol",
  "compiler": {
    "name": "solc",
    "version": "0.4.23+commit.124ca40d.Emscripten.clang"
  },
  "schemaVersion": "2.0.0",
  "updatedAt": "2018-05-14T07:39:37.952Z"
}