{
  "contractName": "GnosisSafeTeamEdition",
  "abi": [
    {
      "constant": true,
      "inputs": [
        {
          "name": "owner",
          "type": "address"
        }
      ],
      "name": "isOwner",
      "outputs": [
        {
          "name": "",
          "type": "bool"
        }
      ],
      "payable": false,
      "stateMutability": "view",
      "type": "function"
    },
    {
      "constant": false,
      "inputs": [
        {
          "name": "to",
          "type": "address"
        },
        {
          "name": "value",
          "type": "uint256"
        },
        {
          "name": "data",
          "type": "bytes"
        },
        {
          "name": "operation",
          "type": "uint8"
        }
      ],
      "name": "execTransactionFromModule",
      "outputs": [
        {
          "name": "success",
          "type": "bool"
        }
      ],
      "payable": false,
      "stateMutability": "nonpayable",
      "type": "function"
    },
    {
      "constant": false,
      "inputs": [
        {
          "name": "module",
          "type": "address"
        }
      ],
      "name": "enableModule",
      "outputs": [],
      "payable": false,
      "stateMutability": "nonpayable",
      "type": "function"
    },
    {
      "constant": false,
      "inputs": [
        {
          "name": "_masterCopy",
          "type": "address"
        }
      ],
      "name": "changeMasterCopy",
      "outputs": [],
      "payable": false,
      "stateMutability": "nonpayable",
      "type": "function"
    },
    {
      "constant": true,
      "inputs": [],
      "name": "SENTINEL_MODULES",
      "outputs": [
        {
          "name": "",
          "type": "address"
        }
      ],
      "payable": false,
      "stateMutability": "view",
      "type": "function"
    },
    {
      "constant": false,
      "inputs": [
        {
          "name": "prevOwner",
          "type": "address"
        },
        {
          "name": "owner",
          "type": "address"
        },
        {
          "name": "_threshold",
          "type": "uint8"
        }
      ],
      "name": "removeOwner",
      "outputs": [],
      "payable": false,
      "stateMutability": "nonpayable",
      "type": "function"
    },
    {
      "constant": true,
      "inputs": [],
      "name": "SENTINEL_OWNERS",
      "outputs": [
        {
          "name": "",
          "type": "address"
        }
      ],
      "payable": false,
      "stateMutability": "view",
      "type": "function"
    },
    {
      "constant": false,
      "inputs": [
        {
          "name": "_owners",
          "type": "address[]"
        },
        {
          "name": "_threshold",
          "type": "uint8"
        },
        {
          "name": "to",
          "type": "address"
        },
        {
          "name": "data",
          "type": "bytes"
        }
      ],
      "name": "setup",
      "outputs": [],
      "payable": false,
      "stateMutability": "nonpayable",
      "type": "function"
    },
    {
      "constant": true,
      "inputs": [
        {
          "name": "",
          "type": "bytes32"
        },
        {
          "name": "",
          "type": "address"
        }
      ],
      "name": "isApproved",
      "outputs": [
        {
          "name": "",
          "type": "bool"
        }
      ],
      "payable": false,
      "stateMutability": "view",
      "type": "function"
    },
    {
      "constant": true,
      "inputs": [],
      "name": "getOwners",
      "outputs": [
        {
          "name": "",
          "type": "address[]"
        }
      ],
      "payable": false,
      "stateMutability": "view",
      "type": "function"
    },
    {
      "constant": true,
      "inputs": [],
      "name": "NAME",
      "outputs": [
        {
          "name": "",
          "type": "string"
        }
      ],
      "payable": false,
      "stateMutability": "view",
      "type": "function"
    },
    {
      "constant": true,
      "inputs": [],
      "name": "getModules",
      "outputs": [
        {
          "name": "",
          "type": "address[]"
        }
      ],
      "payable": false,
      "stateMutability": "view",
      "type": "function"
    },
    {
      "constant": false,
      "inputs": [
        {
          "name": "_threshold",
          "type": "uint8"
        }
      ],
      "name": "changeThreshold",
      "outputs": [],
      "payable": false,
      "stateMutability": "nonpayable",
      "type": "function"
    },
    {
      "constant": false,
      "inputs": [
        {
          "name": "owner",
          "type": "address"
        },
        {
          "name": "_threshold",
          "type": "uint8"
        }
      ],
      "name": "addOwnerWithThreshold",
      "outputs": [],
      "payable": false,
      "stateMutability": "nonpayable",
      "type": "function"
    },
    {
      "constant": false,
      "inputs": [
        {
          "name": "prevModule",
          "type": "address"
        },
        {
          "name": "module",
          "type": "address"
        }
      ],
      "name": "disableModule",
      "outputs": [],
      "payable": false,
      "stateMutability": "nonpayable",
      "type": "function"
    },
    {
      "constant": false,
      "inputs": [
        {
          "name": "prevOwner",
          "type": "address"
        },
        {
          "name": "oldOwner",
          "type": "address"
        },
        {
          "name": "newOwner",
          "type": "address"
        }
      ],
      "name": "swapOwner",
      "outputs": [],
      "payable": false,
      "stateMutability": "nonpayable",
      "type": "function"
    },
    {
      "constant": true,
      "inputs": [
        {
          "name": "",
          "type": "bytes32"
        }
      ],
      "name": "isExecuted",
      "outputs": [
        {
          "name": "",
          "type": "bool"
        }
      ],
      "payable": false,
      "stateMutability": "view",
      "type": "function"
    },
    {
      "constant": true,
      "inputs": [],
      "name": "getThreshold",
      "outputs": [
        {
          "name": "",
          "type": "uint8"
        }
      ],
      "payable": false,
      "stateMutability": "view",
      "type": "function"
    },
    {
      "constant": true,
      "inputs": [],
      "name": "VERSION",
      "outputs": [
        {
          "name": "",
          "type": "string"
        }
      ],
      "payable": false,
      "stateMutability": "view",
      "type": "function"
    },
    {
      "payable": true,
      "stateMutability": "payable",
      "type": "fallback"
    },
    {
      "anonymous": false,
      "inputs": [
        {
          "indexed": false,
          "name": "newContract",
          "type": "address"
        }
      ],
      "name": "ContractCreation",
      "type": "event"
    },
    {
      "constant": false,
      "inputs": [
        {
          "name": "to",
          "type": "address"
        },
        {
          "name": "value",
          "type": "uint256"
        },
        {
          "name": "data",
          "type": "bytes"
        },
        {
          "name": "operation",
          "type": "uint8"
        },
        {
          "name": "nonce",
          "type": "uint256"
        }
      ],
      "name": "approveTransactionWithParameters",
      "outputs": [],
      "payable": false,
      "stateMutability": "nonpayable",
      "type": "function"
    },
    {
      "constant": false,
      "inputs": [
        {
          "name": "to",
          "type": "address"
        },
        {
          "name": "value",
          "type": "uint256"
        },
        {
          "name": "data",
          "type": "bytes"
        },
        {
          "name": "operation",
          "type": "uint8"
        },
        {
          "name": "nonce",
          "type": "uint256"
        }
      ],
      "name": "execTransactionIfApproved",
      "outputs": [],
      "payable": false,
      "stateMutability": "nonpayable",
      "type": "function"
    },
    {
      "constant": true,
      "inputs": [
        {
          "name": "to",
          "type": "address"
        },
        {
          "name": "value",
          "type": "uint256"
        },
        {
          "name": "data",
          "type": "bytes"
        },
        {
          "name": "operation",
          "type": "uint8"
        },
        {
          "name": "nonce",
          "type": "uint256"
        }
      ],
      "name": "getTransactionHash",
      "outputs": [
        {
          "name": "",
          "type": "bytes32"
        }
      ],
      "payable": false,
      "stateMutability": "view",
      "type": "function"
    }
  ],
  "bytecode": "0x608060405234801561001057600080fd5b50612c1b806100206000396000f300608060405260043610610128576000357c0100000000000000000000000000000000000000000000000000000000900463ffffffff168063153414fa1461012a57806324cd131f146101d45780632b5000411461027e5780632f54bf6e14610344578063468721a71461039f578063610b5925146104575780637de7edef1461049a57806385e332cd146104dd57806386040aa9146105345780638cff6355146105a4578063a04222e1146105fb578063a09e89f5146106d4578063a0e67e2b1461073d578063a3f4df7e146107a9578063b2494df314610839578063b7f3358d146108a5578063b91a667f146108d5578063e009cfde14610925578063e318b52b14610988578063e52cb36a14610a0b578063e75235b814610a54578063ffa1ad7414610a85575b005b34801561013657600080fd5b506101d2600480360381019080803573ffffffffffffffffffffffffffffffffffffffff16906020019092919080359060200190929190803590602001908201803590602001908080601f0160208091040260200160405190810160405280939291908181526020018383808284378201915050505050509192919290803560ff16906020019092919080359060200190929190505050610b15565b005b3480156101e057600080fd5b5061027c600480360381019080803573ffffffffffffffffffffffffffffffffffffffff16906020019092919080359060200190929190803590602001908201803590602001908080601f0160208091040260200160405190810160405280939291908181526020018383808284378201915050505050509192919290803560ff16906020019092919080359060200190929190505050610cca565b005b34801561028a57600080fd5b50610326600480360381019080803573ffffffffffffffffffffffffffffffffffffffff16906020019092919080359060200190929190803590602001908201803590602001908080601f0160208091040260200160405190810160405280939291908181526020018383808284378201915050505050509192919290803560ff16906020019092919080359060200190929190505050610d6d565b60405180826000191660001916815260200191505060405180910390f35b34801561035057600080fd5b50610385600480360381019080803573ffffffffffffffffffffffffffffffffffffffff169060200190929190505050610f89565b604051808215151515815260200191505060405180910390f35b3480156103ab57600080fd5b5061043d600480360381019080803573ffffffffffffffffffffffffffffffffffffffff16906020019092919080359060200190929190803590602001908201803590602001908080601f0160208091040260200160405190810160405280939291908181526020018383808284378201915050505050509192919290803560ff16906020019092919050505061100b565b604051808215151515815260200191505060405180910390f35b34801561046357600080fd5b50610498600480360381019080803573ffffffffffffffffffffffffffffffffffffffff1690602001909291905050506110a8565b005b3480156104a657600080fd5b506104db600480360381019080803573ffffffffffffffffffffffffffffffffffffffff169060200190929190505050611325565b005b3480156104e957600080fd5b506104f26113c8565b604051808273ffffffffffffffffffffffffffffffffffffffff1673ffffffffffffffffffffffffffffffffffffffff16815260200191505060405180910390f35b34801561054057600080fd5b506105a2600480360381019080803573ffffffffffffffffffffffffffffffffffffffff169060200190929190803573ffffffffffffffffffffffffffffffffffffffff169060200190929190803560ff1690602001909291905050506113cd565b005b3480156105b057600080fd5b506105b9611653565b604051808273ffffffffffffffffffffffffffffffffffffffff1673ffffffffffffffffffffffffffffffffffffffff16815260200191505060405180910390f35b34801561060757600080fd5b506106d260048036038101908080359060200190820180359060200190808060200260200160405190810160405280939291908181526020018383602002808284378201915050505050509192919290803560ff169060200190929190803573ffffffffffffffffffffffffffffffffffffffff169060200190929190803590602001908201803590602001908080601f0160208091040260200160405190810160405280939291908181526020018383808284378201915050505050509192919290505050611658565b005b3480156106e057600080fd5b506107236004803603810190808035600019169060200190929190803573ffffffffffffffffffffffffffffffffffffffff169060200190929190505050611672565b604051808215151515815260200191505060405180910390f35b34801561074957600080fd5b506107526116a1565b6040518080602001828103825283818151815260200191508051906020019060200280838360005b8381101561079557808201518184015260208101905061077a565b505050509050019250505060405180910390f35b3480156107b557600080fd5b506107be61183c565b6040518080602001828103825283818151815260200191508051906020019080838360005b838110156107fe5780820151818401526020810190506107e3565b50505050905090810190601f16801561082b5780820380516001836020036101000a031916815260200191505b509250505060405180910390f35b34801561084557600080fd5b5061084e611875565b6040518080602001828103825283818151815260200191508051906020019060200280838360005b83811015610891578082015181840152602081019050610876565b505050509050019250505060405180910390f35b3480156108b157600080fd5b506108d3600480360381019080803560ff169060200190929190505050611b1c565b005b3480156108e157600080fd5b50610923600480360381019080803573ffffffffffffffffffffffffffffffffffffffff169060200190929190803560ff169060200190929190505050611b9b565b005b34801561093157600080fd5b50610986600480360381019080803573ffffffffffffffffffffffffffffffffffffffff169060200190929190803573ffffffffffffffffffffffffffffffffffffffff169060200190929190505050611e53565b005b34801561099457600080fd5b50610a09600480360381019080803573ffffffffffffffffffffffffffffffffffffffff169060200190929190803573ffffffffffffffffffffffffffffffffffffffff169060200190929190803573ffffffffffffffffffffffffffffffffffffffff169060200190929190505050612086565b005b348015610a1757600080fd5b50610a3a600480360381019080803560001916906020019092919050505061241b565b604051808215151515815260200191505060405180910390f35b348015610a6057600080fd5b50610a6961243b565b604051808260ff1660ff16815260200191505060405180910390f35b348015610a9157600080fd5b50610a9a612452565b6040518080602001828103825283818151815260200191508051906020019080838360005b83811015610ada578082015181840152602081019050610abf565b50505050905090810190601f168015610b075780820380516001836020036101000a031916815260200191505b509250505060405180910390f35b600080600260003373ffffffffffffffffffffffffffffffffffffffff1673ffffffffffffffffffffffffffffffffffffffff16815260200190815260200160002060009054906101000a900473ffffffffffffffffffffffffffffffffffffffff1673ffffffffffffffffffffffffffffffffffffffff1614151515610b9b57600080fd5b610ba88686868686610d6d565b905060056000826000191660001916815260200190815260200160002060009054906101000a900460ff16151515610bdf57600080fd5b60066000826000191660001916815260200190815260200160002060003373ffffffffffffffffffffffffffffffffffffffff1673ffffffffffffffffffffffffffffffffffffffff16815260200190815260200160002060009054906101000a900460ff16151515610c5157600080fd5b600160066000836000191660001916815260200190815260200160002060003373ffffffffffffffffffffffffffffffffffffffff1673ffffffffffffffffffffffffffffffffffffffff16815260200190815260200160002060006101000a81548160ff021916908315150217905550505050505050565b6000610cd98686868686610d6d565b905060056000826000191660001916815260200190815260200160002060009054906101000a900460ff16151515610d1057600080fd5b610d198161248b565b600160056000836000191660001916815260200190815260200160002060006101000a81548160ff021916908315150217905550610d5a868686865a6126e0565b1515610d6557600080fd5b505050505050565b600060197f01000000000000000000000000000000000000000000000000000000000000000260007f01000000000000000000000000000000000000000000000000000000000000000230888888888860405180897effffffffffffffffffffffffffffffffffffffffffffffffffffffffffffff19167effffffffffffffffffffffffffffffffffffffffffffffffffffffffffffff19168152600101887effffffffffffffffffffffffffffffffffffffffffffffffffffffffffffff19167effffffffffffffffffffffffffffffffffffffffffffffffffffffffffffff191681526001018773ffffffffffffffffffffffffffffffffffffffff1673ffffffffffffffffffffffffffffffffffffffff166c010000000000000000000000000281526014018673ffffffffffffffffffffffffffffffffffffffff1673ffffffffffffffffffffffffffffffffffffffff166c0100000000000000000000000002815260140185815260200184805190602001908083835b602083101515610f0e5780518252602082019150602081019050602083039250610ee9565b6001836020036101000a038019825116818451168082178552505050505050905001836002811115610f3c57fe5b60ff167f0100000000000000000000000000000000000000000000000000000000000000028152600101828152602001985050505050505050506040518091039020905095945050505050565b600080600260008473ffffffffffffffffffffffffffffffffffffffff1673ffffffffffffffffffffffffffffffffffffffff16815260200190815260200160002060009054906101000a900473ffffffffffffffffffffffffffffffffffffffff1673ffffffffffffffffffffffffffffffffffffffff1614159050919050565b600080600160003373ffffffffffffffffffffffffffffffffffffffff1673ffffffffffffffffffffffffffffffffffffffff16815260200190815260200160002060009054906101000a900473ffffffffffffffffffffffffffffffffffffffff1673ffffffffffffffffffffffffffffffffffffffff161415151561109157600080fd5b61109e858585855a6126e0565b9050949350505050565b3073ffffffffffffffffffffffffffffffffffffffff163373ffffffffffffffffffffffffffffffffffffffff161415156110e257600080fd5b60008173ffffffffffffffffffffffffffffffffffffffff16141580156111365750600173ffffffffffffffffffffffffffffffffffffffff168173ffffffffffffffffffffffffffffffffffffffff1614155b151561114157600080fd5b6000600160008373ffffffffffffffffffffffffffffffffffffffff1673ffffffffffffffffffffffffffffffffffffffff16815260200190815260200160002060009054906101000a900473ffffffffffffffffffffffffffffffffffffffff1673ffffffffffffffffffffffffffffffffffffffff161415156111c557600080fd5b60016000600173ffffffffffffffffffffffffffffffffffffffff1673ffffffffffffffffffffffffffffffffffffffff16815260200190815260200160002060009054906101000a900473ffffffffffffffffffffffffffffffffffffffff16600160008373ffffffffffffffffffffffffffffffffffffffff1673ffffffffffffffffffffffffffffffffffffffff16815260200190815260200160002060006101000a81548173ffffffffffffffffffffffffffffffffffffffff021916908373ffffffffffffffffffffffffffffffffffffffff1602179055508060016000600173ffffffffffffffffffffffffffffffffffffffff1673ffffffffffffffffffffffffffffffffffffffff16815260200190815260200160002060006101000a81548173ffffffffffffffffffffffffffffffffffffffff021916908373ffffffffffffffffffffffffffffffffffffffff16021790555050565b3073ffffffffffffffffffffffffffffffffffffffff163373ffffffffffffffffffffffffffffffffffffffff1614151561135f57600080fd5b60008173ffffffffffffffffffffffffffffffffffffffff161415151561138557600080fd5b806000806101000a81548173ffffffffffffffffffffffffffffffffffffffff021916908373ffffffffffffffffffffffffffffffffffffffff16021790555050565b600181565b3073ffffffffffffffffffffffffffffffffffffffff163373ffffffffffffffffffffffffffffffffffffffff1614151561140757600080fd5b8060ff166001600354031015151561141e57600080fd5b8173ffffffffffffffffffffffffffffffffffffffff16600260008573ffffffffffffffffffffffffffffffffffffffff1673ffffffffffffffffffffffffffffffffffffffff16815260200190815260200160002060009054906101000a900473ffffffffffffffffffffffffffffffffffffffff1673ffffffffffffffffffffffffffffffffffffffff161415156114b757600080fd5b600260008373ffffffffffffffffffffffffffffffffffffffff1673ffffffffffffffffffffffffffffffffffffffff16815260200190815260200160002060009054906101000a900473ffffffffffffffffffffffffffffffffffffffff16600260008573ffffffffffffffffffffffffffffffffffffffff1673ffffffffffffffffffffffffffffffffffffffff16815260200190815260200160002060006101000a81548173ffffffffffffffffffffffffffffffffffffffff021916908373ffffffffffffffffffffffffffffffffffffffff1602179055506000600260008473ffffffffffffffffffffffffffffffffffffffff1673ffffffffffffffffffffffffffffffffffffffff16815260200190815260200160002060006101000a81548173ffffffffffffffffffffffffffffffffffffffff021916908373ffffffffffffffffffffffffffffffffffffffff160217905550600360008154809291906001900391905055508060ff16600460009054906101000a900460ff1660ff1614151561164e5761164d81611b1c565b5b505050565b600181565b61166284846127dd565b61166c8282612a6e565b50505050565b60066020528160005260406000206020528060005260406000206000915091509054906101000a900460ff1681565b6060806000806003546040519080825280602002602001820160405280156116d85781602001602082028038833980820191505090505b5092506000915060026000600173ffffffffffffffffffffffffffffffffffffffff1673ffffffffffffffffffffffffffffffffffffffff16815260200190815260200160002060009054906101000a900473ffffffffffffffffffffffffffffffffffffffff1690505b600173ffffffffffffffffffffffffffffffffffffffff168173ffffffffffffffffffffffffffffffffffffffff161415156118335780838381518110151561178857fe5b9060200190602002019073ffffffffffffffffffffffffffffffffffffffff16908173ffffffffffffffffffffffffffffffffffffffff1681525050600260008273ffffffffffffffffffffffffffffffffffffffff1673ffffffffffffffffffffffffffffffffffffffff16815260200190815260200160002060009054906101000a900473ffffffffffffffffffffffffffffffffffffffff1690508180600101925050611743565b82935050505090565b6040805190810160405280601881526020017f476e6f7369732053616665205465616d2045646974696f6e000000000000000081525081565b606060008060606000925060016000600173ffffffffffffffffffffffffffffffffffffffff1673ffffffffffffffffffffffffffffffffffffffff16815260200190815260200160002060009054906101000a900473ffffffffffffffffffffffffffffffffffffffff1691505b600173ffffffffffffffffffffffffffffffffffffffff168273ffffffffffffffffffffffffffffffffffffffff1614151561198957600160008373ffffffffffffffffffffffffffffffffffffffff1673ffffffffffffffffffffffffffffffffffffffff16815260200190815260200160002060009054906101000a900473ffffffffffffffffffffffffffffffffffffffff16915082806001019350506118e4565b826040519080825280602002602001820160405280156119b85781602001602082028038833980820191505090505b5090506000925060016000600173ffffffffffffffffffffffffffffffffffffffff1673ffffffffffffffffffffffffffffffffffffffff16815260200190815260200160002060009054906101000a900473ffffffffffffffffffffffffffffffffffffffff1691505b600173ffffffffffffffffffffffffffffffffffffffff168273ffffffffffffffffffffffffffffffffffffffff16141515611b1357818184815181101515611a6857fe5b9060200190602002019073ffffffffffffffffffffffffffffffffffffffff16908173ffffffffffffffffffffffffffffffffffffffff1681525050600160008373ffffffffffffffffffffffffffffffffffffffff1673ffffffffffffffffffffffffffffffffffffffff16815260200190815260200160002060009054906101000a900473ffffffffffffffffffffffffffffffffffffffff1691508280600101935050611a23565b80935050505090565b3073ffffffffffffffffffffffffffffffffffffffff163373ffffffffffffffffffffffffffffffffffffffff16141515611b5657600080fd5b6003548160ff1611151515611b6a57600080fd5b60018160ff1610151515611b7d57600080fd5b80600460006101000a81548160ff021916908360ff16021790555050565b3073ffffffffffffffffffffffffffffffffffffffff163373ffffffffffffffffffffffffffffffffffffffff16141515611bd557600080fd5b60008273ffffffffffffffffffffffffffffffffffffffff1614158015611c295750600173ffffffffffffffffffffffffffffffffffffffff168273ffffffffffffffffffffffffffffffffffffffff1614155b1515611c3457600080fd5b6000600260008473ffffffffffffffffffffffffffffffffffffffff1673ffffffffffffffffffffffffffffffffffffffff16815260200190815260200160002060009054906101000a900473ffffffffffffffffffffffffffffffffffffffff1673ffffffffffffffffffffffffffffffffffffffff16141515611cb857600080fd5b60026000600173ffffffffffffffffffffffffffffffffffffffff1673ffffffffffffffffffffffffffffffffffffffff16815260200190815260200160002060009054906101000a900473ffffffffffffffffffffffffffffffffffffffff16600260008473ffffffffffffffffffffffffffffffffffffffff1673ffffffffffffffffffffffffffffffffffffffff16815260200190815260200160002060006101000a81548173ffffffffffffffffffffffffffffffffffffffff021916908373ffffffffffffffffffffffffffffffffffffffff1602179055508160026000600173ffffffffffffffffffffffffffffffffffffffff1673ffffffffffffffffffffffffffffffffffffffff16815260200190815260200160002060006101000a81548173ffffffffffffffffffffffffffffffffffffffff021916908373ffffffffffffffffffffffffffffffffffffffff1602179055506003600081548092919060010191905055508060ff16600460009054906101000a900460ff1660ff16141515611e4f57611e4e81611b1c565b5b5050565b3073ffffffffffffffffffffffffffffffffffffffff163373ffffffffffffffffffffffffffffffffffffffff16141515611e8d57600080fd5b8073ffffffffffffffffffffffffffffffffffffffff16600160008473ffffffffffffffffffffffffffffffffffffffff1673ffffffffffffffffffffffffffffffffffffffff16815260200190815260200160002060009054906101000a900473ffffffffffffffffffffffffffffffffffffffff1673ffffffffffffffffffffffffffffffffffffffff16141515611f2657600080fd5b600160008273ffffffffffffffffffffffffffffffffffffffff1673ffffffffffffffffffffffffffffffffffffffff16815260200190815260200160002060009054906101000a900473ffffffffffffffffffffffffffffffffffffffff16600160008473ffffffffffffffffffffffffffffffffffffffff1673ffffffffffffffffffffffffffffffffffffffff16815260200190815260200160002060006101000a81548173ffffffffffffffffffffffffffffffffffffffff021916908373ffffffffffffffffffffffffffffffffffffffff1602179055506000600160008373ffffffffffffffffffffffffffffffffffffffff1673ffffffffffffffffffffffffffffffffffffffff16815260200190815260200160002060006101000a81548173ffffffffffffffffffffffffffffffffffffffff021916908373ffffffffffffffffffffffffffffffffffffffff1602179055505050565b3073ffffffffffffffffffffffffffffffffffffffff163373ffffffffffffffffffffffffffffffffffffffff161415156120c057600080fd5b60008173ffffffffffffffffffffffffffffffffffffffff16141580156121145750600173ffffffffffffffffffffffffffffffffffffffff168173ffffffffffffffffffffffffffffffffffffffff1614155b151561211f57600080fd5b6000600260008373ffffffffffffffffffffffffffffffffffffffff1673ffffffffffffffffffffffffffffffffffffffff16815260200190815260200160002060009054906101000a900473ffffffffffffffffffffffffffffffffffffffff1673ffffffffffffffffffffffffffffffffffffffff161415156121a357600080fd5b8173ffffffffffffffffffffffffffffffffffffffff16600260008573ffffffffffffffffffffffffffffffffffffffff1673ffffffffffffffffffffffffffffffffffffffff16815260200190815260200160002060009054906101000a900473ffffffffffffffffffffffffffffffffffffffff1673ffffffffffffffffffffffffffffffffffffffff1614151561223c57600080fd5b600260008373ffffffffffffffffffffffffffffffffffffffff1673ffffffffffffffffffffffffffffffffffffffff16815260200190815260200160002060009054906101000a900473ffffffffffffffffffffffffffffffffffffffff16600260008373ffffffffffffffffffffffffffffffffffffffff1673ffffffffffffffffffffffffffffffffffffffff16815260200190815260200160002060006101000a81548173ffffffffffffffffffffffffffffffffffffffff021916908373ffffffffffffffffffffffffffffffffffffffff16021790555080600260008573ffffffffffffffffffffffffffffffffffffffff1673ffffffffffffffffffffffffffffffffffffffff16815260200190815260200160002060006101000a81548173ffffffffffffffffffffffffffffffffffffffff021916908373ffffffffffffffffffffffffffffffffffffffff1602179055506000600260008473ffffffffffffffffffffffffffffffffffffffff1673ffffffffffffffffffffffffffffffffffffffff16815260200190815260200160002060006101000a81548173ffffffffffffffffffffffffffffffffffffffff021916908373ffffffffffffffffffffffffffffffffffffffff160217905550505050565b60056020528060005260406000206000915054906101000a900460ff1681565b6000600460009054906101000a900460ff16905090565b6040805190810160405280600581526020017f302e302e3100000000000000000000000000000000000000000000000000000081525081565b600080600080925060026000600173ffffffffffffffffffffffffffffffffffffffff1673ffffffffffffffffffffffffffffffffffffffff16815260200190815260200160002060009054906101000a900473ffffffffffffffffffffffffffffffffffffffff1691505b600173ffffffffffffffffffffffffffffffffffffffff168273ffffffffffffffffffffffffffffffffffffffff161415156126b95760066000856000191660001916815260200190815260200160002060008373ffffffffffffffffffffffffffffffffffffffff1673ffffffffffffffffffffffffffffffffffffffff16815260200190815260200160002060009054906101000a900460ff1690503373ffffffffffffffffffffffffffffffffffffffff168273ffffffffffffffffffffffffffffffffffffffff1614806125cc5750805b1561265257801561264957600060066000866000191660001916815260200190815260200160002060008473ffffffffffffffffffffffffffffffffffffffff1673ffffffffffffffffffffffffffffffffffffffff16815260200190815260200160002060006101000a81548160ff0219169083151502179055505b82806001019350505b600260008373ffffffffffffffffffffffffffffffffffffffff1673ffffffffffffffffffffffffffffffffffffffff16815260200190815260200160002060009054906101000a900473ffffffffffffffffffffffffffffffffffffffff1691506124f7565b600460009054906101000a900460ff1660ff1683101515156126da57600080fd5b50505050565b600080600060028111156126f057fe5b8460028111156126fc57fe5b14156127155761270e87878786612bad565b91506127d3565b6001600281111561272257fe5b84600281111561272e57fe5b14156127465761273f878685612bc6565b91506127d2565b61274f85612bdd565b905060008173ffffffffffffffffffffffffffffffffffffffff16141591507f4db17dd5e4732fb6da34a148104a592783ca119a1e7bb8829eba6cbadef0b51181604051808273ffffffffffffffffffffffffffffffffffffffff1673ffffffffffffffffffffffffffffffffffffffff16815260200191505060405180910390a15b5b5095945050505050565b600080600080600460009054906101000a900460ff1660ff1614151561280257600080fd5b84518460ff161115151561281557600080fd5b60018460ff161015151561282857600080fd5b60019250600091505b84518210156129c557848281518110151561284857fe5b90602001906020020151905060008173ffffffffffffffffffffffffffffffffffffffff16141580156128a85750600173ffffffffffffffffffffffffffffffffffffffff168173ffffffffffffffffffffffffffffffffffffffff1614155b15156128b357600080fd5b6000600260008373ffffffffffffffffffffffffffffffffffffffff1673ffffffffffffffffffffffffffffffffffffffff16815260200190815260200160002060009054906101000a900473ffffffffffffffffffffffffffffffffffffffff1673ffffffffffffffffffffffffffffffffffffffff1614151561293757600080fd5b80600260008573ffffffffffffffffffffffffffffffffffffffff1673ffffffffffffffffffffffffffffffffffffffff16815260200190815260200160002060006101000a81548173ffffffffffffffffffffffffffffffffffffffff021916908373ffffffffffffffffffffffffffffffffffffffff1602179055508092508180600101925050612831565b6001600260008573ffffffffffffffffffffffffffffffffffffffff1673ffffffffffffffffffffffffffffffffffffffff16815260200190815260200160002060006101000a81548173ffffffffffffffffffffffffffffffffffffffff021916908373ffffffffffffffffffffffffffffffffffffffff160217905550845160038190555083600460006101000a81548160ff021916908360ff1602179055505050505050565b600060016000600173ffffffffffffffffffffffffffffffffffffffff1673ffffffffffffffffffffffffffffffffffffffff16815260200190815260200160002060009054906101000a900473ffffffffffffffffffffffffffffffffffffffff1673ffffffffffffffffffffffffffffffffffffffff16141515612af357600080fd5b6001806000600173ffffffffffffffffffffffffffffffffffffffff1673ffffffffffffffffffffffffffffffffffffffff16815260200190815260200160002060006101000a81548173ffffffffffffffffffffffffffffffffffffffff021916908373ffffffffffffffffffffffffffffffffffffffff16021790555060008273ffffffffffffffffffffffffffffffffffffffff16141515612ba957612b9d82825a612bc6565b1515612ba857600080fd5b5b5050565b6000806000845160208601878987f19050949350505050565b60008060008451602086018786f490509392505050565b60008151602083016000f090509190505600a165627a7a72305820aa4f2f1bee5ca42e38a155540ac82e19af0bc412962c5bff72447a23481d2d090029",
  "source": "pragma solidity 0.4.23;\nimport \"./GnosisSafe.sol\";\nimport \"./MasterCopy.sol\";\n\n\n/// @title Gnosis Safe Team Edition - A multisignature wallet with support for confirmations.\n/// @author Stefan George - <stefan@gnosis.pm>\n/// @author Richard Meissner - <richard@gnosis.pm>\ncontract GnosisSafeTeamEdition is MasterCopy, GnosisSafe {\n\n    string public constant NAME = \"Gnosis Safe Team Edition\";\n    string public constant VERSION = \"0.0.1\";\n\n    // isExecuted mapping allows to check if a transaction (by hash) was already executed.\n    mapping (bytes32 => bool) public isExecuted;\n\n    // isApproved mapping allows to check if a transaction (by hash) was confirmed by an owner.\n    mapping (bytes32 => mapping(address => bool)) public isApproved;\n\n    /// @dev Allows to confirm a Safe transaction with a regular transaction.\n    ///      This can only be done from an owner address.\n    /// @param to Destination address of Safe transaction.\n    /// @param value Ether value of Safe transaction.\n    /// @param data Data payload of Safe transaction.\n    /// @param operation Operation type of Safe transaction.\n    /// @param nonce Nonce used for this Safe transaction.\n    function approveTransactionWithParameters(\n        address to, \n        uint256 value, \n        bytes data, \n        Enum.Operation operation, \n        uint256 nonce\n    )\n        public\n    {\n        // Only Safe owners are allowed to confirm Safe transactions.\n        require(owners[msg.sender] != 0);\n        // It should not be possible to confirm an executed transaction\n        bytes32 transactionHash = getTransactionHash(to, value, data, operation, nonce);\n        require(!isExecuted[transactionHash]);\n        // It is only possible to confirm a transaction once.\n        require(!isApproved[transactionHash][msg.sender]);\n        isApproved[transactionHash][msg.sender] = true;\n    }\n\n    /// @dev Allows to execute a Safe transaction confirmed by required number of owners. If the sender is an owner this is automatically confirmed.\n    /// @param to Destination address of Safe transaction.\n    /// @param value Ether value of Safe transaction.\n    /// @param data Data payload of Safe transaction.\n    /// @param operation Operation type of Safe transaction.\n    /// @param nonce Nonce used for this Safe transaction.\n    function execTransactionIfApproved(\n        address to, \n        uint256 value, \n        bytes data, \n        Enum.Operation operation, \n        uint256 nonce\n    )\n        public\n    {\n        bytes32 transactionHash = getTransactionHash(to, value, data, operation, nonce);\n        require(!isExecuted[transactionHash]);\n        checkAndClearConfirmations(transactionHash);\n        // Mark as executed and execute transaction.\n        isExecuted[transactionHash] = true;\n        require(execute(to, value, data, operation, gasleft()));\n    }\n\n    function checkAndClearConfirmations(bytes32 transactionHash)\n        internal\n    {\n        uint256 confirmations = 0;\n        // Validate threshold is reached.\n        address currentOwner = owners[SENTINEL_OWNERS];\n        while (currentOwner != SENTINEL_OWNERS) {\n            bool ownerConfirmed = isApproved[transactionHash][currentOwner];\n            if(currentOwner == msg.sender || ownerConfirmed) {\n                if (ownerConfirmed) {\n                    isApproved[transactionHash][currentOwner] = false;\n                }\n                confirmations ++;\n            }\n            currentOwner = owners[currentOwner];\n        }\n        require(confirmations >= threshold);\n    }\n\n    /// @dev Returns hash to be signed by owners.\n    /// @param to Destination address.\n    /// @param value Ether value.\n    /// @param data Data payload.\n    /// @param operation Operation type.\n    /// @param nonce Transaction nonce.\n    /// @return Transaction hash.\n    function getTransactionHash(\n        address to, \n        uint256 value, \n        bytes data, \n        Enum.Operation operation, \n        uint256 nonce\n    )\n        public\n        view\n        returns (bytes32)\n    {\n        return keccak256(byte(0x19), byte(0), this, to, value, data, operation, nonce);\n    }\n}\n",
  "sourcePath": "/Users/apanizo/git/gnosis/safe-contracts/contracts/GnosisSafeTeamEdition.sol",
  "compiler": {
    "name": "solc",
    "version": "0.4.23+commit.124ca40d.Emscripten.clang"
  },
  "schemaVersion": "2.0.0",
  "updatedAt": "2018-05-22T07:20:22.969Z"
}