{
  "contractName": "GnosisSafe",
  "abi": [
    {
      "constant": true,
      "inputs": [
        {
          "name": "",
          "type": "uint256"
        }
      ],
      "name": "owners",
      "outputs": [
        {
          "name": "",
          "type": "address"
        }
      ],
      "payable": false,
      "stateMutability": "view",
      "type": "function"
    },
    {
      "constant": true,
      "inputs": [
        {
          "name": "",
          "type": "address"
        }
      ],
      "name": "isOwner",
      "outputs": [
        {
          "name": "",
          "type": "bool"
        }
      ],
      "payable": false,
      "stateMutability": "view",
      "type": "function"
    },
    {
      "constant": true,
      "inputs": [],
      "name": "threshold",
      "outputs": [
        {
          "name": "",
          "type": "uint8"
        }
      ],
      "payable": false,
      "stateMutability": "view",
      "type": "function"
    },
    {
      "constant": true,
      "inputs": [
        {
          "name": "",
          "type": "address"
        },
        {
          "name": "",
          "type": "bytes32"
        }
      ],
      "name": "isConfirmed",
      "outputs": [
        {
          "name": "",
          "type": "bool"
        }
      ],
      "payable": false,
      "stateMutability": "view",
      "type": "function"
    },
    {
      "constant": true,
      "inputs": [],
      "name": "NAME",
      "outputs": [
        {
          "name": "",
          "type": "string"
        }
      ],
      "payable": false,
      "stateMutability": "view",
      "type": "function"
    },
    {
      "constant": true,
      "inputs": [],
      "name": "nonce",
      "outputs": [
        {
          "name": "",
          "type": "uint256"
        }
      ],
      "payable": false,
      "stateMutability": "view",
      "type": "function"
    },
    {
      "constant": true,
      "inputs": [
        {
          "name": "",
          "type": "uint256"
        }
      ],
      "name": "extensions",
      "outputs": [
        {
          "name": "",
          "type": "address"
        }
      ],
      "payable": false,
      "stateMutability": "view",
      "type": "function"
    },
    {
      "constant": true,
      "inputs": [
        {
          "name": "",
          "type": "address"
        }
      ],
      "name": "isExtension",
      "outputs": [
        {
          "name": "",
          "type": "bool"
        }
      ],
      "payable": false,
      "stateMutability": "view",
      "type": "function"
    },
    {
      "constant": true,
      "inputs": [],
      "name": "VERSION",
      "outputs": [
        {
          "name": "",
          "type": "string"
        }
      ],
      "payable": false,
      "stateMutability": "view",
      "type": "function"
    },
    {
      "inputs": [
        {
          "name": "_owners",
          "type": "address[]"
        },
        {
          "name": "_threshold",
          "type": "uint8"
        },
        {
          "name": "to",
          "type": "address"
        },
        {
          "name": "data",
          "type": "bytes"
        }
      ],
      "payable": false,
      "stateMutability": "nonpayable",
      "type": "constructor"
    },
    {
      "payable": true,
      "stateMutability": "payable",
      "type": "fallback"
    },
    {
      "anonymous": false,
      "inputs": [
        {
          "indexed": false,
          "name": "newContract",
          "type": "address"
        }
      ],
      "name": "ContractCreation",
      "type": "event"
    },
    {
      "constant": false,
      "inputs": [
        {
          "name": "_owners",
          "type": "address[]"
        },
        {
          "name": "_threshold",
          "type": "uint8"
        },
        {
          "name": "to",
          "type": "address"
        },
        {
          "name": "data",
          "type": "bytes"
        }
      ],
      "name": "setup",
      "outputs": [],
      "payable": false,
      "stateMutability": "nonpayable",
      "type": "function"
    },
    {
      "constant": false,
      "inputs": [
        {
          "name": "_masterCopy",
          "type": "address"
        }
      ],
      "name": "changeMasterCopy",
      "outputs": [],
      "payable": false,
      "stateMutability": "nonpayable",
      "type": "function"
    },
    {
      "constant": false,
      "inputs": [
        {
          "name": "owner",
          "type": "address"
        },
        {
          "name": "_threshold",
          "type": "uint8"
        }
      ],
      "name": "addOwner",
      "outputs": [],
      "payable": false,
      "stateMutability": "nonpayable",
      "type": "function"
    },
    {
      "constant": false,
      "inputs": [
        {
          "name": "ownerIndex",
          "type": "uint256"
        },
        {
          "name": "owner",
          "type": "address"
        },
        {
          "name": "_threshold",
          "type": "uint8"
        }
      ],
      "name": "removeOwner",
      "outputs": [],
      "payable": false,
      "stateMutability": "nonpayable",
      "type": "function"
    },
    {
      "constant": false,
      "inputs": [
        {
          "name": "oldOwnerIndex",
          "type": "uint256"
        },
        {
          "name": "oldOwner",
          "type": "address"
        },
        {
          "name": "newOwner",
          "type": "address"
        }
      ],
      "name": "replaceOwner",
      "outputs": [],
      "payable": false,
      "stateMutability": "nonpayable",
      "type": "function"
    },
    {
      "constant": false,
      "inputs": [
        {
          "name": "_threshold",
          "type": "uint8"
        }
      ],
      "name": "changeThreshold",
      "outputs": [],
      "payable": false,
      "stateMutability": "nonpayable",
      "type": "function"
    },
    {
      "constant": false,
      "inputs": [
        {
          "name": "extension",
          "type": "address"
        }
      ],
      "name": "addExtension",
      "outputs": [],
      "payable": false,
      "stateMutability": "nonpayable",
      "type": "function"
    },
    {
      "constant": false,
      "inputs": [
        {
          "name": "extensionIndex",
          "type": "uint256"
        },
        {
          "name": "extension",
          "type": "address"
        }
      ],
      "name": "removeExtension",
      "outputs": [],
      "payable": false,
      "stateMutability": "nonpayable",
      "type": "function"
    },
    {
      "constant": false,
      "inputs": [
        {
          "name": "to",
          "type": "address"
        },
        {
          "name": "value",
          "type": "uint256"
        },
        {
          "name": "data",
          "type": "bytes"
        },
        {
          "name": "operation",
          "type": "uint8"
        },
        {
          "name": "_nonce",
          "type": "uint256"
        }
      ],
      "name": "confirmTransaction",
      "outputs": [],
      "payable": false,
      "stateMutability": "nonpayable",
      "type": "function"
    },
    {
      "constant": false,
      "inputs": [
        {
          "name": "to",
          "type": "address"
        },
        {
          "name": "value",
          "type": "uint256"
        },
        {
          "name": "data",
          "type": "bytes"
        },
        {
          "name": "operation",
          "type": "uint8"
        },
        {
          "name": "v",
          "type": "uint8[]"
        },
        {
          "name": "r",
          "type": "bytes32[]"
        },
        {
          "name": "s",
          "type": "bytes32[]"
        },
        {
          "name": "_owners",
          "type": "address[]"
        },
        {
          "name": "indices",
          "type": "uint256[]"
        }
      ],
      "name": "executeTransaction",
      "outputs": [],
      "payable": false,
      "stateMutability": "nonpayable",
      "type": "function"
    },
    {
      "constant": false,
      "inputs": [
        {
          "name": "to",
          "type": "address"
        },
        {
          "name": "value",
          "type": "uint256"
        },
        {
          "name": "data",
          "type": "bytes"
        },
        {
          "name": "operation",
          "type": "uint8"
        },
        {
          "name": "extension",
          "type": "address"
        }
      ],
      "name": "executeExtension",
      "outputs": [],
      "payable": false,
      "stateMutability": "nonpayable",
      "type": "function"
    },
    {
      "constant": true,
      "inputs": [
        {
          "name": "to",
          "type": "address"
        },
        {
          "name": "value",
          "type": "uint256"
        },
        {
          "name": "data",
          "type": "bytes"
        },
        {
          "name": "operation",
          "type": "uint8"
        },
        {
          "name": "_nonce",
          "type": "uint256"
        }
      ],
      "name": "getTransactionHash",
      "outputs": [
        {
          "name": "",
          "type": "bytes32"
        }
      ],
      "payable": false,
      "stateMutability": "view",
      "type": "function"
    },
    {
      "constant": true,
      "inputs": [],
      "name": "getOwners",
      "outputs": [
        {
          "name": "",
          "type": "address[]"
        }
      ],
      "payable": false,
      "stateMutability": "view",
      "type": "function"
    },
    {
      "constant": true,
      "inputs": [],
      "name": "getExtensions",
      "outputs": [
        {
          "name": "",
          "type": "address[]"
        }
      ],
      "payable": false,
      "stateMutability": "view",
      "type": "function"
    },
    {
      "constant": true,
      "inputs": [
        {
          "name": "transactionHash",
          "type": "bytes32"
        }
      ],
      "name": "getConfirmationCount",
      "outputs": [
        {
          "name": "confirmationCount",
          "type": "uint256"
        }
      ],
      "payable": false,
      "stateMutability": "view",
      "type": "function"
    },
    {
      "constant": true,
      "inputs": [
        {
          "name": "transactionHash",
          "type": "bytes32"
        }
      ],
      "name": "getConfirmingOwners",
      "outputs": [
        {
          "name": "confirmingOwners",
          "type": "address[]"
        }
      ],
      "payable": false,
      "stateMutability": "view",
      "type": "function"
    }
  ],
  "bytecode": "0x606060405234156200001057600080fd5b60405162002d6738038062002d67833981016040528080518201919060200180519060200190919080519060200190919080518201919050506200006b84848484620000756401000000000262001b33176401000000009004565b5050505062000374565b600080600060149054906101000a900460ff1660ff161415156200009857600080fd5b84518460ff1611151515620000ac57600080fd5b60018460ff1610151515620000c057600080fd5b600090505b8451811015620001fe5760008582815181101515620000e057fe5b9060200190602002015173ffffffffffffffffffffffffffffffffffffffff16141515156200010e57600080fd5b6004600086838151811015156200012157fe5b9060200190602002015173ffffffffffffffffffffffffffffffffffffffff1673ffffffffffffffffffffffffffffffffffffffff16815260200190815260200160002060009054906101000a900460ff161515156200018057600080fd5b60016004600087848151811015156200019557fe5b9060200190602002015173ffffffffffffffffffffffffffffffffffffffff1673ffffffffffffffffffffffffffffffffffffffff16815260200190815260200160002060006101000a81548160ff0219169083151502179055508080600101915050620000c5565b8460029080519060200190620002169291906200029f565b5083600060146101000a81548160ff021916908360ff16021790555060008373ffffffffffffffffffffffffffffffffffffffff161415156200028057620002738383620002876401000000000262002698176401000000009004565b15156200027f57600080fd5b5b5050505050565b600080600083516020850186600019f4905092915050565b8280548282559060005260206000209081019282156200031b579160200282015b828111156200031a5782518260006101000a81548173ffffffffffffffffffffffffffffffffffffffff021916908373ffffffffffffffffffffffffffffffffffffffff16021790555091602001919060010190620002c0565b5b5090506200032a91906200032e565b5090565b6200037191905b808211156200036d57600081816101000a81549073ffffffffffffffffffffffffffffffffffffffff02191690555060010162000335565b5090565b90565b6129e380620003846000396000f300606060405260043610610149576000357c0100000000000000000000000000000000000000000000000000000000900463ffffffff168063025e7c271461014b57806307fa7017146101ae5780630e5229b0146101f0578063113642e514610235578063170ff3e1146102705780632b500041146102a95780632b5b1f821461035f5780632f54bf6e146103f957806342cde4e81461044a57806354e99c6e146104795780637b0519f3146104da5780637de7edef1461053857806383b7db6314610571578063842b954e146105db578063a04222e114610629578063a0e67e2b146106f1578063a3f4df7e1461075b578063affed0e0146107e9578063b6a9002e14610812578063b7f3358d146108c2578063c676920a146108e8578063db85d59c14610964578063f6d3fd86146109c7578063f847ed4814610b98578063ffa1ad7414610be9575b005b341561015657600080fd5b61016c6004808035906020019091905050610c77565b604051808273ffffffffffffffffffffffffffffffffffffffff1673ffffffffffffffffffffffffffffffffffffffff16815260200191505060405180910390f35b34156101b957600080fd5b6101ee600480803590602001909190803573ffffffffffffffffffffffffffffffffffffffff16906020019091905050610cb6565b005b34156101fb57600080fd5b610233600480803573ffffffffffffffffffffffffffffffffffffffff1690602001909190803560ff16906020019091905050610e71565b005b341561024057600080fd5b61025a600480803560001916906020019091905050611011565b6040518082815260200191505060405180910390f35b341561027b57600080fd5b6102a7600480803573ffffffffffffffffffffffffffffffffffffffff169060200190919050506110e7565b005b34156102b457600080fd5b610341600480803573ffffffffffffffffffffffffffffffffffffffff1690602001909190803590602001909190803590602001908201803590602001908080601f0160208091040260200160405190810160405280939291908181526020018383808284378201915050505050509190803560ff1690602001909190803590602001909190505061125e565b60405180826000191660001916815260200191505060405180910390f35b341561036a57600080fd5b6103f7600480803573ffffffffffffffffffffffffffffffffffffffff1690602001909190803590602001909190803590602001908201803590602001908080601f0160208091040260200160405190810160405280939291908181526020018383808284378201915050505050509190803560ff1690602001909190803590602001909190505061140b565b005b341561040457600080fd5b610430600480803573ffffffffffffffffffffffffffffffffffffffff16906020019091905050611561565b604051808215151515815260200191505060405180910390f35b341561045557600080fd5b61045d611581565b604051808260ff1660ff16815260200191505060405180910390f35b341561048457600080fd5b6104d8600480803590602001909190803573ffffffffffffffffffffffffffffffffffffffff1690602001909190803573ffffffffffffffffffffffffffffffffffffffff16906020019091905050611594565b005b34156104e557600080fd5b61051e600480803573ffffffffffffffffffffffffffffffffffffffff16906020019091908035600019169060200190919050506117cf565b604051808215151515815260200191505060405180910390f35b341561054357600080fd5b61056f600480803573ffffffffffffffffffffffffffffffffffffffff169060200190919050506117fe565b005b341561057c57600080fd5b6105846118a1565b6040518080602001828103825283818151815260200191508051906020019060200280838360005b838110156105c75780820151818401526020810190506105ac565b505050509050019250505060405180910390f35b34156105e657600080fd5b610627600480803590602001909190803573ffffffffffffffffffffffffffffffffffffffff1690602001909190803560ff16906020019091905050611935565b005b341561063457600080fd5b6106ef60048080359060200190820180359060200190808060200260200160405190810160405280939291908181526020018383602002808284378201915050505050509190803560ff1690602001909190803573ffffffffffffffffffffffffffffffffffffffff1690602001909190803590602001908201803590602001908080601f01602080910402602001604051908101604052809392919081815260200183838082843782019150505050505091905050611b33565b005b34156106fc57600080fd5b610704611d21565b6040518080602001828103825283818151815260200191508051906020019060200280838360005b8381101561074757808201518184015260208101905061072c565b505050509050019250505060405180910390f35b341561076657600080fd5b61076e611db5565b6040518080602001828103825283818151815260200191508051906020019080838360005b838110156107ae578082015181840152602081019050610793565b50505050905090810190601f1680156107db5780820380516001836020036101000a031916815260200191505b509250505060405180910390f35b34156107f457600080fd5b6107fc611dee565b6040518082815260200191505060405180910390f35b341561081d57600080fd5b6108c0600480803573ffffffffffffffffffffffffffffffffffffffff1690602001909190803590602001909190803590602001908201803590602001908080601f0160208091040260200160405190810160405280939291908181526020018383808284378201915050505050509190803560ff1690602001909190803573ffffffffffffffffffffffffffffffffffffffff16906020019091905050611df4565b005b34156108cd57600080fd5b6108e6600480803560ff16906020019091905050611fe7565b005b34156108f357600080fd5b61090d600480803560001916906020019091905050612069565b6040518080602001828103825283818151815260200191508051906020019060200280838360005b83811015610950578082015181840152602081019050610935565b505050509050019250505060405180910390f35b341561096f57600080fd5b61098560048080359060200190919050506121fd565b604051808273ffffffffffffffffffffffffffffffffffffffff1673ffffffffffffffffffffffffffffffffffffffff16815260200191505060405180910390f35b34156109d257600080fd5b610b96600480803573ffffffffffffffffffffffffffffffffffffffff1690602001909190803590602001909190803590602001908201803590602001908080601f0160208091040260200160405190810160405280939291908181526020018383808284378201915050505050509190803560ff16906020019091908035906020019082018035906020019080806020026020016040519081016040528093929190818152602001838360200280828437820191505050505050919080359060200190820180359060200190808060200260200160405190810160405280939291908181526020018383602002808284378201915050505050509190803590602001908201803590602001908080602002602001604051908101604052809392919081815260200183836020028082843782019150505050505091908035906020019082018035906020019080806020026020016040519081016040528093929190818152602001838360200280828437820191505050505050919080359060200190820180359060200190808060200260200160405190810160405280939291908181526020018383602002808284378201915050505050509190505061223c565b005b3415610ba357600080fd5b610bcf600480803573ffffffffffffffffffffffffffffffffffffffff1690602001909190505061263f565b604051808215151515815260200191505060405180910390f35b3415610bf457600080fd5b610bfc61265f565b6040518080602001828103825283818151815260200191508051906020019080838360005b83811015610c3c578082015181840152602081019050610c21565b50505050905090810190601f168015610c695780820380516001836020036101000a031916815260200191505b509250505060405180910390f35b600281815481101515610c8657fe5b90600052602060002090016000915054906101000a900473ffffffffffffffffffffffffffffffffffffffff1681565b3073ffffffffffffffffffffffffffffffffffffffff163373ffffffffffffffffffffffffffffffffffffffff16141515610cf057600080fd5b8073ffffffffffffffffffffffffffffffffffffffff16600383815481101515610d1657fe5b906000526020600020900160009054906101000a900473ffffffffffffffffffffffffffffffffffffffff1673ffffffffffffffffffffffffffffffffffffffff16141515610d6457600080fd5b6000600560008373ffffffffffffffffffffffffffffffffffffffff1673ffffffffffffffffffffffffffffffffffffffff16815260200190815260200160002060006101000a81548160ff0219169083151502179055506003600160038054905003815481101515610dd357fe5b906000526020600020900160009054906101000a900473ffffffffffffffffffffffffffffffffffffffff16600383815481101515610e0e57fe5b906000526020600020900160006101000a81548173ffffffffffffffffffffffffffffffffffffffff021916908373ffffffffffffffffffffffffffffffffffffffff1602179055506003805480919060019003610e6c91906127ed565b505050565b3073ffffffffffffffffffffffffffffffffffffffff163373ffffffffffffffffffffffffffffffffffffffff16141515610eab57600080fd5b60008273ffffffffffffffffffffffffffffffffffffffff1614151515610ed157600080fd5b600460008373ffffffffffffffffffffffffffffffffffffffff1673ffffffffffffffffffffffffffffffffffffffff16815260200190815260200160002060009054906101000a900460ff16151515610f2a57600080fd5b60028054806001018281610f3e9190612819565b9160005260206000209001600084909190916101000a81548173ffffffffffffffffffffffffffffffffffffffff021916908373ffffffffffffffffffffffffffffffffffffffff160217905550506001600460008473ffffffffffffffffffffffffffffffffffffffff1673ffffffffffffffffffffffffffffffffffffffff16815260200190815260200160002060006101000a81548160ff0219169083151502179055508060ff16600060149054906101000a900460ff1660ff1614151561100d5761100c81611fe7565b5b5050565b600080600090505b6002805490508110156110e1576006600060028381548110151561103957fe5b906000526020600020900160009054906101000a900473ffffffffffffffffffffffffffffffffffffffff1673ffffffffffffffffffffffffffffffffffffffff1673ffffffffffffffffffffffffffffffffffffffff1681526020019081526020016000206000846000191660001916815260200190815260200160002060009054906101000a900460ff16156110d45781806001019250505b8080600101915050611019565b50919050565b3073ffffffffffffffffffffffffffffffffffffffff163373ffffffffffffffffffffffffffffffffffffffff1614151561112157600080fd5b60008173ffffffffffffffffffffffffffffffffffffffff161415151561114757600080fd5b600560008273ffffffffffffffffffffffffffffffffffffffff1673ffffffffffffffffffffffffffffffffffffffff16815260200190815260200160002060009054906101000a900460ff161515156111a057600080fd5b600380548060010182816111b49190612845565b9160005260206000209001600083909190916101000a81548173ffffffffffffffffffffffffffffffffffffffff021916908373ffffffffffffffffffffffffffffffffffffffff160217905550506001600560008373ffffffffffffffffffffffffffffffffffffffff1673ffffffffffffffffffffffffffffffffffffffff16815260200190815260200160002060006101000a81548160ff02191690831515021790555050565b600060197f01000000000000000000000000000000000000000000000000000000000000000230878787878760405180887effffffffffffffffffffffffffffffffffffffffffffffffffffffffffffff19167effffffffffffffffffffffffffffffffffffffffffffffffffffffffffffff191681526001018773ffffffffffffffffffffffffffffffffffffffff1673ffffffffffffffffffffffffffffffffffffffff166c010000000000000000000000000281526014018673ffffffffffffffffffffffffffffffffffffffff1673ffffffffffffffffffffffffffffffffffffffff166c0100000000000000000000000002815260140185815260200184805190602001908083835b602083101515611391578051825260208201915060208101905060208303925061136c565b6001836020036101000a0380198251168184511680821785525050505050509050018360028111156113bf57fe5b60ff167f01000000000000000000000000000000000000000000000000000000000000000281526001018281526020019750505050505050506040518091039020905095945050505050565b6000600460003373ffffffffffffffffffffffffffffffffffffffff1673ffffffffffffffffffffffffffffffffffffffff16815260200190815260200160002060009054906101000a900460ff16151561146557600080fd5b6114748686868660015461125e565b9050600660003373ffffffffffffffffffffffffffffffffffffffff1673ffffffffffffffffffffffffffffffffffffffff1681526020019081526020016000206000826000191660001916815260200190815260200160002060009054906101000a900460ff161515156114e857600080fd5b6001600660003373ffffffffffffffffffffffffffffffffffffffff1673ffffffffffffffffffffffffffffffffffffffff1681526020019081526020016000206000836000191660001916815260200190815260200160002060006101000a81548160ff021916908315150217905550505050505050565b60046020528060005260406000206000915054906101000a900460ff1681565b600060149054906101000a900460ff1681565b3073ffffffffffffffffffffffffffffffffffffffff163373ffffffffffffffffffffffffffffffffffffffff161415156115ce57600080fd5b60008173ffffffffffffffffffffffffffffffffffffffff16141515156115f457600080fd5b600460008273ffffffffffffffffffffffffffffffffffffffff1673ffffffffffffffffffffffffffffffffffffffff16815260200190815260200160002060009054906101000a900460ff1615151561164d57600080fd5b8173ffffffffffffffffffffffffffffffffffffffff1660028481548110151561167357fe5b906000526020600020900160009054906101000a900473ffffffffffffffffffffffffffffffffffffffff1673ffffffffffffffffffffffffffffffffffffffff161415156116c157600080fd5b6000600460008473ffffffffffffffffffffffffffffffffffffffff1673ffffffffffffffffffffffffffffffffffffffff16815260200190815260200160002060006101000a81548160ff0219169083151502179055506001600460008373ffffffffffffffffffffffffffffffffffffffff1673ffffffffffffffffffffffffffffffffffffffff16815260200190815260200160002060006101000a81548160ff0219169083151502179055508060028481548110151561178157fe5b906000526020600020900160006101000a81548173ffffffffffffffffffffffffffffffffffffffff021916908373ffffffffffffffffffffffffffffffffffffffff160217905550505050565b60066020528160005260406000206020528060005260406000206000915091509054906101000a900460ff1681565b3073ffffffffffffffffffffffffffffffffffffffff163373ffffffffffffffffffffffffffffffffffffffff1614151561183857600080fd5b60008173ffffffffffffffffffffffffffffffffffffffff161415151561185e57600080fd5b806000806101000a81548173ffffffffffffffffffffffffffffffffffffffff021916908373ffffffffffffffffffffffffffffffffffffffff16021790555050565b6118a9612871565b600380548060200260200160405190810160405280929190818152602001828054801561192b57602002820191906000526020600020905b8160009054906101000a900473ffffffffffffffffffffffffffffffffffffffff1673ffffffffffffffffffffffffffffffffffffffff16815260200190600101908083116118e1575b5050505050905090565b3073ffffffffffffffffffffffffffffffffffffffff163373ffffffffffffffffffffffffffffffffffffffff1614151561196f57600080fd5b8060ff166001600280549050031015151561198957600080fd5b8173ffffffffffffffffffffffffffffffffffffffff166002848154811015156119af57fe5b906000526020600020900160009054906101000a900473ffffffffffffffffffffffffffffffffffffffff1673ffffffffffffffffffffffffffffffffffffffff161415156119fd57600080fd5b6000600460008473ffffffffffffffffffffffffffffffffffffffff1673ffffffffffffffffffffffffffffffffffffffff16815260200190815260200160002060006101000a81548160ff0219169083151502179055506002600160028054905003815481101515611a6c57fe5b906000526020600020900160009054906101000a900473ffffffffffffffffffffffffffffffffffffffff16600284815481101515611aa757fe5b906000526020600020900160006101000a81548173ffffffffffffffffffffffffffffffffffffffff021916908373ffffffffffffffffffffffffffffffffffffffff1602179055506002805480919060019003611b059190612885565b508060ff16600060149054906101000a900460ff1660ff16141515611b2e57611b2d81611fe7565b5b505050565b600080600060149054906101000a900460ff1660ff16141515611b5557600080fd5b84518460ff1611151515611b6857600080fd5b60018460ff1610151515611b7b57600080fd5b600090505b8451811015611cb25760008582815181101515611b9957fe5b9060200190602002015173ffffffffffffffffffffffffffffffffffffffff1614151515611bc657600080fd5b600460008683815181101515611bd857fe5b9060200190602002015173ffffffffffffffffffffffffffffffffffffffff1673ffffffffffffffffffffffffffffffffffffffff16815260200190815260200160002060009054906101000a900460ff16151515611c3657600080fd5b6001600460008784815181101515611c4a57fe5b9060200190602002015173ffffffffffffffffffffffffffffffffffffffff1673ffffffffffffffffffffffffffffffffffffffff16815260200190815260200160002060006101000a81548160ff0219169083151502179055508080600101915050611b80565b8460029080519060200190611cc89291906128b1565b5083600060146101000a81548160ff021916908360ff16021790555060008373ffffffffffffffffffffffffffffffffffffffff16141515611d1a57611d0e8383612698565b1515611d1957600080fd5b5b5050505050565b611d2961293b565b6002805480602002602001604051908101604052809291908181526020018280548015611dab57602002820191906000526020600020905b8160009054906101000a900473ffffffffffffffffffffffffffffffffffffffff1673ffffffffffffffffffffffffffffffffffffffff1681526020019060010190808311611d61575b5050505050905090565b6040805190810160405280600b81526020017f476e6f736973205361666500000000000000000000000000000000000000000081525081565b60015481565b600560008273ffffffffffffffffffffffffffffffffffffffff1673ffffffffffffffffffffffffffffffffffffffff16815260200190815260200160002060009054906101000a900460ff161515611e4c57600080fd5b8073ffffffffffffffffffffffffffffffffffffffff1663cde09ca933878787876000604051602001526040518663ffffffff167c0100000000000000000000000000000000000000000000000000000000028152600401808673ffffffffffffffffffffffffffffffffffffffff1673ffffffffffffffffffffffffffffffffffffffff1681526020018573ffffffffffffffffffffffffffffffffffffffff1673ffffffffffffffffffffffffffffffffffffffff16815260200184815260200180602001836002811115611f1f57fe5b60ff168152602001828103825284818151815260200191508051906020019080838360005b83811015611f5f578082015181840152602081019050611f44565b50505050905090810190601f168015611f8c5780820380516001836020036101000a031916815260200191505b509650505050505050602060405180830381600087803b1515611fae57600080fd5b6102c65a03f11515611fbf57600080fd5b505050604051805190501515611fd457600080fd5b611fe0858585856126b0565b5050505050565b3073ffffffffffffffffffffffffffffffffffffffff163373ffffffffffffffffffffffffffffffffffffffff1614151561202157600080fd5b6002805490508160ff161115151561203857600080fd5b60018160ff161015151561204b57600080fd5b80600060146101000a81548160ff021916908360ff16021790555050565b61207161293b565b60008061207d84611011565b91508160405180591061208d5750595b9080825280602002602001820160405250925060009150600090505b6002805490508110156121f657600660006002838154811015156120c957fe5b906000526020600020900160009054906101000a900473ffffffffffffffffffffffffffffffffffffffff1673ffffffffffffffffffffffffffffffffffffffff1673ffffffffffffffffffffffffffffffffffffffff1681526020019081526020016000206000856000191660001916815260200190815260200160002060009054906101000a900460ff16156121e95760028181548110151561216a57fe5b906000526020600020900160009054906101000a900473ffffffffffffffffffffffffffffffffffffffff1683838151811015156121a457fe5b9060200190602002019073ffffffffffffffffffffffffffffffffffffffff16908173ffffffffffffffffffffffffffffffffffffffff168152505081806001019250505b80806001019150506120a9565b5050919050565b60038181548110151561220c57fe5b90600052602060002090016000915054906101000a900473ffffffffffffffffffffffffffffffffffffffff1681565b60008060008060006122538e8e8e8e60015461125e565b94506000935060009050600091505b600060149054906101000a900460ff1660ff16821015612518578086511180156122a25750858181518110151561229557fe5b9060200190602002015182145b156123a15786818151811015156122b557fe5b9060200190602002015173ffffffffffffffffffffffffffffffffffffffff163373ffffffffffffffffffffffffffffffffffffffff161480612371575060066000888381518110151561230557fe5b9060200190602002015173ffffffffffffffffffffffffffffffffffffffff1673ffffffffffffffffffffffffffffffffffffffff1681526020019081526020016000206000866000191660001916815260200190815260200160002060009054906101000a900460ff165b151561237c57600080fd5b868181518110151561238a57fe5b906020019060200201519250600181019050612476565b6001858b8385038151811015156123b457fe5b906020019060200201518b8486038151811015156123ce57fe5b906020019060200201518b8587038151811015156123e857fe5b90602001906020020151604051600081526020016040526000604051602001526040518085600019166000191681526020018460ff1660ff16815260200183600019166000191681526020018260001916600019168152602001945050505050602060405160208103908084039060008661646e5a03f1151561246a57600080fd5b50506020604051035192505b600460008473ffffffffffffffffffffffffffffffffffffffff1673ffffffffffffffffffffffffffffffffffffffff16815260200190815260200160002060009054906101000a900460ff1615156124ce57600080fd5b8373ffffffffffffffffffffffffffffffffffffffff168373ffffffffffffffffffffffffffffffffffffffff1611151561250857600080fd5b8293508180600101925050612262565b60008751111561261357600091505b865182101561261257868281518110151561253e57fe5b9060200190602002015173ffffffffffffffffffffffffffffffffffffffff163373ffffffffffffffffffffffffffffffffffffffff1614151561260557600060066000898581518110151561259057fe5b9060200190602002015173ffffffffffffffffffffffffffffffffffffffff1673ffffffffffffffffffffffffffffffffffffffff1681526020019081526020016000206000876000191660001916815260200190815260200160002060006101000a81548160ff0219169083151502179055505b8180600101925050612527565b5b6001806000828254019250508190555061262f8e8e8e8e6126b0565b5050505050505050505050505050565b60056020528060005260406000206000915054906101000a900460ff1681565b6040805190810160405280600581526020017f302e302e3100000000000000000000000000000000000000000000000000000081525081565b600080600083516020850186600019f4905092915050565b60008060028111156126be57fe5b8260028111156126ca57fe5b14156126eb576126db8585856127c1565b15156126e657600080fd5b6127ba565b600160028111156126f857fe5b82600281111561270457fe5b1415612724576127148584612698565b151561271f57600080fd5b6127b9565b61272d836127db565b905060008173ffffffffffffffffffffffffffffffffffffffff161415151561275557600080fd5b7f4db17dd5e4732fb6da34a148104a592783ca119a1e7bb8829eba6cbadef0b51181604051808273ffffffffffffffffffffffffffffffffffffffff1673ffffffffffffffffffffffffffffffffffffffff16815260200191505060405180910390a15b5b5050505050565b60008060008351602085018688600019f190509392505050565b60008151602083016000f09050919050565b81548183558181151161281457818360005260206000209182019101612813919061294f565b5b505050565b8154818355818115116128405781836000526020600020918201910161283f919061294f565b5b505050565b81548183558181151161286c5781836000526020600020918201910161286b919061294f565b5b505050565b602060405190810160405280600081525090565b8154818355818115116128ac578183600052602060002091820191016128ab919061294f565b5b505050565b82805482825590600052602060002090810192821561292a579160200282015b828111156129295782518260006101000a81548173ffffffffffffffffffffffffffffffffffffffff021916908373ffffffffffffffffffffffffffffffffffffffff160217905550916020019190600101906128d1565b5b5090506129379190612974565b5090565b602060405190810160405280600081525090565b61297191905b8082111561296d576000816000905550600101612955565b5090565b90565b6129b491905b808211156129b057600081816101000a81549073ffffffffffffffffffffffffffffffffffffffff02191690555060010161297a565b5090565b905600a165627a7a72305820b9309aeae0cb4d289bc66fdd1b641936b903e87d406ff75007e08dd9fd54ff590029",
  "source": "pragma solidity 0.4.19;\nimport \"./Extension.sol\";\n\n\n/// @title Gnosis Safe - A multisignature wallet with support for confirmations using signed messages based on ERC191.\n/// @author Stefan George - <stefan@gnosis.pm>\ncontract GnosisSafe {\n\n    event ContractCreation(address newContract);\n\n    string public constant NAME = \"Gnosis Safe\";\n    string public constant VERSION = \"0.0.1\";\n\n    GnosisSafe masterCopy;\n    uint8 public threshold;\n    uint256 public nonce;\n    address[] public owners;\n    Extension[] public extensions;\n\n    // isOwner mapping allows to check if an address is a Safe owner.\n    mapping (address => bool) public isOwner;\n    // isExtension mapping allows to check if an extension was whitelisted.\n    mapping (address => bool) public isExtension;\n    // isConfirmed mapping allows to check if a transaction was confirmed by an owner via a confirm transaction.\n    mapping (address => mapping (bytes32 => bool)) public isConfirmed;\n\n    enum Operation {\n        Call,\n        DelegateCall,\n        Create\n    }\n\n    modifier onlyWallet() {\n        require(msg.sender == address(this));\n        _;\n    }\n\n    /// @dev Fallback function accepts Ether transactions.\n    function ()\n        external\n        payable\n    {\n\n    }\n\n    /// @dev Constructor function triggers setup function.\n    /// @param _owners List of Safe owners.\n    /// @param _threshold Number of required confirmations for a Safe transaction.\n    /// @param to Contract address for optional delegate call.\n    /// @param data Data payload for optional delegate call.\n    function GnosisSafe(address[] _owners, uint8 _threshold, address to, bytes data)\n        public\n    {\n        setup(_owners, _threshold, to, data);\n    }\n\n    /// @dev Setup function sets initial storage of contract.\n    /// @param _owners List of Safe owners.\n    /// @param _threshold Number of required confirmations for a Safe transaction.\n    /// @param to Contract address for optional delegate call.\n    /// @param data Data payload for optional delegate call.\n    function setup(address[] _owners, uint8 _threshold, address to, bytes data)\n        public\n    {\n        // Threshold can only be 0 at initialization.\n        // Check ensures that setup function can only be called once.\n        require(threshold == 0);\n        // Validate that threshold is smaller than numbr of added owners.\n        require(_threshold <= _owners.length);\n        // There has to be at least one Safe owner.\n        require(_threshold >= 1);\n        // Initializing Safe owners.\n        for (uint256 i = 0; i < _owners.length; i++) {\n            // Owner address cannot be null.\n            require(_owners[i] != 0);\n            // No duplicate owners allowed.\n            require(!isOwner[_owners[i]]);\n            isOwner[_owners[i]] = true;\n        }\n        owners = _owners;\n        threshold = _threshold;\n        // If a to address is set, an additional delegate call is executed.\n        // This call allows further contract setup steps, like adding an extension.\n        if (to != 0)\n            // Setup has to complete successfully or transaction fails.\n            require(executeDelegateCall(to, data));\n    }\n\n    /// @dev Allows to upgrade the contract. This can only be done via a Safe transaction.\n    /// @param _masterCopy New contract address.\n    function changeMasterCopy(GnosisSafe _masterCopy)\n        public\n        onlyWallet\n    {\n        // Master copy address cannot be null.\n        require(address(_masterCopy) != 0);\n        masterCopy = _masterCopy;\n    }\n\n    /// @dev Allows to add a new owner to the Safe and update the threshold at the same time.\n    ///      This can only be done via a Safe transaction.\n    /// @param owner New owner address.\n    /// @param _threshold New threshold.\n    function addOwner(address owner, uint8 _threshold)\n        public\n        onlyWallet\n    {\n        // Owner address cannot be null.\n        require(owner != 0);\n        // No duplicate owners allowed.\n        require(!isOwner[owner]);\n        owners.push(owner);\n        isOwner[owner] = true;\n        // Change threshold if threshold was changed.\n        if (threshold != _threshold)\n            changeThreshold(_threshold);\n    }\n\n    /// @dev Allows to remove an owner from the Safe and update the threshold at the same time.\n    ///      This can only be done via a Safe transaction.\n    /// @param ownerIndex Array index position of owner address to be removed.\n    /// @param owner Owner address to be removed.\n    /// @param _threshold New threshold.\n    function removeOwner(uint256 ownerIndex, address owner, uint8 _threshold)\n        public\n        onlyWallet\n    {\n        // Only allow to remove an owner, if threshold can still be reached.\n        require(owners.length - 1 >= _threshold);\n        // Validate owner address corresponds to owner index.\n        require(owners[ownerIndex] == owner);\n        isOwner[owner] = false;\n        owners[ownerIndex] = owners[owners.length - 1];\n        owners.length--;\n        // Change threshold if threshold was changed.\n        if (threshold != _threshold)\n            changeThreshold(_threshold);\n    }\n\n    /// @dev Allows to replace an owner from the Safe with another address.\n    ///      This can only be done via a Safe transaction.\n    /// @param oldOwnerIndex Array index position of owner address to be replaced.\n    /// @param oldOwner Owner address to be replaced.\n    /// @param newOwner New owner address.\n    function replaceOwner(uint256 oldOwnerIndex, address oldOwner, address newOwner)\n        public\n        onlyWallet\n    {\n        // Owner address cannot be null.\n        require(newOwner != 0);\n        // No duplicate owners allowed.\n        require(!isOwner[newOwner]);\n        // Validate owner address corresponds to owner index.\n        require(owners[oldOwnerIndex] == oldOwner);\n        isOwner[oldOwner] = false;\n        isOwner[newOwner] =  true;\n        owners[oldOwnerIndex] = newOwner;\n    }\n\n    /// @dev Allows to update the number of required confirmations by Safe owners.\n    ///      This can only be done via a Safe transaction.\n    /// @param _threshold New threshold.\n    function changeThreshold(uint8 _threshold)\n        public\n        onlyWallet\n    {\n        // Validate that threshold is smaller than numbr of owners.\n        require(_threshold <= owners.length);\n        // There has to be at least one Safe owner.\n        require(_threshold >= 1);\n        threshold = _threshold;\n    }\n\n    /// @dev Allows to add an extension to the whitelist.\n    ///      This can only be done via a Safe transaction.\n    /// @param extension Extension to be whitelisted.\n    function addExtension(Extension extension)\n        public\n        onlyWallet\n    {\n        // Extension address cannot be null.\n        require(address(extension) != 0);\n        // Extension cannot be added twice.\n        require(!isExtension[extension]);\n        extensions.push(extension);\n        isExtension[extension] = true;\n    }\n\n    /// @dev Allows to remove an extension from the whitelist.\n    ///      This can only be done via a Safe transaction.\n    /// @param extensionIndex Array index position of extension to be removed from whitelist.\n    /// @param extension Extension to be removed.\n    function removeExtension(uint256 extensionIndex, Extension extension)\n        public\n        onlyWallet\n    {\n        // Validate extension address corresponds to extension index.\n        require(extensions[extensionIndex] == extension);\n        isExtension[extension] = false;\n        extensions[extensionIndex] = extensions[extensions.length - 1];\n        extensions.length--;\n    }\n\n    /// @dev Allows to confirm a Safe transaction with a regular transaction.\n    ///      This can only be done from an owner address.\n    /// @param to Destination address.\n    /// @param value Ether value.\n    /// @param data Data payload.\n    /// @param operation Operation type.\n    /// @param _nonce Transaction nonce.\n    function confirmTransaction(address to, uint256 value, bytes data, Operation operation, uint256 _nonce)\n        public\n    {\n        // Only Safe owners are allowed to confirm Safe transactions.\n        require(isOwner[msg.sender]);\n        bytes32 transactionHash = getTransactionHash(to, value, data, operation, nonce);\n        // It is only possible to confirm a transaction once.\n        require(!isConfirmed[msg.sender][transactionHash]);\n        isConfirmed[msg.sender][transactionHash] = true;\n    }\n\n    /// @dev Allows to execute a Safe transaction confirmed by required number of owners.\n    /// @param to Destination address of Safe transaction.\n    /// @param value Ether value of Safe transaction.\n    /// @param data Data payload of Safe transaction.\n    /// @param operation Operation type of Safe transaction.\n    /// @param v Array of signature V values sorted by owner addresses.\n    /// @param r Array of signature R values sorted by owner addresses.\n    /// @param s Array of signature S values sorted by owner addresses.\n    /// @param _owners List of Safe owners confirming via regular transactions sorted by owner addresses.\n    /// @param indices List of indeces of Safe owners confirming via regular transactions.\n    function executeTransaction(address to, uint256 value, bytes data, Operation operation, uint8[] v, bytes32[] r, bytes32[] s, address[] _owners, uint256[] indices)\n        public\n    {\n        bytes32 transactionHash = getTransactionHash(to, value, data, operation, nonce);\n        // There cannot be an owner with address 0.\n        address lastOwner = address(0);\n        address currentOwner;\n        uint256 i;\n        uint256 j = 0;\n        // Validate threshold is reached.\n        for (i = 0; i < threshold; i++) {\n            // Check confirmations done with regular transactions or by msg.sender.\n            if (indices.length > j && i == indices[j]) {\n                require(msg.sender == _owners[j] || isConfirmed[_owners[j]][transactionHash]);\n                currentOwner = _owners[j];\n                j += 1;\n            }\n            // Check confirmations done with signed messages.\n            else\n                currentOwner = ecrecover(transactionHash, v[i-j], r[i-j], s[i-j]);\n            require(isOwner[currentOwner]);\n            require(currentOwner > lastOwner);\n            lastOwner = currentOwner;\n        }\n        // Delete storage to receive refunds.\n        if (_owners.length > 0) {\n            for (i = 0; i < _owners.length; i++) {\n                if (msg.sender != _owners[i])\n                    isConfirmed[_owners[i]][transactionHash] = false;\n            }\n        }\n        // Increase nonce and execute transaction.\n        nonce += 1;\n        execute(to, value, data, operation);\n    }\n\n    /// @dev Allows to execute a Safe transaction via an extension without any further confirmations.\n    /// @param to Destination address of extension transaction.\n    /// @param value Ether value of extension transaction.\n    /// @param data Data payload of extension transaction.\n    /// @param operation Operation type of extension transaction.\n    /// @param extension Extension address of extension transaction.\n    function executeExtension(address to, uint256 value, bytes data, Operation operation, Extension extension)\n        public\n    {\n        // Only whitelisted extensions are allowed.\n        require(isExtension[extension]);\n        // Extension has to confirm transaction.\n        require(extension.isExecutable(msg.sender, to, value, data, operation));\n        // Exectute transaction without further confirmations.\n        execute(to, value, data, operation);\n    }\n\n    function execute(address to, uint256 value, bytes data, Operation operation)\n        internal\n    {\n        if (operation == Operation.Call)\n            require(executeCall(to, value, data));\n        else if (operation == Operation.DelegateCall)\n            require(executeDelegateCall(to, data));\n        else {\n            address newContract = executeCreate(data);\n            require(newContract != 0);\n            ContractCreation(newContract);\n        }\n    }\n\n    function executeCall(address to, uint256 value, bytes data)\n        internal\n        returns (bool success)\n    {\n        assembly {\n            success := call(not(0), to, value, add(data, 0x20), mload(data), 0, 0)\n        }\n    }\n\n    function executeDelegateCall(address to, bytes data)\n        internal\n        returns (bool success)\n    {\n        assembly {\n            success := delegatecall(not(0), to, add(data, 0x20), mload(data), 0, 0)\n        }\n    }\n\n    function executeCreate(bytes data)\n        internal\n        returns (address newContract)\n    {\n        assembly {\n            newContract := create(0, add(data, 0x20), mload(data))\n        }\n    }\n\n    /// @dev Returns transactions hash to be signed by owners.\n    /// @param to Destination address.\n    /// @param value Ether value.\n    /// @param data Data payload.\n    /// @param operation Operation type.\n    /// @param _nonce Transaction nonce.\n    /// @return Transaction hash.\n    function getTransactionHash(address to, uint256 value, bytes data, Operation operation, uint256 _nonce)\n        public\n        view\n        returns (bytes32)\n    {\n        return keccak256(byte(0x19), this, to, value, data, operation, _nonce);\n    }\n\n    /// @dev Returns array of owners.\n    /// @return Array of Safe owners.\n    function getOwners()\n        public\n        view\n        returns (address[])\n    {\n        return owners;\n    }\n\n    /// @dev Returns array of extensions.\n    /// @return Array of extensions.\n    function getExtensions()\n        public\n        view\n        returns (Extension[])\n    {\n        return extensions;\n    }\n\n    /// @dev Returns a the count of owners that have confirmed the given transaction.\n    /// @param transactionHash Safe transaction hash.\n    function getConfirmationCount(bytes32 transactionHash)\n        public\n        view\n        returns (uint confirmationCount)\n    {\n        for (uint i = 0; i < owners.length; i++) {\n            if (isConfirmed[owners[i]][transactionHash])\n                confirmationCount++;\n        }\n    }\n\n    /// @dev Returns a list of owners that have confirmed the given transaction.\n    /// @param transactionHash Safe transaction hash.\n    function getConfirmingOwners(bytes32 transactionHash)\n        public\n        view\n        returns (address[] confirmingOwners)\n    {\n        uint confirmationCount = getConfirmationCount(transactionHash);\n        confirmingOwners = new address[](confirmationCount);\n        confirmationCount = 0;\n        for (uint i = 0; i < owners.length; i++) {\n            if (isConfirmed[owners[i]][transactionHash]) {\n                confirmingOwners[confirmationCount] = owners[i];\n                confirmationCount++;\n            }\n        }\n    }\n}\n",
  "sourcePath": "/Users/apanizo/git/gnosis/safe-contracts/contracts/GnosisSafe.sol",
  "compiler": {
    "name": "solc",
    "version": "0.4.19+commit.c4cbbb05.Emscripten.clang"
  },
  "schemaVersion": "2.0.0",
  "updatedAt": "2018-05-08T14:18:44.047Z"
}