{
  "contractName": "MasterCopy",
  "abi": [
    {
      "constant": false,
      "inputs": [
        {
          "name": "_masterCopy",
          "type": "address"
        }
      ],
      "name": "changeMasterCopy",
      "outputs": [],
      "payable": false,
      "stateMutability": "nonpayable",
      "type": "function"
    }
  ],
  "bytecode": "0x608060405234801561001057600080fd5b50610158806100206000396000f300608060405260043610610041576000357c0100000000000000000000000000000000000000000000000000000000900463ffffffff1680637de7edef14610046575b600080fd5b34801561005257600080fd5b50610087600480360381019080803573ffffffffffffffffffffffffffffffffffffffff169060200190929190505050610089565b005b3073ffffffffffffffffffffffffffffffffffffffff163373ffffffffffffffffffffffffffffffffffffffff161415156100c357600080fd5b60008173ffffffffffffffffffffffffffffffffffffffff16141515156100e957600080fd5b806000806101000a81548173ffffffffffffffffffffffffffffffffffffffff021916908373ffffffffffffffffffffffffffffffffffffffff160217905550505600a165627a7a7230582073cd5ab8858f9d67e5e09748f71ecf939357d0d1230776e9f935b1ef5d664eb00029",
  "source": "pragma solidity 0.4.23;\nimport \"./SelfAuthorized.sol\";\n\n\n/// @title MasterCopy - Base for master copy contracts (should always be first super contract)\n/// @author Richard Meissner - <richard@gnosis.pm>\ncontract MasterCopy is SelfAuthorized {\n  // masterCopy always needs to be first declared variable, to ensure that it is at the same location as in the Proxy contract.\n  // It should also always be ensured that the address is stored alone (uses a full word)\n    address masterCopy;\n\n  /// @dev Allows to upgrade the contract. This can only be done via a Safe transaction.\n  /// @param _masterCopy New contract address.\n    function changeMasterCopy(address _masterCopy)\n        public\n        authorized\n    {\n        // Master copy address cannot be null.\n        require(_masterCopy != 0);\n        masterCopy = _masterCopy;\n    }\n}\n",
  "sourcePath": "/Users/apanizo/git/gnosis/safe-contracts/contracts/MasterCopy.sol",
  "compiler": {
    "name": "solc",
    "version": "0.4.23+commit.124ca40d.Emscripten.clang"
  },
  "schemaVersion": "2.0.0",
  "updatedAt": "2018-05-16T10:51:14.746Z"
}