{
  "contractName": "MockContract",
  "abi": [
    {
      "constant": true,
      "inputs": [],
      "name": "MOCKS_LIST_END_HASH",
      "outputs": [
        {
          "name": "",
          "type": "bytes32"
        }
      ],
      "payable": false,
      "stateMutability": "view",
      "type": "function"
    },
    {
      "constant": true,
      "inputs": [],
      "name": "MOCKS_LIST_START",
      "outputs": [
        {
          "name": "",
          "type": "bytes32"
        }
      ],
      "payable": false,
      "stateMutability": "view",
      "type": "function"
    },
    {
      "constant": true,
      "inputs": [],
      "name": "MOCKS_LIST_END",
      "outputs": [
        {
          "name": "",
          "type": "bytes"
        }
      ],
      "payable": false,
      "stateMutability": "view",
      "type": "function"
    },
    {
      "constant": true,
      "inputs": [],
      "name": "SENTINEL_ANY_MOCKS",
      "outputs": [
        {
          "name": "",
          "type": "bytes4"
        }
      ],
      "payable": false,
      "stateMutability": "view",
      "type": "function"
    },
    {
      "inputs": [],
      "payable": false,
      "stateMutability": "nonpayable",
      "type": "constructor"
    },
    {
      "payable": true,
      "stateMutability": "payable",
      "type": "fallback"
    },
    {
      "constant": false,
      "inputs": [
        {
          "name": "call",
          "type": "bytes"
        },
        {
          "name": "response",
          "type": "bytes"
        }
      ],
      "name": "givenReturn",
      "outputs": [],
      "payable": false,
      "stateMutability": "nonpayable",
      "type": "function"
    },
    {
      "constant": false,
      "inputs": [
        {
          "name": "method",
          "type": "bytes4"
        },
        {
          "name": "response",
          "type": "bytes"
        }
      ],
      "name": "givenReturnAny",
      "outputs": [],
      "payable": false,
      "stateMutability": "nonpayable",
      "type": "function"
    },
    {
      "constant": false,
      "inputs": [
        {
          "name": "call",
          "type": "bytes"
        }
      ],
      "name": "givenRevert",
      "outputs": [],
      "payable": false,
      "stateMutability": "nonpayable",
      "type": "function"
    },
    {
      "constant": false,
      "inputs": [
        {
          "name": "method",
          "type": "bytes4"
        }
      ],
      "name": "givenRevertAny",
      "outputs": [],
      "payable": false,
      "stateMutability": "nonpayable",
      "type": "function"
    },
    {
      "constant": false,
      "inputs": [
        {
          "name": "call",
          "type": "bytes"
        },
        {
          "name": "message",
          "type": "string"
        }
      ],
      "name": "givenRevertWithMessage",
      "outputs": [],
      "payable": false,
      "stateMutability": "nonpayable",
      "type": "function"
    },
    {
      "constant": false,
      "inputs": [
        {
          "name": "method",
          "type": "bytes4"
        },
        {
          "name": "message",
          "type": "string"
        }
      ],
      "name": "givenRevertAnyWithMessage",
      "outputs": [],
      "payable": false,
      "stateMutability": "nonpayable",
      "type": "function"
    },
    {
      "constant": false,
      "inputs": [
        {
          "name": "call",
          "type": "bytes"
        }
      ],
      "name": "givenOutOfGas",
      "outputs": [],
      "payable": false,
      "stateMutability": "nonpayable",
      "type": "function"
    },
    {
      "constant": false,
      "inputs": [
        {
          "name": "method",
          "type": "bytes4"
        }
      ],
      "name": "givenOutOfGasAny",
      "outputs": [],
      "payable": false,
      "stateMutability": "nonpayable",
      "type": "function"
    },
    {
      "constant": false,
      "inputs": [],
      "name": "reset",
      "outputs": [],
      "payable": false,
      "stateMutability": "nonpayable",
      "type": "function"
    }
  ],
  "bytecode": "0x60806040523480156200001157600080fd5b506040805190810160405280600481526020017f3078666600000000000000000000000000000000000000000000000000000000815250600080600180026000191660001916815260200190815260200160002090805190602001906200007a9291906200014b565b5060017c0100000000000000000000000000000000000000000000000000000000026004600060017c0100000000000000000000000000000000000000000000000000000000027bffffffffffffffffffffffffffffffffffffffffffffffffffffffff19167bffffffffffffffffffffffffffffffffffffffffffffffffffffffff1916815260200190815260200160002060006101000a81548163ffffffff02191690837c010000000000000000000000000000000000000000000000000000000090040217905550620001fa565b828054600181600116156101000203166002900490600052602060002090601f016020900481019282601f106200018e57805160ff1916838001178555620001bf565b82800160010185558215620001bf579182015b82811115620001be578251825591602001919060010190620001a1565b5b509050620001ce9190620001d2565b5090565b620001f791905b80821115620001f3576000816000905550600101620001d9565b5090565b90565b61231c806200020a6000396000f3006080604052600436106100c5576000357c0100000000000000000000000000000000000000000000000000000000900463ffffffff16806311bcf7b21461062f578063122e523f146106985780632ed238dc1461072a57806350b908731461075d5780635fd1e7fa146107c657806367aad04a146108125780636ef7920f146108455780637a63538b146108915780637cd96ee414610923578063b947d020146109b3578063d826f88f14610a62578063f07da22914610a79578063fc95802514610ae2575b600060606000359150600160028111156100db57fe5b600160003660405180838380828437820191505092505050908152602001604051809103902060009054906101000a900460ff16600281111561011a57fe5b14156102045760036000366040518083838082843782019150509250505090815260200160405180910390206040517f08c379a000000000000000000000000000000000000000000000000000000000815260040180806020018281038252838181546001816001161561010002031660029004815260200191508054600181600116156101000203166002900480156101f55780601f106101ca576101008083540402835291602001916101f5565b820191906000526020600020905b8154815290600101906020018083116101d857829003601f168201915b50509250505060405180910390fd5b60028081111561021057fe5b600160003660405180838380828437820191505092505050908152602001604051809103902060009054906101000a900460ff16600281111561024f57fe5b141561025e5761025d610b91565b5b60026000366040518083838082843782019150509250505090815260200160405180910390208054600181600116156101000203166002900480601f0160208091040260200160405190810160405280929190818152602001828054600181600116156101000203166002900480156103185780601f106102ed57610100808354040283529160200191610318565b820191906000526020600020905b8154815290600101906020018083116102fb57829003601f168201915b50505050509050600081511415610627576001600281111561033657fe5b60056000847bffffffffffffffffffffffffffffffffffffffffffffffffffffffff19167bffffffffffffffffffffffffffffffffffffffffffffffffffffffff1916815260200190815260200160002060009054906101000a900460ff1660028111156103a057fe5b14156104b55760076000837bffffffffffffffffffffffffffffffffffffffffffffffffffffffff19167bffffffffffffffffffffffffffffffffffffffffffffffffffffffff191681526020019081526020016000206040517f08c379a000000000000000000000000000000000000000000000000000000000815260040180806020018281038252838181546001816001161561010002031660029004815260200191508054600181600116156101000203166002900480156104a65780601f1061047b576101008083540402835291602001916104a6565b820191906000526020600020905b81548152906001019060200180831161048957829003601f168201915b50509250505060405180910390fd5b6002808111156104c157fe5b60056000847bffffffffffffffffffffffffffffffffffffffffffffffffffffffff19167bffffffffffffffffffffffffffffffffffffffffffffffffffffffff1916815260200190815260200160002060009054906101000a900460ff16600281111561052b57fe5b141561053a57610539610b91565b5b60066000837bffffffffffffffffffffffffffffffffffffffffffffffffffffffff19167bffffffffffffffffffffffffffffffffffffffffffffffffffffffff191681526020019081526020016000208054600181600116156101000203166002900480601f01602080910402602001604051908101604052809291908181526020018280546001816001161561010002031660029004801561061f5780601f106105f45761010080835404028352916020019161061f565b820191906000526020600020905b81548152906001019060200180831161060257829003601f168201915b505050505090505b805181602001f35b34801561063b57600080fd5b50610696600480360381019080803590602001908201803590602001908080601f0160208091040260200160405190810160405280939291908181526020018383808284378201915050505050509192919290505050610ba6565b005b3480156106a457600080fd5b5061072860048036038101908080357bffffffffffffffffffffffffffffffffffffffffffffffffffffffff19169060200190929190803590602001908201803590602001908080601f0160208091040260200160405190810160405280939291908181526020018383808284378201915050505050509192919290505050610c3f565b005b34801561073657600080fd5b5061073f610d25565b60405180826000191660001916815260200191505060405180910390f35b34801561076957600080fd5b506107c4600480360381019080803590602001908201803590602001908080601f0160208091040260200160405190810160405280939291908181526020018383808284378201915050505050509192919290505050610dc0565b005b3480156107d257600080fd5b5061081060048036038101908080357bffffffffffffffffffffffffffffffffffffffffffffffffffffffff19169060200190929190505050610ee8565b005b34801561081e57600080fd5b50610827610f67565b60405180826000191660001916815260200191505060405180910390f35b34801561085157600080fd5b5061088f60048036038101908080357bffffffffffffffffffffffffffffffffffffffffffffffffffffffff19169060200190929190505050610f6e565b005b34801561089d57600080fd5b5061092160048036038101908080357bffffffffffffffffffffffffffffffffffffffffffffffffffffffff19169060200190929190803590602001908201803590602001908080601f0160208091040260200160405190810160405280939291908181526020018383808284378201915050505050509192919290505050610fed565b005b34801561092f57600080fd5b506109386110d3565b6040518080602001828103825283818151815260200191508051906020019080838360005b8381101561097857808201518184015260208101905061095d565b50505050905090810190601f1680156109a55780820380516001836020036101000a031916815260200191505b509250505060405180910390f35b3480156109bf57600080fd5b50610a60600480360381019080803590602001908201803590602001908080601f0160208091040260200160405190810160405280939291908181526020018383808284378201915050505050509192919290803590602001908201803590602001908080601f016020809104026020016040519081016040528093929190818152602001838380828437820191505050505050919291929050505061110c565b005b348015610a6e57600080fd5b50610a77611225565b005b348015610a8557600080fd5b50610a8e611bc7565b60405180827bffffffffffffffffffffffffffffffffffffffffffffffffffffffff19167bffffffffffffffffffffffffffffffffffffffffffffffffffffffff1916815260200191505060405180910390f35b348015610aee57600080fd5b50610b8f600480360381019080803590602001908201803590602001908080601f0160208091040260200160405190810160405280939291908181526020018383808284378201915050505050509192919290803590602001908201803590602001908080601f0160208091040260200160405190810160405280939291908181526020018383808284378201915050505050509192919290505050611beb565b005b5b600115610ba457600160405455610b92565b565b60026001826040518082805190602001908083835b602083101515610be05780518252602082019150602081019050602083039250610bbb565b6001836020036101000a038019825116818451168082178552505050505050905001915050908152602001604051809103902060006101000a81548160ff02191690836002811115610c2e57fe5b0217905550610c3c81611d05565b50565b600160056000847bffffffffffffffffffffffffffffffffffffffffffffffffffffffff19167bffffffffffffffffffffffffffffffffffffffffffffffffffffffff1916815260200190815260200160002060006101000a81548160ff02191690836002811115610cad57fe5b02179055508060076000847bffffffffffffffffffffffffffffffffffffffffffffffffffffffff19167bffffffffffffffffffffffffffffffffffffffffffffffffffffffff191681526020019081526020016000209080519060200190610d179291906120c4565b50610d2182611e31565b5050565b6040805190810160405280600481526020017f30786666000000000000000000000000000000000000000000000000000000008152506040518082805190602001908083835b602083101515610d905780518252602082019150602081019050602083039250610d6b565b6001836020036101000a038019825116818451168082178552505050505050905001915050604051809103902081565b600180826040518082805190602001908083835b602083101515610df95780518252602082019150602081019050602083039250610dd4565b6001836020036101000a038019825116818451168082178552505050505050905001915050908152602001604051809103902060006101000a81548160ff02191690836002811115610e4757fe5b021790555060206040519081016040528060008152506003826040518082805190602001908083835b602083101515610e955780518252602082019150602081019050602083039250610e70565b6001836020036101000a03801982511681845116808217855250505050505090500191505090815260200160405180910390209080519060200190610edb9291906120c4565b50610ee581611d05565b50565b600160056000837bffffffffffffffffffffffffffffffffffffffffffffffffffffffff19167bffffffffffffffffffffffffffffffffffffffffffffffffffffffff1916815260200190815260200160002060006101000a81548160ff02191690836002811115610f5657fe5b0217905550610f6481611e31565b50565b6001800281565b600260056000837bffffffffffffffffffffffffffffffffffffffffffffffffffffffff19167bffffffffffffffffffffffffffffffffffffffffffffffffffffffff1916815260200190815260200160002060006101000a81548160ff02191690836002811115610fdc57fe5b0217905550610fea81611e31565b50565b600060056000847bffffffffffffffffffffffffffffffffffffffffffffffffffffffff19167bffffffffffffffffffffffffffffffffffffffffffffffffffffffff1916815260200190815260200160002060006101000a81548160ff0219169083600281111561105b57fe5b02179055508060066000847bffffffffffffffffffffffffffffffffffffffffffffffffffffffff19167bffffffffffffffffffffffffffffffffffffffffffffffffffffffff1916815260200190815260200160002090805190602001906110c5929190612144565b506110cf82611e31565b5050565b6040805190810160405280600481526020017f307866660000000000000000000000000000000000000000000000000000000081525081565b600180836040518082805190602001908083835b6020831015156111455780518252602082019150602081019050602083039250611120565b6001836020036101000a038019825116818451168082178552505050505050905001915050908152602001604051809103902060006101000a81548160ff0219169083600281111561119357fe5b0217905550806003836040518082805190602001908083835b6020831015156111d157805182526020820191506020810190506020830392506111ac565b6001836020036101000a038019825116818451168082178552505050505050905001915050908152602001604051809103902090805190602001906112179291906120c4565b5061122182611d05565b5050565b6060600080600080600060018002600019166000191681526020019081526020016000208054600181600116156101000203166002900480601f0160208091040260200160405190810160405280929190818152602001828054600181600116156101000203166002900480156112dd5780601f106112b2576101008083540402835291602001916112dd565b820191906000526020600020905b8154815290600101906020018083116112c057829003601f168201915b50505050509350836040518082805190602001908083835b60208310151561131a57805182526020820191506020810190506020830392506112f5565b6001836020036101000a038019825116818451168082178552505050505050905001915050604051809103902092505b6040805190810160405280600481526020017f30786666000000000000000000000000000000000000000000000000000000008152506040518082805190602001908083835b6020831015156113b55780518252602082019150602081019050602083039250611390565b6001836020036101000a03801982511681845116808217855250505050505090500191505060405180910390206000191683600019161415156116fd5760006001856040518082805190602001908083835b60208310151561142c5780518252602082019150602081019050602083039250611407565b6001836020036101000a038019825116818451168082178552505050505050905001915050908152602001604051809103902060006101000a81548160ff0219169083600281111561147a57fe5b021790555060206040519081016040528060008152506002856040518082805190602001908083835b6020831015156114c857805182526020820191506020810190506020830392506114a3565b6001836020036101000a0380198251168184511680821785525050505050509050019150509081526020016040518091039020908051906020019061150e9291906121c4565b5060206040519081016040528060008152506003856040518082805190602001908083835b6020831015156115585780518252602082019150602081019050602083039250611533565b6001836020036101000a0380198251168184511680821785525050505050509050019150509081526020016040518091039020908051906020019061159e9291906120c4565b5060008084600019166000191681526020019081526020016000208054600181600116156101000203166002900480601f01602080910402602001604051908101604052809291908181526020018280546001816001161561010002031660029004801561164d5780601f106116225761010080835404028352916020019161164d565b820191906000526020600020905b81548152906001019060200180831161163057829003601f168201915b505050505093506020604051908101604052806000815250600080856000191660001916815260200190815260200160002090805190602001906116929291906121c4565b50836040518082805190602001908083835b6020831015156116c957805182526020820191506020810190506020830392506116a4565b6001836020036101000a0380198251168184511680821785525050505050509050019150506040518091039020925061134a565b6040805190810160405280600481526020017f307866660000000000000000000000000000000000000000000000000000000081525060008060018002600019166000191681526020019081526020016000209080519060200190611763929190612144565b506004600060017c0100000000000000000000000000000000000000000000000000000000027bffffffffffffffffffffffffffffffffffffffffffffffffffffffff19167bffffffffffffffffffffffffffffffffffffffffffffffffffffffff1916815260200190815260200160002060009054906101000a90047c01000000000000000000000000000000000000000000000000000000000291505b60017c0100000000000000000000000000000000000000000000000000000000027bffffffffffffffffffffffffffffffffffffffffffffffffffffffff1916827bffffffffffffffffffffffffffffffffffffffffffffffffffffffff1916141515611af757819050600060056000837bffffffffffffffffffffffffffffffffffffffffffffffffffffffff19167bffffffffffffffffffffffffffffffffffffffffffffffffffffffff1916815260200190815260200160002060006101000a81548160ff021916908360028111156118da57fe5b0217905550602060405190810160405280600081525060066000837bffffffffffffffffffffffffffffffffffffffffffffffffffffffff19167bffffffffffffffffffffffffffffffffffffffffffffffffffffffff1916815260200190815260200160002090805190602001906119549291906121c4565b50602060405190810160405280600081525060076000837bffffffffffffffffffffffffffffffffffffffffffffffffffffffff19167bffffffffffffffffffffffffffffffffffffffffffffffffffffffff1916815260200190815260200160002090805190602001906119ca9291906120c4565b5060046000827bffffffffffffffffffffffffffffffffffffffffffffffffffffffff19167bffffffffffffffffffffffffffffffffffffffffffffffffffffffff1916815260200190815260200160002060009054906101000a90047c010000000000000000000000000000000000000000000000000000000002915060007c01000000000000000000000000000000000000000000000000000000000260046000837bffffffffffffffffffffffffffffffffffffffffffffffffffffffff19167bffffffffffffffffffffffffffffffffffffffffffffffffffffffff1916815260200190815260200160002060006101000a81548163ffffffff02191690837c010000000000000000000000000000000000000000000000000000000090040217905550611802565b60017c0100000000000000000000000000000000000000000000000000000000026004600060017c0100000000000000000000000000000000000000000000000000000000027bffffffffffffffffffffffffffffffffffffffffffffffffffffffff19167bffffffffffffffffffffffffffffffffffffffffffffffffffffffff1916815260200190815260200160002060006101000a81548163ffffffff02191690837c01000000000000000000000000000000000000000000000000000000009004021790555050505050565b60017c01000000000000000000000000000000000000000000000000000000000281565b60006001836040518082805190602001908083835b602083101515611c255780518252602082019150602081019050602083039250611c00565b6001836020036101000a038019825116818451168082178552505050505050905001915050908152602001604051809103902060006101000a81548160ff02191690836002811115611c7357fe5b0217905550806002836040518082805190602001908083835b602083101515611cb15780518252602082019150602081019050602083039250611c8c565b6001836020036101000a03801982511681845116808217855250505050505090500191505090815260200160405180910390209080519060200190611cf7929190612144565b50611d0182611d05565b5050565b6000816040518082805190602001908083835b602083101515611d3d5780518252602082019150602081019050602083039250611d18565b6001836020036101000a03801982511681845116808217855250505050505090500191505060405180910390209050600080600083600019166000191681526020019081526020016000208054600181600116156101000203166002900490501415611e2d57600080600180026000191660001916815260200190815260200160002060008083600019166000191681526020019081526020016000209080546001816001161561010002031660029004611df9929190612244565b508160008060018002600019166000191681526020019081526020016000209080519060200190611e2b929190612144565b505b5050565b60007c01000000000000000000000000000000000000000000000000000000000260046000837bffffffffffffffffffffffffffffffffffffffffffffffffffffffff19167bffffffffffffffffffffffffffffffffffffffffffffffffffffffff1916815260200190815260200160002060009054906101000a90047c0100000000000000000000000000000000000000000000000000000000027bffffffffffffffffffffffffffffffffffffffffffffffffffffffff191614156120c1576004600060017c0100000000000000000000000000000000000000000000000000000000027bffffffffffffffffffffffffffffffffffffffffffffffffffffffff19167bffffffffffffffffffffffffffffffffffffffffffffffffffffffff1916815260200190815260200160002060009054906101000a90047c01000000000000000000000000000000000000000000000000000000000260046000837bffffffffffffffffffffffffffffffffffffffffffffffffffffffff19167bffffffffffffffffffffffffffffffffffffffffffffffffffffffff1916815260200190815260200160002060006101000a81548163ffffffff02191690837c010000000000000000000000000000000000000000000000000000000090040217905550806004600060017c0100000000000000000000000000000000000000000000000000000000027bffffffffffffffffffffffffffffffffffffffffffffffffffffffff19167bffffffffffffffffffffffffffffffffffffffffffffffffffffffff1916815260200190815260200160002060006101000a81548163ffffffff02191690837c0100000000000000000000000000000000000000000000000000000000900402179055505b50565b828054600181600116156101000203166002900490600052602060002090601f016020900481019282601f1061210557805160ff1916838001178555612133565b82800160010185558215612133579182015b82811115612132578251825591602001919060010190612117565b5b50905061214091906122cb565b5090565b828054600181600116156101000203166002900490600052602060002090601f016020900481019282601f1061218557805160ff19168380011785556121b3565b828001600101855582156121b3579182015b828111156121b2578251825591602001919060010190612197565b5b5090506121c091906122cb565b5090565b828054600181600116156101000203166002900490600052602060002090601f016020900481019282601f1061220557805160ff1916838001178555612233565b82800160010185558215612233579182015b82811115612232578251825591602001919060010190612217565b5b50905061224091906122cb565b5090565b828054600181600116156101000203166002900490600052602060002090601f016020900481019282601f1061227d57805485556122ba565b828001600101855582156122ba57600052602060002091601f016020900482015b828111156122b957825482559160010191906001019061229e565b5b5090506122c791906122cb565b5090565b6122ed91905b808211156122e95760008160009055506001016122d1565b5090565b905600a165627a7a72305820e3d9d37bc53f32c931f3f9481042543fd8b3c9d309d8b8ccac2c32e98ff9c7bb0029",
  "source": "pragma solidity ^0.4.23;\n\ncontract MockContract {\n\tenum MockType { Return, Revert, OutOfGas }\n\t\n\tbytes32 public constant MOCKS_LIST_START = 0x1;\n\tbytes public constant MOCKS_LIST_END = \"0xff\";\n\tbytes32 public constant MOCKS_LIST_END_HASH = keccak256(MOCKS_LIST_END);\n\tbytes4 public constant SENTINEL_ANY_MOCKS = 0x1;\n\n\t// A linked list allows easy iteration and inclusion checks\n\tmapping(bytes32 => bytes) mocks;\n\tmapping(bytes => MockType) mockTypes;\n\tmapping(bytes => bytes) expectations;\n\tmapping(bytes => string) revertMessage;\n\n\tmapping(bytes4 => bytes4) anyMocks;\n\tmapping(bytes4 => MockType) mockTypesAny;\n\tmapping(bytes4 => bytes) expectationsAny;\n\tmapping(bytes4 => string) revertMessageAny;\n\n\tconstructor() {\n\t\tmocks[MOCKS_LIST_START] = MOCKS_LIST_END;\n\t\tanyMocks[SENTINEL_ANY_MOCKS] = SENTINEL_ANY_MOCKS;\n\t}\n\n\tfunction trackMock(bytes call) private {\n\t\tbytes32 callHash = keccak256(call);\n\t\tif (mocks[callHash].length == 0) {\n\t\t\tmocks[callHash] = mocks[MOCKS_LIST_START];\n\t\t\tmocks[MOCKS_LIST_START] = call;\n\t\t}\n\t}\n\n\tfunction trackAnyMock(bytes4 methodId) private {\n\t\tif (anyMocks[methodId] == 0x0) {\n\t\t\tanyMocks[methodId] = anyMocks[SENTINEL_ANY_MOCKS];\n\t\t\tanyMocks[SENTINEL_ANY_MOCKS] = methodId;\n\t\t}\n\t}\n\n\t/**\n\t * @dev Stores a response that the contract will return if the fallback function is called with the given method name and matching arguments.\n\t * @param call ABI encoded calldata that if invoked on this contract will return `response`. Parameter values need to match exactly.\n\t * @param response ABI encoded response that will be returned if this contract is invoked with `call`\n\t */\n\tfunction givenReturn(bytes call, bytes response) public {\n\t\tmockTypes[call] = MockType.Return;\n\t\texpectations[call] = response;\n\t\ttrackMock(call);\n\t}\n\n\tfunction givenReturnAny(bytes4 method, bytes response) public {\n\t\tmockTypesAny[method] = MockType.Return;\n\t\texpectationsAny[method] = response;\n\t\ttrackAnyMock(method);\t\t\n\t}\n\n\tfunction givenRevert(bytes call) public {\n\t\tmockTypes[call] = MockType.Revert;\n\t\trevertMessage[call] = \"\";\n\t\ttrackMock(call);\n\t}\n\n\tfunction givenRevertAny(bytes4 method) public {\n\t\tmockTypesAny[method] = MockType.Revert;\n\t\ttrackAnyMock(method);\t\t\n\t}\n\n\tfunction givenRevertWithMessage(bytes call, string message) public {\n\t\tmockTypes[call] = MockType.Revert;\n\t\trevertMessage[call] = message;\n\t\ttrackMock(call);\n\t}\n\n\tfunction givenRevertAnyWithMessage(bytes4 method, string message) public {\n\t\tmockTypesAny[method] = MockType.Revert;\n\t\trevertMessageAny[method] = message;\n\t\ttrackAnyMock(method);\t\t\n\t}\n\n\tfunction givenOutOfGas(bytes call) public {\n\t\tmockTypes[call] = MockType.OutOfGas;\n\t\ttrackMock(call);\n\t}\n\n\tfunction givenOutOfGasAny(bytes4 method) public {\n\t\tmockTypesAny[method] = MockType.OutOfGas;\n\t\ttrackAnyMock(method);\t\n\t}\n\n\tfunction reset() public {\n\t\t// Reset all exact mocks\n\t\tbytes memory nextMock = mocks[MOCKS_LIST_START];\n\t\tbytes32 mockHash = keccak256(nextMock);\n\t\t// We cannot compary bytes\n\t\twhile(mockHash != MOCKS_LIST_END_HASH) {\n\t\t\t// Reset all mock maps\n\t\t\tmockTypes[nextMock] = MockType.Return;\n\t\t\texpectations[nextMock] = hex\"\";\n\t\t\trevertMessage[nextMock] = \"\";\n\t\t\t// Set next mock to remove\n\t\t\tnextMock = mocks[mockHash];\n\t\t\t// Remove from linked list\n\t\t\tmocks[mockHash] = \"\";\n\t\t\t// Update mock hash\n\t\t\tmockHash = keccak256(nextMock);\n\t\t}\n\t\t// Clear list\n\t\tmocks[MOCKS_LIST_START] = MOCKS_LIST_END;\n\n\t\t// Reset all any mocks\n\t\tbytes4 nextAnyMock = anyMocks[SENTINEL_ANY_MOCKS];\n\t\twhile(nextAnyMock != SENTINEL_ANY_MOCKS) {\n\t\t\tbytes4 currentAnyMock = nextAnyMock;\n\t\t\tmockTypesAny[currentAnyMock] = MockType.Return;\n\t\t\texpectationsAny[currentAnyMock] = hex\"\";\n\t\t\trevertMessageAny[currentAnyMock] = \"\";\n\t\t\tnextAnyMock = anyMocks[currentAnyMock];\n\t\t\t// Remove from linked list\n\t\t\tanyMocks[currentAnyMock] = 0x0;\n\t\t}\n\t\t// Clear list\n\t\tanyMocks[SENTINEL_ANY_MOCKS] = SENTINEL_ANY_MOCKS;\n\t}\n\n\tfunction useAllGas() private {\n\t\twhile(true) {\n\t\t\tassembly {\n\t\t\t\tsstore(sload(0x40), 1)\n\t\t\t}\n\t\t}\n\t}\n\n\tfunction() payable public {\n\t\tbytes4 methodId;\n\t\tassembly {\n\t\t\tmethodId := calldataload(0)\n\t\t}\n\t\tif (mockTypes[msg.data] == MockType.Revert) {\n\t\t\trevert(revertMessage[msg.data]);\n\t\t}\n\t\tif (mockTypes[msg.data] == MockType.OutOfGas) {\n\t\t\tuseAllGas();\n\t\t}\n\t\tbytes memory result = expectations[msg.data];\n\n\t\t// Check any mocks if there is no expected result\n\t\tif (result.length == 0) {\n\t\t\tif (mockTypesAny[methodId] == MockType.Revert) {\n\t\t\t\trevert(revertMessageAny[methodId]);\n\t\t\t}\n\t\t\tif (mockTypesAny[methodId] == MockType.OutOfGas) {\n\t\t\t\tuseAllGas();\n\t\t\t}\n\t\t\tresult = expectationsAny[methodId];\n\t\t}\n\t\tassembly {\n\t\t\treturn(add(0x20, result), mload(result))\n\t\t}\n\t}\n}\n",
  "sourcePath": "@gnosis.pm/mock-contract/contracts/MockContract.sol",
  "compiler": {
    "name": "solc",
    "version": "0.4.24+commit.e67f0147.Emscripten.clang"
  },
  "schemaVersion": "2.0.0",
  "updatedAt": "2018-09-26T08:32:07.672Z"
}