{
  "contractName": "MockContract",
  "abi": [
    {
      "constant": true,
      "inputs": [],
      "name": "MOCKS_LIST_END_HASH",
      "outputs": [
        {
          "name": "",
          "type": "bytes32"
        }
      ],
      "payable": false,
      "stateMutability": "view",
      "type": "function"
    },
    {
      "constant": true,
      "inputs": [],
      "name": "MOCKS_LIST_START",
      "outputs": [
        {
          "name": "",
          "type": "bytes32"
        }
      ],
      "payable": false,
      "stateMutability": "view",
      "type": "function"
    },
    {
      "constant": true,
      "inputs": [],
      "name": "MOCKS_LIST_END",
      "outputs": [
        {
          "name": "",
          "type": "bytes"
        }
      ],
      "payable": false,
      "stateMutability": "view",
      "type": "function"
    },
    {
      "constant": true,
      "inputs": [],
      "name": "SENTINEL_ANY_MOCKS",
      "outputs": [
        {
          "name": "",
          "type": "bytes4"
        }
      ],
      "payable": false,
      "stateMutability": "view",
      "type": "function"
    },
    {
      "inputs": [],
      "payable": false,
      "stateMutability": "nonpayable",
      "type": "constructor"
    },
    {
      "payable": true,
      "stateMutability": "payable",
      "type": "fallback"
    },
    {
      "constant": false,
      "inputs": [
        {
          "name": "response",
          "type": "bytes"
        }
      ],
      "name": "givenAnyReturn",
      "outputs": [],
      "payable": false,
      "stateMutability": "nonpayable",
      "type": "function"
    },
    {
      "constant": false,
      "inputs": [
        {
          "name": "response",
          "type": "bool"
        }
      ],
      "name": "givenAnyReturnBool",
      "outputs": [],
      "payable": false,
      "stateMutability": "nonpayable",
      "type": "function"
    },
    {
      "constant": false,
      "inputs": [
        {
          "name": "response",
          "type": "uint256"
        }
      ],
      "name": "givenAnyReturnUint",
      "outputs": [],
      "payable": false,
      "stateMutability": "nonpayable",
      "type": "function"
    },
    {
      "constant": false,
      "inputs": [
        {
          "name": "response",
          "type": "address"
        }
      ],
      "name": "givenAnyReturnAddress",
      "outputs": [],
      "payable": false,
      "stateMutability": "nonpayable",
      "type": "function"
    },
    {
      "constant": false,
      "inputs": [],
      "name": "givenAnyRevert",
      "outputs": [],
      "payable": false,
      "stateMutability": "nonpayable",
      "type": "function"
    },
    {
      "constant": false,
      "inputs": [
        {
          "name": "message",
          "type": "string"
        }
      ],
      "name": "givenAnyRevertWithMessage",
      "outputs": [],
      "payable": false,
      "stateMutability": "nonpayable",
      "type": "function"
    },
    {
      "constant": false,
      "inputs": [],
      "name": "givenAnyRunOutOfGas",
      "outputs": [],
      "payable": false,
      "stateMutability": "nonpayable",
      "type": "function"
    },
    {
      "constant": false,
      "inputs": [
        {
          "name": "call",
          "type": "bytes"
        },
        {
          "name": "response",
          "type": "bytes"
        }
      ],
      "name": "givenCalldataReturn",
      "outputs": [],
      "payable": false,
      "stateMutability": "nonpayable",
      "type": "function"
    },
    {
      "constant": false,
      "inputs": [
        {
          "name": "call",
          "type": "bytes"
        },
        {
          "name": "response",
          "type": "bool"
        }
      ],
      "name": "givenCalldataReturnBool",
      "outputs": [],
      "payable": false,
      "stateMutability": "nonpayable",
      "type": "function"
    },
    {
      "constant": false,
      "inputs": [
        {
          "name": "call",
          "type": "bytes"
        },
        {
          "name": "response",
          "type": "uint256"
        }
      ],
      "name": "givenCalldataReturnUint",
      "outputs": [],
      "payable": false,
      "stateMutability": "nonpayable",
      "type": "function"
    },
    {
      "constant": false,
      "inputs": [
        {
          "name": "call",
          "type": "bytes"
        },
        {
          "name": "response",
          "type": "address"
        }
      ],
      "name": "givenCalldataReturnAddress",
      "outputs": [],
      "payable": false,
      "stateMutability": "nonpayable",
      "type": "function"
    },
    {
      "constant": false,
      "inputs": [
        {
          "name": "call",
          "type": "bytes"
        },
        {
          "name": "response",
          "type": "bytes"
        }
      ],
      "name": "givenMethodReturn",
      "outputs": [],
      "payable": false,
      "stateMutability": "nonpayable",
      "type": "function"
    },
    {
      "constant": false,
      "inputs": [
        {
          "name": "call",
          "type": "bytes"
        },
        {
          "name": "response",
          "type": "bool"
        }
      ],
      "name": "givenMethodReturnBool",
      "outputs": [],
      "payable": false,
      "stateMutability": "nonpayable",
      "type": "function"
    },
    {
      "constant": false,
      "inputs": [
        {
          "name": "call",
          "type": "bytes"
        },
        {
          "name": "response",
          "type": "uint256"
        }
      ],
      "name": "givenMethodReturnUint",
      "outputs": [],
      "payable": false,
      "stateMutability": "nonpayable",
      "type": "function"
    },
    {
      "constant": false,
      "inputs": [
        {
          "name": "call",
          "type": "bytes"
        },
        {
          "name": "response",
          "type": "address"
        }
      ],
      "name": "givenMethodReturnAddress",
      "outputs": [],
      "payable": false,
      "stateMutability": "nonpayable",
      "type": "function"
    },
    {
      "constant": false,
      "inputs": [
        {
          "name": "call",
          "type": "bytes"
        }
      ],
      "name": "givenCalldataRevert",
      "outputs": [],
      "payable": false,
      "stateMutability": "nonpayable",
      "type": "function"
    },
    {
      "constant": false,
      "inputs": [
        {
          "name": "call",
          "type": "bytes"
        }
      ],
      "name": "givenMethodRevert",
      "outputs": [],
      "payable": false,
      "stateMutability": "nonpayable",
      "type": "function"
    },
    {
      "constant": false,
      "inputs": [
        {
          "name": "call",
          "type": "bytes"
        },
        {
          "name": "message",
          "type": "string"
        }
      ],
      "name": "givenCalldataRevertWithMessage",
      "outputs": [],
      "payable": false,
      "stateMutability": "nonpayable",
      "type": "function"
    },
    {
      "constant": false,
      "inputs": [
        {
          "name": "call",
          "type": "bytes"
        },
        {
          "name": "message",
          "type": "string"
        }
      ],
      "name": "givenMethodRevertWithMessage",
      "outputs": [],
      "payable": false,
      "stateMutability": "nonpayable",
      "type": "function"
    },
    {
      "constant": false,
      "inputs": [
        {
          "name": "call",
          "type": "bytes"
        }
      ],
      "name": "givenCalldataRunOutOfGas",
      "outputs": [],
      "payable": false,
      "stateMutability": "nonpayable",
      "type": "function"
    },
    {
      "constant": false,
      "inputs": [
        {
          "name": "call",
          "type": "bytes"
        }
      ],
      "name": "givenMethodRunOutOfGas",
      "outputs": [],
      "payable": false,
      "stateMutability": "nonpayable",
      "type": "function"
    },
    {
      "constant": false,
      "inputs": [],
      "name": "invocationCount",
      "outputs": [
        {
          "name": "",
          "type": "uint256"
        }
      ],
      "payable": false,
      "stateMutability": "nonpayable",
      "type": "function"
    },
    {
      "constant": false,
      "inputs": [
        {
          "name": "call",
          "type": "bytes"
        }
      ],
      "name": "invocationCountForMethod",
      "outputs": [
        {
          "name": "",
          "type": "uint256"
        }
      ],
      "payable": false,
      "stateMutability": "nonpayable",
      "type": "function"
    },
    {
      "constant": false,
      "inputs": [
        {
          "name": "call",
          "type": "bytes"
        }
      ],
      "name": "invocationCountForCalldata",
      "outputs": [
        {
          "name": "",
          "type": "uint256"
        }
      ],
      "payable": false,
      "stateMutability": "nonpayable",
      "type": "function"
    },
    {
      "constant": false,
      "inputs": [],
      "name": "reset",
      "outputs": [],
      "payable": false,
      "stateMutability": "nonpayable",
      "type": "function"
    }
  ],
  "bytecode": "0x60806040523480156200001157600080fd5b506040805190810160405280600481526020017f30786666000000000000000000000000000000000000000000000000000000008152506000807f01000000000000000000000000000000000000000000000000000000000000006000191660001916815260200190815260200160002090805190602001906200009792919062000168565b507f0100000000000000000000000000000000000000000000000000000000000000600560007f01000000000000000000000000000000000000000000000000000000000000007bffffffffffffffffffffffffffffffffffffffffffffffffffffffff19167bffffffffffffffffffffffffffffffffffffffffffffffffffffffff1916815260200190815260200160002060006101000a81548163ffffffff02191690837c01000000000000000000000000000000000000000000000000000000009004021790555062000217565b828054600181600116156101000203166002900490600052602060002090601f016020900481019282601f10620001ab57805160ff1916838001178555620001dc565b82800160010185558215620001dc579182015b82811115620001db578251825591602001919060010190620001be565b5b509050620001eb9190620001ef565b5090565b6200021491905b8082111562000210576000816000905550600101620001f6565b5090565b90565b6132ad80620002276000396000f300608060405260043610610175576000357c0100000000000000000000000000000000000000000000000000000000900463ffffffff1680630a20119f14610a6c57806321fed4d614610a975780632ed238dc14610ad257806336ff0ee514610b055780633956dc6b14610b345780634937c4f614610b4b578063586984a414610b9a5780635a3855ab14610be95780636193659414610c3057806367aad04a14610c83578063682b479714610cb657806368ab6f2f14610cf95780636f40075614610d345780637cd96ee414610d7b57806387abab6514610e0b5780639a1dc86b14610e465780639eaeed7514610e99578063aa788c5514610eec578063af21ac7814610f27578063b3901f2914610f54578063c6ee167f14610faf578063cf11ff5d14611002578063d6fe97781461105d578063d73ca0ac14611098578063d826f88f146110dd578063e211b8a5146110f4578063eb861f691461110b578063f07da22914611146578063f5afa9c1146111af575b6000606060003591506001600281111561018b57fe5b600160003660405180838380828437820191505092505050908152602001604051809103902060009054906101000a900460ff1660028111156101ca57fe5b14156102b45760036000366040518083838082843782019150509250505090815260200160405180910390206040517f08c379a000000000000000000000000000000000000000000000000000000000815260040180806020018281038252838181546001816001161561010002031660029004815260200191508054600181600116156101000203166002900480156102a55780601f1061027a576101008083540402835291602001916102a5565b820191906000526020600020905b81548152906001019060200180831161028857829003601f168201915b50509250505060405180910390fd5b6002808111156102c057fe5b600160003660405180838380828437820191505092505050908152602001604051809103902060009054906101000a900460ff1660028111156102ff57fe5b141561030e5761030d6111f4565b5b60026000366040518083838082843782019150509250505090815260200160405180910390208054600181600116156101000203166002900480601f0160208091040260200160405190810160405280929190818152602001828054600181600116156101000203166002900480156103c85780601f1061039d576101008083540402835291602001916103c8565b820191906000526020600020905b8154815290600101906020018083116103ab57829003601f168201915b505050505090506000815114156106d757600160028111156103e657fe5b60066000847bffffffffffffffffffffffffffffffffffffffffffffffffffffffff19167bffffffffffffffffffffffffffffffffffffffffffffffffffffffff1916815260200190815260200160002060009054906101000a900460ff16600281111561045057fe5b14156105655760086000837bffffffffffffffffffffffffffffffffffffffffffffffffffffffff19167bffffffffffffffffffffffffffffffffffffffffffffffffffffffff191681526020019081526020016000206040517f08c379a000000000000000000000000000000000000000000000000000000000815260040180806020018281038252838181546001816001161561010002031660029004815260200191508054600181600116156101000203166002900480156105565780601f1061052b57610100808354040283529160200191610556565b820191906000526020600020905b81548152906001019060200180831161053957829003601f168201915b50509250505060405180910390fd5b60028081111561057157fe5b60066000847bffffffffffffffffffffffffffffffffffffffffffffffffffffffff19167bffffffffffffffffffffffffffffffffffffffffffffffffffffffff1916815260200190815260200160002060009054906101000a900460ff1660028111156105db57fe5b14156105ea576105e96111f4565b5b60076000837bffffffffffffffffffffffffffffffffffffffffffffffffffffffff19167bffffffffffffffffffffffffffffffffffffffffffffffffffffffff191681526020019081526020016000208054600181600116156101000203166002900480601f0160208091040260200160405190810160405280929190818152602001828054600181600116156101000203166002900480156106cf5780601f106106a4576101008083540402835291602001916106cf565b820191906000526020600020905b8154815290600101906020018083116106b257829003601f168201915b505050505090505b6000815114156108a357600160028111156106ee57fe5b600a60009054906101000a900460ff16600281111561070957fe5b14156107cf57600c6040517f08c379a000000000000000000000000000000000000000000000000000000000815260040180806020018281038252838181546001816001161561010002031660029004815260200191508054600181600116156101000203166002900480156107c05780601f10610795576101008083540402835291602001916107c0565b820191906000526020600020905b8154815290600101906020018083116107a357829003601f168201915b50509250505060405180910390fd5b6002808111156107db57fe5b600a60009054906101000a900460ff1660028111156107f657fe5b1415610805576108046111f4565b5b600b8054600181600116156101000203166002900480601f01602080910402602001604051908101604052809291908181526020018280546001816001161561010002031660029004801561089b5780601f106108705761010080835404028352916020019161089b565b820191906000526020600020905b81548152906001019060200180831161087e57829003601f168201915b505050505090505b6001600d60008282540192505081905550600160096000600e548560405160200180838152602001827bffffffffffffffffffffffffffffffffffffffffffffffffffffffff19167bffffffffffffffffffffffffffffffffffffffffffffffffffffffff19168152600401925050506040516020818303038152906040526040518082805190602001908083835b6020831015156109575780518252602082019150602081019050602083039250610932565b6001836020036101000a03801982511681845116808217855250505050505090500191505060405180910390206000191660001916815260200190815260200160002060008282540192505081905550600160046000600e5460003660405160200180848152602001838380828437820191505093505050506040516020818303038152906040526040518082805190602001908083835b602083101515610a1457805182526020820191506020810190506020830392506109ef565b6001836020036101000a03801982511681845116808217855250505050505090500191505060405180910390206000191660001916815260200190815260200160002060008282540192505081905550805181602001f35b348015610a7857600080fd5b50610a81611219565b6040518082815260200191505060405180910390f35b348015610aa357600080fd5b50610ad0600480360381019080803590602001908201803590602001919091929391929390505050611223565b005b348015610ade57600080fd5b50610ae76112a9565b60405180826000191660001916815260200191505060405180910390f35b348015610b1157600080fd5b50610b32600480360381019080803515159060200190929190505050611344565b005b348015610b4057600080fd5b50610b4961136f565b005b348015610b5757600080fd5b50610b84600480360381019080803590602001908201803590602001919091929391929390505050611395565b6040518082815260200191505060405180910390f35b348015610ba657600080fd5b50610bd36004803603810190808035906020019082018035906020019190919293919293905050506114c3565b6040518082815260200191505060405180910390f35b348015610bf557600080fd5b50610c2e60048036038101908080359060200190820180359060200191909192939192939080351515906020019092919050505061157b565b005b348015610c3c57600080fd5b50610c816004803603810190808035906020019082018035906020019190919293919293908035906020019082018035906020019190919293919293905050506115db565b005b348015610c8f57600080fd5b50610c9861164f565b60405180826000191660001916815260200191505060405180910390f35b348015610cc257600080fd5b50610cf7600480360381019080803573ffffffffffffffffffffffffffffffffffffffff169060200190929190505050611673565b005b348015610d0557600080fd5b50610d32600480360381019080803590602001908201803590602001919091929391929390505050611687565b005b348015610d4057600080fd5b50610d79600480360381019080803590602001908201803590602001919091929391929390803515159060200190929190505050611747565b005b348015610d8757600080fd5b50610d906117a7565b6040518080602001828103825283818151815260200191508051906020019080838360005b83811015610dd0578082015181840152602081019050610db5565b50505050905090810190601f168015610dfd5780820380516001836020036101000a031916815260200191505b509250505060405180910390f35b348015610e1757600080fd5b50610e446004803603810190808035906020019082018035906020019190919293919293905050506117e0565b005b348015610e5257600080fd5b50610e9760048036038101908080359060200190820180359060200191909192939192939080359060200190820180359060200191909192939192939050505061181a565b005b348015610ea557600080fd5b50610eea60048036038101908080359060200190820180359060200191909192939192939080359060200190820180359060200191909192939192939050505061193d565b005b348015610ef857600080fd5b50610f256004803603810190808035906020019082018035906020019190919293919293905050506119f9565b005b348015610f3357600080fd5b50610f5260048036038101908080359060200190929190505050611ab9565b005b348015610f6057600080fd5b50610fad600480360381019080803590602001908201803590602001919091929391929390803573ffffffffffffffffffffffffffffffffffffffff169060200190929190505050611acd565b005b348015610fbb57600080fd5b50611000600480360381019080803590602001908201803590602001919091929391929390803590602001908201803590602001919091929391929390505050611b16565b005b34801561100e57600080fd5b5061105b600480360381019080803590602001908201803590602001919091929391929390803573ffffffffffffffffffffffffffffffffffffffff169060200190929190505050611b8a565b005b34801561106957600080fd5b50611096600480360381019080803590602001908201803590602001919091929391929390505050611bd3565b005b3480156110a457600080fd5b506110db60048036038101908080359060200190820180359060200191909192939192939080359060200190929190505050611c12565b005b3480156110e957600080fd5b506110f2611c5b565b005b34801561110057600080fd5b5061110961269b565b005b34801561111757600080fd5b506111446004803603810190808035906020019082018035906020019190919293919293905050506126e8565b005b34801561115257600080fd5b5061115b6127b7565b60405180827bffffffffffffffffffffffffffffffffffffffffffffffffffffffff19167bffffffffffffffffffffffffffffffffffffffffffffffffffffffff1916815260200191505060405180910390f35b3480156111bb57600080fd5b506111f2600480360381019080803590602001908201803590602001919091929391929390803590602001909291905050506127db565b005b60005b600115611216576060600060c060008060066107d05a03f190506111f7565b50565b6000600d54905090565b60026001838360405180838380828437820191505092505050908152602001604051809103902060006101000a81548160ff0219169083600281111561126557fe5b02179055506112a582828080601f016020809104026020016040519081016040528093929190818152602001838380828437820191505050505050612824565b5050565b6040805190810160405280600481526020017f30786666000000000000000000000000000000000000000000000000000000008152506040518082805190602001908083835b60208310151561131457805182526020820191506020810190506020830392506112ef565b6001836020036101000a038019825116818451168082178552505050505050905001915050604051809103902081565b600081611352576000611355565b60015b60ff16905061136b6113668261298a565b6129ce565b5050565b6002600a60006101000a81548160ff0219169083600281111561138e57fe5b0217905550565b6000806113d384848080601f016020809104026020016040519081016040528093929190818152602001838380828437820191505050505050612a0c565b905060096000600e548360405160200180838152602001827bffffffffffffffffffffffffffffffffffffffffffffffffffffffff19167bffffffffffffffffffffffffffffffffffffffffffffffffffffffff19168152600401925050506040516020818303038152906040526040518082805190602001908083835b6020831015156114765780518252602082019150602081019050602083039250611451565b6001836020036101000a0380198251168184511680821785525050505050509050019150506040518091039020600019166000191681526020019081526020016000205491505092915050565b600060046000600e54858560405160200180848152602001838380828437820191505093505050506040516020818303038152906040526040518082805190602001908083835b60208310151561152f578051825260208201915060208101905060208303925061150a565b6001836020036101000a03801982511681845116808217855250505050505090500191505060405180910390206000191660001916815260200190815260200160002054905092915050565b60008161158957600061158c565b60015b60ff1690506115d584848080601f0160208091040260200160405190810160405280939291908181526020018383808284378201915050505050506115d08361298a565b612b02565b50505050565b61164984848080601f01602080910402602001604051908101604052809392919081815260200183838082843782019150505050505083838080601f016020809104026020016040519081016040528093929190818152602001838380828437820191505050505050612bf6565b50505050565b7f010000000000000000000000000000000000000000000000000000000000000081565b61168461167f82612d10565b6129ce565b50565b60006116c483838080601f016020809104026020016040519081016040528093929190818152602001838380828437820191505050505050612a0c565b9050600260066000837bffffffffffffffffffffffffffffffffffffffffffffffffffffffff19167bffffffffffffffffffffffffffffffffffffffffffffffffffffffff1916815260200190815260200160002060006101000a81548160ff0219169083600281111561173457fe5b021790555061174281612d42565b505050565b600081611755576000611758565b60015b60ff1690506117a184848080601f01602080910402602001604051908101604052809392919081815260200183838082843782019150505050505061179c8361298a565b612b02565b50505050565b6040805190810160405280600481526020017f307866660000000000000000000000000000000000000000000000000000000081525081565b6001600a60006101000a81548160ff021916908360028111156117ff57fe5b02179055508181600c9190611815929190612fd5565b505050565b600061185785858080601f016020809104026020016040519081016040528093929190818152602001838380828437820191505050505050612a0c565b9050600160066000837bffffffffffffffffffffffffffffffffffffffffffffffffffffffff19167bffffffffffffffffffffffffffffffffffffffffffffffffffffffff1916815260200190815260200160002060006101000a81548160ff021916908360028111156118c757fe5b0217905550828260086000847bffffffffffffffffffffffffffffffffffffffffffffffffffffffff19167bffffffffffffffffffffffffffffffffffffffffffffffffffffffff19168152602001908152602001600020919061192c929190612fd5565b5061193681612d42565b5050505050565b600180858560405180838380828437820191505092505050908152602001604051809103902060006101000a81548160ff0219169083600281111561197e57fe5b021790555081816003868660405180838380828437820191505092505050908152602001604051809103902091906119b7929190612fd5565b506119f384848080601f016020809104026020016040519081016040528093929190818152602001838380828437820191505050505050612824565b50505050565b6000611a3683838080601f016020809104026020016040519081016040528093929190818152602001838380828437820191505050505050612a0c565b9050600160066000837bffffffffffffffffffffffffffffffffffffffffffffffffffffffff19167bffffffffffffffffffffffffffffffffffffffffffffffffffffffff1916815260200190815260200160002060006101000a81548160ff02191690836002811115611aa657fe5b0217905550611ab481612d42565b505050565b611aca611ac58261298a565b6129ce565b50565b611b1183838080601f016020809104026020016040519081016040528093929190818152602001838380828437820191505050505050611b0c83612d10565b612b02565b505050565b611b8484848080601f01602080910402602001604051908101604052809392919081815260200183838082843782019150505050505083838080601f016020809104026020016040519081016040528093929190818152602001838380828437820191505050505050612b02565b50505050565b611bce83838080601f016020809104026020016040519081016040528093929190818152602001838380828437820191505050505050611bc983612d10565b612b02565b505050565b611c0e82828080601f0160208091040260200160405190810160405280939291908181526020018383808284378201915050505050506129ce565b5050565b611c5683838080601f016020809104026020016040519081016040528093929190818152602001838380828437820191505050505050611c518361298a565b612b02565b505050565b606060008060008060007f0100000000000000000000000000000000000000000000000000000000000000600019166000191681526020019081526020016000208054600181600116156101000203166002900480601f016020809104026020016040519081016040528092919081815260200182805460018160011615610100020316600290048015611d305780601f10611d0557610100808354040283529160200191611d30565b820191906000526020600020905b815481529060010190602001808311611d1357829003601f168201915b50505050509350836040518082805190602001908083835b602083101515611d6d5780518252602082019150602081019050602083039250611d48565b6001836020036101000a038019825116818451168082178552505050505050905001915050604051809103902092505b6040805190810160405280600481526020017f30786666000000000000000000000000000000000000000000000000000000008152506040518082805190602001908083835b602083101515611e085780518252602082019150602081019050602083039250611de3565b6001836020036101000a03801982511681845116808217855250505050505090500191505060405180910390206000191683600019161415156121505760006001856040518082805190602001908083835b602083101515611e7f5780518252602082019150602081019050602083039250611e5a565b6001836020036101000a038019825116818451168082178552505050505050905001915050908152602001604051809103902060006101000a81548160ff02191690836002811115611ecd57fe5b021790555060206040519081016040528060008152506002856040518082805190602001908083835b602083101515611f1b5780518252602082019150602081019050602083039250611ef6565b6001836020036101000a03801982511681845116808217855250505050505090500191505090815260200160405180910390209080519060200190611f61929190613055565b5060206040519081016040528060008152506003856040518082805190602001908083835b602083101515611fab5780518252602082019150602081019050602083039250611f86565b6001836020036101000a03801982511681845116808217855250505050505090500191505090815260200160405180910390209080519060200190611ff19291906130d5565b5060008084600019166000191681526020019081526020016000208054600181600116156101000203166002900480601f0160208091040260200160405190810160405280929190818152602001828054600181600116156101000203166002900480156120a05780601f10612075576101008083540402835291602001916120a0565b820191906000526020600020905b81548152906001019060200180831161208357829003601f168201915b505050505093506020604051908101604052806000815250600080856000191660001916815260200190815260200160002090805190602001906120e5929190613055565b50836040518082805190602001908083835b60208310151561211c57805182526020820191506020810190506020830392506120f7565b6001836020036101000a03801982511681845116808217855250505050505090500191505060405180910390209250611d9d565b6040805190810160405280600481526020017f30786666000000000000000000000000000000000000000000000000000000008152506000807f01000000000000000000000000000000000000000000000000000000000000006000191660001916815260200190815260200160002090805190602001906121d3929190613155565b50600560007f01000000000000000000000000000000000000000000000000000000000000007bffffffffffffffffffffffffffffffffffffffffffffffffffffffff19167bffffffffffffffffffffffffffffffffffffffffffffffffffffffff1916815260200190815260200160002060009054906101000a90047c01000000000000000000000000000000000000000000000000000000000291505b7f01000000000000000000000000000000000000000000000000000000000000007bffffffffffffffffffffffffffffffffffffffffffffffffffffffff1916827bffffffffffffffffffffffffffffffffffffffffffffffffffffffff191614151561256757819050600060066000837bffffffffffffffffffffffffffffffffffffffffffffffffffffffff19167bffffffffffffffffffffffffffffffffffffffffffffffffffffffff1916815260200190815260200160002060006101000a81548160ff0219169083600281111561234a57fe5b0217905550602060405190810160405280600081525060076000837bffffffffffffffffffffffffffffffffffffffffffffffffffffffff19167bffffffffffffffffffffffffffffffffffffffffffffffffffffffff1916815260200190815260200160002090805190602001906123c4929190613055565b50602060405190810160405280600081525060086000837bffffffffffffffffffffffffffffffffffffffffffffffffffffffff19167bffffffffffffffffffffffffffffffffffffffffffffffffffffffff19168152602001908152602001600020908051906020019061243a9291906130d5565b5060056000827bffffffffffffffffffffffffffffffffffffffffffffffffffffffff19167bffffffffffffffffffffffffffffffffffffffffffffffffffffffff1916815260200190815260200160002060009054906101000a90047c010000000000000000000000000000000000000000000000000000000002915060007c01000000000000000000000000000000000000000000000000000000000260056000837bffffffffffffffffffffffffffffffffffffffffffffffffffffffff19167bffffffffffffffffffffffffffffffffffffffffffffffffffffffff1916815260200190815260200160002060006101000a81548163ffffffff02191690837c010000000000000000000000000000000000000000000000000000000090040217905550612272565b7f0100000000000000000000000000000000000000000000000000000000000000600560007f01000000000000000000000000000000000000000000000000000000000000007bffffffffffffffffffffffffffffffffffffffffffffffffffffffff19167bffffffffffffffffffffffffffffffffffffffffffffffffffffffff1916815260200190815260200160002060006101000a81548163ffffffff02191690837c0100000000000000000000000000000000000000000000000000000000900402179055506020604051908101604052806000815250600b9080519060200190612657929190613055565b506000600a60006101000a81548160ff0219169083600281111561267757fe5b02179055506000600d819055506001600e6000828254019250508190555050505050565b6001600a60006101000a81548160ff021916908360028111156126ba57fe5b02179055506020604051908101604052806000815250600c90805190602001906126e59291906130d5565b50565b600180838360405180838380828437820191505092505050908152602001604051809103902060006101000a81548160ff0219169083600281111561272957fe5b021790555060206040519081016040528060008152506003838360405180838380828437820191505092505050908152602001604051809103902090805190602001906127779291906130d5565b506127b382828080601f016020809104026020016040519081016040528093929190818152602001838380828437820191505050505050612824565b5050565b7f010000000000000000000000000000000000000000000000000000000000000081565b61281f83838080601f01602080910402602001604051908101604052809392919081815260200183838082843782019150505050505061281a8361298a565b612b02565b505050565b6000816040518082805190602001908083835b60208310151561285c5780518252602082019150602081019050602083039250612837565b6001836020036101000a03801982511681845116808217855250505050505090500191505060405180910390209050600080600083600019166000191681526020019081526020016000208054600181600116156101000203166002900490501415612986576000807f010000000000000000000000000000000000000000000000000000000000000060001916600019168152602001908152602001600020600080836000191660001916815260200190815260200160002090805460018160011615610100020316600290046129359291906131d5565b50816000807f0100000000000000000000000000000000000000000000000000000000000000600019166000191681526020019081526020016000209080519060200190612984929190613155565b505b5050565b606060206040519080825280601f01601f1916602001820160405280156129c05781602001602082028038833980820191505090505b509050816020820152919050565b6000600a60006101000a81548160ff021916908360028111156129ed57fe5b021790555080600b9080519060200190612a08929190613155565b5050565b60008060008090505b6004811015612af8576008810260ff7f0100000000000000000000000000000000000000000000000000000000000000028583815181101515612a5457fe5b9060200101517f010000000000000000000000000000000000000000000000000000000000000090047f010000000000000000000000000000000000000000000000000000000000000002167effffffffffffffffffffffffffffffffffffffffffffffffffffffffffffff19167bffffffffffffffffffffffffffffffffffffffffffffffffffffffff19169060020a9004821791508080600101915050612a15565b8192505050919050565b6000612b0d83612a0c565b9050600060066000837bffffffffffffffffffffffffffffffffffffffffffffffffffffffff19167bffffffffffffffffffffffffffffffffffffffffffffffffffffffff1916815260200190815260200160002060006101000a81548160ff02191690836002811115612b7d57fe5b02179055508160076000837bffffffffffffffffffffffffffffffffffffffffffffffffffffffff19167bffffffffffffffffffffffffffffffffffffffffffffffffffffffff191681526020019081526020016000209080519060200190612be7929190613155565b50612bf181612d42565b505050565b60006001836040518082805190602001908083835b602083101515612c305780518252602082019150602081019050602083039250612c0b565b6001836020036101000a038019825116818451168082178552505050505050905001915050908152602001604051809103902060006101000a81548160ff02191690836002811115612c7e57fe5b0217905550806002836040518082805190602001908083835b602083101515612cbc5780518252602082019150602081019050602083039250612c97565b6001836020036101000a03801982511681845116808217855250505050505090500191505090815260200160405180910390209080519060200190612d02929190613155565b50612d0c82612824565b5050565b606060405182741400000000000000000000000000000000000000001860148201526034810160405280915050919050565b60007c01000000000000000000000000000000000000000000000000000000000260056000837bffffffffffffffffffffffffffffffffffffffffffffffffffffffff19167bffffffffffffffffffffffffffffffffffffffffffffffffffffffff1916815260200190815260200160002060009054906101000a90047c0100000000000000000000000000000000000000000000000000000000027bffffffffffffffffffffffffffffffffffffffffffffffffffffffff19161415612fd257600560007f01000000000000000000000000000000000000000000000000000000000000007bffffffffffffffffffffffffffffffffffffffffffffffffffffffff19167bffffffffffffffffffffffffffffffffffffffffffffffffffffffff1916815260200190815260200160002060009054906101000a90047c01000000000000000000000000000000000000000000000000000000000260056000837bffffffffffffffffffffffffffffffffffffffffffffffffffffffff19167bffffffffffffffffffffffffffffffffffffffffffffffffffffffff1916815260200190815260200160002060006101000a81548163ffffffff02191690837c01000000000000000000000000000000000000000000000000000000009004021790555080600560007f01000000000000000000000000000000000000000000000000000000000000007bffffffffffffffffffffffffffffffffffffffffffffffffffffffff19167bffffffffffffffffffffffffffffffffffffffffffffffffffffffff1916815260200190815260200160002060006101000a81548163ffffffff02191690837c0100000000000000000000000000000000000000000000000000000000900402179055505b50565b828054600181600116156101000203166002900490600052602060002090601f016020900481019282601f1061301657803560ff1916838001178555613044565b82800160010185558215613044579182015b82811115613043578235825591602001919060010190613028565b5b509050613051919061325c565b5090565b828054600181600116156101000203166002900490600052602060002090601f016020900481019282601f1061309657805160ff19168380011785556130c4565b828001600101855582156130c4579182015b828111156130c35782518255916020019190600101906130a8565b5b5090506130d1919061325c565b5090565b828054600181600116156101000203166002900490600052602060002090601f016020900481019282601f1061311657805160ff1916838001178555613144565b82800160010185558215613144579182015b82811115613143578251825591602001919060010190613128565b5b509050613151919061325c565b5090565b828054600181600116156101000203166002900490600052602060002090601f016020900481019282601f1061319657805160ff19168380011785556131c4565b828001600101855582156131c4579182015b828111156131c35782518255916020019190600101906131a8565b5b5090506131d1919061325c565b5090565b828054600181600116156101000203166002900490600052602060002090601f016020900481019282601f1061320e578054855561324b565b8280016001018555821561324b57600052602060002091601f016020900482015b8281111561324a57825482559160010191906001019061322f565b5b509050613258919061325c565b5090565b61327e91905b8082111561327a576000816000905550600101613262565b5090565b905600a165627a7a723058207c38230b81180ba3e31c43529a6ce1803521c383ed5e28844c054a59afa495110029",
  "source": "pragma solidity ^0.4.23;\n\ninterface MockInterface {\n\t/**\n\t * @dev After calling this method, the mock will return `response` when it is called\n\t * with any calldata that is not mocked more specifically below\n\t * (e.g. using givenMethodReturn).\n\t * @param response ABI encoded response that will be returned if method is invoked\n\t */\n\tfunction givenAnyReturn(bytes response) external;\n\tfunction givenAnyReturnBool(bool response) external;\n\tfunction givenAnyReturnUint(uint response) external;\n\tfunction givenAnyReturnAddress(address response) external;\n\n\tfunction givenAnyRevert() external;\n\tfunction givenAnyRevertWithMessage(string message) external;\n\tfunction givenAnyRunOutOfGas() external;\n\n\t/**\n\t * @dev After calling this method, the mock will return `response` when the given\n\t * methodId is called regardless of arguments. If the methodId and arguments\n\t * are mocked more specifically (using `givenMethodAndArguments`) the latter\n\t * will take precedence.\n\t * @param method ABI encoded methodId. It is valid to pass full calldata (including arguments). The mock will extract the methodId from it\n\t * @param response ABI encoded response that will be returned if method is invoked\n\t */\n\tfunction givenMethodReturn(bytes method, bytes response) external;\n\tfunction givenMethodReturnBool(bytes method, bool response) external;\n\tfunction givenMethodReturnUint(bytes method, uint response) external;\n\tfunction givenMethodReturnAddress(bytes method, address response) external;\n\n\tfunction givenMethodRevert(bytes method) external;\n\tfunction givenMethodRevertWithMessage(bytes method, string message) external;\n\tfunction givenMethodRunOutOfGas(bytes method) external;\n\n\t/**\n\t * @dev After calling this method, the mock will return `response` when the given\n\t * methodId is called with matching arguments. These exact calldataMocks will take\n\t * precedence over all other calldataMocks.\n\t * @param calldata ABI encoded calldata (methodId and arguments)\n\t * @param response ABI encoded response that will be returned if contract is invoked with calldata\n\t */\n\tfunction givenCalldataReturn(bytes calldata, bytes response) external;\n\tfunction givenCalldataReturnBool(bytes calldata, bool response) external;\n\tfunction givenCalldataReturnUint(bytes calldata, uint response) external;\n\tfunction givenCalldataReturnAddress(bytes calldata, address response) external;\n\n\tfunction givenCalldataRevert(bytes calldata) external;\n\tfunction givenCalldataRevertWithMessage(bytes calldata, string message) external;\n\tfunction givenCalldataRunOutOfGas(bytes calldata) external;\n\n\t/**\n\t * @dev Returns the number of times anything has been called on this mock since last reset\n\t */\n\tfunction invocationCount() external returns (uint);\n\n\t/**\n\t * @dev Returns the number of times the given method has been called on this mock since last reset\n\t * @param method ABI encoded methodId. It is valid to pass full calldata (including arguments). The mock will extract the methodId from it\n\t */\n\tfunction invocationCountForMethod(bytes method) external returns (uint);\n\n\t/**\n\t * @dev Returns the number of times this mock has been called with the exact calldata since last reset.\n\t * @param calldata ABI encoded calldata (methodId and arguments)\n\t */\n\tfunction invocationCountForCalldata(bytes calldata) external returns (uint);\n\n\t/**\n\t * @dev Resets all mocked methods and invocation counts.\n\t */\n\t function reset() external;\n}\n\n/**\n * Implementation of the MockInterface.\n */\ncontract MockContract is MockInterface {\n\tenum MockType { Return, Revert, OutOfGas }\n\t\n\tbytes32 public constant MOCKS_LIST_START = hex\"01\";\n\tbytes public constant MOCKS_LIST_END = \"0xff\";\n\tbytes32 public constant MOCKS_LIST_END_HASH = keccak256(MOCKS_LIST_END);\n\tbytes4 public constant SENTINEL_ANY_MOCKS = hex\"01\";\n\n\t// A linked list allows easy iteration and inclusion checks\n\tmapping(bytes32 => bytes) calldataMocks;\n\tmapping(bytes => MockType) calldataMockTypes;\n\tmapping(bytes => bytes) calldataExpectations;\n\tmapping(bytes => string) calldataRevertMessage;\n\tmapping(bytes32 => uint) calldataInvocations;\n\n\tmapping(bytes4 => bytes4) methodIdMocks;\n\tmapping(bytes4 => MockType) methodIdMockTypes;\n\tmapping(bytes4 => bytes) methodIdExpectations;\n\tmapping(bytes4 => string) methodIdRevertMessages;\n\tmapping(bytes32 => uint) methodIdInvocations;\n\n\tMockType fallbackMockType;\n\tbytes fallbackExpectation;\n\tstring fallbackRevertMessage;\n\tuint invocations;\n\tuint resetCount;\n\n\tconstructor() public {\n\t\tcalldataMocks[MOCKS_LIST_START] = MOCKS_LIST_END;\n\t\tmethodIdMocks[SENTINEL_ANY_MOCKS] = SENTINEL_ANY_MOCKS;\n\t}\n\n\tfunction trackCalldataMock(bytes memory call) private {\n\t\tbytes32 callHash = keccak256(call);\n\t\tif (calldataMocks[callHash].length == 0) {\n\t\t\tcalldataMocks[callHash] = calldataMocks[MOCKS_LIST_START];\n\t\t\tcalldataMocks[MOCKS_LIST_START] = call;\n\t\t}\n\t}\n\n\tfunction trackMethodIdMock(bytes4 methodId) private {\n\t\tif (methodIdMocks[methodId] == 0x0) {\n\t\t\tmethodIdMocks[methodId] = methodIdMocks[SENTINEL_ANY_MOCKS];\n\t\t\tmethodIdMocks[SENTINEL_ANY_MOCKS] = methodId;\n\t\t}\n\t}\n\n\tfunction _givenAnyReturn(bytes response) internal {\n\t\tfallbackMockType = MockType.Return;\n\t\tfallbackExpectation = response;\n\t}\n\n\tfunction givenAnyReturn(bytes response) external {\n\t\t_givenAnyReturn(response);\n\t}\n\n\tfunction givenAnyReturnBool(bool response) external {\n\t\tuint flag = response ? 1 : 0;\n\t\t_givenAnyReturn(uintToBytes(flag));\n\t}\n\n\tfunction givenAnyReturnUint(uint response) external {\n\t\t_givenAnyReturn(uintToBytes(response));\t\n\t}\n\n\tfunction givenAnyReturnAddress(address response) external {\n\t\t_givenAnyReturn(addressToBytes(response));\n\t}\n\n\tfunction givenAnyRevert() external {\n\t\tfallbackMockType = MockType.Revert;\n\t\tfallbackRevertMessage = \"\";\n\t}\n\n\tfunction givenAnyRevertWithMessage(string message) external {\n\t\tfallbackMockType = MockType.Revert;\n\t\tfallbackRevertMessage = message;\n\t}\n\n\tfunction givenAnyRunOutOfGas() external {\n\t\tfallbackMockType = MockType.OutOfGas;\n\t}\n\n\tfunction _givenCalldataReturn(bytes call, bytes response) private  {\n\t\tcalldataMockTypes[call] = MockType.Return;\n\t\tcalldataExpectations[call] = response;\n\t\ttrackCalldataMock(call);\n\t}\n\n\tfunction givenCalldataReturn(bytes call, bytes response) external  {\n\t\t_givenCalldataReturn(call, response);\n\t}\n\n\tfunction givenCalldataReturnBool(bytes call, bool response) external {\n\t\tuint flag = response ? 1 : 0;\n\t\t_givenMethodReturn(call, uintToBytes(flag));\n\t}\n\n\tfunction givenCalldataReturnUint(bytes call, uint response) external {\n\t\t_givenMethodReturn(call, uintToBytes(response));\n\t}\n\n\tfunction givenCalldataReturnAddress(bytes call, address response) external {\n\t\t_givenMethodReturn(call, addressToBytes(response));\n\t}\n\n\tfunction _givenMethodReturn(bytes call, bytes response) private {\n\t\tbytes4 method = bytesToBytes4(call);\n\t\tmethodIdMockTypes[method] = MockType.Return;\n\t\tmethodIdExpectations[method] = response;\n\t\ttrackMethodIdMock(method);\t\t\n\t}\n\n\tfunction givenMethodReturn(bytes call, bytes response) external {\n\t\t_givenMethodReturn(call, response);\n\t}\n\n\tfunction givenMethodReturnBool(bytes call, bool response) external {\n\t\tuint flag = response ? 1 : 0;\n\t\t_givenMethodReturn(call, uintToBytes(flag));\n\t}\n\n\tfunction givenMethodReturnUint(bytes call, uint response) external {\n\t\t_givenMethodReturn(call, uintToBytes(response));\n\t}\n\n\tfunction givenMethodReturnAddress(bytes call, address response) external {\n\t\t_givenMethodReturn(call, addressToBytes(response));\n\t}\n\n\tfunction givenCalldataRevert(bytes call) external {\n\t\tcalldataMockTypes[call] = MockType.Revert;\n\t\tcalldataRevertMessage[call] = \"\";\n\t\ttrackCalldataMock(call);\n\t}\n\n\tfunction givenMethodRevert(bytes call) external {\n\t\tbytes4 method = bytesToBytes4(call);\n\t\tmethodIdMockTypes[method] = MockType.Revert;\n\t\ttrackMethodIdMock(method);\t\t\n\t}\n\n\tfunction givenCalldataRevertWithMessage(bytes call, string message) external {\n\t\tcalldataMockTypes[call] = MockType.Revert;\n\t\tcalldataRevertMessage[call] = message;\n\t\ttrackCalldataMock(call);\n\t}\n\n\tfunction givenMethodRevertWithMessage(bytes call, string message) external {\n\t\tbytes4 method = bytesToBytes4(call);\n\t\tmethodIdMockTypes[method] = MockType.Revert;\n\t\tmethodIdRevertMessages[method] = message;\n\t\ttrackMethodIdMock(method);\t\t\n\t}\n\n\tfunction givenCalldataRunOutOfGas(bytes call) external {\n\t\tcalldataMockTypes[call] = MockType.OutOfGas;\n\t\ttrackCalldataMock(call);\n\t}\n\n\tfunction givenMethodRunOutOfGas(bytes call) external {\n\t\tbytes4 method = bytesToBytes4(call);\n\t\tmethodIdMockTypes[method] = MockType.OutOfGas;\n\t\ttrackMethodIdMock(method);\t\n\t}\n\n\tfunction invocationCount() external returns (uint) {\n\t\treturn invocations;\n\t}\n\n\tfunction invocationCountForMethod(bytes call) external returns (uint) {\n\t\tbytes4 method = bytesToBytes4(call);\n\t\treturn methodIdInvocations[keccak256(abi.encodePacked(resetCount, method))];\n\t}\n\n\tfunction invocationCountForCalldata(bytes call) external returns (uint) {\n\t\treturn calldataInvocations[keccak256(abi.encodePacked(resetCount, call))];\n\t}\n\n\tfunction reset() external {\n\t\t// Reset all exact calldataMocks\n\t\tbytes memory nextMock = calldataMocks[MOCKS_LIST_START];\n\t\tbytes32 mockHash = keccak256(nextMock);\n\t\t// We cannot compary bytes\n\t\twhile(mockHash != MOCKS_LIST_END_HASH) {\n\t\t\t// Reset all mock maps\n\t\t\tcalldataMockTypes[nextMock] = MockType.Return;\n\t\t\tcalldataExpectations[nextMock] = hex\"\";\n\t\t\tcalldataRevertMessage[nextMock] = \"\";\n\t\t\t// Set next mock to remove\n\t\t\tnextMock = calldataMocks[mockHash];\n\t\t\t// Remove from linked list\n\t\t\tcalldataMocks[mockHash] = \"\";\n\t\t\t// Update mock hash\n\t\t\tmockHash = keccak256(nextMock);\n\t\t}\n\t\t// Clear list\n\t\tcalldataMocks[MOCKS_LIST_START] = MOCKS_LIST_END;\n\n\t\t// Reset all any calldataMocks\n\t\tbytes4 nextAnyMock = methodIdMocks[SENTINEL_ANY_MOCKS];\n\t\twhile(nextAnyMock != SENTINEL_ANY_MOCKS) {\n\t\t\tbytes4 currentAnyMock = nextAnyMock;\n\t\t\tmethodIdMockTypes[currentAnyMock] = MockType.Return;\n\t\t\tmethodIdExpectations[currentAnyMock] = hex\"\";\n\t\t\tmethodIdRevertMessages[currentAnyMock] = \"\";\n\t\t\tnextAnyMock = methodIdMocks[currentAnyMock];\n\t\t\t// Remove from linked list\n\t\t\tmethodIdMocks[currentAnyMock] = 0x0;\n\t\t}\n\t\t// Clear list\n\t\tmethodIdMocks[SENTINEL_ANY_MOCKS] = SENTINEL_ANY_MOCKS;\n\n\t\tfallbackExpectation = \"\";\n\t\tfallbackMockType = MockType.Return;\n\t\tinvocations = 0;\n\t\tresetCount += 1;\n\t}\n\n\tfunction useAllGas() private {\n\t\twhile(true) {\n\t\t\tbool s;\n\t\t\tassembly {\n\t\t\t\t//expensive call to EC multiply contract\n\t\t\t\ts := call(sub(gas, 2000), 6, 0, 0x0, 0xc0, 0x0, 0x60)\n\t\t\t}\n\t\t}\n\t}\n\n\tfunction bytesToBytes4(bytes b) private pure returns (bytes4) {\n  \t\tbytes4 out;\n  \t\tfor (uint i = 0; i < 4; i++) {\n    \t\tout |= bytes4(b[i] & 0xFF) >> (i * 8);\n  \t\t}\n  \t\treturn out;\n\t}\n\n\tfunction addressToBytes(address a) private pure returns (bytes b){\n   \t\tassembly {\n        \tlet m := mload(0x40)\n        \tmstore(add(m, 20), xor(0x140000000000000000000000000000000000000000, a))\n        \tmstore(0x40, add(m, 52))\n        \tb := m\n   \t\t}\n\t}\n\n\tfunction uintToBytes(uint256 x) private pure returns (bytes b) {\n    \tb = new bytes(32);\n    \tassembly { mstore(add(b, 32), x) }\n\t}\n\n\tfunction() payable external {\n\t\tbytes4 methodId;\n\t\tassembly {\n\t\t\tmethodId := calldataload(0)\n\t\t}\n\n\t\t// First, check exact matching overrides\n\t\tif (calldataMockTypes[msg.data] == MockType.Revert) {\n\t\t\trevert(calldataRevertMessage[msg.data]);\n\t\t}\n\t\tif (calldataMockTypes[msg.data] == MockType.OutOfGas) {\n\t\t\tuseAllGas();\n\t\t}\n\t\tbytes memory result = calldataExpectations[msg.data];\n\n\t\t// Then check method Id overrides\n\t\tif (result.length == 0) {\n\t\t\tif (methodIdMockTypes[methodId] == MockType.Revert) {\n\t\t\t\trevert(methodIdRevertMessages[methodId]);\n\t\t\t}\n\t\t\tif (methodIdMockTypes[methodId] == MockType.OutOfGas) {\n\t\t\t\tuseAllGas();\n\t\t\t}\n\t\t\tresult = methodIdExpectations[methodId];\n\t\t}\n\n\t\t// Last, use the fallback override\n\t\tif (result.length == 0) {\n\t\t\tif (fallbackMockType == MockType.Revert) {\n\t\t\t\trevert(fallbackRevertMessage);\n\t\t\t}\n\t\t\tif (fallbackMockType == MockType.OutOfGas) {\n\t\t\t\tuseAllGas();\n\t\t\t}\n\t\t\tresult = fallbackExpectation;\n\t\t}\n\n\t\t// Record invocation\n\t\tinvocations += 1;\n\t\tmethodIdInvocations[keccak256(abi.encodePacked(resetCount, methodId))] += 1;\n\t\tcalldataInvocations[keccak256(abi.encodePacked(resetCount, msg.data))] += 1;\n\n\t\tassembly {\n\t\t\treturn(add(0x20, result), mload(result))\n\t\t}\n\t}\n}\n",
  "sourcePath": "@gnosis.pm/mock-contract/contracts/MockContract.sol",
  "compiler": {
    "name": "solc",
    "version": "0.4.24+commit.e67f0147.Emscripten.clang"
  },
  "schemaVersion": "2.0.0",
  "updatedAt": "2018-10-05T14:25:58.946Z"
}