{
  "contractName": "MultiSend",
  "abi": [
    {
      "constant": false,
      "inputs": [
        {
          "name": "transactions",
          "type": "bytes"
        }
      ],
      "name": "multiSend",
      "outputs": [],
      "payable": false,
      "stateMutability": "nonpayable",
      "type": "function"
    }
  ],
  "bytecode": "0x608060405234801561001057600080fd5b5061013a806100206000396000f300608060405260043610610041576000357c0100000000000000000000000000000000000000000000000000000000900463ffffffff1680638d80ff0a14610046575b600080fd5b34801561005257600080fd5b506100ad600480360381019080803590602001908201803590602001908080601f01602080910402602001604051908101604052809392919081815260200183838082843782019150505050505091929192905050506100af565b005b805160205b8181101561010957808301516020820184015160608301850151608084018601600080838386885af1600081146100ea576100ef565b600080fd5b50602080601f8401040260800185019450505050506100b4565b5050505600a165627a7a72305820d762b9a26edc788e8139b309555c37a91970e3acfe5f209dff1eaf14345bdbe60029",
  "source": "pragma solidity 0.4.24;\n\n\n/// @title Multi Send - Allows to batch multiple transactions into one.\n/// @author Nick Dodson - <nick.dodson@consensys.net>\n/// @author Gonçalo Sá - <goncalo.sa@consensys.net>\n/// @author Stefan George - <stefan@gnosis.pm>\ncontract MultiSend {\n\n    /// @dev Sends multiple transactions and reverts all if one fails.\n    /// @param transactions Encoded transactions. Each transaction is encoded as\n    ///                     a tuple(address,uint256,bytes). The bytes of all\n    ///                     encoded transactions are concatenated to form the input.\n    function multiSend(bytes transactions)\n        public\n    {\n        // solium-disable-next-line security/no-inline-assembly\n        assembly {\n            let length := mload(transactions)\n            let i := 0x20\n            for { } lt(i, length) { } {\n                let to := mload(add(transactions, i))\n                let value := mload(add(transactions, add(i, 0x20)))\n                let dataLength := mload(add(transactions, add(i, 0x60)))\n                let data := add(transactions, add(i, 0x80))\n                switch call(gas, to, value, data, dataLength, 0, 0)\n                case 0 { revert(0, 0) }\n                i := add(i, add(0x80, mul(div(add(dataLength, 0x1f), 0x20), 0x20)))\n            }\n        }\n    }\n}\n",
  "sourcePath": "/Users/apanizo/git/gnosis/safe-contracts/contracts/libraries/MultiSend.sol",
  "compiler": {
    "name": "solc",
    "version": "0.4.24+commit.e67f0147.Emscripten.clang"
  },
  "schemaVersion": "2.0.0",
  "updatedAt": "2018-05-28T13:58:28.823Z"
}