{
  "contractName": "MultiSendStruct",
  "abi": [
    {
      "constant": false,
      "inputs": [
        {
          "components": [
            {
              "name": "to",
              "type": "address"
            },
            {
              "name": "value",
              "type": "uint256"
            },
            {
              "name": "data",
              "type": "bytes"
            }
          ],
          "name": "transactions",
          "type": "tuple[]"
        }
      ],
      "name": "multiSend",
      "outputs": [],
      "payable": false,
      "stateMutability": "nonpayable",
      "type": "function"
    }
  ],
  "bytecode": "0x608060405234801561001057600080fd5b506103c6806100206000396000f300608060405260043610610041576000357c0100000000000000000000000000000000000000000000000000000000900463ffffffff1680632f6fda4a14610046575b600080fd5b34801561005257600080fd5b5061006d60048036036100689190810190610291565b61006f565b005b60006100796100ed565b600091505b82518210156100d057828281518110151561009557fe5b9060200190602002015190506100b88160000151826020015183604001516100d5565b15156100c357600080fd5b818060010192505061007e565b505050565b600080600083516020850186885af190509392505050565b606060405190810160405280600073ffffffffffffffffffffffffffffffffffffffff16815260200160008152602001606081525090565b60006101318235610353565b905092915050565b600082601f830112151561014c57600080fd5b813561015f61015a826102ff565b6102d2565b9150818183526020840193506020810190508360005b838110156101a5578135860161018b8882610205565b845260208401935060208301925050600181019050610175565b5050505092915050565b600082601f83011215156101c257600080fd5b81356101d56101d082610327565b6102d2565b915080825260208301602083018583830111156101f157600080fd5b6101fc83828461037d565b50505092915050565b60006060828403121561021757600080fd5b61022160606102d2565b9050600061023184828501610125565b60008301525060206102458482850161027d565b602083015250604082013567ffffffffffffffff81111561026557600080fd5b610271848285016101af565b60408301525092915050565b60006102898235610373565b905092915050565b6000602082840312156102a357600080fd5b600082013567ffffffffffffffff8111156102bd57600080fd5b6102c984828501610139565b91505092915050565b6000604051905081810181811067ffffffffffffffff821117156102f557600080fd5b8060405250919050565b600067ffffffffffffffff82111561031657600080fd5b602082029050602081019050919050565b600067ffffffffffffffff82111561033e57600080fd5b601f19601f8301169050602081019050919050565b600073ffffffffffffffffffffffffffffffffffffffff82169050919050565b6000819050919050565b828183376000838301525050505600a265627a7a7230582005384089695c7c77816220e122b3c45435a664207e3c979cd8b6653c05e379236c6578706572696d656e74616cf50037",
  "source": "pragma solidity ^0.4.23;\npragma experimental ABIEncoderV2;\n\n\n/// @title Multi Send - Allows to batch multiple transactions into one.\n/// @author Nick Dodson - <nick.dodson@consensys.net>\n/// @author Gonçalo Sá - <goncalo.sa@consensys.net>\n/// @author Stefan George - <stefan@gnosis.pm>\n/// @author Richard Meissner - <richard@gnosis.pm>\ncontract MultiSendStruct {\n\n    struct Transaction {\n        address to;\n        uint256 value;\n        bytes data;\n    }\n\n    /// @dev Sends multiple transactions and reverts all if one fails.\n    /// @param transactions Encoded transactions.\n    function multiSend(Transaction[] transactions)\n        public\n    {\n        for(uint256 i = 0; i < transactions.length; i++) {\n            Transaction memory transaction = transactions[i];\n            require(executeCall(transaction.to, transaction.value, transaction.data));\n        }\n    }\n\n    function executeCall(address to, uint256 value, bytes data)\n        internal\n        returns (bool success)\n    {\n        // solium-disable-next-line security/no-inline-assembly\n        assembly {\n            success := call(gas, to, value, add(data, 0x20), mload(data), 0, 0)\n        }\n    }\n}\n",
  "sourcePath": "/Users/apanizo/git/gnosis/safe-contracts/contracts/libraries/MultiSendStruct.sol",
  "compiler": {
    "name": "solc",
    "version": "0.4.23+commit.124ca40d.Emscripten.clang"
  },
  "schemaVersion": "2.0.0",
  "updatedAt": "2018-05-10T10:43:07.902Z"
}