{
  "contractName": "MultiSend",
  "abi": [
    {
      "constant": false,
      "inputs": [
        {
          "name": "transactions",
          "type": "bytes"
        }
      ],
      "name": "multiSend",
      "outputs": [],
      "payable": false,
      "stateMutability": "nonpayable",
      "type": "function"
    }
  ],
  "bytecode": "0x608060405234801561001057600080fd5b50610169806100206000396000f300608060405260043610610041576000357c0100000000000000000000000000000000000000000000000000000000900463ffffffff1680638d80ff0a14610046575b600080fd5b34801561005257600080fd5b506100ad600480360381019080803590602001908201803590602001908080601f01602080910402602001604051908101604052809392919081815260200183838082843782019150505050505091929192905050506100af565b005b805160205b81811015610138578083015160208201840151604083018501516080840186015160a085018701600085600081146100f357600181146101035761010e565b6000808585888a5af1915061010e565b6000808585895af491505b50600081141561011d57600080fd5b602080601f8501040260a001870196505050505050506100b4565b5050505600a165627a7a72305820c1abf4988401674d6d6a5ceca56de123817c61305360ceffe26ebab59a828b7d0029",
  "source": "pragma solidity 0.4.24;\n\n\n/// @title Multi Send - Allows to batch multiple transactions into one.\n/// @author Nick Dodson - <nick.dodson@consensys.net>\n/// @author Gonçalo Sá - <goncalo.sa@consensys.net>\n/// @author Stefan George - <stefan@gnosis.pm>\ncontract MultiSend {\n\n    /// @dev Sends multiple transactions and reverts all if one fails.\n    /// @param transactions Encoded transactions. Each transaction is encoded as a \n    ///                     tuple(operation,address,uint256,bytes), where operation \n    ///                     can be 0 for a call or 1 for a delegatecall. The bytes \n    ///                     of all encoded transactions are concatenated to form the input.\n    function multiSend(bytes transactions)\n        public\n    {\n        // solium-disable-next-line security/no-inline-assembly\n        assembly {\n            let length := mload(transactions)\n            let i := 0x20\n            for { } lt(i, length) { } {\n                let operation := mload(add(transactions, i))\n                let to := mload(add(transactions, add(i, 0x20)))\n                let value := mload(add(transactions, add(i, 0x40)))\n                let dataLength := mload(add(transactions, add(i, 0x80)))\n                let data := add(transactions, add(i, 0xa0))\n                let success := 0\n                switch operation \n                case 0 { success := call(gas, to, value, data, dataLength, 0, 0) }\n                case 1 { success := delegatecall(gas, to, data, dataLength, 0, 0) }\n                if eq(success, 0) { revert(0, 0) }\n                i := add(i, add(0xa0, mul(div(add(dataLength, 0x1f), 0x20), 0x20)))\n            }\n        }\n    }\n}\n",
  "sourcePath": "/Users/apanizo/git/gnosis/safe-contracts/contracts/libraries/MultiSend.sol",
  "compiler": {
    "name": "solc",
    "version": "0.4.24+commit.e67f0147.Emscripten.clang"
  },
  "schemaVersion": "2.0.0",
  "updatedAt": "2018-06-22T07:24:16.274Z"
}