{
  "contractName": "OwnerManager",
  "abi": [
    {
      "constant": true,
      "inputs": [
        {
          "name": "",
          "type": "uint256"
        }
      ],
      "name": "owners",
      "outputs": [
        {
          "name": "",
          "type": "address"
        }
      ],
      "payable": false,
      "stateMutability": "view",
      "type": "function"
    },
    {
      "constant": false,
      "inputs": [
        {
          "name": "owner",
          "type": "address"
        },
        {
          "name": "_threshold",
          "type": "uint8"
        }
      ],
      "name": "addOwner",
      "outputs": [],
      "payable": false,
      "stateMutability": "nonpayable",
      "type": "function"
    },
    {
      "constant": false,
      "inputs": [
        {
          "name": "ownerIndex",
          "type": "uint256"
        },
        {
          "name": "owner",
          "type": "address"
        },
        {
          "name": "_threshold",
          "type": "uint8"
        }
      ],
      "name": "removeOwner",
      "outputs": [],
      "payable": false,
      "stateMutability": "nonpayable",
      "type": "function"
    },
    {
      "constant": false,
      "inputs": [
        {
          "name": "oldOwnerIndex",
          "type": "uint256"
        },
        {
          "name": "oldOwner",
          "type": "address"
        },
        {
          "name": "newOwner",
          "type": "address"
        }
      ],
      "name": "replaceOwner",
      "outputs": [],
      "payable": false,
      "stateMutability": "nonpayable",
      "type": "function"
    },
    {
      "constant": false,
      "inputs": [
        {
          "name": "_threshold",
          "type": "uint8"
        }
      ],
      "name": "changeThreshold",
      "outputs": [],
      "payable": false,
      "stateMutability": "nonpayable",
      "type": "function"
    },
    {
      "constant": true,
      "inputs": [],
      "name": "threshold",
      "outputs": [
        {
          "name": "",
          "type": "uint8"
        }
      ],
      "payable": false,
      "stateMutability": "view",
      "type": "function"
    },
    {
      "constant": true,
      "inputs": [
        {
          "name": "owner",
          "type": "address"
        }
      ],
      "name": "isOwner",
      "outputs": [
        {
          "name": "",
          "type": "bool"
        }
      ],
      "payable": false,
      "stateMutability": "view",
      "type": "function"
    },
    {
      "constant": true,
      "inputs": [],
      "name": "getOwners",
      "outputs": [
        {
          "name": "",
          "type": "address[]"
        }
      ],
      "payable": false,
      "stateMutability": "view",
      "type": "function"
    }
  ],
  "bytecode": "0x608060405234801561001057600080fd5b50610b4e806100206000396000f30060806040526004361061008e576000357c0100000000000000000000000000000000000000000000000000000000900463ffffffff168063025e7c27146100935780630e5229b0146101005780632f54bf6e1461015057806342cde4e8146101ab57806354e99c6e146101dc578063842b954e14610249578063a0e67e2b146102a3578063b7f3358d1461030f575b600080fd5b34801561009f57600080fd5b506100be6004803603810190808035906020019092919050505061033f565b604051808273ffffffffffffffffffffffffffffffffffffffff1673ffffffffffffffffffffffffffffffffffffffff16815260200191505060405180910390f35b34801561010c57600080fd5b5061014e600480360381019080803573ffffffffffffffffffffffffffffffffffffffff169060200190929190803560ff16906020019092919050505061037d565b005b34801561015c57600080fd5b50610191600480360381019080803573ffffffffffffffffffffffffffffffffffffffff169060200190929190505050610520565b604051808215151515815260200191505060405180910390f35b3480156101b757600080fd5b506101c0610576565b604051808260ff1660ff16815260200191505060405180910390f35b3480156101e857600080fd5b5061024760048036038101908080359060200190929190803573ffffffffffffffffffffffffffffffffffffffff169060200190929190803573ffffffffffffffffffffffffffffffffffffffff16906020019092919050505061058d565b005b34801561025557600080fd5b506102a160048036038101908080359060200190929190803573ffffffffffffffffffffffffffffffffffffffff169060200190929190803560ff1690602001909291905050506107c6565b005b3480156102af57600080fd5b506102b86109c1565b6040518080602001828103825283818151815260200191508051906020019060200280838360005b838110156102fb5780820151818401526020810190506102e0565b505050509050019250505060405180910390f35b34801561031b57600080fd5b5061033d600480360381019080803560ff169060200190929190505050610a4f565b005b60008181548110151561034e57fe5b906000526020600020016000915054906101000a900473ffffffffffffffffffffffffffffffffffffffff1681565b3073ffffffffffffffffffffffffffffffffffffffff163373ffffffffffffffffffffffffffffffffffffffff161415156103b757600080fd5b60008273ffffffffffffffffffffffffffffffffffffffff16141515156103dd57600080fd5b600260008373ffffffffffffffffffffffffffffffffffffffff1673ffffffffffffffffffffffffffffffffffffffff16815260200190815260200160002060009054906101000a900460ff1615151561043657600080fd5b60008290806001815401808255809150509060018203906000526020600020016000909192909190916101000a81548173ffffffffffffffffffffffffffffffffffffffff021916908373ffffffffffffffffffffffffffffffffffffffff160217905550506001600260008473ffffffffffffffffffffffffffffffffffffffff1673ffffffffffffffffffffffffffffffffffffffff16815260200190815260200160002060006101000a81548160ff0219169083151502179055508060ff16600160009054906101000a900460ff1660ff1614151561051c5761051b81610a4f565b5b5050565b6000600260008373ffffffffffffffffffffffffffffffffffffffff1673ffffffffffffffffffffffffffffffffffffffff16815260200190815260200160002060009054906101000a900460ff169050919050565b6000600160009054906101000a900460ff16905090565b3073ffffffffffffffffffffffffffffffffffffffff163373ffffffffffffffffffffffffffffffffffffffff161415156105c757600080fd5b60008173ffffffffffffffffffffffffffffffffffffffff16141515156105ed57600080fd5b600260008273ffffffffffffffffffffffffffffffffffffffff1673ffffffffffffffffffffffffffffffffffffffff16815260200190815260200160002060009054906101000a900460ff1615151561064657600080fd5b8173ffffffffffffffffffffffffffffffffffffffff1660008481548110151561066c57fe5b9060005260206000200160009054906101000a900473ffffffffffffffffffffffffffffffffffffffff1673ffffffffffffffffffffffffffffffffffffffff161415156106b957600080fd5b6000600260008473ffffffffffffffffffffffffffffffffffffffff1673ffffffffffffffffffffffffffffffffffffffff16815260200190815260200160002060006101000a81548160ff0219169083151502179055506001600260008373ffffffffffffffffffffffffffffffffffffffff1673ffffffffffffffffffffffffffffffffffffffff16815260200190815260200160002060006101000a81548160ff0219169083151502179055508060008481548110151561077957fe5b9060005260206000200160006101000a81548173ffffffffffffffffffffffffffffffffffffffff021916908373ffffffffffffffffffffffffffffffffffffffff160217905550505050565b3073ffffffffffffffffffffffffffffffffffffffff163373ffffffffffffffffffffffffffffffffffffffff1614151561080057600080fd5b8060ff166001600080549050031015151561081a57600080fd5b8173ffffffffffffffffffffffffffffffffffffffff1660008481548110151561084057fe5b9060005260206000200160009054906101000a900473ffffffffffffffffffffffffffffffffffffffff1673ffffffffffffffffffffffffffffffffffffffff1614151561088d57600080fd5b6000600260008473ffffffffffffffffffffffffffffffffffffffff1673ffffffffffffffffffffffffffffffffffffffff16815260200190815260200160002060006101000a81548160ff02191690831515021790555060006001600080549050038154811015156108fc57fe5b9060005260206000200160009054906101000a900473ffffffffffffffffffffffffffffffffffffffff1660008481548110151561093657fe5b9060005260206000200160006101000a81548173ffffffffffffffffffffffffffffffffffffffff021916908373ffffffffffffffffffffffffffffffffffffffff16021790555060008054809190600190036109939190610ad1565b508060ff16600160009054906101000a900460ff1660ff161415156109bc576109bb81610a4f565b5b505050565b60606000805480602002602001604051908101604052809291908181526020018280548015610a4557602002820191906000526020600020905b8160009054906101000a900473ffffffffffffffffffffffffffffffffffffffff1673ffffffffffffffffffffffffffffffffffffffff16815260200190600101908083116109fb575b5050505050905090565b3073ffffffffffffffffffffffffffffffffffffffff163373ffffffffffffffffffffffffffffffffffffffff16141515610a8957600080fd5b6000805490508160ff1611151515610aa057600080fd5b60018160ff1610151515610ab357600080fd5b80600160006101000a81548160ff021916908360ff16021790555050565b815481835581811115610af857818360005260206000209182019101610af79190610afd565b5b505050565b610b1f91905b80821115610b1b576000816000905550600101610b03565b5090565b905600a165627a7a72305820e78155e74b906f83eb64e436f45d07ae88b2195944595ca816ddbec6abb1ecb90029",
  "source": "pragma solidity 0.4.23;\nimport \"./SelfAuthorized.sol\";\n\n/// @title OwnerManager - Manages a set of owners and a threshold to perform actions.\n/// @author Stefan George - <stefan@gnosis.pm>\n/// @author Richard Meissner - <richard@gnosis.pm>\ncontract OwnerManager is SelfAuthorized {\n\n    address[] public owners;\n    uint8 public threshold;\n\n    // isOwner mapping allows to check if an address is a Safe owner.\n    mapping (address => bool) public isOwner;\n\n    /// @dev Setup function sets initial storage of contract.\n    /// @param _owners List of Safe owners.\n    /// @param _threshold Number of required confirmations for a Safe transaction.\n    function setupOwners(address[] _owners, uint8 _threshold)\n        internal\n    {\n        // Threshold can only be 0 at initialization.\n        // Check ensures that setup function can only be called once.\n        require(threshold == 0);\n        // Validate that threshold is smaller than number of added owners.\n        require(_threshold <= _owners.length);\n        // There has to be at least one Safe owner.\n        require(_threshold >= 1);\n        // Initializing Safe owners.\n        for (uint256 i = 0; i < _owners.length; i++) {\n            // Owner address cannot be null.\n            address owner = _owners[i];\n            require(owner != 0);\n            // No duplicate owners allowed.\n            require(!isOwner[owner]);\n            isOwner[owner] = true;\n        }\n        owners = _owners;\n        threshold = _threshold;\n    }\n\n    /// @dev Allows to add a new owner to the Safe and update the threshold at the same time.\n    ///      This can only be done via a Safe transaction.\n    /// @param owner New owner address.\n    /// @param _threshold New threshold.\n    function addOwner(address owner, uint8 _threshold)\n        public\n        authorized\n    {\n        // Owner address cannot be null.\n        require(owner != 0);\n        // No duplicate owners allowed.\n        require(!isOwner[owner]);\n        owners.push(owner);\n        isOwner[owner] = true;\n        // Change threshold if threshold was changed.\n        if (threshold != _threshold)\n            changeThreshold(_threshold);\n    }\n\n    /// @dev Allows to remove an owner from the Safe and update the threshold at the same time.\n    ///      This can only be done via a Safe transaction.\n    /// @param ownerIndex Array index position of owner address to be removed.\n    /// @param owner Owner address to be removed.\n    /// @param _threshold New threshold.\n    function removeOwner(uint256 ownerIndex, address owner, uint8 _threshold)\n        public\n        authorized\n    {\n        // Only allow to remove an owner, if threshold can still be reached.\n        require(owners.length - 1 >= _threshold);\n        // Validate owner address corresponds to owner index.\n        require(owners[ownerIndex] == owner);\n        isOwner[owner] = false;\n        owners[ownerIndex] = owners[owners.length - 1];\n        owners.length--;\n        // Change threshold if threshold was changed.\n        if (threshold != _threshold)\n            changeThreshold(_threshold);\n    }\n\n    /// @dev Allows to replace an owner from the Safe with another address.\n    ///      This can only be done via a Safe transaction.\n    /// @param oldOwnerIndex Array index position of owner address to be replaced.\n    /// @param oldOwner Owner address to be replaced.\n    /// @param newOwner New owner address.\n    function replaceOwner(uint256 oldOwnerIndex, address oldOwner, address newOwner)\n        public\n        authorized\n    {\n        // Owner address cannot be null.\n        require(newOwner != 0);\n        // No duplicate owners allowed.\n        require(!isOwner[newOwner]);\n        // Validate owner address corresponds to owner index.\n        require(owners[oldOwnerIndex] == oldOwner);\n        isOwner[oldOwner] = false;\n        isOwner[newOwner] = true;\n        owners[oldOwnerIndex] = newOwner;\n    }\n\n    /// @dev Allows to update the number of required confirmations by Safe owners.\n    ///      This can only be done via a Safe transaction.\n    /// @param _threshold New threshold.\n    function changeThreshold(uint8 _threshold)\n        public\n        authorized\n    {\n        // Validate that threshold is smaller than number of owners.\n        require(_threshold <= owners.length);\n        // There has to be at least one Safe owner.\n        require(_threshold >= 1);\n        threshold = _threshold;\n    }\n\n    function threshold()\n        public\n        view\n        returns (uint8)\n    {\n        return threshold;\n    }\n\n    function isOwner(address owner)\n        public\n        view\n        returns (bool)\n    {\n        return isOwner[owner];\n    }\n\n    /// @dev Returns array of owners.\n    /// @return Array of Safe owners.\n    function getOwners()\n        public\n        view\n        returns (address[])\n    {\n        return owners;\n    }\n}\n",
  "sourcePath": "/Users/apanizo/git/gnosis/safe-contracts/contracts/OwnerManager.sol",
  "compiler": {
    "name": "solc",
    "version": "0.4.23+commit.124ca40d.Emscripten.clang"
  },
  "schemaVersion": "2.0.0",
  "updatedAt": "2018-05-10T10:43:07.899Z"
}