{
  "contractName": "OwnerManager",
  "abi": [
    {
      "constant": true,
      "inputs": [],
      "name": "SENTINEL_OWNERS",
      "outputs": [
        {
          "name": "",
          "type": "address"
        }
      ],
      "payable": false,
      "stateMutability": "view",
      "type": "function"
    },
    {
      "anonymous": false,
      "inputs": [
        {
          "indexed": false,
          "name": "owner",
          "type": "address"
        }
      ],
      "name": "AddedOwner",
      "type": "event"
    },
    {
      "anonymous": false,
      "inputs": [
        {
          "indexed": false,
          "name": "owner",
          "type": "address"
        }
      ],
      "name": "RemovedOwner",
      "type": "event"
    },
    {
      "anonymous": false,
      "inputs": [
        {
          "indexed": false,
          "name": "threshold",
          "type": "uint256"
        }
      ],
      "name": "ChangedThreshold",
      "type": "event"
    },
    {
      "constant": false,
      "inputs": [
        {
          "name": "owner",
          "type": "address"
        },
        {
          "name": "_threshold",
          "type": "uint256"
        }
      ],
      "name": "addOwnerWithThreshold",
      "outputs": [],
      "payable": false,
      "stateMutability": "nonpayable",
      "type": "function"
    },
    {
      "constant": false,
      "inputs": [
        {
          "name": "prevOwner",
          "type": "address"
        },
        {
          "name": "owner",
          "type": "address"
        },
        {
          "name": "_threshold",
          "type": "uint256"
        }
      ],
      "name": "removeOwner",
      "outputs": [],
      "payable": false,
      "stateMutability": "nonpayable",
      "type": "function"
    },
    {
      "constant": false,
      "inputs": [
        {
          "name": "prevOwner",
          "type": "address"
        },
        {
          "name": "oldOwner",
          "type": "address"
        },
        {
          "name": "newOwner",
          "type": "address"
        }
      ],
      "name": "swapOwner",
      "outputs": [],
      "payable": false,
      "stateMutability": "nonpayable",
      "type": "function"
    },
    {
      "constant": false,
      "inputs": [
        {
          "name": "_threshold",
          "type": "uint256"
        }
      ],
      "name": "changeThreshold",
      "outputs": [],
      "payable": false,
      "stateMutability": "nonpayable",
      "type": "function"
    },
    {
      "constant": true,
      "inputs": [],
      "name": "getThreshold",
      "outputs": [
        {
          "name": "",
          "type": "uint256"
        }
      ],
      "payable": false,
      "stateMutability": "view",
      "type": "function"
    },
    {
      "constant": true,
      "inputs": [
        {
          "name": "owner",
          "type": "address"
        }
      ],
      "name": "isOwner",
      "outputs": [
        {
          "name": "",
          "type": "bool"
        }
      ],
      "payable": false,
      "stateMutability": "view",
      "type": "function"
    },
    {
      "constant": true,
      "inputs": [],
      "name": "getOwners",
      "outputs": [
        {
          "name": "",
          "type": "address[]"
        }
      ],
      "payable": false,
      "stateMutability": "view",
      "type": "function"
    }
  ],
  "bytecode": "0x608060405234801561001057600080fd5b5061189b806100206000396000f30060806040526004361061008e576000357c0100000000000000000000000000000000000000000000000000000000900463ffffffff1680630d582f13146100935780632f54bf6e146100e0578063694e80c31461013b5780638cff635514610168578063a0e67e2b146101bf578063e318b52b1461022b578063e75235b8146102ae578063f8dc5dd9146102d9575b600080fd5b34801561009f57600080fd5b506100de600480360381019080803573ffffffffffffffffffffffffffffffffffffffff16906020019092919080359060200190929190505050610346565b005b3480156100ec57600080fd5b50610121600480360381019080803573ffffffffffffffffffffffffffffffffffffffff1690602001909291905050506107ab565b604051808215151515815260200191505060405180910390f35b34801561014757600080fd5b506101666004803603810190808035906020019092919050505061082c565b005b34801561017457600080fd5b5061017d610a77565b604051808273ffffffffffffffffffffffffffffffffffffffff1673ffffffffffffffffffffffffffffffffffffffff16815260200191505060405180910390f35b3480156101cb57600080fd5b506101d4610a7c565b6040518080602001828103825283818151815260200191508051906020019060200280838360005b838110156102175780820151818401526020810190506101fc565b505050509050019250505060405180910390f35b34801561023757600080fd5b506102ac600480360381019080803573ffffffffffffffffffffffffffffffffffffffff169060200190929190803573ffffffffffffffffffffffffffffffffffffffff169060200190929190803573ffffffffffffffffffffffffffffffffffffffff169060200190929190505050610c15565b005b3480156102ba57600080fd5b506102c3611322565b6040518082815260200191505060405180910390f35b3480156102e557600080fd5b50610344600480360381019080803573ffffffffffffffffffffffffffffffffffffffff169060200190929190803573ffffffffffffffffffffffffffffffffffffffff1690602001909291908035906020019092919050505061132c565b005b3073ffffffffffffffffffffffffffffffffffffffff163373ffffffffffffffffffffffffffffffffffffffff1614151561040f576040517f08c379a000000000000000000000000000000000000000000000000000000000815260040180806020018281038252602c8152602001807f4d6574686f642063616e206f6e6c792062652063616c6c65642066726f6d207481526020017f68697320636f6e7472616374000000000000000000000000000000000000000081525060400191505060405180910390fd5b60008273ffffffffffffffffffffffffffffffffffffffff16141580156104635750600173ffffffffffffffffffffffffffffffffffffffff168273ffffffffffffffffffffffffffffffffffffffff1614155b15156104d7576040517f08c379a000000000000000000000000000000000000000000000000000000000815260040180806020018281038252601e8152602001807f496e76616c6964206f776e657220616464726573732070726f7669646564000081525060200191505060405180910390fd5b60008060008473ffffffffffffffffffffffffffffffffffffffff1673ffffffffffffffffffffffffffffffffffffffff16815260200190815260200160002060009054906101000a900473ffffffffffffffffffffffffffffffffffffffff1673ffffffffffffffffffffffffffffffffffffffff161415156105c3576040517f08c379a000000000000000000000000000000000000000000000000000000000815260040180806020018281038252601b8152602001807f4164647265737320697320616c726561647920616e206f776e6572000000000081525060200191505060405180910390fd5b600080600173ffffffffffffffffffffffffffffffffffffffff1673ffffffffffffffffffffffffffffffffffffffff16815260200190815260200160002060009054906101000a900473ffffffffffffffffffffffffffffffffffffffff166000808473ffffffffffffffffffffffffffffffffffffffff1673ffffffffffffffffffffffffffffffffffffffff16815260200190815260200160002060006101000a81548173ffffffffffffffffffffffffffffffffffffffff021916908373ffffffffffffffffffffffffffffffffffffffff16021790555081600080600173ffffffffffffffffffffffffffffffffffffffff1673ffffffffffffffffffffffffffffffffffffffff16815260200190815260200160002060006101000a81548173ffffffffffffffffffffffffffffffffffffffff021916908373ffffffffffffffffffffffffffffffffffffffff1602179055506001600081548092919060010191905055507f9465fa0c962cc76958e6373a993326400c1c94f8be2fe3a952adfa7f60b2ea2682604051808273ffffffffffffffffffffffffffffffffffffffff1673ffffffffffffffffffffffffffffffffffffffff16815260200191505060405180910390a1806002541415156107a7576107a68161082c565b5b5050565b6000806000808473ffffffffffffffffffffffffffffffffffffffff1673ffffffffffffffffffffffffffffffffffffffff16815260200190815260200160002060009054906101000a900473ffffffffffffffffffffffffffffffffffffffff1673ffffffffffffffffffffffffffffffffffffffff1614159050919050565b3073ffffffffffffffffffffffffffffffffffffffff163373ffffffffffffffffffffffffffffffffffffffff161415156108f5576040517f08c379a000000000000000000000000000000000000000000000000000000000815260040180806020018281038252602c8152602001807f4d6574686f642063616e206f6e6c792062652063616c6c65642066726f6d207481526020017f68697320636f6e7472616374000000000000000000000000000000000000000081525060400191505060405180910390fd5b6001548111151515610995576040517f08c379a00000000000000000000000000000000000000000000000000000000081526004018080602001828103825260238152602001807f5468726573686f6c642063616e6e6f7420657863656564206f776e657220636f81526020017f756e74000000000000000000000000000000000000000000000000000000000081525060400191505060405180910390fd5b60018110151515610a34576040517f08c379a00000000000000000000000000000000000000000000000000000000081526004018080602001828103825260248152602001807f5468726573686f6c64206e6565647320746f206265206772656174657220746881526020017f616e20300000000000000000000000000000000000000000000000000000000081525060400191505060405180910390fd5b806002819055507f610f7ff2b304ae8903c3de74c60c6ab1f7d6226b3f52c5161905bb5ad4039c936002546040518082815260200191505060405180910390a150565b600181565b606080600080600154604051908082528060200260200182016040528015610ab35781602001602082028038833980820191505090505b50925060009150600080600173ffffffffffffffffffffffffffffffffffffffff1673ffffffffffffffffffffffffffffffffffffffff16815260200190815260200160002060009054906101000a900473ffffffffffffffffffffffffffffffffffffffff1690505b600173ffffffffffffffffffffffffffffffffffffffff168173ffffffffffffffffffffffffffffffffffffffff16141515610c0c57808383815181101515610b6257fe5b9060200190602002019073ffffffffffffffffffffffffffffffffffffffff16908173ffffffffffffffffffffffffffffffffffffffff16815250506000808273ffffffffffffffffffffffffffffffffffffffff1673ffffffffffffffffffffffffffffffffffffffff16815260200190815260200160002060009054906101000a900473ffffffffffffffffffffffffffffffffffffffff1690508180600101925050610b1d565b82935050505090565b3073ffffffffffffffffffffffffffffffffffffffff163373ffffffffffffffffffffffffffffffffffffffff16141515610cde576040517f08c379a000000000000000000000000000000000000000000000000000000000815260040180806020018281038252602c8152602001807f4d6574686f642063616e206f6e6c792062652063616c6c65642066726f6d207481526020017f68697320636f6e7472616374000000000000000000000000000000000000000081525060400191505060405180910390fd5b60008173ffffffffffffffffffffffffffffffffffffffff1614158015610d325750600173ffffffffffffffffffffffffffffffffffffffff168173ffffffffffffffffffffffffffffffffffffffff1614155b1515610da6576040517f08c379a000000000000000000000000000000000000000000000000000000000815260040180806020018281038252601e8152602001807f496e76616c6964206f776e657220616464726573732070726f7669646564000081525060200191505060405180910390fd5b60008060008373ffffffffffffffffffffffffffffffffffffffff1673ffffffffffffffffffffffffffffffffffffffff16815260200190815260200160002060009054906101000a900473ffffffffffffffffffffffffffffffffffffffff1673ffffffffffffffffffffffffffffffffffffffff16141515610e92576040517f08c379a000000000000000000000000000000000000000000000000000000000815260040180806020018281038252601b8152602001807f4164647265737320697320616c726561647920616e206f776e6572000000000081525060200191505060405180910390fd5b60008273ffffffffffffffffffffffffffffffffffffffff1614158015610ee65750600173ffffffffffffffffffffffffffffffffffffffff168273ffffffffffffffffffffffffffffffffffffffff1614155b1515610f5a576040517f08c379a000000000000000000000000000000000000000000000000000000000815260040180806020018281038252601e8152602001807f496e76616c6964206f776e657220616464726573732070726f7669646564000081525060200191505060405180910390fd5b8173ffffffffffffffffffffffffffffffffffffffff166000808573ffffffffffffffffffffffffffffffffffffffff1673ffffffffffffffffffffffffffffffffffffffff16815260200190815260200160002060009054906101000a900473ffffffffffffffffffffffffffffffffffffffff1673ffffffffffffffffffffffffffffffffffffffff16141515611081576040517f08c379a00000000000000000000000000000000000000000000000000000000081526004018080602001828103825260268152602001807f496e76616c696420707265764f776e65722c206f776e6572207061697220707281526020017f6f7669646564000000000000000000000000000000000000000000000000000081525060400191505060405180910390fd5b6000808373ffffffffffffffffffffffffffffffffffffffff1673ffffffffffffffffffffffffffffffffffffffff16815260200190815260200160002060009054906101000a900473ffffffffffffffffffffffffffffffffffffffff166000808373ffffffffffffffffffffffffffffffffffffffff1673ffffffffffffffffffffffffffffffffffffffff16815260200190815260200160002060006101000a81548173ffffffffffffffffffffffffffffffffffffffff021916908373ffffffffffffffffffffffffffffffffffffffff160217905550806000808573ffffffffffffffffffffffffffffffffffffffff1673ffffffffffffffffffffffffffffffffffffffff16815260200190815260200160002060006101000a81548173ffffffffffffffffffffffffffffffffffffffff021916908373ffffffffffffffffffffffffffffffffffffffff16021790555060008060008473ffffffffffffffffffffffffffffffffffffffff1673ffffffffffffffffffffffffffffffffffffffff16815260200190815260200160002060006101000a81548173ffffffffffffffffffffffffffffffffffffffff021916908373ffffffffffffffffffffffffffffffffffffffff1602179055507ff8d49fc529812e9a7c5c50e69c20f0dccc0db8fa95c98bc58cc9a4f1c1299eaf82604051808273ffffffffffffffffffffffffffffffffffffffff1673ffffffffffffffffffffffffffffffffffffffff16815260200191505060405180910390a17f9465fa0c962cc76958e6373a993326400c1c94f8be2fe3a952adfa7f60b2ea2681604051808273ffffffffffffffffffffffffffffffffffffffff1673ffffffffffffffffffffffffffffffffffffffff16815260200191505060405180910390a1505050565b6000600254905090565b3073ffffffffffffffffffffffffffffffffffffffff163373ffffffffffffffffffffffffffffffffffffffff161415156113f5576040517f08c379a000000000000000000000000000000000000000000000000000000000815260040180806020018281038252602c8152602001807f4d6574686f642063616e206f6e6c792062652063616c6c65642066726f6d207481526020017f68697320636f6e7472616374000000000000000000000000000000000000000081525060400191505060405180910390fd5b80600180540310151515611497576040517f08c379a00000000000000000000000000000000000000000000000000000000081526004018080602001828103825260358152602001807f4e6577206f776e657220636f756e74206e6565647320746f206265206c61726781526020017f6572207468616e206e6577207468726573686f6c64000000000000000000000081525060400191505060405180910390fd5b60008273ffffffffffffffffffffffffffffffffffffffff16141580156114eb5750600173ffffffffffffffffffffffffffffffffffffffff168273ffffffffffffffffffffffffffffffffffffffff1614155b151561155f576040517f08c379a000000000000000000000000000000000000000000000000000000000815260040180806020018281038252601e8152602001807f496e76616c6964206f776e657220616464726573732070726f7669646564000081525060200191505060405180910390fd5b8173ffffffffffffffffffffffffffffffffffffffff166000808573ffffffffffffffffffffffffffffffffffffffff1673ffffffffffffffffffffffffffffffffffffffff16815260200190815260200160002060009054906101000a900473ffffffffffffffffffffffffffffffffffffffff1673ffffffffffffffffffffffffffffffffffffffff16141515611686576040517f08c379a00000000000000000000000000000000000000000000000000000000081526004018080602001828103825260268152602001807f496e76616c696420707265764f776e65722c206f776e6572207061697220707281526020017f6f7669646564000000000000000000000000000000000000000000000000000081525060400191505060405180910390fd5b6000808373ffffffffffffffffffffffffffffffffffffffff1673ffffffffffffffffffffffffffffffffffffffff16815260200190815260200160002060009054906101000a900473ffffffffffffffffffffffffffffffffffffffff166000808573ffffffffffffffffffffffffffffffffffffffff1673ffffffffffffffffffffffffffffffffffffffff16815260200190815260200160002060006101000a81548173ffffffffffffffffffffffffffffffffffffffff021916908373ffffffffffffffffffffffffffffffffffffffff16021790555060008060008473ffffffffffffffffffffffffffffffffffffffff1673ffffffffffffffffffffffffffffffffffffffff16815260200190815260200160002060006101000a81548173ffffffffffffffffffffffffffffffffffffffff021916908373ffffffffffffffffffffffffffffffffffffffff160217905550600160008154809291906001900391905055507ff8d49fc529812e9a7c5c50e69c20f0dccc0db8fa95c98bc58cc9a4f1c1299eaf82604051808273ffffffffffffffffffffffffffffffffffffffff1673ffffffffffffffffffffffffffffffffffffffff16815260200191505060405180910390a18060025414151561186a576118698161082c565b5b5050505600a165627a7a7230582056666623352a47e52d4cc29303aac8f94641a1fd47d42f3cb2f598ede93ce0b00029",
  "source": "pragma solidity 0.4.24;\nimport \"../common/SelfAuthorized.sol\";\n\n/// @title OwnerManager - Manages a set of owners and a threshold to perform actions.\n/// @author Stefan George - <stefan@gnosis.pm>\n/// @author Richard Meissner - <richard@gnosis.pm>\ncontract OwnerManager is SelfAuthorized {\n\n    event AddedOwner(address owner);\n    event RemovedOwner(address owner);\n    event ChangedThreshold(uint256 threshold);\n\n    address public constant SENTINEL_OWNERS = address(0x1);\n\n    mapping(address => address) internal owners;\n    uint256 ownerCount;\n    uint256 internal threshold;\n\n    /// @dev Setup function sets initial storage of contract.\n    /// @param _owners List of Safe owners.\n    /// @param _threshold Number of required confirmations for a Safe transaction.\n    function setupOwners(address[] _owners, uint256 _threshold)\n        internal\n    {\n        // Threshold can only be 0 at initialization.\n        // Check ensures that setup function can only be called once.\n        require(threshold == 0, \"Owners have already been setup\");\n        // Validate that threshold is smaller than number of added owners.\n        require(_threshold <= _owners.length, \"Threshold cannot exceed owner count\");\n        // There has to be at least one Safe owner.\n        require(_threshold >= 1, \"Threshold needs to be greater than 0\");\n        // Initializing Safe owners.\n        address currentOwner = SENTINEL_OWNERS;\n        for (uint256 i = 0; i < _owners.length; i++) {\n            // Owner address cannot be null.\n            address owner = _owners[i];\n            require(owner != 0 && owner != SENTINEL_OWNERS, \"Invalid owner address provided\");\n            // No duplicate owners allowed.\n            require(owners[owner] == 0, \"Duplicate owner address provided\");\n            owners[currentOwner] = owner;\n            currentOwner = owner;\n        }\n        owners[currentOwner] = SENTINEL_OWNERS;\n        ownerCount = _owners.length;\n        threshold = _threshold;\n    }\n\n    /// @dev Allows to add a new owner to the Safe and update the threshold at the same time.\n    ///      This can only be done via a Safe transaction.\n    /// @param owner New owner address.\n    /// @param _threshold New threshold.\n    function addOwnerWithThreshold(address owner, uint256 _threshold)\n        public\n        authorized\n    {\n        // Owner address cannot be null.\n        require(owner != 0 && owner != SENTINEL_OWNERS, \"Invalid owner address provided\");\n        // No duplicate owners allowed.\n        require(owners[owner] == 0, \"Address is already an owner\");\n        owners[owner] = owners[SENTINEL_OWNERS];\n        owners[SENTINEL_OWNERS] = owner;\n        ownerCount++;\n        emit AddedOwner(owner);\n        // Change threshold if threshold was changed.\n        if (threshold != _threshold)\n            changeThreshold(_threshold);\n    }\n\n    /// @dev Allows to remove an owner from the Safe and update the threshold at the same time.\n    ///      This can only be done via a Safe transaction.\n    /// @param prevOwner Owner that pointed to the owner to be removed in the linked list\n    /// @param owner Owner address to be removed.\n    /// @param _threshold New threshold.\n    function removeOwner(address prevOwner, address owner, uint256 _threshold)\n        public\n        authorized\n    {\n        // Only allow to remove an owner, if threshold can still be reached.\n        require(ownerCount - 1 >= _threshold, \"New owner count needs to be larger than new threshold\");\n        // Validate owner address and check that it corresponds to owner index.\n        require(owner != 0 && owner != SENTINEL_OWNERS, \"Invalid owner address provided\");\n        require(owners[prevOwner] == owner, \"Invalid prevOwner, owner pair provided\");\n        owners[prevOwner] = owners[owner];\n        owners[owner] = 0;\n        ownerCount--;\n        emit RemovedOwner(owner);\n        // Change threshold if threshold was changed.\n        if (threshold != _threshold)\n            changeThreshold(_threshold);\n    }\n\n    /// @dev Allows to swap/replace an owner from the Safe with another address.\n    ///      This can only be done via a Safe transaction.\n    /// @param prevOwner Owner that pointed to the owner to be replaced in the linked list\n    /// @param oldOwner Owner address to be replaced.\n    /// @param newOwner New owner address.\n    function swapOwner(address prevOwner, address oldOwner, address newOwner)\n        public\n        authorized\n    {\n        // Owner address cannot be null.\n        require(newOwner != 0 && newOwner != SENTINEL_OWNERS, \"Invalid owner address provided\");\n        // No duplicate owners allowed.\n        require(owners[newOwner] == 0, \"Address is already an owner\");\n        // Validate oldOwner address and check that it corresponds to owner index.\n        require(oldOwner != 0 && oldOwner != SENTINEL_OWNERS, \"Invalid owner address provided\");\n        require(owners[prevOwner] == oldOwner, \"Invalid prevOwner, owner pair provided\");\n        owners[newOwner] = owners[oldOwner];\n        owners[prevOwner] = newOwner;\n        owners[oldOwner] = 0;\n        emit RemovedOwner(oldOwner);\n        emit AddedOwner(newOwner);\n    }\n\n    /// @dev Allows to update the number of required confirmations by Safe owners.\n    ///      This can only be done via a Safe transaction.\n    /// @param _threshold New threshold.\n    function changeThreshold(uint256 _threshold)\n        public\n        authorized\n    {\n        // Validate that threshold is smaller than number of owners.\n        require(_threshold <= ownerCount, \"Threshold cannot exceed owner count\");\n        // There has to be at least one Safe owner.\n        require(_threshold >= 1, \"Threshold needs to be greater than 0\");\n        threshold = _threshold;\n        emit ChangedThreshold(threshold);\n    }\n\n    function getThreshold()\n        public\n        view\n        returns (uint256)\n    {\n        return threshold;\n    }\n\n    function isOwner(address owner)\n        public\n        view\n        returns (bool)\n    {\n        return owners[owner] != 0;\n    }\n\n    /// @dev Returns array of owners.\n    /// @return Array of Safe owners.\n    function getOwners()\n        public\n        view\n        returns (address[])\n    {\n        address[] memory array = new address[](ownerCount);\n\n        // populate return array\n        uint256 index = 0;\n        address currentOwner = owners[SENTINEL_OWNERS];\n        while(currentOwner != SENTINEL_OWNERS) {\n            array[index] = currentOwner;\n            currentOwner = owners[currentOwner];\n            index ++;\n        }\n        return array;\n    }\n}\n",
  "sourcePath": "/Users/apanizo/git/gnosis/safe-contracts/contracts/base/OwnerManager.sol",
  "compiler": {
    "name": "solc",
    "version": "0.4.24+commit.e67f0147.Emscripten.clang"
  },
  "schemaVersion": "2.0.0",
  "updatedAt": "2018-10-05T14:25:58.918Z"
}