{
  "contractName": "OwnerManager",
  "abi": [
    {
      "constant": true,
      "inputs": [],
      "name": "SENTINEL_OWNERS",
      "outputs": [
        {
          "name": "",
          "type": "address"
        }
      ],
      "payable": false,
      "stateMutability": "view",
      "type": "function"
    },
    {
      "constant": false,
      "inputs": [
        {
          "name": "owner",
          "type": "address"
        },
        {
          "name": "_threshold",
          "type": "uint8"
        }
      ],
      "name": "addOwnerWithThreshold",
      "outputs": [],
      "payable": false,
      "stateMutability": "nonpayable",
      "type": "function"
    },
    {
      "constant": false,
      "inputs": [
        {
          "name": "prevOwner",
          "type": "address"
        },
        {
          "name": "owner",
          "type": "address"
        },
        {
          "name": "_threshold",
          "type": "uint8"
        }
      ],
      "name": "removeOwner",
      "outputs": [],
      "payable": false,
      "stateMutability": "nonpayable",
      "type": "function"
    },
    {
      "constant": false,
      "inputs": [
        {
          "name": "prevOwner",
          "type": "address"
        },
        {
          "name": "oldOwner",
          "type": "address"
        },
        {
          "name": "newOwner",
          "type": "address"
        }
      ],
      "name": "swapOwner",
      "outputs": [],
      "payable": false,
      "stateMutability": "nonpayable",
      "type": "function"
    },
    {
      "constant": false,
      "inputs": [
        {
          "name": "_threshold",
          "type": "uint8"
        }
      ],
      "name": "changeThreshold",
      "outputs": [],
      "payable": false,
      "stateMutability": "nonpayable",
      "type": "function"
    },
    {
      "constant": true,
      "inputs": [],
      "name": "getThreshold",
      "outputs": [
        {
          "name": "",
          "type": "uint8"
        }
      ],
      "payable": false,
      "stateMutability": "view",
      "type": "function"
    },
    {
      "constant": true,
      "inputs": [
        {
          "name": "owner",
          "type": "address"
        }
      ],
      "name": "isOwner",
      "outputs": [
        {
          "name": "",
          "type": "bool"
        }
      ],
      "payable": false,
      "stateMutability": "view",
      "type": "function"
    },
    {
      "constant": true,
      "inputs": [],
      "name": "getOwners",
      "outputs": [
        {
          "name": "",
          "type": "address[]"
        }
      ],
      "payable": false,
      "stateMutability": "view",
      "type": "function"
    }
  ],
  "bytecode": "0x608060405234801561001057600080fd5b50610efa806100206000396000f30060806040526004361061008e576000357c0100000000000000000000000000000000000000000000000000000000900463ffffffff1680632f54bf6e1461009357806386040aa9146100ee5780638cff63551461015e578063a0e67e2b146101b5578063b7f3358d14610221578063b91a667f14610251578063e318b52b146102a1578063e75235b814610324575b600080fd5b34801561009f57600080fd5b506100d4600480360381019080803573ffffffffffffffffffffffffffffffffffffffff169060200190929190505050610355565b604051808215151515815260200191505060405180910390f35b3480156100fa57600080fd5b5061015c600480360381019080803573ffffffffffffffffffffffffffffffffffffffff169060200190929190803573ffffffffffffffffffffffffffffffffffffffff169060200190929190803560ff1690602001909291905050506103d6565b005b34801561016a57600080fd5b50610173610657565b604051808273ffffffffffffffffffffffffffffffffffffffff1673ffffffffffffffffffffffffffffffffffffffff16815260200191505060405180910390f35b3480156101c157600080fd5b506101ca61065c565b6040518080602001828103825283818151815260200191508051906020019060200280838360005b8381101561020d5780820151818401526020810190506101f2565b505050509050019250505060405180910390f35b34801561022d57600080fd5b5061024f600480360381019080803560ff1690602001909291905050506107f5565b005b34801561025d57600080fd5b5061029f600480360381019080803573ffffffffffffffffffffffffffffffffffffffff169060200190929190803560ff169060200190929190505050610874565b005b3480156102ad57600080fd5b50610322600480360381019080803573ffffffffffffffffffffffffffffffffffffffff169060200190929190803573ffffffffffffffffffffffffffffffffffffffff169060200190929190803573ffffffffffffffffffffffffffffffffffffffff169060200190929190505050610b28565b005b34801561033057600080fd5b50610339610eb7565b604051808260ff1660ff16815260200191505060405180910390f35b6000806000808473ffffffffffffffffffffffffffffffffffffffff1673ffffffffffffffffffffffffffffffffffffffff16815260200190815260200160002060009054906101000a900473ffffffffffffffffffffffffffffffffffffffff1673ffffffffffffffffffffffffffffffffffffffff1614159050919050565b3073ffffffffffffffffffffffffffffffffffffffff163373ffffffffffffffffffffffffffffffffffffffff1614151561041057600080fd5b8060ff1660018054031015151561042657600080fd5b8173ffffffffffffffffffffffffffffffffffffffff166000808573ffffffffffffffffffffffffffffffffffffffff1673ffffffffffffffffffffffffffffffffffffffff16815260200190815260200160002060009054906101000a900473ffffffffffffffffffffffffffffffffffffffff1673ffffffffffffffffffffffffffffffffffffffff161415156104be57600080fd5b6000808373ffffffffffffffffffffffffffffffffffffffff1673ffffffffffffffffffffffffffffffffffffffff16815260200190815260200160002060009054906101000a900473ffffffffffffffffffffffffffffffffffffffff166000808573ffffffffffffffffffffffffffffffffffffffff1673ffffffffffffffffffffffffffffffffffffffff16815260200190815260200160002060006101000a81548173ffffffffffffffffffffffffffffffffffffffff021916908373ffffffffffffffffffffffffffffffffffffffff16021790555060008060008473ffffffffffffffffffffffffffffffffffffffff1673ffffffffffffffffffffffffffffffffffffffff16815260200190815260200160002060006101000a81548173ffffffffffffffffffffffffffffffffffffffff021916908373ffffffffffffffffffffffffffffffffffffffff160217905550600160008154809291906001900391905055508060ff16600260009054906101000a900460ff1660ff1614151561065257610651816107f5565b5b505050565b600181565b6060806000806001546040519080825280602002602001820160405280156106935781602001602082028038833980820191505090505b50925060009150600080600173ffffffffffffffffffffffffffffffffffffffff1673ffffffffffffffffffffffffffffffffffffffff16815260200190815260200160002060009054906101000a900473ffffffffffffffffffffffffffffffffffffffff1690505b600173ffffffffffffffffffffffffffffffffffffffff168173ffffffffffffffffffffffffffffffffffffffff161415156107ec5780838381518110151561074257fe5b9060200190602002019073ffffffffffffffffffffffffffffffffffffffff16908173ffffffffffffffffffffffffffffffffffffffff16815250506000808273ffffffffffffffffffffffffffffffffffffffff1673ffffffffffffffffffffffffffffffffffffffff16815260200190815260200160002060009054906101000a900473ffffffffffffffffffffffffffffffffffffffff16905081806001019250506106fd565b82935050505090565b3073ffffffffffffffffffffffffffffffffffffffff163373ffffffffffffffffffffffffffffffffffffffff1614151561082f57600080fd5b6001548160ff161115151561084357600080fd5b60018160ff161015151561085657600080fd5b80600260006101000a81548160ff021916908360ff16021790555050565b3073ffffffffffffffffffffffffffffffffffffffff163373ffffffffffffffffffffffffffffffffffffffff161415156108ae57600080fd5b60008273ffffffffffffffffffffffffffffffffffffffff16141580156109025750600173ffffffffffffffffffffffffffffffffffffffff168273ffffffffffffffffffffffffffffffffffffffff1614155b151561090d57600080fd5b60008060008473ffffffffffffffffffffffffffffffffffffffff1673ffffffffffffffffffffffffffffffffffffffff16815260200190815260200160002060009054906101000a900473ffffffffffffffffffffffffffffffffffffffff1673ffffffffffffffffffffffffffffffffffffffff1614151561099057600080fd5b600080600173ffffffffffffffffffffffffffffffffffffffff1673ffffffffffffffffffffffffffffffffffffffff16815260200190815260200160002060009054906101000a900473ffffffffffffffffffffffffffffffffffffffff166000808473ffffffffffffffffffffffffffffffffffffffff1673ffffffffffffffffffffffffffffffffffffffff16815260200190815260200160002060006101000a81548173ffffffffffffffffffffffffffffffffffffffff021916908373ffffffffffffffffffffffffffffffffffffffff16021790555081600080600173ffffffffffffffffffffffffffffffffffffffff1673ffffffffffffffffffffffffffffffffffffffff16815260200190815260200160002060006101000a81548173ffffffffffffffffffffffffffffffffffffffff021916908373ffffffffffffffffffffffffffffffffffffffff1602179055506001600081548092919060010191905055508060ff16600260009054906101000a900460ff1660ff16141515610b2457610b23816107f5565b5b5050565b3073ffffffffffffffffffffffffffffffffffffffff163373ffffffffffffffffffffffffffffffffffffffff16141515610b6257600080fd5b60008173ffffffffffffffffffffffffffffffffffffffff1614158015610bb65750600173ffffffffffffffffffffffffffffffffffffffff168173ffffffffffffffffffffffffffffffffffffffff1614155b1515610bc157600080fd5b60008060008373ffffffffffffffffffffffffffffffffffffffff1673ffffffffffffffffffffffffffffffffffffffff16815260200190815260200160002060009054906101000a900473ffffffffffffffffffffffffffffffffffffffff1673ffffffffffffffffffffffffffffffffffffffff16141515610c4457600080fd5b8173ffffffffffffffffffffffffffffffffffffffff166000808573ffffffffffffffffffffffffffffffffffffffff1673ffffffffffffffffffffffffffffffffffffffff16815260200190815260200160002060009054906101000a900473ffffffffffffffffffffffffffffffffffffffff1673ffffffffffffffffffffffffffffffffffffffff16141515610cdc57600080fd5b6000808373ffffffffffffffffffffffffffffffffffffffff1673ffffffffffffffffffffffffffffffffffffffff16815260200190815260200160002060009054906101000a900473ffffffffffffffffffffffffffffffffffffffff166000808373ffffffffffffffffffffffffffffffffffffffff1673ffffffffffffffffffffffffffffffffffffffff16815260200190815260200160002060006101000a81548173ffffffffffffffffffffffffffffffffffffffff021916908373ffffffffffffffffffffffffffffffffffffffff160217905550806000808573ffffffffffffffffffffffffffffffffffffffff1673ffffffffffffffffffffffffffffffffffffffff16815260200190815260200160002060006101000a81548173ffffffffffffffffffffffffffffffffffffffff021916908373ffffffffffffffffffffffffffffffffffffffff16021790555060008060008473ffffffffffffffffffffffffffffffffffffffff1673ffffffffffffffffffffffffffffffffffffffff16815260200190815260200160002060006101000a81548173ffffffffffffffffffffffffffffffffffffffff021916908373ffffffffffffffffffffffffffffffffffffffff160217905550505050565b6000600260009054906101000a900460ff169050905600a165627a7a72305820372e97755cf66d7d4dedc8cf9b71ad26a96c66a3db678bac90c5e04bea67c8ab0029",
  "source": "pragma solidity 0.4.23;\nimport \"./SelfAuthorized.sol\";\n\n/// @title OwnerManager - Manages a set of owners and a threshold to perform actions.\n/// @author Stefan George - <stefan@gnosis.pm>\n/// @author Richard Meissner - <richard@gnosis.pm>\ncontract OwnerManager is SelfAuthorized {\n\n    address public constant SENTINEL_OWNERS = address(0x1);\n\n    mapping(address => address) internal owners;\n    uint256 ownerCount;\n    uint8 internal threshold;\n\n    /// @dev Setup function sets initial storage of contract.\n    /// @param _owners List of Safe owners.\n    /// @param _threshold Number of required confirmations for a Safe transaction.\n    function setupOwners(address[] _owners, uint8 _threshold)\n        internal\n    {\n        // Threshold can only be 0 at initialization.\n        // Check ensures that setup function can only be called once.\n        require(threshold == 0);\n        // Validate that threshold is smaller than number of added owners.\n        require(_threshold <= _owners.length);\n        // There has to be at least one Safe owner.\n        require(_threshold >= 1);\n        // Initializing Safe owners.\n        address currentOwner = SENTINEL_OWNERS;\n        for (uint256 i = 0; i < _owners.length; i++) {\n            // Owner address cannot be null.\n            address owner = _owners[i];\n            require(owner != 0 && owner != SENTINEL_OWNERS);\n            // No duplicate owners allowed.\n            require(owners[owner] == 0);\n            owners[currentOwner] = owner;\n            currentOwner = owner;\n        }\n        owners[currentOwner] = SENTINEL_OWNERS;\n        ownerCount = _owners.length;\n        threshold = _threshold;\n    }\n\n    /// @dev Allows to add a new owner to the Safe and update the threshold at the same time.\n    ///      This can only be done via a Safe transaction.\n    /// @param owner New owner address.\n    /// @param _threshold New threshold.\n    function addOwnerWithThreshold(address owner, uint8 _threshold)\n        public\n        authorized\n    {\n        // Owner address cannot be null.\n        require(owner != 0 && owner != SENTINEL_OWNERS);\n        // No duplicate owners allowed.\n        require(owners[owner] == 0);\n        owners[owner] = owners[SENTINEL_OWNERS];\n        owners[SENTINEL_OWNERS] = owner;\n        ownerCount++;\n        // Change threshold if threshold was changed.\n        if (threshold != _threshold)\n            changeThreshold(_threshold);\n    }\n\n    /// @dev Allows to remove an owner from the Safe and update the threshold at the same time.\n    ///      This can only be done via a Safe transaction.\n    /// @param prevOwner Owner that pointed to the owner to be removed in the linked list\n    /// @param owner Owner address to be removed.\n    /// @param _threshold New threshold.\n    function removeOwner(address prevOwner, address owner, uint8 _threshold)\n        public\n        authorized\n    {\n        // Only allow to remove an owner, if threshold can still be reached.\n        require(ownerCount - 1 >= _threshold);\n        // Validate owner address corresponds to owner index.\n        require(owners[prevOwner] == owner);\n        owners[prevOwner] = owners[owner];\n        owners[owner] = 0;\n        ownerCount--;\n        // Change threshold if threshold was changed.\n        if (threshold != _threshold)\n            changeThreshold(_threshold);\n    }\n\n    /// @dev Allows to swap/replace an owner from the Safe with another address.\n    ///      This can only be done via a Safe transaction.\n    /// @param prevOwner Owner that pointed to the owner to be replaced in the linked list\n    /// @param oldOwner Owner address to be replaced.\n    /// @param newOwner New owner address.\n    function swapOwner(address prevOwner, address oldOwner, address newOwner)\n        public\n        authorized\n    {\n        // Owner address cannot be null.\n        require(newOwner != 0 && newOwner != SENTINEL_OWNERS);\n        // No duplicate owners allowed.\n        require(owners[newOwner] == 0);\n        // Validate owner address corresponds to owner index.\n        require(owners[prevOwner] == oldOwner);\n        owners[newOwner] = owners[oldOwner];\n        owners[prevOwner] = newOwner;\n        owners[oldOwner] = 0;\n    }\n\n    /// @dev Allows to update the number of required confirmations by Safe owners.\n    ///      This can only be done via a Safe transaction.\n    /// @param _threshold New threshold.\n    function changeThreshold(uint8 _threshold)\n        public\n        authorized\n    {\n        // Validate that threshold is smaller than number of owners.\n        require(_threshold <= ownerCount);\n        // There has to be at least one Safe owner.\n        require(_threshold >= 1);\n        threshold = _threshold;\n    }\n\n    function getThreshold()\n        public\n        view\n        returns (uint8)\n    {\n        return threshold;\n    }\n\n    function isOwner(address owner)\n        public\n        view\n        returns (bool)\n    {\n        return owners[owner] != 0;\n    }\n\n    /// @dev Returns array of owners.\n    /// @return Array of Safe owners.\n    function getOwners()\n        public\n        view\n        returns (address[])\n    {\n        address[] memory array = new address[](ownerCount);\n\n        // populate return array\n        uint256 index = 0;\n        address currentOwner = owners[SENTINEL_OWNERS];\n        while(currentOwner != SENTINEL_OWNERS) {\n            array[index] = currentOwner;\n            currentOwner = owners[currentOwner];\n            index ++;\n        }\n        return array;\n    }\n}\n",
  "sourcePath": "/Users/apanizo/git/gnosis/safe-contracts/contracts/OwnerManager.sol",
  "compiler": {
    "name": "solc",
    "version": "0.4.23+commit.124ca40d.Emscripten.clang"
  },
  "schemaVersion": "2.0.0",
  "updatedAt": "2018-05-16T10:51:14.752Z"
}