{
  "contractName": "PayingProxy",
  "abi": [
    {
      "constant": true,
      "inputs": [],
      "name": "proxyType",
      "outputs": [
        {
          "name": "",
          "type": "uint256"
        }
      ],
      "payable": false,
      "stateMutability": "pure",
      "type": "function"
    },
    {
      "constant": true,
      "inputs": [],
      "name": "implementation",
      "outputs": [
        {
          "name": "",
          "type": "address"
        }
      ],
      "payable": false,
      "stateMutability": "view",
      "type": "function"
    },
    {
      "inputs": [
        {
          "name": "_masterCopy",
          "type": "address"
        },
        {
          "name": "initializer",
          "type": "bytes"
        },
        {
          "name": "funder",
          "type": "address"
        },
        {
          "name": "paymentToken",
          "type": "address"
        },
        {
          "name": "payment",
          "type": "uint256"
        }
      ],
      "payable": false,
      "stateMutability": "nonpayable",
      "type": "constructor"
    },
    {
      "payable": true,
      "stateMutability": "payable",
      "type": "fallback"
    }
  ],
  "bytecode": "0x608060405234801561001057600080fd5b50604051610502380380610502833981018060405281019080805190602001909291908051820192919060200180519060200190929190805190602001909291908051906020019092919050505084848160008173ffffffffffffffffffffffffffffffffffffffff1614151515610116576040517f08c379a00000000000000000000000000000000000000000000000000000000081526004018080602001828103825260248152602001807f496e76616c6964206d617374657220636f707920616464726573732070726f7681526020017f696465640000000000000000000000000000000000000000000000000000000081525060400191505060405180910390fd5b806000806101000a81548173ffffffffffffffffffffffffffffffffffffffff021916908373ffffffffffffffffffffffffffffffffffffffff160217905550506000815111156101a35773ffffffffffffffffffffffffffffffffffffffff60005416600080835160208501846127105a03f46040513d6000823e600082141561019f573d81fd5b5050505b5050600081111561038357600073ffffffffffffffffffffffffffffffffffffffff168273ffffffffffffffffffffffffffffffffffffffff16141561022f578273ffffffffffffffffffffffffffffffffffffffff166108fc829081150290604051600060405180830381858888f19350505050158015610229573d6000803e3d6000fd5b50610382565b8173ffffffffffffffffffffffffffffffffffffffff1663a9059cbb84836040518363ffffffff167c0100000000000000000000000000000000000000000000000000000000028152600401808373ffffffffffffffffffffffffffffffffffffffff1673ffffffffffffffffffffffffffffffffffffffff16815260200182815260200192505050602060405180830381600087803b1580156102d257600080fd5b505af11580156102e6573d6000803e3d6000fd5b505050506040513d60208110156102fc57600080fd5b81019080805190602001909291905050501515610381576040517f08c379a000000000000000000000000000000000000000000000000000000000815260040180806020018281038252601f8152602001807f436f756c64206e6f74206578656375746520746f6b656e207061796d656e740081525060200191505060405180910390fd5b5b5b505050505061016b806103976000396000f30060806040526004361061004c576000357c0100000000000000000000000000000000000000000000000000000000900463ffffffff1680634555d5c91461008b5780635c60da1b146100b6575b73ffffffffffffffffffffffffffffffffffffffff600054163660008037600080366000845af43d6000803e6000811415610086573d6000fd5b3d6000f35b34801561009757600080fd5b506100a061010d565b6040518082815260200191505060405180910390f35b3480156100c257600080fd5b506100cb610116565b604051808273ffffffffffffffffffffffffffffffffffffffff1673ffffffffffffffffffffffffffffffffffffffff16815260200191505060405180910390f35b60006002905090565b60008060009054906101000a900473ffffffffffffffffffffffffffffffffffffffff169050905600a165627a7a723058207c0d46b157e8df6d783e305a80b9c841f620d4bf15b4e2b2c93f261b93e8d6fa0029",
  "source": "pragma solidity 0.4.24;\nimport \"./DelegateConstructorProxy.sol\";\nimport \"./interfaces/ERC20Token.sol\";\n\n/// @title Paying Proxy - Generic proxy contract allows to execute all transactions applying the code of a master contract. It is possible to send along initialization data with the constructor. And sends funds after creation to a specified account.\n/// @author Stefan George - <stefan@gnosis.pm>\n/// @author Richard Meissner - <richard@gnosis.pm>\ncontract PayingProxy is DelegateConstructorProxy {\n\n    /// @dev Constructor function sets address of master copy contract.\n    /// @param _masterCopy Master copy address.\n    /// @param initializer Data used for a delegate call to initialize the contract.\n    /// @param funder Address that should be paid for the execution of this call\n    /// @param paymentToken Token that should be used for the payment (0 is ETH)\n    /// @param payment Value that should be paid\n    constructor(address _masterCopy, bytes initializer, address funder, address paymentToken, uint256 payment) \n        DelegateConstructorProxy(_masterCopy, initializer)\n        public\n    {\n        if (payment > 0) {\n            if (paymentToken == address(0)) {\n                funder.transfer(payment);\n            } else {\n                require(ERC20Token(paymentToken).transfer(funder, payment), \"Could not execute token payment\");\n            }\n        } \n    }\n}\n",
  "sourcePath": "/Users/apanizo/git/gnosis/safe-contracts/contracts/PayingProxy.sol",
  "compiler": {
    "name": "solc",
    "version": "0.4.24+commit.e67f0147.Emscripten.clang"
  },
  "schemaVersion": "2.0.0",
  "updatedAt": "2018-05-28T05:59:52.706Z"
}