{
  "contractName": "SignatureValidator",
  "abi": [
    {
      "constant": true,
      "inputs": [
        {
          "name": "txHash",
          "type": "bytes32"
        },
        {
          "name": "messageSignature",
          "type": "bytes"
        },
        {
          "name": "pos",
          "type": "uint256"
        }
      ],
      "name": "recoverKey",
      "outputs": [
        {
          "name": "",
          "type": "address"
        }
      ],
      "payable": false,
      "stateMutability": "pure",
      "type": "function"
    },
    {
      "constant": true,
      "inputs": [
        {
          "name": "signatures",
          "type": "bytes"
        },
        {
          "name": "pos",
          "type": "uint256"
        }
      ],
      "name": "signatureSplit",
      "outputs": [
        {
          "name": "v",
          "type": "uint8"
        },
        {
          "name": "r",
          "type": "bytes32"
        },
        {
          "name": "s",
          "type": "bytes32"
        }
      ],
      "payable": false,
      "stateMutability": "pure",
      "type": "function"
    }
  ],
  "bytecode": "0x608060405234801561001057600080fd5b506102c1806100206000396000f30060806040526004361061004c576000357c0100000000000000000000000000000000000000000000000000000000900463ffffffff16806363f44b5914610051578063b817dcc214610112575b600080fd5b34801561005d57600080fd5b506100d06004803603810190808035600019169060200190929190803590602001908201803590602001908080601f0160208091040260200160405190810160405280939291908181526020018383808284378201915050505050509192919290803590602001909291905050506101bd565b604051808273ffffffffffffffffffffffffffffffffffffffff1673ffffffffffffffffffffffffffffffffffffffff16815260200191505060405180910390f35b34801561011e57600080fd5b50610183600480360381019080803590602001908201803590602001908080601f016020809104026020016040519081016040528093929190818152602001838380828437820191505050505050919291929080359060200190929190505050610266565b604051808460ff1660ff16815260200183600019166000191681526020018260001916600019168152602001935050505060405180910390f35b6000806000806101cd8686610266565b809350819450829550505050600187848484604051600081526020016040526040518085600019166000191681526020018460ff1660ff1681526020018360001916600019168152602001826000191660001916815260200194505050505060206040516020810390808403906000865af1158015610250573d6000803e3d6000fd5b5050506020604051035193505050509392505050565b60008060008360410260208101860151925060408101860151915060ff604182018701511693505092509250925600a165627a7a72305820008feaa8b6dd7fe4a001ab0d8cd464ff26f4fbcfab9beb4d5b9d08e0da44c46c0029",
  "source": "pragma solidity 0.4.24;\n\n\n/// @title SignatureValidator - recovers a sender from a signature \n/// @author Ricardo Guilherme Schmidt (Status Research & Development GmbH) \n/// @author Richard Meissner - <richard@gnosis.pm>\ncontract SignatureValidator {\n    \n    /// @dev Recovers address who signed the message \n    /// @param txHash operation ethereum signed message hash\n    /// @param messageSignature message `txHash` signature\n    /// @param pos which signature to read\n    function recoverKey (\n        bytes32 txHash, \n        bytes messageSignature,\n        uint256 pos\n    )\n        pure\n        public\n        returns (address) \n    {\n        uint8 v;\n        bytes32 r;\n        bytes32 s;\n        (v, r, s) = signatureSplit(messageSignature, pos);\n        return ecrecover(txHash, v, r, s);\n    }\n\n    /// @dev divides bytes signature into `uint8 v, bytes32 r, bytes32 s`\n    /// @param pos which signature to read\n    /// @param signatures concatenated rsv signatures\n    function signatureSplit(bytes signatures, uint256 pos)\n        pure\n        public\n        returns (uint8 v, bytes32 r, bytes32 s)\n    {\n        // The signature format is a compact form of:\n        //   {bytes32 r}{bytes32 s}{uint8 v}\n        // Compact means, uint8 is not padded to 32 bytes.\n        // solium-disable-next-line security/no-inline-assembly\n        assembly {\n            let signaturePos := mul(0x41, pos)\n            r := mload(add(signatures, add(signaturePos, 0x20)))\n            s := mload(add(signatures, add(signaturePos, 0x40)))\n            // Here we are loading the last 32 bytes, including 31 bytes\n            // of 's'. There is no 'mload8' to do this.\n            //\n            // 'byte' is not working due to the Solidity parser, so lets\n            // use the second best option, 'and'\n            v := and(mload(add(signatures, add(signaturePos, 0x41))), 0xff)\n        }\n    }\n}\n",
  "sourcePath": "/Users/apanizo/git/gnosis/safe-contracts/contracts/SignatureValidator.sol",
  "compiler": {
    "name": "solc",
    "version": "0.4.24+commit.e67f0147.Emscripten.clang"
  },
  "schemaVersion": "2.0.0",
  "updatedAt": "2018-06-20T07:57:27.028Z"
}