{
  "contractName": "SocialRecoveryModule",
  "abi": [
    {
      "constant": true,
      "inputs": [],
      "name": "threshold",
      "outputs": [
        {
          "name": "",
          "type": "uint8"
        }
      ],
      "payable": false,
      "stateMutability": "view",
      "type": "function"
    },
    {
      "constant": true,
      "inputs": [],
      "name": "manager",
      "outputs": [
        {
          "name": "",
          "type": "address"
        }
      ],
      "payable": false,
      "stateMutability": "view",
      "type": "function"
    },
    {
      "constant": true,
      "inputs": [
        {
          "name": "",
          "type": "address"
        }
      ],
      "name": "isFriend",
      "outputs": [
        {
          "name": "",
          "type": "bool"
        }
      ],
      "payable": false,
      "stateMutability": "view",
      "type": "function"
    },
    {
      "constant": false,
      "inputs": [
        {
          "name": "_masterCopy",
          "type": "address"
        }
      ],
      "name": "changeMasterCopy",
      "outputs": [],
      "payable": false,
      "stateMutability": "nonpayable",
      "type": "function"
    },
    {
      "constant": true,
      "inputs": [],
      "name": "NAME",
      "outputs": [
        {
          "name": "",
          "type": "string"
        }
      ],
      "payable": false,
      "stateMutability": "view",
      "type": "function"
    },
    {
      "constant": true,
      "inputs": [
        {
          "name": "",
          "type": "bytes32"
        },
        {
          "name": "",
          "type": "address"
        }
      ],
      "name": "isConfirmed",
      "outputs": [
        {
          "name": "",
          "type": "bool"
        }
      ],
      "payable": false,
      "stateMutability": "view",
      "type": "function"
    },
    {
      "constant": true,
      "inputs": [
        {
          "name": "",
          "type": "uint256"
        }
      ],
      "name": "friends",
      "outputs": [
        {
          "name": "",
          "type": "address"
        }
      ],
      "payable": false,
      "stateMutability": "view",
      "type": "function"
    },
    {
      "constant": true,
      "inputs": [
        {
          "name": "",
          "type": "bytes32"
        }
      ],
      "name": "isExecuted",
      "outputs": [
        {
          "name": "",
          "type": "bool"
        }
      ],
      "payable": false,
      "stateMutability": "view",
      "type": "function"
    },
    {
      "constant": true,
      "inputs": [],
      "name": "VERSION",
      "outputs": [
        {
          "name": "",
          "type": "string"
        }
      ],
      "payable": false,
      "stateMutability": "view",
      "type": "function"
    },
    {
      "constant": false,
      "inputs": [
        {
          "name": "_friends",
          "type": "address[]"
        },
        {
          "name": "_threshold",
          "type": "uint8"
        }
      ],
      "name": "setup",
      "outputs": [],
      "payable": false,
      "stateMutability": "nonpayable",
      "type": "function"
    },
    {
      "constant": false,
      "inputs": [
        {
          "name": "dataHash",
          "type": "bytes32"
        }
      ],
      "name": "confirmTransaction",
      "outputs": [],
      "payable": false,
      "stateMutability": "nonpayable",
      "type": "function"
    },
    {
      "constant": false,
      "inputs": [
        {
          "name": "prevOwner",
          "type": "address"
        },
        {
          "name": "oldOwner",
          "type": "address"
        },
        {
          "name": "newOwner",
          "type": "address"
        }
      ],
      "name": "recoverAccess",
      "outputs": [],
      "payable": false,
      "stateMutability": "nonpayable",
      "type": "function"
    },
    {
      "constant": true,
      "inputs": [
        {
          "name": "dataHash",
          "type": "bytes32"
        }
      ],
      "name": "isConfirmedByRequiredFriends",
      "outputs": [
        {
          "name": "",
          "type": "bool"
        }
      ],
      "payable": false,
      "stateMutability": "view",
      "type": "function"
    },
    {
      "constant": true,
      "inputs": [
        {
          "name": "data",
          "type": "bytes"
        }
      ],
      "name": "getDataHash",
      "outputs": [
        {
          "name": "",
          "type": "bytes32"
        }
      ],
      "payable": false,
      "stateMutability": "pure",
      "type": "function"
    }
  ],
  "bytecode": "0x608060405234801561001057600080fd5b506117d0806100206000396000f3006080604052600436106100d0576000357c0100000000000000000000000000000000000000000000000000000000900463ffffffff1680633cf5b309146100d557806342cde4e814610148578063481c6a751461017957806368125a1b146101d057806377231eaa1461022b57806379716e43146102ae5780637de7edef146102df5780639ca89d0d14610322578063a3f4df7e1461036b578063ae68b056146103fb578063b79ffaff14610480578063ce146828146104e9578063e52cb36a14610556578063ffa1ad741461059f575b600080fd5b3480156100e157600080fd5b5061014660048036038101908080359060200190820180359060200190808060200260200160405190810160405280939291908181526020018383602002808284378201915050505050509192919290803560ff16906020019092919050505061062f565b005b34801561015457600080fd5b5061015d610994565b604051808260ff1660ff16815260200191505060405180910390f35b34801561018557600080fd5b5061018e6109a7565b604051808273ffffffffffffffffffffffffffffffffffffffff1673ffffffffffffffffffffffffffffffffffffffff16815260200191505060405180910390f35b3480156101dc57600080fd5b50610211600480360381019080803573ffffffffffffffffffffffffffffffffffffffff1690602001909291905050506109cd565b604051808215151515815260200191505060405180910390f35b34801561023757600080fd5b506102ac600480360381019080803573ffffffffffffffffffffffffffffffffffffffff169060200190929190803573ffffffffffffffffffffffffffffffffffffffff169060200190929190803573ffffffffffffffffffffffffffffffffffffffff1690602001909291905050506109ed565b005b3480156102ba57600080fd5b506102dd6004803603810190808035600019169060200190929190505050610f9e565b005b3480156102eb57600080fd5b50610320600480360381019080803573ffffffffffffffffffffffffffffffffffffffff169060200190929190505050611197565b005b34801561032e57600080fd5b50610351600480360381019080803560001916906020019092919050505061137a565b604051808215151515815260200191505060405180910390f35b34801561037757600080fd5b50610380611479565b6040518080602001828103825283818151815260200191508051906020019080838360005b838110156103c05780820151818401526020810190506103a5565b50505050905090810190601f1680156103ed5780820380516001836020036101000a031916815260200191505b509250505060405180910390f35b34801561040757600080fd5b50610462600480360381019080803590602001908201803590602001908080601f01602080910402602001604051908101604052809392919081815260200183838082843782019150505050505091929192905050506114b2565b60405180826000191660001916815260200191505060405180910390f35b34801561048c57600080fd5b506104cf6004803603810190808035600019169060200190929190803573ffffffffffffffffffffffffffffffffffffffff16906020019092919050505061151e565b604051808215151515815260200191505060405180910390f35b3480156104f557600080fd5b506105146004803603810190808035906020019092919050505061154d565b604051808273ffffffffffffffffffffffffffffffffffffffff1673ffffffffffffffffffffffffffffffffffffffff16815260200191505060405180910390f35b34801561056257600080fd5b50610585600480360381019080803560001916906020019092919050505061158b565b604051808215151515815260200191505060405180910390f35b3480156105ab57600080fd5b506105b46115ab565b6040518080602001828103825283818151815260200191508051906020019080838360005b838110156105f45780820151818401526020810190506105d9565b50505050905090810190601f1680156106215780820380516001836020036101000a031916815260200191505b509250505060405180910390f35b60008083518360ff16111515156106d4576040517f08c379a00000000000000000000000000000000000000000000000000000000081526004018080602001828103825260258152602001807f5468726573686f6c642063616e6e6f742065786365656420667269656e64732081526020017f636f756e7400000000000000000000000000000000000000000000000000000081525060400191505060405180910390fd5b60028360ff1610151515610750576040517f08c379a000000000000000000000000000000000000000000000000000000000815260040180806020018281038252601b8152602001807f4174206c65617374203220667269656e6473207265717569726564000000000081525060200191505060405180910390fd5b6107586115e4565b600091505b835182101561095c57838281518110151561077457fe5b90602001906020020151905060008173ffffffffffffffffffffffffffffffffffffffff161415151561080f576040517f08c379a000000000000000000000000000000000000000000000000000000000815260040180806020018281038252601f8152602001807f496e76616c696420667269656e6420616464726573732070726f76696465640081525060200191505060405180910390fd5b600360008273ffffffffffffffffffffffffffffffffffffffff1673ffffffffffffffffffffffffffffffffffffffff16815260200190815260200160002060009054906101000a900460ff161515156108f7576040517f08c379a00000000000000000000000000000000000000000000000000000000081526004018080602001828103825260218152602001807f4475706c696361746520667269656e6420616464726573732070726f7669646581526020017f640000000000000000000000000000000000000000000000000000000000000081525060400191505060405180910390fd5b6001600360008373ffffffffffffffffffffffffffffffffffffffff1673ffffffffffffffffffffffffffffffffffffffff16815260200190815260200160002060006101000a81548160ff021916908315150217905550818060010192505061075d565b83600290805190602001906109729291906116d7565b5082600160146101000a81548160ff021916908360ff16021790555050505050565b600160149054906101000a900460ff1681565b600160009054906101000a900473ffffffffffffffffffffffffffffffffffffffff1681565b60036020528060005260406000206000915054906101000a900460ff1681565b60606000600360003373ffffffffffffffffffffffffffffffffffffffff1673ffffffffffffffffffffffffffffffffffffffff16815260200190815260200160002060009054906101000a900460ff161515610ad8576040517f08c379a00000000000000000000000000000000000000000000000000000000081526004018080602001828103825260258152602001807f4d6574686f642063616e206f6e6c792062652063616c6c65642062792061206681526020017f7269656e6400000000000000000000000000000000000000000000000000000081525060400191505060405180910390fd5b848484604051602401808473ffffffffffffffffffffffffffffffffffffffff1673ffffffffffffffffffffffffffffffffffffffff1681526020018373ffffffffffffffffffffffffffffffffffffffff1673ffffffffffffffffffffffffffffffffffffffff1681526020018273ffffffffffffffffffffffffffffffffffffffff1673ffffffffffffffffffffffffffffffffffffffff16815260200193505050506040516020818303038152906040527fe318b52b000000000000000000000000000000000000000000000000000000007bffffffffffffffffffffffffffffffffffffffffffffffffffffffff19166020820180517bffffffffffffffffffffffffffffffffffffffffffffffffffffffff83818316178352505050509150610c05826114b2565b905060046000826000191660001916815260200190815260200160002060009054906101000a900460ff16151515610ca5576040517f08c379a00000000000000000000000000000000000000000000000000000000081526004018080602001828103825260198152602001807f5265636f7665727920616c72656164792065786563757465640000000000000081525060200191505060405180910390fd5b610cae8161137a565b1515610d48576040517f08c379a00000000000000000000000000000000000000000000000000000000081526004018080602001828103825260258152602001807f5265636f7665727920686173206e6f7420656e6f75676820636f6e6669726d6181526020017f74696f6e7300000000000000000000000000000000000000000000000000000081525060400191505060405180910390fd5b600160046000836000191660001916815260200190815260200160002060006101000a81548160ff021916908315150217905550600160009054906101000a900473ffffffffffffffffffffffffffffffffffffffff1673ffffffffffffffffffffffffffffffffffffffff1663468721a7600160009054906101000a900473ffffffffffffffffffffffffffffffffffffffff1660008560006040518563ffffffff167c0100000000000000000000000000000000000000000000000000000000028152600401808573ffffffffffffffffffffffffffffffffffffffff1673ffffffffffffffffffffffffffffffffffffffff16815260200184815260200180602001836002811115610e5957fe5b60ff168152602001828103825284818151815260200191508051906020019080838360005b83811015610e99578082015181840152602081019050610e7e565b50505050905090810190601f168015610ec65780820380516001836020036101000a031916815260200191505b5095505050505050602060405180830381600087803b158015610ee857600080fd5b505af1158015610efc573d6000803e3d6000fd5b505050506040513d6020811015610f1257600080fd5b81019080805190602001909291905050501515610f97576040517f08c379a000000000000000000000000000000000000000000000000000000000815260040180806020018281038252601a8152602001807f436f756c64206e6f742065786563757465207265636f7665727900000000000081525060200191505060405180910390fd5b5050505050565b600360003373ffffffffffffffffffffffffffffffffffffffff1673ffffffffffffffffffffffffffffffffffffffff16815260200190815260200160002060009054906101000a900460ff161515611085576040517f08c379a00000000000000000000000000000000000000000000000000000000081526004018080602001828103825260258152602001807f4d6574686f642063616e206f6e6c792062652063616c6c65642062792061206681526020017f7269656e6400000000000000000000000000000000000000000000000000000081525060400191505060405180910390fd5b60046000826000191660001916815260200190815260200160002060009054906101000a900460ff16151515611123576040517f08c379a00000000000000000000000000000000000000000000000000000000081526004018080602001828103825260198152602001807f5265636f7665727920616c72656164792065786563757465640000000000000081525060200191505060405180910390fd5b600160056000836000191660001916815260200190815260200160002060003373ffffffffffffffffffffffffffffffffffffffff1673ffffffffffffffffffffffffffffffffffffffff16815260200190815260200160002060006101000a81548160ff02191690831515021790555050565b600160009054906101000a900473ffffffffffffffffffffffffffffffffffffffff1673ffffffffffffffffffffffffffffffffffffffff163373ffffffffffffffffffffffffffffffffffffffff16141515611282576040517f08c379a00000000000000000000000000000000000000000000000000000000081526004018080602001828103825260268152602001807f4d6574686f642063616e206f6e6c792062652063616c6c65642066726f6d206d81526020017f616e61676572000000000000000000000000000000000000000000000000000081525060400191505060405180910390fd5b60008173ffffffffffffffffffffffffffffffffffffffff1614151515611337576040517f08c379a00000000000000000000000000000000000000000000000000000000081526004018080602001828103825260248152602001807f496e76616c6964206d617374657220636f707920616464726573732070726f7681526020017f696465640000000000000000000000000000000000000000000000000000000081525060400191505060405180910390fd5b806000806101000a81548173ffffffffffffffffffffffffffffffffffffffff021916908373ffffffffffffffffffffffffffffffffffffffff16021790555050565b60008060008090505b60028054905081101561146d5760056000856000191660001916815260200190815260200160002060006002838154811015156113bc57fe5b9060005260206000200160009054906101000a900473ffffffffffffffffffffffffffffffffffffffff1673ffffffffffffffffffffffffffffffffffffffff1673ffffffffffffffffffffffffffffffffffffffff16815260200190815260200160002060009054906101000a900460ff161561143d5781806001019250505b600160149054906101000a900460ff1660ff168214156114605760019250611472565b8080600101915050611383565b600092505b5050919050565b6040805190810160405280601681526020017f536f6369616c205265636f76657279204d6f64756c650000000000000000000081525081565b6000816040518082805190602001908083835b6020831015156114ea57805182526020820191506020810190506020830392506114c5565b6001836020036101000a03801982511681845116808217855250505050505090500191505060405180910390209050919050565b60056020528160005260406000206020528060005260406000206000915091509054906101000a900460ff1681565b60028181548110151561155c57fe5b906000526020600020016000915054906101000a900473ffffffffffffffffffffffffffffffffffffffff1681565b60046020528060005260406000206000915054906101000a900460ff1681565b6040805190810160405280600581526020017f302e302e3100000000000000000000000000000000000000000000000000000081525081565b6000600160009054906101000a900473ffffffffffffffffffffffffffffffffffffffff1673ffffffffffffffffffffffffffffffffffffffff16141515611694576040517f08c379a000000000000000000000000000000000000000000000000000000000815260040180806020018281038252601c8152602001807f4d616e616765722068617320616c7265616479206265656e207365740000000081525060200191505060405180910390fd5b33600160006101000a81548173ffffffffffffffffffffffffffffffffffffffff021916908373ffffffffffffffffffffffffffffffffffffffff160217905550565b828054828255906000526020600020908101928215611750579160200282015b8281111561174f5782518260006101000a81548173ffffffffffffffffffffffffffffffffffffffff021916908373ffffffffffffffffffffffffffffffffffffffff160217905550916020019190600101906116f7565b5b50905061175d9190611761565b5090565b6117a191905b8082111561179d57600081816101000a81549073ffffffffffffffffffffffffffffffffffffffff021916905550600101611767565b5090565b905600a165627a7a72305820f1f6099fda98550b4d5ae1a04d18e83b8da4cebe4bbae1404aa3b05b167841d70029",
  "source": "pragma solidity 0.4.24;\nimport \"../Enum.sol\";\nimport \"../Module.sol\";\nimport \"../ModuleManager.sol\";\nimport \"../OwnerManager.sol\";\n\n\n/// @title Social Recovery Module - Allows to replace an owner without Safe confirmations if friends approve the replacement.\n/// @author Stefan George - <stefan@gnosis.pm>\ncontract SocialRecoveryModule is Module {\n\n    string public constant NAME = \"Social Recovery Module\";\n    string public constant VERSION = \"0.0.1\";\n\n    uint8 public threshold;\n    address[] public friends;\n\n    // isFriend mapping maps friend's address to friend status.\n    mapping (address => bool) public isFriend;\n    // isExecuted mapping maps data hash to execution status.\n    mapping (bytes32 => bool) public isExecuted;\n    // isConfirmed mapping maps data hash to friend's address to confirmation status.\n    mapping (bytes32 => mapping (address => bool)) public isConfirmed;\n\n    modifier onlyFriend() {\n        require(isFriend[msg.sender], \"Method can only be called by a friend\");\n        _;\n    }\n\n    /// @dev Setup function sets initial storage of contract.\n    /// @param _friends List of friends' addresses.\n    /// @param _threshold Required number of friends to confirm replacement.\n    function setup(address[] _friends, uint8 _threshold)\n        public\n    {\n        require(_threshold <= _friends.length, \"Threshold cannot exceed friends count\");\n        require(_threshold >= 2, \"At least 2 friends required\");\n        setManager();\n        // Set allowed friends.\n        for (uint256 i = 0; i < _friends.length; i++) {\n            address friend = _friends[i];\n            require(friend != 0, \"Invalid friend address provided\");\n            require(!isFriend[friend], \"Duplicate friend address provided\");\n            isFriend[friend] = true;\n        }\n        friends = _friends;\n        threshold = _threshold;\n    }\n\n    /// @dev Allows a friend to confirm a Safe transaction.\n    /// @param dataHash Safe transaction hash.\n    function confirmTransaction(bytes32 dataHash)\n        public\n        onlyFriend\n    {\n        require(!isExecuted[dataHash], \"Recovery already executed\");\n        isConfirmed[dataHash][msg.sender] = true;\n    }\n\n    /// @dev Returns if Safe transaction is a valid owner replacement transaction.\n    /// @param prevOwner Owner that pointed to the owner to be replaced in the linked list\n    /// @param oldOwner Owner address to be replaced.\n    /// @param newOwner New owner address.\n    /// @return Returns if transaction can be executed.\n    function recoverAccess(address prevOwner, address oldOwner, address newOwner)\n        public\n        onlyFriend\n    {\n        bytes memory data = abi.encodeWithSignature(\"swapOwner(address,address,address)\", prevOwner, oldOwner, newOwner);\n        bytes32 dataHash = getDataHash(data);\n        require(!isExecuted[dataHash], \"Recovery already executed\");\n        require(isConfirmedByRequiredFriends(dataHash), \"Recovery has not enough confirmations\");\n        isExecuted[dataHash] = true;\n        require(manager.execTransactionFromModule(address(manager), 0, data, Enum.Operation.Call), \"Could not execute recovery\");\n    }\n\n    /// @dev Returns if Safe transaction is a valid owner replacement transaction.\n    /// @param dataHash Data hash.\n    /// @return Confirmation status.\n    function isConfirmedByRequiredFriends(bytes32 dataHash)\n        public\n        view\n        returns (bool)\n    {\n        uint256 confirmationCount;\n        for (uint256 i = 0; i < friends.length; i++) {\n            if (isConfirmed[dataHash][friends[i]])\n                confirmationCount++;\n            if (confirmationCount == threshold)\n                return true;\n        }\n        return false;\n    }\n\n    /// @dev Returns hash of data encoding owner replacement.\n    /// @param data Data payload.\n    /// @return Data hash.\n    function getDataHash(bytes data)\n        public\n        pure\n        returns (bytes32)\n    {\n        return keccak256(data);\n    }\n}\n",
  "sourcePath": "/Users/apanizo/git/gnosis/safe-contracts/contracts/modules/SocialRecoveryModule.sol",
  "compiler": {
    "name": "solc",
    "version": "0.4.24+commit.e67f0147.Emscripten.clang"
  },
  "schemaVersion": "2.0.0",
  "updatedAt": "2018-06-19T07:17:17.498Z"
}