{
  "contractName": "SocialRecoveryModule",
  "abi": [
    {
      "constant": true,
      "inputs": [],
      "name": "REPLACE_OWNER_FUNCTION_IDENTIFIER",
      "outputs": [
        {
          "name": "",
          "type": "bytes4"
        }
      ],
      "payable": false,
      "stateMutability": "view",
      "type": "function"
    },
    {
      "constant": true,
      "inputs": [],
      "name": "threshold",
      "outputs": [
        {
          "name": "",
          "type": "uint8"
        }
      ],
      "payable": false,
      "stateMutability": "view",
      "type": "function"
    },
    {
      "constant": true,
      "inputs": [],
      "name": "manager",
      "outputs": [
        {
          "name": "",
          "type": "address"
        }
      ],
      "payable": false,
      "stateMutability": "view",
      "type": "function"
    },
    {
      "constant": true,
      "inputs": [
        {
          "name": "",
          "type": "address"
        }
      ],
      "name": "isFriend",
      "outputs": [
        {
          "name": "",
          "type": "bool"
        }
      ],
      "payable": false,
      "stateMutability": "view",
      "type": "function"
    },
    {
      "constant": false,
      "inputs": [
        {
          "name": "_masterCopy",
          "type": "address"
        }
      ],
      "name": "changeMasterCopy",
      "outputs": [],
      "payable": false,
      "stateMutability": "nonpayable",
      "type": "function"
    },
    {
      "constant": true,
      "inputs": [],
      "name": "NAME",
      "outputs": [
        {
          "name": "",
          "type": "string"
        }
      ],
      "payable": false,
      "stateMutability": "view",
      "type": "function"
    },
    {
      "constant": true,
      "inputs": [
        {
          "name": "",
          "type": "bytes32"
        },
        {
          "name": "",
          "type": "address"
        }
      ],
      "name": "isConfirmed",
      "outputs": [
        {
          "name": "",
          "type": "bool"
        }
      ],
      "payable": false,
      "stateMutability": "view",
      "type": "function"
    },
    {
      "constant": true,
      "inputs": [
        {
          "name": "",
          "type": "uint256"
        }
      ],
      "name": "friends",
      "outputs": [
        {
          "name": "",
          "type": "address"
        }
      ],
      "payable": false,
      "stateMutability": "view",
      "type": "function"
    },
    {
      "constant": true,
      "inputs": [
        {
          "name": "",
          "type": "bytes32"
        }
      ],
      "name": "isExecuted",
      "outputs": [
        {
          "name": "",
          "type": "bool"
        }
      ],
      "payable": false,
      "stateMutability": "view",
      "type": "function"
    },
    {
      "constant": true,
      "inputs": [],
      "name": "VERSION",
      "outputs": [
        {
          "name": "",
          "type": "string"
        }
      ],
      "payable": false,
      "stateMutability": "view",
      "type": "function"
    },
    {
      "constant": false,
      "inputs": [
        {
          "name": "_friends",
          "type": "address[]"
        },
        {
          "name": "_threshold",
          "type": "uint8"
        }
      ],
      "name": "setup",
      "outputs": [],
      "payable": false,
      "stateMutability": "nonpayable",
      "type": "function"
    },
    {
      "constant": false,
      "inputs": [
        {
          "name": "dataHash",
          "type": "bytes32"
        }
      ],
      "name": "confirmTransaction",
      "outputs": [],
      "payable": false,
      "stateMutability": "nonpayable",
      "type": "function"
    },
    {
      "constant": false,
      "inputs": [
        {
          "name": "data",
          "type": "bytes"
        }
      ],
      "name": "recoverAccess",
      "outputs": [],
      "payable": false,
      "stateMutability": "nonpayable",
      "type": "function"
    },
    {
      "constant": true,
      "inputs": [
        {
          "name": "dataHash",
          "type": "bytes32"
        }
      ],
      "name": "isConfirmedByRequiredFriends",
      "outputs": [
        {
          "name": "",
          "type": "bool"
        }
      ],
      "payable": false,
      "stateMutability": "view",
      "type": "function"
    },
    {
      "constant": true,
      "inputs": [
        {
          "name": "data",
          "type": "bytes"
        }
      ],
      "name": "getDataHash",
      "outputs": [
        {
          "name": "",
          "type": "bytes32"
        }
      ],
      "payable": false,
      "stateMutability": "view",
      "type": "function"
    }
  ],
  "bytecode": "0x608060405234801561001057600080fd5b50611131806100206000396000f3006080604052600436106100db576000357c0100000000000000000000000000000000000000000000000000000000900463ffffffff16806336749c1a146100e05780633cf5b3091461014957806342cde4e8146101bc578063481c6a75146101ed57806368125a1b1461024457806379716e431461029f5780637de7edef146102d05780639ca89d0d14610313578063a3f4df7e1461035c578063ae68b056146103ec578063b79ffaff14610471578063ce146828146104da578063d2740c7614610547578063e52cb36a146105b0578063ffa1ad74146105f9575b600080fd5b3480156100ec57600080fd5b506100f5610689565b60405180827bffffffffffffffffffffffffffffffffffffffffffffffffffffffff19167bffffffffffffffffffffffffffffffffffffffffffffffffffffffff1916815260200191505060405180910390f35b34801561015557600080fd5b506101ba60048036038101908080359060200190820180359060200190808060200260200160405190810160405280939291908181526020018383602002808284378201915050505050509192919290803560ff1690602001909291905050506106ad565b005b3480156101c857600080fd5b506101d1610822565b604051808260ff1660ff16815260200191505060405180910390f35b3480156101f957600080fd5b50610202610835565b604051808273ffffffffffffffffffffffffffffffffffffffff1673ffffffffffffffffffffffffffffffffffffffff16815260200191505060405180910390f35b34801561025057600080fd5b50610285600480360381019080803573ffffffffffffffffffffffffffffffffffffffff16906020019092919050505061085b565b604051808215151515815260200191505060405180910390f35b3480156102ab57600080fd5b506102ce600480360381019080803560001916906020019092919050505061087b565b005b3480156102dc57600080fd5b50610311600480360381019080803573ffffffffffffffffffffffffffffffffffffffff16906020019092919050505061097c565b005b34801561031f57600080fd5b506103426004803603810190808035600019169060200190929190505050610a41565b604051808215151515815260200191505060405180910390f35b34801561036857600080fd5b50610371610b40565b6040518080602001828103825283818151815260200191508051906020019080838360005b838110156103b1578082015181840152602081019050610396565b50505050905090810190601f1680156103de5780820380516001836020036101000a031916815260200191505b509250505060405180910390f35b3480156103f857600080fd5b50610453600480360381019080803590602001908201803590602001908080601f0160208091040260200160405190810160405280939291908181526020018383808284378201915050505050509192919290505050610b79565b60405180826000191660001916815260200191505060405180910390f35b34801561047d57600080fd5b506104c06004803603810190808035600019169060200190929190803573ffffffffffffffffffffffffffffffffffffffff169060200190929190505050610be5565b604051808215151515815260200191505060405180910390f35b3480156104e657600080fd5b5061050560048036038101908080359060200190929190505050610c14565b604051808273ffffffffffffffffffffffffffffffffffffffff1673ffffffffffffffffffffffffffffffffffffffff16815260200191505060405180910390f35b34801561055357600080fd5b506105ae600480360381019080803590602001908201803590602001908080601f0160208091040260200160405190810160405280939291908181526020018383808284378201915050505050509192919290505050610c52565b005b3480156105bc57600080fd5b506105df6004803603810190808035600019169060200190929190505050610f55565b604051808215151515815260200191505060405180910390f35b34801561060557600080fd5b5061060e610f75565b6040518080602001828103825283818151815260200191508051906020019080838360005b8381101561064e578082015181840152602081019050610633565b50505050905090810190601f16801561067b5780820380516001836020036101000a031916815260200191505b509250505060405180910390f35b7f54e99c6e0000000000000000000000000000000000000000000000000000000081565b60008083518360ff16111515156106c357600080fd5b60028360ff16101515156106d657600080fd5b6106de610fae565b600091505b83518210156107ea5783828151811015156106fa57fe5b90602001906020020151905060008173ffffffffffffffffffffffffffffffffffffffff161415151561072c57600080fd5b600360008273ffffffffffffffffffffffffffffffffffffffff1673ffffffffffffffffffffffffffffffffffffffff16815260200190815260200160002060009054906101000a900460ff1615151561078557600080fd5b6001600360008373ffffffffffffffffffffffffffffffffffffffff1673ffffffffffffffffffffffffffffffffffffffff16815260200190815260200160002060006101000a81548160ff02191690831515021790555081806001019250506106e3565b8360029080519060200190610800929190611038565b5082600160146101000a81548160ff021916908360ff16021790555050505050565b600160149054906101000a900460ff1681565b600160009054906101000a900473ffffffffffffffffffffffffffffffffffffffff1681565b60036020528060005260406000206000915054906101000a900460ff1681565b600360003373ffffffffffffffffffffffffffffffffffffffff1673ffffffffffffffffffffffffffffffffffffffff16815260200190815260200160002060009054906101000a900460ff1615156108d357600080fd5b60046000826000191660001916815260200190815260200160002060009054906101000a900460ff1615151561090857600080fd5b600160056000836000191660001916815260200190815260200160002060003373ffffffffffffffffffffffffffffffffffffffff1673ffffffffffffffffffffffffffffffffffffffff16815260200190815260200160002060006101000a81548160ff02191690831515021790555050565b600160009054906101000a900473ffffffffffffffffffffffffffffffffffffffff1673ffffffffffffffffffffffffffffffffffffffff163373ffffffffffffffffffffffffffffffffffffffff161415156109d857600080fd5b60008173ffffffffffffffffffffffffffffffffffffffff16141515156109fe57600080fd5b806000806101000a81548173ffffffffffffffffffffffffffffffffffffffff021916908373ffffffffffffffffffffffffffffffffffffffff16021790555050565b60008060008090505b600280549050811015610b34576005600085600019166000191681526020019081526020016000206000600283815481101515610a8357fe5b9060005260206000200160009054906101000a900473ffffffffffffffffffffffffffffffffffffffff1673ffffffffffffffffffffffffffffffffffffffff1673ffffffffffffffffffffffffffffffffffffffff16815260200190815260200160002060009054906101000a900460ff1615610b045781806001019250505b600160149054906101000a900460ff1660ff16821415610b275760019250610b39565b8080600101915050610a4a565b600092505b5050919050565b6040805190810160405280601681526020017f536f6369616c205265636f76657279204d6f64756c650000000000000000000081525081565b6000816040518082805190602001908083835b602083101515610bb15780518252602082019150602081019050602083039250610b8c565b6001836020036101000a03801982511681845116808217855250505050505090500191505060405180910390209050919050565b60056020528160005260406000206020528060005260406000206000915091509054906101000a900460ff1681565b600281815481101515610c2357fe5b906000526020600020016000915054906101000a900473ffffffffffffffffffffffffffffffffffffffff1681565b600080600360003373ffffffffffffffffffffffffffffffffffffffff1673ffffffffffffffffffffffffffffffffffffffff16815260200190815260200160002060009054906101000a900460ff161515610cad57600080fd5b602083015191507f54e99c6e000000000000000000000000000000000000000000000000000000007bffffffffffffffffffffffffffffffffffffffffffffffffffffffff1916827bffffffffffffffffffffffffffffffffffffffffffffffffffffffff1916141515610d2057600080fd5b610d2983610b79565b905060046000826000191660001916815260200190815260200160002060009054906101000a900460ff16151515610d6057600080fd5b610d6981610a41565b1515610d7457600080fd5b600160046000836000191660001916815260200190815260200160002060006101000a81548160ff021916908315150217905550600160009054906101000a900473ffffffffffffffffffffffffffffffffffffffff1673ffffffffffffffffffffffffffffffffffffffff1663b021640a600160009054906101000a900473ffffffffffffffffffffffffffffffffffffffff1660008660006040518563ffffffff167c0100000000000000000000000000000000000000000000000000000000028152600401808573ffffffffffffffffffffffffffffffffffffffff1673ffffffffffffffffffffffffffffffffffffffff16815260200184815260200180602001836002811115610e8557fe5b60ff168152602001828103825284818151815260200191508051906020019080838360005b83811015610ec5578082015181840152602081019050610eaa565b50505050905090810190601f168015610ef25780820380516001836020036101000a031916815260200191505b5095505050505050602060405180830381600087803b158015610f1457600080fd5b505af1158015610f28573d6000803e3d6000fd5b505050506040513d6020811015610f3e57600080fd5b810190808051906020019092919050505050505050565b60046020528060005260406000206000915054906101000a900460ff1681565b6040805190810160405280600581526020017f302e302e3100000000000000000000000000000000000000000000000000000081525081565b6000600160009054906101000a900473ffffffffffffffffffffffffffffffffffffffff1673ffffffffffffffffffffffffffffffffffffffff16141515610ff557600080fd5b33600160006101000a81548173ffffffffffffffffffffffffffffffffffffffff021916908373ffffffffffffffffffffffffffffffffffffffff160217905550565b8280548282559060005260206000209081019282156110b1579160200282015b828111156110b05782518260006101000a81548173ffffffffffffffffffffffffffffffffffffffff021916908373ffffffffffffffffffffffffffffffffffffffff16021790555091602001919060010190611058565b5b5090506110be91906110c2565b5090565b61110291905b808211156110fe57600081816101000a81549073ffffffffffffffffffffffffffffffffffffffff0219169055506001016110c8565b5090565b905600a165627a7a72305820d0d4a797e7a772df46dc5c07d636325879d9fe91e9fe0a658f50ee02e27f0c8e0029",
  "source": "pragma solidity 0.4.23;\nimport \"../Enum.sol\";\nimport \"../Module.sol\";\nimport \"../ModuleManager.sol\";\nimport \"../OwnerManager.sol\";\n\n\n/// @title Social Recovery Module - Allows to replace an owner without Safe confirmations if friends approve the replacement.\n/// @author Stefan George - <stefan@gnosis.pm>\ncontract SocialRecoveryModule is Module {\n\n    string public constant NAME = \"Social Recovery Module\";\n    string public constant VERSION = \"0.0.1\";\n    bytes4 public constant REPLACE_OWNER_FUNCTION_IDENTIFIER = hex\"54e99c6e\";\n\n    uint8 public threshold;\n    address[] public friends;\n\n    // isFriend mapping maps friend's address to friend status.\n    mapping (address => bool) public isFriend;\n    // isExecuted mapping maps data hash to execution status.\n    mapping (bytes32 => bool) public isExecuted;\n    // isConfirmed mapping maps data hash to friend's address to confirmation status.\n    mapping (bytes32 => mapping (address => bool)) public isConfirmed;\n\n    modifier onlyFriend() {\n        require(isFriend[msg.sender]);\n        _;\n    }\n\n    /// @dev Setup function sets initial storage of contract.\n    /// @param _friends List of friends' addresses.\n    /// @param _threshold Required number of friends to confirm replacement.\n    function setup(address[] _friends, uint8 _threshold)\n        public\n    {\n        require(_threshold <= _friends.length);\n        require(_threshold >= 2);\n        setManager();\n        // Set allowed friends.\n        for (uint256 i = 0; i < _friends.length; i++) {\n            address friend = _friends[i];\n            require(friend != 0);\n            require(!isFriend[friend]);\n            isFriend[friend] = true;\n        }\n        friends = _friends;\n        threshold = _threshold;\n    }\n\n    /// @dev Allows a friend to confirm a Safe transaction.\n    /// @param dataHash Safe transaction hash.\n    function confirmTransaction(bytes32 dataHash)\n        public\n        onlyFriend\n    {\n        require(!isExecuted[dataHash]);\n        isConfirmed[dataHash][msg.sender] = true;\n    }\n\n    /// @dev Returns if Safe transaction is a valid owner replacement transaction.\n    /// @param data Encoded owner replacement transaction.\n    /// @return Returns if transaction can be executed.\n    function recoverAccess(bytes data)\n        public\n    {\n        // Only friends are allowed to execute the replacement.\n        require(isFriend[msg.sender]);\n        // Validate that transaction is a owner replacement transaction.\n        bytes4 functionIdentifier;\n        // solium-disable-next-line security/no-inline-assembly\n        assembly {\n            functionIdentifier := mload(add(data, 0x20))\n        }\n        require(functionIdentifier == REPLACE_OWNER_FUNCTION_IDENTIFIER);\n        bytes32 dataHash = getDataHash(data);\n        require(!isExecuted[dataHash]);\n        require(isConfirmedByRequiredFriends(dataHash));\n        isExecuted[dataHash] = true;\n        manager.executeModule(address(manager), 0, data, Enum.Operation.Call);\n    }\n\n    /// @dev Returns if Safe transaction is a valid owner replacement transaction.\n    /// @param dataHash Data hash.\n    /// @return Confirmation status.\n    function isConfirmedByRequiredFriends(bytes32 dataHash)\n        public\n        view\n        returns (bool)\n    {\n        uint256 confirmationCount;\n        for (uint256 i = 0; i < friends.length; i++) {\n            if (isConfirmed[dataHash][friends[i]])\n                confirmationCount++;\n            if (confirmationCount == threshold)\n                return true;\n        }\n        return false;\n    }\n\n    /// @dev Returns hash of data encoding owner replacement.\n    /// @param data Data payload.\n    /// @return Data hash.\n    function getDataHash(bytes data)\n        public\n        view\n        returns (bytes32)\n    {\n        return keccak256(data);\n    }\n}\n",
  "sourcePath": "/Users/apanizo/git/gnosis/safe-contracts/contracts/modules/SocialRecoveryModule.sol",
  "compiler": {
    "name": "solc",
    "version": "0.4.23+commit.124ca40d.Emscripten.clang"
  },
  "schemaVersion": "2.0.0",
  "updatedAt": "2018-05-10T11:07:04.698Z"
}