{
  "contractName": "StateChannelModule",
  "abi": [
    {
      "constant": true,
      "inputs": [],
      "name": "manager",
      "outputs": [
        {
          "name": "",
          "type": "address"
        }
      ],
      "payable": false,
      "stateMutability": "view",
      "type": "function"
    },
    {
      "constant": false,
      "inputs": [
        {
          "name": "_masterCopy",
          "type": "address"
        }
      ],
      "name": "changeMasterCopy",
      "outputs": [],
      "payable": false,
      "stateMutability": "nonpayable",
      "type": "function"
    },
    {
      "constant": true,
      "inputs": [],
      "name": "NAME",
      "outputs": [
        {
          "name": "",
          "type": "string"
        }
      ],
      "payable": false,
      "stateMutability": "view",
      "type": "function"
    },
    {
      "constant": true,
      "inputs": [
        {
          "name": "",
          "type": "bytes32"
        }
      ],
      "name": "isExecuted",
      "outputs": [
        {
          "name": "",
          "type": "bool"
        }
      ],
      "payable": false,
      "stateMutability": "view",
      "type": "function"
    },
    {
      "constant": true,
      "inputs": [],
      "name": "VERSION",
      "outputs": [
        {
          "name": "",
          "type": "string"
        }
      ],
      "payable": false,
      "stateMutability": "view",
      "type": "function"
    },
    {
      "constant": false,
      "inputs": [],
      "name": "setup",
      "outputs": [],
      "payable": false,
      "stateMutability": "nonpayable",
      "type": "function"
    },
    {
      "constant": false,
      "inputs": [
        {
          "name": "to",
          "type": "address"
        },
        {
          "name": "value",
          "type": "uint256"
        },
        {
          "name": "data",
          "type": "bytes"
        },
        {
          "name": "operation",
          "type": "uint8"
        },
        {
          "name": "nonce",
          "type": "uint256"
        },
        {
          "name": "v",
          "type": "uint8[]"
        },
        {
          "name": "r",
          "type": "bytes32[]"
        },
        {
          "name": "s",
          "type": "bytes32[]"
        }
      ],
      "name": "execTransaction",
      "outputs": [],
      "payable": false,
      "stateMutability": "nonpayable",
      "type": "function"
    },
    {
      "constant": true,
      "inputs": [
        {
          "name": "to",
          "type": "address"
        },
        {
          "name": "value",
          "type": "uint256"
        },
        {
          "name": "data",
          "type": "bytes"
        },
        {
          "name": "operation",
          "type": "uint8"
        },
        {
          "name": "nonce",
          "type": "uint256"
        }
      ],
      "name": "getTransactionHash",
      "outputs": [
        {
          "name": "",
          "type": "bytes32"
        }
      ],
      "payable": false,
      "stateMutability": "view",
      "type": "function"
    }
  ],
  "bytecode": "0x608060405234801561001057600080fd5b50610e5a806100206000396000f30060806040526004361061008e576000357c0100000000000000000000000000000000000000000000000000000000900463ffffffff16806319604647146100935780632b50004114610206578063481c6a75146102cc5780637de7edef14610323578063a3f4df7e14610366578063ba0bba40146103f6578063e52cb36a1461040d578063ffa1ad7414610456575b600080fd5b34801561009f57600080fd5b50610204600480360381019080803573ffffffffffffffffffffffffffffffffffffffff16906020019092919080359060200190929190803590602001908201803590602001908080601f0160208091040260200160405190810160405280939291908181526020018383808284378201915050505050509192919290803560ff169060200190929190803590602001909291908035906020019082018035906020019080806020026020016040519081016040528093929190818152602001838360200280828437820191505050505050919291929080359060200190820180359060200190808060200260200160405190810160405280939291908181526020018383602002808284378201915050505050509192919290803590602001908201803590602001908080602002602001604051908101604052809392919081815260200183836020028082843782019150505050505091929192905050506104e6565b005b34801561021257600080fd5b506102ae600480360381019080803573ffffffffffffffffffffffffffffffffffffffff16906020019092919080359060200190929190803590602001908201803590602001908080601f0160208091040260200160405190810160405280939291908181526020018383808284378201915050505050509192919290803560ff16906020019092919080359060200190929190505050610705565b60405180826000191660001916815260200191505060405180910390f35b3480156102d857600080fd5b506102e1610921565b604051808273ffffffffffffffffffffffffffffffffffffffff1673ffffffffffffffffffffffffffffffffffffffff16815260200191505060405180910390f35b34801561032f57600080fd5b50610364600480360381019080803573ffffffffffffffffffffffffffffffffffffffff169060200190929190505050610947565b005b34801561037257600080fd5b5061037b610a0c565b6040518080602001828103825283818151815260200191508051906020019080838360005b838110156103bb5780820151818401526020810190506103a0565b50505050905090810190601f1680156103e85780820380516001836020036101000a031916815260200191505b509250505060405180910390f35b34801561040257600080fd5b5061040b610a45565b005b34801561041957600080fd5b5061043c6004803603810190808035600019169060200190929190505050610a4f565b604051808215151515815260200191505060405180910390f35b34801561046257600080fd5b5061046b610a6f565b6040518080602001828103825283818151815260200191508051906020019080838360005b838110156104ab578082015181840152602081019050610490565b50505050905090810190601f1680156104d85780820380516001836020036101000a031916815260200191505b509250505060405180910390f35b60006104f58989898989610705565b905060026000826000191660001916815260200190815260200160002060009054906101000a900460ff1615151561052c57600080fd5b61053881858585610aa8565b600160026000836000191660001916815260200190815260200160002060006101000a81548160ff021916908315150217905550600160009054906101000a900473ffffffffffffffffffffffffffffffffffffffff1673ffffffffffffffffffffffffffffffffffffffff1663468721a78a8a8a8a6040518563ffffffff167c0100000000000000000000000000000000000000000000000000000000028152600401808573ffffffffffffffffffffffffffffffffffffffff1673ffffffffffffffffffffffffffffffffffffffff1681526020018481526020018060200183600281111561062557fe5b60ff168152602001828103825284818151815260200191508051906020019080838360005b8381101561066557808201518184015260208101905061064a565b50505050905090810190601f1680156106925780820380516001836020036101000a031916815260200191505b5095505050505050602060405180830381600087803b1580156106b457600080fd5b505af11580156106c8573d6000803e3d6000fd5b505050506040513d60208110156106de57600080fd5b810190808051906020019092919050505015156106fa57600080fd5b505050505050505050565b600060197f01000000000000000000000000000000000000000000000000000000000000000260007f01000000000000000000000000000000000000000000000000000000000000000230888888888860405180897effffffffffffffffffffffffffffffffffffffffffffffffffffffffffffff19167effffffffffffffffffffffffffffffffffffffffffffffffffffffffffffff19168152600101887effffffffffffffffffffffffffffffffffffffffffffffffffffffffffffff19167effffffffffffffffffffffffffffffffffffffffffffffffffffffffffffff191681526001018773ffffffffffffffffffffffffffffffffffffffff1673ffffffffffffffffffffffffffffffffffffffff166c010000000000000000000000000281526014018673ffffffffffffffffffffffffffffffffffffffff1673ffffffffffffffffffffffffffffffffffffffff166c0100000000000000000000000002815260140185815260200184805190602001908083835b6020831015156108a65780518252602082019150602081019050602083039250610881565b6001836020036101000a0380198251168184511680821785525050505050509050018360028111156108d457fe5b60ff167f0100000000000000000000000000000000000000000000000000000000000000028152600101828152602001985050505050505050506040518091039020905095945050505050565b600160009054906101000a900473ffffffffffffffffffffffffffffffffffffffff1681565b600160009054906101000a900473ffffffffffffffffffffffffffffffffffffffff1673ffffffffffffffffffffffffffffffffffffffff163373ffffffffffffffffffffffffffffffffffffffff161415156109a357600080fd5b60008173ffffffffffffffffffffffffffffffffffffffff16141515156109c957600080fd5b806000806101000a81548173ffffffffffffffffffffffffffffffffffffffff021916908373ffffffffffffffffffffffffffffffffffffffff16021790555050565b6040805190810160405280601481526020017f5374617465204368616e6e656c204d6f64756c6500000000000000000000000081525081565b610a4d610da4565b565b60026020528060005260406000206000915054906101000a900460ff1681565b6040805190810160405280600581526020017f302e302e3100000000000000000000000000000000000000000000000000000081525081565b60008060008060009350600160009054906101000a900473ffffffffffffffffffffffffffffffffffffffff1673ffffffffffffffffffffffffffffffffffffffff1663e75235b86040518163ffffffff167c0100000000000000000000000000000000000000000000000000000000028152600401602060405180830381600087803b158015610b3857600080fd5b505af1158015610b4c573d6000803e3d6000fd5b505050506040513d6020811015610b6257600080fd5b81019080805190602001909291905050509050600091505b8060ff16821015610d9a576001888884815181101515610b9657fe5b906020019060200201518885815181101515610bae57fe5b906020019060200201518886815181101515610bc657fe5b90602001906020020151604051600081526020016040526040518085600019166000191681526020018460ff1660ff1681526020018360001916600019168152602001826000191660001916815260200194505050505060206040516020810390808403906000865af1158015610c41573d6000803e3d6000fd5b505050602060405103519250600160009054906101000a900473ffffffffffffffffffffffffffffffffffffffff1673ffffffffffffffffffffffffffffffffffffffff16632f54bf6e846040518263ffffffff167c0100000000000000000000000000000000000000000000000000000000028152600401808273ffffffffffffffffffffffffffffffffffffffff1673ffffffffffffffffffffffffffffffffffffffff168152602001915050602060405180830381600087803b158015610d0a57600080fd5b505af1158015610d1e573d6000803e3d6000fd5b505050506040513d6020811015610d3457600080fd5b81019080805190602001909291905050501515610d5057600080fd5b8373ffffffffffffffffffffffffffffffffffffffff168373ffffffffffffffffffffffffffffffffffffffff16111515610d8a57600080fd5b8293508180600101925050610b7a565b5050505050505050565b6000600160009054906101000a900473ffffffffffffffffffffffffffffffffffffffff1673ffffffffffffffffffffffffffffffffffffffff16141515610deb57600080fd5b33600160006101000a81548173ffffffffffffffffffffffffffffffffffffffff021916908373ffffffffffffffffffffffffffffffffffffffff1602179055505600a165627a7a72305820a4183092cbe869320dacc60413aa4faaa13aa1779d1603c8db847137fdfc7df10029",
  "source": "pragma solidity 0.4.23;\nimport \"../Module.sol\";\nimport \"../OwnerManager.sol\";\n\n\n/// @title Gnosis Safe State Module - A module that allows interaction with statechannels.\n/// @author Stefan George - <stefan@gnosis.pm>\n/// @author Richard Meissner - <richard@gnosis.pm>\ncontract StateChannelModule is Module {\n\n    string public constant NAME = \"State Channel Module\";\n    string public constant VERSION = \"0.0.1\";\n\n    // isExecuted mapping allows to check if a transaction (by hash) was already executed.\n    mapping (bytes32 => bool) public isExecuted;\n\n    /// @dev Setup function sets manager\n    function setup()\n        public\n    {\n        setManager();\n    }\n\n    /// @dev Allows to execute a Safe transaction confirmed by required number of owners.\n    /// @param to Destination address of Safe transaction.\n    /// @param value Ether value of Safe transaction.\n    /// @param data Data payload of Safe transaction.\n    /// @param operation Operation type of Safe transaction.\n    /// @param nonce Nonce used for this Safe transaction.\n    /// @param v Array of signature V values sorted by owner addresses.\n    /// @param r Array of signature R values sorted by owner addresses.\n    /// @param s Array of signature S values sorted by owner addresses.\n    function execTransaction(\n        address to, \n        uint256 value, \n        bytes data, \n        Enum.Operation operation, \n        uint256 nonce,\n        uint8[] v, \n        bytes32[] r, \n        bytes32[] s\n    )\n        public\n    {\n        bytes32 transactionHash = getTransactionHash(to, value, data, operation, nonce);\n        require(!isExecuted[transactionHash]);\n        checkHash(transactionHash, v, r, s);\n        // Mark as executed and execute transaction.\n        isExecuted[transactionHash] = true;\n        require(manager.execTransactionFromModule(to, value, data, operation));\n    }\n\n    function checkHash(bytes32 transactionHash, uint8[] v, bytes32[] r, bytes32[] s)\n        internal\n        view\n    {\n        // There cannot be an owner with address 0.\n        address lastOwner = address(0);\n        address currentOwner;\n        uint256 i;\n        uint8 threshold = OwnerManager(manager).getThreshold();\n        // Validate threshold is reached.\n        for (i = 0; i < threshold; i++) {\n            currentOwner = ecrecover(transactionHash, v[i], r[i], s[i]);\n            require(OwnerManager(manager).isOwner(currentOwner));\n            require(currentOwner > lastOwner);\n            lastOwner = currentOwner;\n        }\n    }\n\n    /// @dev Returns hash to be signed by owners.\n    /// @param to Destination address.\n    /// @param value Ether value.\n    /// @param data Data payload.\n    /// @param operation Operation type.\n    /// @param nonce Transaction nonce.\n    /// @return Transaction hash.\n    function getTransactionHash(\n        address to, \n        uint256 value, \n        bytes data, \n        Enum.Operation operation, \n        uint256 nonce\n    )\n        public\n        view\n        returns (bytes32)\n    {\n        return keccak256(byte(0x19), byte(0), this, to, value, data, operation, nonce);\n    }\n}\n",
  "sourcePath": "/Users/apanizo/git/gnosis/safe-contracts/contracts/modules/StateChannelModule.sol",
  "compiler": {
    "name": "solc",
    "version": "0.4.23+commit.124ca40d.Emscripten.clang"
  },
  "schemaVersion": "2.0.0",
  "updatedAt": "2018-05-26T06:28:28.355Z"
}