{
  "contractName": "AllowanceModule",
  "abi": [
    {
      "constant": true,
      "inputs": [],
      "name": "DOMAIN_SEPARATOR_TYPEHASH",
      "outputs": [
        {
          "internalType": "bytes32",
          "name": "",
          "type": "bytes32"
        }
      ],
      "payable": false,
      "stateMutability": "view",
      "type": "function"
    },
    {
      "constant": true,
      "inputs": [
        {
          "internalType": "address",
          "name": "",
          "type": "address"
        }
      ],
      "name": "delegatesStart",
      "outputs": [
        {
          "internalType": "uint48",
          "name": "",
          "type": "uint48"
        }
      ],
      "payable": false,
      "stateMutability": "view",
      "type": "function"
    },
    {
      "constant": true,
      "inputs": [],
      "name": "ALLOWANCE_TRANSFER_TYPEHASH",
      "outputs": [
        {
          "internalType": "bytes32",
          "name": "",
          "type": "bytes32"
        }
      ],
      "payable": false,
      "stateMutability": "view",
      "type": "function"
    },
    {
      "constant": true,
      "inputs": [],
      "name": "NAME",
      "outputs": [
        {
          "internalType": "string",
          "name": "",
          "type": "string"
        }
      ],
      "payable": false,
      "stateMutability": "view",
      "type": "function"
    },
    {
      "constant": true,
      "inputs": [
        {
          "internalType": "address",
          "name": "",
          "type": "address"
        },
        {
          "internalType": "address",
          "name": "",
          "type": "address"
        },
        {
          "internalType": "address",
          "name": "",
          "type": "address"
        }
      ],
      "name": "allowances",
      "outputs": [
        {
          "internalType": "uint96",
          "name": "amount",
          "type": "uint96"
        },
        {
          "internalType": "uint96",
          "name": "spent",
          "type": "uint96"
        },
        {
          "internalType": "uint16",
          "name": "resetTimeMin",
          "type": "uint16"
        },
        {
          "internalType": "uint32",
          "name": "lastResetMin",
          "type": "uint32"
        },
        {
          "internalType": "uint16",
          "name": "nonce",
          "type": "uint16"
        }
      ],
      "payable": false,
      "stateMutability": "view",
      "type": "function"
    },
    {
      "constant": true,
      "inputs": [
        {
          "internalType": "address",
          "name": "",
          "type": "address"
        },
        {
          "internalType": "uint48",
          "name": "",
          "type": "uint48"
        }
      ],
      "name": "delegates",
      "outputs": [
        {
          "internalType": "address",
          "name": "delegate",
          "type": "address"
        },
        {
          "internalType": "uint48",
          "name": "prev",
          "type": "uint48"
        },
        {
          "internalType": "uint48",
          "name": "next",
          "type": "uint48"
        }
      ],
      "payable": false,
      "stateMutability": "view",
      "type": "function"
    },
    {
      "constant": true,
      "inputs": [
        {
          "internalType": "address",
          "name": "",
          "type": "address"
        },
        {
          "internalType": "address",
          "name": "",
          "type": "address"
        },
        {
          "internalType": "uint256",
          "name": "",
          "type": "uint256"
        }
      ],
      "name": "tokens",
      "outputs": [
        {
          "internalType": "address",
          "name": "",
          "type": "address"
        }
      ],
      "payable": false,
      "stateMutability": "view",
      "type": "function"
    },
    {
      "constant": true,
      "inputs": [],
      "name": "domainSeparator",
      "outputs": [
        {
          "internalType": "bytes32",
          "name": "",
          "type": "bytes32"
        }
      ],
      "payable": false,
      "stateMutability": "view",
      "type": "function"
    },
    {
      "constant": true,
      "inputs": [],
      "name": "VERSION",
      "outputs": [
        {
          "internalType": "string",
          "name": "",
          "type": "string"
        }
      ],
      "payable": false,
      "stateMutability": "view",
      "type": "function"
    },
    {
      "inputs": [],
      "payable": false,
      "stateMutability": "nonpayable",
      "type": "constructor"
    },
    {
      "anonymous": false,
      "inputs": [
        {
          "indexed": true,
          "internalType": "address",
          "name": "safe",
          "type": "address"
        },
        {
          "indexed": false,
          "internalType": "address",
          "name": "delegate",
          "type": "address"
        }
      ],
      "name": "AddDelegate",
      "type": "event"
    },
    {
      "anonymous": false,
      "inputs": [
        {
          "indexed": true,
          "internalType": "address",
          "name": "safe",
          "type": "address"
        },
        {
          "indexed": false,
          "internalType": "address",
          "name": "delegate",
          "type": "address"
        }
      ],
      "name": "RemoveDelegate",
      "type": "event"
    },
    {
      "anonymous": false,
      "inputs": [
        {
          "indexed": true,
          "internalType": "address",
          "name": "safe",
          "type": "address"
        },
        {
          "indexed": false,
          "internalType": "address",
          "name": "delegate",
          "type": "address"
        },
        {
          "indexed": false,
          "internalType": "address",
          "name": "token",
          "type": "address"
        },
        {
          "indexed": false,
          "internalType": "address",
          "name": "to",
          "type": "address"
        },
        {
          "indexed": false,
          "internalType": "uint96",
          "name": "value",
          "type": "uint96"
        },
        {
          "indexed": false,
          "internalType": "uint16",
          "name": "nonce",
          "type": "uint16"
        }
      ],
      "name": "ExecuteAllowanceTransfer",
      "type": "event"
    },
    {
      "anonymous": false,
      "inputs": [
        {
          "indexed": true,
          "internalType": "address",
          "name": "safe",
          "type": "address"
        },
        {
          "indexed": false,
          "internalType": "address",
          "name": "delegate",
          "type": "address"
        },
        {
          "indexed": false,
          "internalType": "address",
          "name": "token",
          "type": "address"
        },
        {
          "indexed": false,
          "internalType": "uint96",
          "name": "allowanceAmount",
          "type": "uint96"
        },
        {
          "indexed": false,
          "internalType": "uint16",
          "name": "resetTime",
          "type": "uint16"
        }
      ],
      "name": "SetAllowance",
      "type": "event"
    },
    {
      "constant": false,
      "inputs": [
        {
          "internalType": "address",
          "name": "delegate",
          "type": "address"
        },
        {
          "internalType": "address",
          "name": "token",
          "type": "address"
        },
        {
          "internalType": "uint96",
          "name": "allowanceAmount",
          "type": "uint96"
        },
        {
          "internalType": "uint16",
          "name": "resetTimeMin",
          "type": "uint16"
        },
        {
          "internalType": "uint32",
          "name": "resetBaseMin",
          "type": "uint32"
        }
      ],
      "name": "setAllowance",
      "outputs": [],
      "payable": false,
      "stateMutability": "nonpayable",
      "type": "function"
    },
    {
      "constant": false,
      "inputs": [
        {
          "internalType": "address",
          "name": "delegate",
          "type": "address"
        },
        {
          "internalType": "address",
          "name": "token",
          "type": "address"
        }
      ],
      "name": "resetAllowance",
      "outputs": [],
      "payable": false,
      "stateMutability": "nonpayable",
      "type": "function"
    },
    {
      "constant": false,
      "inputs": [
        {
          "internalType": "contract GnosisSafe",
          "name": "safe",
          "type": "address"
        },
        {
          "internalType": "address",
          "name": "token",
          "type": "address"
        },
        {
          "internalType": "address payable",
          "name": "to",
          "type": "address"
        },
        {
          "internalType": "uint96",
          "name": "amount",
          "type": "uint96"
        },
        {
          "internalType": "address",
          "name": "paymentToken",
          "type": "address"
        },
        {
          "internalType": "uint96",
          "name": "payment",
          "type": "uint96"
        },
        {
          "internalType": "address",
          "name": "delegate",
          "type": "address"
        },
        {
          "internalType": "bytes",
          "name": "signature",
          "type": "bytes"
        }
      ],
      "name": "executeAllowanceTransfer",
      "outputs": [],
      "payable": false,
      "stateMutability": "nonpayable",
      "type": "function"
    },
    {
      "constant": true,
      "inputs": [
        {
          "internalType": "address",
          "name": "safe",
          "type": "address"
        },
        {
          "internalType": "address",
          "name": "token",
          "type": "address"
        },
        {
          "internalType": "address",
          "name": "to",
          "type": "address"
        },
        {
          "internalType": "uint96",
          "name": "amount",
          "type": "uint96"
        },
        {
          "internalType": "address",
          "name": "paymentToken",
          "type": "address"
        },
        {
          "internalType": "uint96",
          "name": "payment",
          "type": "uint96"
        },
        {
          "internalType": "uint16",
          "name": "nonce",
          "type": "uint16"
        }
      ],
      "name": "generateTransferHash",
      "outputs": [
        {
          "internalType": "bytes32",
          "name": "",
          "type": "bytes32"
        }
      ],
      "payable": false,
      "stateMutability": "view",
      "type": "function"
    },
    {
      "constant": true,
      "inputs": [
        {
          "internalType": "address",
          "name": "safe",
          "type": "address"
        },
        {
          "internalType": "address",
          "name": "delegate",
          "type": "address"
        }
      ],
      "name": "getTokens",
      "outputs": [
        {
          "internalType": "address[]",
          "name": "",
          "type": "address[]"
        }
      ],
      "payable": false,
      "stateMutability": "view",
      "type": "function"
    },
    {
      "constant": true,
      "inputs": [
        {
          "internalType": "address",
          "name": "safe",
          "type": "address"
        },
        {
          "internalType": "address",
          "name": "delegate",
          "type": "address"
        },
        {
          "internalType": "address",
          "name": "token",
          "type": "address"
        }
      ],
      "name": "getTokenAllowance",
      "outputs": [
        {
          "internalType": "uint256[5]",
          "name": "",
          "type": "uint256[5]"
        }
      ],
      "payable": false,
      "stateMutability": "view",
      "type": "function"
    },
    {
      "constant": false,
      "inputs": [
        {
          "internalType": "address",
          "name": "delegate",
          "type": "address"
        }
      ],
      "name": "addDelegate",
      "outputs": [],
      "payable": false,
      "stateMutability": "nonpayable",
      "type": "function"
    },
    {
      "constant": false,
      "inputs": [
        {
          "internalType": "address",
          "name": "delegate",
          "type": "address"
        }
      ],
      "name": "removeDelegate",
      "outputs": [],
      "payable": false,
      "stateMutability": "nonpayable",
      "type": "function"
    },
    {
      "constant": true,
      "inputs": [
        {
          "internalType": "address",
          "name": "safe",
          "type": "address"
        },
        {
          "internalType": "uint48",
          "name": "start",
          "type": "uint48"
        },
        {
          "internalType": "uint8",
          "name": "pageSize",
          "type": "uint8"
        }
      ],
      "name": "getDelegates",
      "outputs": [
        {
          "internalType": "address[]",
          "name": "results",
          "type": "address[]"
        },
        {
          "internalType": "uint48",
          "name": "next",
          "type": "uint48"
        }
      ],
      "payable": false,
      "stateMutability": "view",
      "type": "function"
    }
  ],
  "bytecode": "0x608060405234801561001057600080fd5b507f035aff83d86937d35b32e04f0ddc6ff469290eef2f1b692d8a815c89404d474960001b30604051602001808381526020018273ffffffffffffffffffffffffffffffffffffffff1673ffffffffffffffffffffffffffffffffffffffff16815260200192505050604051602081830303815290604052805190602001206004819055506137d9806100a46000396000f3fe608060405234801561001057600080fd5b50600436106101165760003560e01c8063beaeb388116100a2578063e71bdf4111610071578063e71bdf411461094b578063eb37abe01461098f578063f56e81fa14610a5e578063f698da2514610b0c578063ffa1ad7414610b2a57610116565b8063beaeb38814610693578063c19bf50e1461072d578063ce60c69214610791578063d626e0431461085557610116565b806367e7646f116100e957806367e7646f1461034b5780638d0e8e1d1461038f57806394b31fbd14610448578063a3f4df7e14610508578063b713c9d41461058b57610116565b80631db61b541461011b578063310a3bb11461013957806343abf5fe146101a15780634515641a146101bf575b600080fd5b610123610bad565b6040518082815260200191505060405180910390f35b61017b6004803603602081101561014f57600080fd5b81019080803573ffffffffffffffffffffffffffffffffffffffff169060200190929190505050610bd4565b604051808265ffffffffffff1665ffffffffffff16815260200191505060405180910390f35b6101a9610bf9565b6040518082815260200191505060405180910390f35b61034960048036036101008110156101d657600080fd5b81019080803573ffffffffffffffffffffffffffffffffffffffff169060200190929190803573ffffffffffffffffffffffffffffffffffffffff169060200190929190803573ffffffffffffffffffffffffffffffffffffffff16906020019092919080356bffffffffffffffffffffffff169060200190929190803573ffffffffffffffffffffffffffffffffffffffff16906020019092919080356bffffffffffffffffffffffff169060200190929190803573ffffffffffffffffffffffffffffffffffffffff169060200190929190803590602001906401000000008111156102c357600080fd5b8201836020820111156102d557600080fd5b803590602001918460018302840111640100000000831117156102f757600080fd5b91908080601f016020809104026020016040519081016040528093929190818152602001838380828437600081840152601f19601f820116905080830192505050505050509192919290505050610c15565b005b61038d6004803603602081101561036157600080fd5b81019080803573ffffffffffffffffffffffffffffffffffffffff169060200190929190505050611022565b005b6103f1600480360360408110156103a557600080fd5b81019080803573ffffffffffffffffffffffffffffffffffffffff169060200190929190803573ffffffffffffffffffffffffffffffffffffffff16906020019092919050505061149e565b6040518080602001828103825283818151815260200191508051906020019060200280838360005b83811015610434578082015181840152602081019050610419565b505050509050019250505060405180910390f35b6104ca6004803603606081101561045e57600080fd5b81019080803573ffffffffffffffffffffffffffffffffffffffff169060200190929190803573ffffffffffffffffffffffffffffffffffffffff169060200190929190803573ffffffffffffffffffffffffffffffffffffffff1690602001909291905050506115a9565b6040518082600560200280838360005b838110156104f55780820151818401526020810190506104da565b5050505090500191505060405180910390f35b610510611635565b6040518080602001828103825283818151815260200191508051906020019080838360005b83811015610550578082015181840152602081019050610535565b50505050905090810190601f16801561057d5780820380516001836020036101000a031916815260200191505b509250505060405180910390f35b61060d600480360360608110156105a157600080fd5b81019080803573ffffffffffffffffffffffffffffffffffffffff169060200190929190803573ffffffffffffffffffffffffffffffffffffffff169060200190929190803573ffffffffffffffffffffffffffffffffffffffff16906020019092919050505061166e565b60405180866bffffffffffffffffffffffff166bffffffffffffffffffffffff168152602001856bffffffffffffffffffffffff166bffffffffffffffffffffffff1681526020018461ffff1661ffff1681526020018363ffffffff1663ffffffff1681526020018261ffff1661ffff1681526020019550505050505060405180910390f35b61072b600480360360a08110156106a957600080fd5b81019080803573ffffffffffffffffffffffffffffffffffffffff169060200190929190803573ffffffffffffffffffffffffffffffffffffffff16906020019092919080356bffffffffffffffffffffffff169060200190929190803561ffff169060200190929190803563ffffffff16906020019092919050505061171a565b005b61078f6004803603604081101561074357600080fd5b81019080803573ffffffffffffffffffffffffffffffffffffffff169060200190929190803573ffffffffffffffffffffffffffffffffffffffff169060200190929190505050611b71565b005b6107e5600480360360408110156107a757600080fd5b81019080803573ffffffffffffffffffffffffffffffffffffffff169060200190929190803565ffffffffffff169060200190929190505050611bc0565b604051808473ffffffffffffffffffffffffffffffffffffffff1673ffffffffffffffffffffffffffffffffffffffff1681526020018365ffffffffffff1665ffffffffffff1681526020018265ffffffffffff1665ffffffffffff168152602001935050505060405180910390f35b610935600480360360e081101561086b57600080fd5b81019080803573ffffffffffffffffffffffffffffffffffffffff169060200190929190803573ffffffffffffffffffffffffffffffffffffffff169060200190929190803573ffffffffffffffffffffffffffffffffffffffff16906020019092919080356bffffffffffffffffffffffff169060200190929190803573ffffffffffffffffffffffffffffffffffffffff16906020019092919080356bffffffffffffffffffffffff169060200190929190803561ffff169060200190929190505050611c3b565b6040518082815260200191505060405180910390f35b61098d6004803603602081101561096157600080fd5b81019080803573ffffffffffffffffffffffffffffffffffffffff169060200190929190505050611c60565b005b6109f0600480360360608110156109a557600080fd5b81019080803573ffffffffffffffffffffffffffffffffffffffff169060200190929190803565ffffffffffff169060200190929190803560ff1690602001909291905050506120c5565b60405180806020018365ffffffffffff1665ffffffffffff168152602001828103825284818151815260200191508051906020019060200280838360005b83811015610a49578082015181840152602081019050610a2e565b50505050905001935050505060405180910390f35b610aca60048036036060811015610a7457600080fd5b81019080803573ffffffffffffffffffffffffffffffffffffffff169060200190929190803573ffffffffffffffffffffffffffffffffffffffff1690602001909291908035906020019092919050505061246e565b604051808273ffffffffffffffffffffffffffffffffffffffff1673ffffffffffffffffffffffffffffffffffffffff16815260200191505060405180910390f35b610b146124c6565b6040518082815260200191505060405180910390f35b610b326124cc565b6040518080602001828103825283818151815260200191508051906020019080838360005b83811015610b72578082015181840152602081019050610b57565b50505050905090810190601f168015610b9f5780820380516001836020036101000a031916815260200191505b509250505060405180910390f35b7f035aff83d86937d35b32e04f0ddc6ff469290eef2f1b692d8a815c89404d474960001b81565b60036020528060005260406000206000915054906101000a900465ffffffffffff1681565b604051808061365e606c9139606c019050604051809103902081565b610c1d61353a565b610c2889848a612505565b90506060610c3f8a8a8a8a8a8a8860800151612766565b90506001826080015101826080019061ffff16908161ffff1681525050600087836020015101905082602001516bffffffffffffffffffffffff16816bffffffffffffffffffffffff16118015610cb6575082600001516bffffffffffffffffffffffff16816bffffffffffffffffffffffff1611155b610d0b576040517f08c379a000000000000000000000000000000000000000000000000000000000815260040180806020018281038252603a815260200180613723603a913960400191505060405180910390fd5b8083602001906bffffffffffffffffffffffff1690816bffffffffffffffffffffffff16815250506000866bffffffffffffffffffffffff161115610eb057610d5261353a565b8a73ffffffffffffffffffffffffffffffffffffffff168873ffffffffffffffffffffffffffffffffffffffff1614610d9557610d908c878a612505565b610d97565b835b905086816020015101915080602001516bffffffffffffffffffffffff16826bffffffffffffffffffffffff16118015610df1575080600001516bffffffffffffffffffffffff16826bffffffffffffffffffffffff1611155b610e46576040517f08c379a000000000000000000000000000000000000000000000000000000000815260040180806020018281038252604881526020018061375d6048913960600191505060405180910390fd5b8181602001906bffffffffffffffffffffffff1690816bffffffffffffffffffffffff16815250508a73ffffffffffffffffffffffffffffffffffffffff168873ffffffffffffffffffffffffffffffffffffffff1614610eae57610ead8c878a846129ab565b5b505b610ebc8b868c866129ab565b610ec88585848e612b48565b6000866bffffffffffffffffffffffff161115610eec57610eeb8b883289612c9b565b5b610ef88b8b8b8b612c9b565b8a73ffffffffffffffffffffffffffffffffffffffff167fa11cca2c2027e28ab0046aab4d4040f59d8b06e819ccd974c1e53e86aa814c19868c8c8c6001896080015103604051808673ffffffffffffffffffffffffffffffffffffffff1673ffffffffffffffffffffffffffffffffffffffff1681526020018573ffffffffffffffffffffffffffffffffffffffff1673ffffffffffffffffffffffffffffffffffffffff1681526020018473ffffffffffffffffffffffffffffffffffffffff1673ffffffffffffffffffffffffffffffffffffffff168152602001836bffffffffffffffffffffffff166bffffffffffffffffffffffff1681526020018261ffff1661ffff1681526020019550505050505060405180910390a25050505050505050505050565b61102a613593565b600260003373ffffffffffffffffffffffffffffffffffffffff1673ffffffffffffffffffffffffffffffffffffffff16815260200190815260200160002060008365ffffffffffff1665ffffffffffff1681526020019081526020016000206040518060600160405290816000820160009054906101000a900473ffffffffffffffffffffffffffffffffffffffff1673ffffffffffffffffffffffffffffffffffffffff1673ffffffffffffffffffffffffffffffffffffffff1681526020016000820160149054906101000a900465ffffffffffff1665ffffffffffff1665ffffffffffff16815260200160008201601a9054906101000a900465ffffffffffff1665ffffffffffff1665ffffffffffff16815250509050600073ffffffffffffffffffffffffffffffffffffffff16816000015173ffffffffffffffffffffffffffffffffffffffff161415611184575061149b565b6000600160003373ffffffffffffffffffffffffffffffffffffffff1673ffffffffffffffffffffffffffffffffffffffff16815260200190815260200160002060008473ffffffffffffffffffffffffffffffffffffffff1673ffffffffffffffffffffffffffffffffffffffff168152602001908152602001600020905060008090505b818054905081101561130157600082828154811061122457fe5b9060005260206000200160009054906101000a900473ffffffffffffffffffffffffffffffffffffffff16905061125961353a565b611264338784612505565b9050600081600001906bffffffffffffffffffffffff1690816bffffffffffffffffffffffff1681525050600081602001906bffffffffffffffffffffffff1690816bffffffffffffffffffffffff16815250506000816040019061ffff16908161ffff16815250506000816060019063ffffffff16908163ffffffff16815250506112f2338784846129ab565b5050808060010191505061120a565b508160400151600260003373ffffffffffffffffffffffffffffffffffffffff1673ffffffffffffffffffffffffffffffffffffffff1681526020019081526020016000206000846020015165ffffffffffff1665ffffffffffff168152602001908152602001600020600001601a6101000a81548165ffffffffffff021916908365ffffffffffff1602179055508160200151600260003373ffffffffffffffffffffffffffffffffffffffff1673ffffffffffffffffffffffffffffffffffffffff1681526020019081526020016000206000846040015165ffffffffffff1665ffffffffffff16815260200190815260200160002060000160146101000a81548165ffffffffffff021916908365ffffffffffff1602179055503373ffffffffffffffffffffffffffffffffffffffff167fdccc2d936ded24d2153d2760581a7f0dcb23ec71190c9726b3584cdd700214d484604051808273ffffffffffffffffffffffffffffffffffffffff1673ffffffffffffffffffffffffffffffffffffffff16815260200191505060405180910390a250505b50565b6060600160008473ffffffffffffffffffffffffffffffffffffffff1673ffffffffffffffffffffffffffffffffffffffff16815260200190815260200160002060008373ffffffffffffffffffffffffffffffffffffffff1673ffffffffffffffffffffffffffffffffffffffff16815260200190815260200160002080548060200260200160405190810160405280929190818152602001828054801561159c57602002820191906000526020600020905b8160009054906101000a900473ffffffffffffffffffffffffffffffffffffffff1673ffffffffffffffffffffffffffffffffffffffff1681526020019060010190808311611552575b5050505050905092915050565b6115b16135da565b6115b961353a565b6115c4858585612505565b90506040518060a0016040528082600001516bffffffffffffffffffffffff16815260200182602001516bffffffffffffffffffffffff168152602001826040015161ffff168152602001826060015163ffffffff168152602001826080015161ffff168152509150509392505050565b6040518060400160405280601081526020017f416c6c6f77616e6365204d6f64756c650000000000000000000000000000000081525081565b600060205282600052604060002060205281600052604060002060205280600052604060002060009250925050508060000160009054906101000a90046bffffffffffffffffffffffff169080600001600c9054906101000a90046bffffffffffffffffffffffff16908060000160189054906101000a900461ffff169080600001601a9054906101000a900463ffffffff169080600001601e9054906101000a900461ffff16905085565b8473ffffffffffffffffffffffffffffffffffffffff16600260003373ffffffffffffffffffffffffffffffffffffffff1673ffffffffffffffffffffffffffffffffffffffff16815260200190815260200160002060008765ffffffffffff1665ffffffffffff16815260200190815260200160002060000160009054906101000a900473ffffffffffffffffffffffffffffffffffffffff1673ffffffffffffffffffffffffffffffffffffffff1614611821576040517f08c379a000000000000000000000000000000000000000000000000000000000815260040180806020018281038252603c815260200180613622603c913960400191505060405180910390fd5b61182961353a565b611834338787612505565b90506000816080015161ffff16141561193d576001816080019061ffff16908161ffff1681525050600160003373ffffffffffffffffffffffffffffffffffffffff1673ffffffffffffffffffffffffffffffffffffffff16815260200190815260200160002060008773ffffffffffffffffffffffffffffffffffffffff1673ffffffffffffffffffffffffffffffffffffffff1681526020019081526020016000208590806001815401808255809150509060018203906000526020600020016000909192909190916101000a81548173ffffffffffffffffffffffffffffffffffffffff021916908373ffffffffffffffffffffffffffffffffffffffff160217905550505b6000603c428161194957fe5b04905060008363ffffffff161115611a11578063ffffffff168363ffffffff1611156119dd576040517f08c379a000000000000000000000000000000000000000000000000000000000815260040180806020018281038252601a8152602001807f7265736574426173654d696e203c3d2063757272656e744d696e00000000000081525060200191505060405180910390fd5b8361ffff1683820363ffffffff16816119f257fe5b068103826060019063ffffffff16908163ffffffff1681525050611a3e565b6000826060015163ffffffff161415611a3d5780826060019063ffffffff16908163ffffffff16815250505b5b83826040019061ffff16908161ffff16815250508482600001906bffffffffffffffffffffffff1690816bffffffffffffffffffffffff1681525050611a86338888856129ab565b3373ffffffffffffffffffffffffffffffffffffffff167f49caa04c5e1e168069c09df7f88c07ca87be980b0bf4570ab77fe9aae3ca7eba88888888604051808573ffffffffffffffffffffffffffffffffffffffff1673ffffffffffffffffffffffffffffffffffffffff1681526020018473ffffffffffffffffffffffffffffffffffffffff1673ffffffffffffffffffffffffffffffffffffffff168152602001836bffffffffffffffffffffffff166bffffffffffffffffffffffff1681526020018261ffff1661ffff16815260200194505050505060405180910390a250505050505050565b611b7961353a565b611b84338484612505565b9050600081602001906bffffffffffffffffffffffff1690816bffffffffffffffffffffffff1681525050611bbb338484846129ab565b505050565b6002602052816000526040600020602052806000526040600020600091509150508060000160009054906101000a900473ffffffffffffffffffffffffffffffffffffffff16908060000160149054906101000a900465ffffffffffff169080600001601a9054906101000a900465ffffffffffff16905083565b6000611c4c88888888888888612766565b805190602001209050979650505050505050565b600073ffffffffffffffffffffffffffffffffffffffff168173ffffffffffffffffffffffffffffffffffffffff161415611d03576040517f08c379a00000000000000000000000000000000000000000000000000000000081526004018080602001828103825260188152602001807f496e76616c69642064656c65676174652061646472657373000000000000000081525060200191505060405180910390fd5b6000819050600073ffffffffffffffffffffffffffffffffffffffff16600260003373ffffffffffffffffffffffffffffffffffffffff1673ffffffffffffffffffffffffffffffffffffffff16815260200190815260200160002060008365ffffffffffff1665ffffffffffff16815260200190815260200160002060000160009054906101000a900473ffffffffffffffffffffffffffffffffffffffff1673ffffffffffffffffffffffffffffffffffffffff1614611dc557506120c2565b6000600360003373ffffffffffffffffffffffffffffffffffffffff1673ffffffffffffffffffffffffffffffffffffffff16815260200190815260200160002060009054906101000a900465ffffffffffff16905060405180606001604052808473ffffffffffffffffffffffffffffffffffffffff168152602001600065ffffffffffff1681526020018265ffffffffffff16815250600260003373ffffffffffffffffffffffffffffffffffffffff1673ffffffffffffffffffffffffffffffffffffffff16815260200190815260200160002060008465ffffffffffff1665ffffffffffff16815260200190815260200160002060008201518160000160006101000a81548173ffffffffffffffffffffffffffffffffffffffff021916908373ffffffffffffffffffffffffffffffffffffffff16021790555060208201518160000160146101000a81548165ffffffffffff021916908365ffffffffffff160217905550604082015181600001601a6101000a81548165ffffffffffff021916908365ffffffffffff16021790555090505081600260003373ffffffffffffffffffffffffffffffffffffffff1673ffffffffffffffffffffffffffffffffffffffff16815260200190815260200160002060008365ffffffffffff1665ffffffffffff16815260200190815260200160002060000160146101000a81548165ffffffffffff021916908365ffffffffffff16021790555081600360003373ffffffffffffffffffffffffffffffffffffffff1673ffffffffffffffffffffffffffffffffffffffff16815260200190815260200160002060006101000a81548165ffffffffffff021916908365ffffffffffff1602179055503373ffffffffffffffffffffffffffffffffffffffff167f2fd5b26f00131bd8ca0fc556207292b85a6bec241341df82724333227458e63084604051808273ffffffffffffffffffffffffffffffffffffffff1673ffffffffffffffffffffffffffffffffffffffff16815260200191505060405180910390a250505b50565b606060008260ff166040519080825280602002602001820160405280156120fb5781602001602082028038833980820191505090505b50915060008090506000808665ffffffffffff16141561216c57600360008873ffffffffffffffffffffffffffffffffffffffff1673ffffffffffffffffffffffffffffffffffffffff16815260200190815260200160002060009054906101000a900465ffffffffffff1661216e565b855b9050612178613593565b600260008973ffffffffffffffffffffffffffffffffffffffff1673ffffffffffffffffffffffffffffffffffffffff16815260200190815260200160002060008365ffffffffffff1665ffffffffffff1681526020019081526020016000206040518060600160405290816000820160009054906101000a900473ffffffffffffffffffffffffffffffffffffffff1673ffffffffffffffffffffffffffffffffffffffff1673ffffffffffffffffffffffffffffffffffffffff1681526020016000820160149054906101000a900465ffffffffffff1665ffffffffffff1665ffffffffffff16815260200160008201601a9054906101000a900465ffffffffffff1665ffffffffffff1665ffffffffffff168152505090505b600073ffffffffffffffffffffffffffffffffffffffff16816000015173ffffffffffffffffffffffffffffffffffffffff16141580156122da57508560ff168360ff16105b15612459578060000151858460ff16815181106122f357fe5b602002602001019073ffffffffffffffffffffffffffffffffffffffff16908173ffffffffffffffffffffffffffffffffffffffff16815250508280600101935050600260008973ffffffffffffffffffffffffffffffffffffffff1673ffffffffffffffffffffffffffffffffffffffff1681526020019081526020016000206000826040015165ffffffffffff1665ffffffffffff1681526020019081526020016000206040518060600160405290816000820160009054906101000a900473ffffffffffffffffffffffffffffffffffffffff1673ffffffffffffffffffffffffffffffffffffffff1673ffffffffffffffffffffffffffffffffffffffff1681526020016000820160149054906101000a900465ffffffffffff1665ffffffffffff1665ffffffffffff16815260200160008201601a9054906101000a900465ffffffffffff1665ffffffffffff1665ffffffffffff16815250509050612294565b80600001519350828552505050935093915050565b6001602052826000526040600020602052816000526040600020818154811061249357fe5b90600052602060002001600092509250509054906101000a900473ffffffffffffffffffffffffffffffffffffffff1681565b60045481565b6040518060400160405280600581526020017f302e312e3000000000000000000000000000000000000000000000000000000081525081565b61250d61353a565b6000808573ffffffffffffffffffffffffffffffffffffffff1673ffffffffffffffffffffffffffffffffffffffff16815260200190815260200160002060008473ffffffffffffffffffffffffffffffffffffffff1673ffffffffffffffffffffffffffffffffffffffff16815260200190815260200160002060008373ffffffffffffffffffffffffffffffffffffffff1673ffffffffffffffffffffffffffffffffffffffff1681526020019081526020016000206040518060a00160405290816000820160009054906101000a90046bffffffffffffffffffffffff166bffffffffffffffffffffffff166bffffffffffffffffffffffff16815260200160008201600c9054906101000a90046bffffffffffffffffffffffff166bffffffffffffffffffffffff166bffffffffffffffffffffffff1681526020016000820160189054906101000a900461ffff1661ffff1661ffff16815260200160008201601a9054906101000a900463ffffffff1663ffffffff1663ffffffff16815260200160008201601e9054906101000a900461ffff1661ffff1661ffff168152505090506000603c42816126c057fe5b0490506000826040015161ffff161180156126f55750816040015161ffff16810363ffffffff16826060015163ffffffff1611155b1561275b57600082602001906bffffffffffffffffffffffff1690816bffffffffffffffffffffffff1681525050816040015161ffff168260600151820363ffffffff168161274057fe5b068103826060019063ffffffff16908163ffffffff16815250505b819150509392505050565b60606000604051808061365e606c9139606c019050604051809103902089898989898989604051602001808981526020018873ffffffffffffffffffffffffffffffffffffffff1673ffffffffffffffffffffffffffffffffffffffff1681526020018773ffffffffffffffffffffffffffffffffffffffff1673ffffffffffffffffffffffffffffffffffffffff1681526020018673ffffffffffffffffffffffffffffffffffffffff1673ffffffffffffffffffffffffffffffffffffffff168152602001856bffffffffffffffffffffffff166bffffffffffffffffffffffff1681526020018473ffffffffffffffffffffffffffffffffffffffff1673ffffffffffffffffffffffffffffffffffffffff168152602001836bffffffffffffffffffffffff166bffffffffffffffffffffffff1681526020018261ffff1661ffff16815260200198505050505050505050604051602081830303815290604052805190602001209050601960f81b600160f81b6004548360405160200180857effffffffffffffffffffffffffffffffffffffffffffffffffffffffffffff19167effffffffffffffffffffffffffffffffffffffffffffffffffffffffffffff19168152600101847effffffffffffffffffffffffffffffffffffffffffffffffffffffffffffff19167effffffffffffffffffffffffffffffffffffffffffffffffffffffffffffff19168152600101838152602001828152602001945050505050604051602081830303815290604052915050979650505050505050565b806000808673ffffffffffffffffffffffffffffffffffffffff1673ffffffffffffffffffffffffffffffffffffffff16815260200190815260200160002060008573ffffffffffffffffffffffffffffffffffffffff1673ffffffffffffffffffffffffffffffffffffffff16815260200190815260200160002060008473ffffffffffffffffffffffffffffffffffffffff1673ffffffffffffffffffffffffffffffffffffffff16815260200190815260200160002060008201518160000160006101000a8154816bffffffffffffffffffffffff02191690836bffffffffffffffffffffffff160217905550602082015181600001600c6101000a8154816bffffffffffffffffffffffff02191690836bffffffffffffffffffffffff16021790555060408201518160000160186101000a81548161ffff021916908361ffff160217905550606082015181600001601a6101000a81548163ffffffff021916908363ffffffff160217905550608082015181600001601e6101000a81548161ffff021916908361ffff16021790555090505050505050565b6000612b5484846130e5565b90508073ffffffffffffffffffffffffffffffffffffffff168573ffffffffffffffffffffffffffffffffffffffff16148015612c3f57508073ffffffffffffffffffffffffffffffffffffffff16600260008473ffffffffffffffffffffffffffffffffffffffff1673ffffffffffffffffffffffffffffffffffffffff16815260200190815260200160002060008365ffffffffffff1665ffffffffffff16815260200190815260200160002060000160009054906101000a900473ffffffffffffffffffffffffffffffffffffffff1673ffffffffffffffffffffffffffffffffffffffff16145b612c94576040517f08c379a00000000000000000000000000000000000000000000000000000000081526004018080602001828103825260598152602001806136ca6059913960600191505060405180910390fd5b5050505050565b600073ffffffffffffffffffffffffffffffffffffffff168373ffffffffffffffffffffffffffffffffffffffff161415612e42578373ffffffffffffffffffffffffffffffffffffffff1663468721a7838360006040518463ffffffff1660e01b8152600401808473ffffffffffffffffffffffffffffffffffffffff1673ffffffffffffffffffffffffffffffffffffffff168152602001836bffffffffffffffffffffffff16815260200180602001836001811115612d5957fe5b60ff168152602001828103825260008152602001602001945050505050602060405180830381600087803b158015612d9057600080fd5b505af1158015612da4573d6000803e3d6000fd5b505050506040513d6020811015612dba57600080fd5b8101908080519060200190929190505050612e3d576040517f08c379a00000000000000000000000000000000000000000000000000000000081526004018080602001828103825260208152602001807f436f756c64206e6f742065786563757465206574686572207472616e7366657281525060200191505060405180910390fd5b6130df565b60608282604051602401808373ffffffffffffffffffffffffffffffffffffffff1673ffffffffffffffffffffffffffffffffffffffff168152602001826bffffffffffffffffffffffff166bffffffffffffffffffffffff168152602001925050506040516020818303038152906040527fa9059cbb000000000000000000000000000000000000000000000000000000007bffffffffffffffffffffffffffffffffffffffffffffffffffffffff19166020820180517bffffffffffffffffffffffffffffffffffffffffffffffffffffffff838183161783525050505090508473ffffffffffffffffffffffffffffffffffffffff1663468721a78560008460006040518563ffffffff1660e01b8152600401808573ffffffffffffffffffffffffffffffffffffffff1673ffffffffffffffffffffffffffffffffffffffff16815260200184815260200180602001836001811115612fa157fe5b60ff168152602001828103825284818151815260200191508051906020019080838360005b83811015612fe1578082015181840152602081019050612fc6565b50505050905090810190601f16801561300e5780820380516001836020036101000a031916815260200191505b5095505050505050602060405180830381600087803b15801561303057600080fd5b505af1158015613044573d6000803e3d6000fd5b505050506040513d602081101561305a57600080fd5b81019080805190602001909291905050506130dd576040517f08c379a00000000000000000000000000000000000000000000000000000000081526004018080602001828103825260208152602001807f436f756c64206e6f74206578656375746520746f6b656e207472616e7366657281525060200191505060405180910390fd5b505b50505050565b600080835114156130f857339050613505565b604183511015613170576040517f08c379a00000000000000000000000000000000000000000000000000000000081526004018080602001828103825260178152602001807f7369676e6174757265732e6c656e677468203e3d20363500000000000000000081525060200191505060405180910390fd5b600080600061318086600061350b565b80935081945082955050505060008360ff1614156133a8578160001c9350606060208288010190506320c13b0b60e01b7bffffffffffffffffffffffffffffffffffffffffffffffffffffffff19168573ffffffffffffffffffffffffffffffffffffffff166320c13b0b88846040518363ffffffff1660e01b8152600401808060200180602001838103835285818151815260200191508051906020019080838360005b83811015613240578082015181840152602081019050613225565b50505050905090810190601f16801561326d5780820380516001836020036101000a031916815260200191505b50838103825284818151815260200191508051906020019080838360005b838110156132a657808201518184015260208101905061328b565b50505050905090810190601f1680156132d35780820380516001836020036101000a031916815260200191505b5094505050505060206040518083038186803b1580156132f257600080fd5b505afa158015613306573d6000803e3d6000fd5b505050506040513d602081101561331c57600080fd5b81019080805190602001909291905050507bffffffffffffffffffffffffffffffffffffffffffffffffffffffff1916146133a2576040517f08c379a00000000000000000000000000000000000000000000000000000000081526004018080602001828103825260258152602001806135fd6025913960400191505060405180910390fd5b50613501565b60018360ff1614156133bc57339350613500565b601e8360ff16111561348e576001858051906020012060405160200180807f19457468657265756d205369676e6564204d6573736167653a0a333200000000815250601c018281526020019150506040516020818303038152906040528051906020012060048503848460405160008152602001604052604051808581526020018460ff1660ff1681526020018381526020018281526020019450505050506020604051602081039080840390855afa15801561347d573d6000803e3d6000fd5b5050506020604051035193506134ff565b6001858051906020012084848460405160008152602001604052604051808581526020018460ff1660ff1681526020018381526020018281526020019450505050506020604051602081039080840390855afa1580156134f2573d6000803e3d6000fd5b5050506020604051035193505b5b5b5050505b92915050565b60008060008360410260208101860151925060408101860151915060ff60418201870151169350509250925092565b6040518060a0016040528060006bffffffffffffffffffffffff16815260200160006bffffffffffffffffffffffff168152602001600061ffff168152602001600063ffffffff168152602001600061ffff1681525090565b6040518060600160405280600073ffffffffffffffffffffffffffffffffffffffff168152602001600065ffffffffffff168152602001600065ffffffffffff1681525090565b6040518060a0016040528060059060208202803883398082019150509050509056fe436f756c64206e6f742076616c6964617465204549502d31323731207369676e617475726564656c6567617465735b6d73672e73656e6465725d5b75696e7434382864656c6567617465295d2e64656c6567617465203d3d2064656c6567617465416c6c6f77616e63655472616e73666572286164647265737320736166652c6164647265737320746f6b656e2c75696e74393620616d6f756e742c61646472657373207061796d656e74546f6b656e2c75696e743936207061796d656e742c75696e743136206e6f6e636529657870656374656444656c6567617465203d3d207369676e65722026262064656c6567617465735b616464726573732873616665295d5b75696e743438287369676e6572295d2e64656c6567617465203d3d207369676e65726e65775370656e74203e20616c6c6f77616e63652e7370656e74202626206e65775370656e74203c3d20616c6c6f77616e63652e616d6f756e746e65775370656e74203e207061796d656e74416c6c6f77616e63652e7370656e74202626206e65775370656e74203c3d207061796d656e74416c6c6f77616e63652e616d6f756e74a265627a7a72315820d3b549675e0dc47e816c54dd93e764695886843e99d7cb6e2e49bf154ee462db64736f6c634300050b0032",
  "source": "pragma solidity >=0.5.0 <0.7.0;\n\nimport \"@gnosis.pm/safe-contracts/contracts/common/Enum.sol\";\nimport \"@gnosis.pm/safe-contracts/contracts/common/SignatureDecoder.sol\";\nimport \"@gnosis.pm/safe-contracts/contracts/interfaces/ISignatureValidator.sol\";\n\ninterface GnosisSafe {\n    /// @dev Allows a Module to execute a Safe transaction without any further confirmations.\n    /// @param to Destination address of module transaction.\n    /// @param value Ether value of module transaction.\n    /// @param data Data payload of module transaction.\n    /// @param operation Operation type of module transaction.\n    function execTransactionFromModule(address to, uint256 value, bytes calldata data, Enum.Operation operation)\n        external\n        returns (bool success);\n}\n\ncontract AllowanceModule is SignatureDecoder, ISignatureValidatorConstants {\n\n    string public constant NAME = \"Allowance Module\";\n    string public constant VERSION = \"0.1.0\";\n\n    //keccak256(\n    //    \"EIP712Domain(address verifyingContract)\"\n    //);\n    bytes32 public constant DOMAIN_SEPARATOR_TYPEHASH = 0x035aff83d86937d35b32e04f0ddc6ff469290eef2f1b692d8a815c89404d4749;\n\n    // TODO: Fix hardcode hash\n    bytes32 public constant ALLOWANCE_TRANSFER_TYPEHASH = keccak256(\n        \"AllowanceTransfer(address safe,address token,uint96 amount,address paymentToken,uint96 payment,uint16 nonce)\"\n    );\n\n    // Safe -> Delegate -> Allowance\n    mapping(address => mapping (address => mapping(address => Allowance))) public allowances;\n    mapping(address => mapping (address => address[])) public tokens;\n    mapping(address => mapping (uint48 => Delegate)) public delegates;\n    mapping(address => uint48) public delegatesStart;\n    bytes32 public domainSeparator;\n\n    struct Delegate {\n        address delegate;\n        uint48 prev;\n        uint48 next;\n    }\n\n    struct Allowance {\n        uint96 amount;\n        uint96 spent;\n        uint16 resetTimeMin; // Maximum reset time span is 65k minutes\n        uint32 lastResetMin;\n        uint16 nonce;\n    }\n\n    event AddDelegate(address indexed safe, address delegate);\n    event RemoveDelegate(address indexed safe, address delegate);\n    event ExecuteAllowanceTransfer(address indexed safe, address delegate, address token, address to, uint96 value, uint16 nonce);\n    event SetAllowance(address indexed safe, address delegate, address token, uint96 allowanceAmount, uint16 resetTime);\n\n    constructor() public {\n        // TODO: add chain id\n        domainSeparator = keccak256(abi.encode(DOMAIN_SEPARATOR_TYPEHASH, this));\n    }\n\n    /// @dev Allows to update the allowance for a specified token. This can only be done via a Safe transaction.\n    /// @param delegate Delegate whose allowance should be updated.\n    /// @param token Token contract address.\n    /// @param allowanceAmount allowance in smallest token unit.\n    /// @param resetTimeMin Time after which the allowance should reset\n    /// @param resetBaseMin Time based on which the reset time should be increased\n    function setAllowance(address delegate, address token, uint96 allowanceAmount, uint16 resetTimeMin, uint32 resetBaseMin)\n        public\n    {\n        require(delegates[msg.sender][uint48(delegate)].delegate == delegate, \"delegates[msg.sender][uint48(delegate)].delegate == delegate\");\n        Allowance memory allowance = getAllowance(msg.sender, delegate, token);\n        if (allowance.nonce == 0) { // New token\n            // Nonce should never be 0 once allowance has been activated\n            allowance.nonce = 1;\n            tokens[msg.sender][delegate].push(token);\n        }\n        // Divide by 60 to get current time in minutes\n        // solium-disable-next-line security/no-block-members\n        uint32 currentMin = uint32(now / 60);\n        if (resetBaseMin > 0) {\n            require(resetBaseMin <= currentMin, \"resetBaseMin <= currentMin\");\n            allowance.lastResetMin = currentMin - ((currentMin - resetBaseMin) % resetTimeMin);\n        } else if (allowance.lastResetMin == 0) {\n            allowance.lastResetMin = currentMin;\n        }\n        allowance.resetTimeMin = resetTimeMin;\n        allowance.amount = allowanceAmount;\n        updateAllowance(msg.sender, delegate, token, allowance);\n        emit SetAllowance(msg.sender, delegate, token, allowanceAmount, resetTimeMin);\n    }\n\n    function getAllowance(address safe, address delegate, address token) private view returns (Allowance memory allowance) {\n        allowance = allowances[safe][delegate][token];\n        // solium-disable-next-line security/no-block-members\n        uint32 currentMin = uint32(now / 60);\n        if (allowance.resetTimeMin > 0 && allowance.lastResetMin <= currentMin - allowance.resetTimeMin) {\n            allowance.spent = 0;\n            allowance.lastResetMin = currentMin - ((currentMin - allowance.lastResetMin) % allowance.resetTimeMin);\n        }\n        return allowance;\n    }\n\n    function updateAllowance(address safe, address delegate, address token, Allowance memory allowance) private {\n        allowances[safe][delegate][token] = allowance;\n    }\n\n    function resetAllowance(address delegate, address token) public {\n        Allowance memory allowance = getAllowance(msg.sender, delegate, token);\n        allowance.spent = 0;\n        updateAllowance(msg.sender, delegate, token, allowance);\n    }\n\n    function executeAllowanceTransfer(\n        GnosisSafe safe,\n        address token,\n        address payable to,\n        uint96 amount,\n        address paymentToken,\n        uint96 payment,\n        address delegate,\n        bytes memory signature\n    ) public {\n        // Get current state\n        Allowance memory allowance = getAllowance(address(safe), delegate, token);\n        bytes memory transferHashData = generateTransferHashData(address(safe), token, to, amount, paymentToken, payment, allowance.nonce);\n        \n        // Update state\n        allowance.nonce = allowance.nonce + 1;\n        uint96 newSpent = allowance.spent + amount;\n        // Check new spent amount and overflow\n        require(newSpent > allowance.spent && newSpent <= allowance.amount, \"newSpent > allowance.spent && newSpent <= allowance.amount\");\n        allowance.spent = newSpent;\n        if (payment > 0) {\n            // Use updated allowance if token and paymentToken are the same\n            Allowance memory paymentAllowance = paymentToken == token ? allowance : getAllowance(address(safe), delegate, paymentToken);\n            newSpent = paymentAllowance.spent + payment;\n            // Check new spent amount and overflow\n            require(newSpent > paymentAllowance.spent && newSpent <= paymentAllowance.amount, \"newSpent > paymentAllowance.spent && newSpent <= paymentAllowance.amount\");\n            paymentAllowance.spent = newSpent;\n            // Update payment allowance if different from allowance\n            if (paymentToken != token) updateAllowance(address(safe), delegate, paymentToken, paymentAllowance);\n        }\n        updateAllowance(address(safe), delegate, token, allowance);\n\n        // Perform external interactions\n        // Check signature (this contains a potential call -> EIP-1271)\n        checkSignature(delegate, signature, transferHashData, safe);\n\n        if (payment > 0) {\n            // Transfer payment\n            // solium-disable-next-line security/no-tx-origin\n            transfer(safe, paymentToken, tx.origin, payment);\n        }\n        // Transfer token\n        transfer(safe, token, to, amount);\n        emit ExecuteAllowanceTransfer(address(safe), delegate, token, to, amount, allowance.nonce - 1);\n    }\n\n    function generateTransferHashData(\n        address safe,\n        address token,\n        address to,\n        uint96 amount,\n        address paymentToken,\n        uint96 payment,\n        uint16 nonce\n    ) private view returns (bytes memory) {\n        bytes32 transferHash = keccak256(\n            abi.encode(ALLOWANCE_TRANSFER_TYPEHASH, safe, token, to, amount, paymentToken, payment, nonce)\n        );\n        return abi.encodePacked(byte(0x19), byte(0x01), domainSeparator, transferHash);\n    }\n\n    function generateTransferHash(\n        address safe,\n        address token,\n        address to,\n        uint96 amount,\n        address paymentToken,\n        uint96 payment,\n        uint16 nonce\n    ) public view returns (bytes32) {\n        return keccak256(generateTransferHashData(\n            safe, token, to, amount, paymentToken, payment, nonce\n        ));\n    }\n\n    function checkSignature(address expectedDelegate, bytes memory signature, bytes memory transferHashData, GnosisSafe safe) private {\n        address signer = recoverSignature(signature, transferHashData);\n        require(\n            expectedDelegate == signer && delegates[address(safe)][uint48(signer)].delegate == signer,\n            \"expectedDelegate == signer && delegates[address(safe)][uint48(signer)].delegate == signer\"\n        );\n    }\n\n    function recoverSignature(bytes memory signature, bytes memory transferHashData) private view returns (address owner) {\n        // If there is no signature data msg.sender should be used\n        if (signature.length == 0) return msg.sender;\n        // Check that the provided signature data is not too short\n        require(signature.length >= 65, \"signatures.length >= 65\");\n        uint8 v;\n        bytes32 r;\n        bytes32 s;\n        (v, r, s) = signatureSplit(signature, 0);\n        // If v is 0 then it is a contract signature\n        if (v == 0) {\n            // When handling contract signatures the address of the contract is encoded into r\n            owner = address(uint256(r));\n            bytes memory contractSignature;\n            // solium-disable-next-line security/no-inline-assembly\n            assembly {\n                // The signature data for contract signatures is appended to the concatenated signatures and the offset is stored in s\n                contractSignature := add(add(signature, s), 0x20)\n            }\n            require(\n                ISignatureValidator(owner).isValidSignature(transferHashData, contractSignature) == EIP1271_MAGIC_VALUE,\n                \"Could not validate EIP-1271 signature\"\n            );\n        } else if (v == 1) {\n            // If v is 1 we also use msg.sender, this is so that we are compatible to the GnosisSafe signature scheme\n            owner = msg.sender;\n        } else if (v > 30) {\n            // To support eth_sign and similar we adjust v and hash the transferHashData with the Ethereum message prefix before applying ecrecover\n            owner = ecrecover(keccak256(abi.encodePacked(\"\\x19Ethereum Signed Message:\\n32\", keccak256(transferHashData))), v - 4, r, s);\n        } else {\n            // Use ecrecover with the messageHash for EOA signatures\n            owner = ecrecover(keccak256(transferHashData), v, r, s);\n        }\n    }\n\n    function transfer(GnosisSafe safe, address token, address payable to, uint96 amount) private {\n        if (token == address(0)) {\n            // solium-disable-next-line security/no-send\n            require(safe.execTransactionFromModule(to, amount, \"\", Enum.Operation.Call), \"Could not execute ether transfer\");\n        } else {\n            bytes memory data = abi.encodeWithSignature(\"transfer(address,uint256)\", to, amount);\n            require(safe.execTransactionFromModule(token, 0, data, Enum.Operation.Call), \"Could not execute token transfer\");\n        }\n    }\n\n    function getTokens(address safe, address delegate) public view returns (address[] memory) {\n        return tokens[safe][delegate];\n    }\n\n    function getTokenAllowance(address safe, address delegate, address token) public view returns (uint256[5] memory) {\n        Allowance memory allowance = getAllowance(safe, delegate, token);\n        return [\n            uint256(allowance.amount),\n            uint256(allowance.spent),\n            uint256(allowance.resetTimeMin),\n            uint256(allowance.lastResetMin),\n            uint256(allowance.nonce)\n        ];\n    }\n\n    function addDelegate(address delegate) public {\n        require(delegate != address(0), \"Invalid delegate address\");\n        uint48 index = uint48(delegate);\n        // Delegate already exists, nothing to do\n        if(delegates[msg.sender][index].delegate != address(0)) return;\n        uint48 startIndex = delegatesStart[msg.sender];\n        delegates[msg.sender][index] = Delegate(delegate, 0, startIndex);\n        delegates[msg.sender][startIndex].prev = index;\n        delegatesStart[msg.sender] = index;\n        emit AddDelegate(msg.sender, delegate);\n    }\n\n    function removeDelegate(address delegate) public {\n        Delegate memory current = delegates[msg.sender][uint48(delegate)];\n        // Delegate doesn't exists, nothing to do\n        if(current.delegate == address(0)) return;\n        address[] storage delegateTokens = tokens[msg.sender][delegate];\n        for (uint256 i = 0; i < delegateTokens.length; i++) {\n            address token = delegateTokens[i];\n            // Set all allowance params except the nonce to 0\n            Allowance memory allowance = getAllowance(msg.sender, delegate, token);\n            allowance.amount = 0;\n            allowance.spent = 0;\n            allowance.resetTimeMin = 0;\n            allowance.lastResetMin = 0;\n            updateAllowance(msg.sender, delegate, token, allowance);\n        }\n        delegates[msg.sender][current.prev].next = current.next;\n        delegates[msg.sender][current.next].prev = current.prev;\n        emit RemoveDelegate(msg.sender, delegate);\n    }\n\n    function getDelegates(address safe, uint48 start, uint8 pageSize) public view returns (address[] memory results, uint48 next) {\n        results = new address[](pageSize);\n        uint8 i = 0;\n        uint48 initialIndex = (start != 0) ? start : delegatesStart[safe];\n        Delegate memory current = delegates[safe][initialIndex];\n        while(current.delegate != address(0) && i < pageSize) {\n            results[i] = current.delegate;\n            i++;\n            current = delegates[safe][current.next];\n        }\n        next = uint48(current.delegate);\n        // Set the length of the array the number that has been used.\n        // solium-disable-next-line security/no-inline-assembly\n        assembly {\n            mstore(results, i)\n        }\n    }\n}",
  "sourcePath": "/home/fer/repos/protofire/gnosis/safe-modules/allowances/contracts/AlowanceModule.sol",
  "compiler": {
    "name": "solc",
    "version": "0.5.11+commit.c082d0b4.Emscripten.clang"
  },
  "schemaVersion": "3.2.3",
  "updatedAt": "2020-08-13T14:18:40.132Z",
  "networkType": "ethereum",
  "devdoc": {
    "methods": {
      "setAllowance(address,address,uint96,uint16,uint32)": {
        "details": "Allows to update the allowance for a specified token. This can only be done via a Safe transaction.",
        "params": {
          "allowanceAmount": "allowance in smallest token unit.",
          "delegate": "Delegate whose allowance should be updated.",
          "resetBaseMin": "Time based on which the reset time should be increased",
          "resetTimeMin": "Time after which the allowance should reset",
          "token": "Token contract address."
        }
      }
    }
  },
  "userdoc": {
    "methods": {}
  }
}