{
  "_format": "hh-sol-artifact-1",
  "contractName": "HasSecondarySaleFees",
  "sourceName": "contracts/extentions/HasSecondarySaleFees.sol",
  "abi": [
    {
      "anonymous": false,
      "inputs": [
        {
          "indexed": true,
          "internalType": "address",
          "name": "owner",
          "type": "address"
        },
        {
          "indexed": true,
          "internalType": "address",
          "name": "approved",
          "type": "address"
        },
        {
          "indexed": true,
          "internalType": "uint256",
          "name": "tokenId",
          "type": "uint256"
        }
      ],
      "name": "Approval",
      "type": "event"
    },
    {
      "anonymous": false,
      "inputs": [
        {
          "indexed": true,
          "internalType": "address",
          "name": "owner",
          "type": "address"
        },
        {
          "indexed": true,
          "internalType": "address",
          "name": "operator",
          "type": "address"
        },
        {
          "indexed": false,
          "internalType": "bool",
          "name": "approved",
          "type": "bool"
        }
      ],
      "name": "ApprovalForAll",
      "type": "event"
    },
    {
      "anonymous": false,
      "inputs": [
        {
          "indexed": true,
          "internalType": "address",
          "name": "from",
          "type": "address"
        },
        {
          "indexed": true,
          "internalType": "address",
          "name": "to",
          "type": "address"
        },
        {
          "indexed": true,
          "internalType": "uint256",
          "name": "tokenId",
          "type": "uint256"
        }
      ],
      "name": "Transfer",
      "type": "event"
    },
    {
      "inputs": [
        {
          "internalType": "address",
          "name": "to",
          "type": "address"
        },
        {
          "internalType": "uint256",
          "name": "tokenId",
          "type": "uint256"
        }
      ],
      "name": "approve",
      "outputs": [],
      "stateMutability": "nonpayable",
      "type": "function"
    },
    {
      "inputs": [
        {
          "internalType": "address",
          "name": "owner",
          "type": "address"
        }
      ],
      "name": "balanceOf",
      "outputs": [
        {
          "internalType": "uint256",
          "name": "",
          "type": "uint256"
        }
      ],
      "stateMutability": "view",
      "type": "function"
    },
    {
      "inputs": [
        {
          "internalType": "uint256",
          "name": "tokenId",
          "type": "uint256"
        }
      ],
      "name": "getApproved",
      "outputs": [
        {
          "internalType": "address",
          "name": "",
          "type": "address"
        }
      ],
      "stateMutability": "view",
      "type": "function"
    },
    {
      "inputs": [
        {
          "internalType": "uint256",
          "name": "_tokenId",
          "type": "uint256"
        }
      ],
      "name": "getFeeBps",
      "outputs": [
        {
          "internalType": "uint256[]",
          "name": "",
          "type": "uint256[]"
        }
      ],
      "stateMutability": "view",
      "type": "function"
    },
    {
      "inputs": [
        {
          "internalType": "uint256",
          "name": "_tokenId",
          "type": "uint256"
        }
      ],
      "name": "getFeeRecipients",
      "outputs": [
        {
          "internalType": "address payable[]",
          "name": "",
          "type": "address[]"
        }
      ],
      "stateMutability": "view",
      "type": "function"
    },
    {
      "inputs": [
        {
          "internalType": "address",
          "name": "owner",
          "type": "address"
        },
        {
          "internalType": "address",
          "name": "operator",
          "type": "address"
        }
      ],
      "name": "isApprovedForAll",
      "outputs": [
        {
          "internalType": "bool",
          "name": "",
          "type": "bool"
        }
      ],
      "stateMutability": "view",
      "type": "function"
    },
    {
      "inputs": [],
      "name": "name",
      "outputs": [
        {
          "internalType": "string",
          "name": "",
          "type": "string"
        }
      ],
      "stateMutability": "view",
      "type": "function"
    },
    {
      "inputs": [
        {
          "internalType": "uint256",
          "name": "tokenId",
          "type": "uint256"
        }
      ],
      "name": "ownerOf",
      "outputs": [
        {
          "internalType": "address",
          "name": "",
          "type": "address"
        }
      ],
      "stateMutability": "view",
      "type": "function"
    },
    {
      "inputs": [
        {
          "internalType": "address",
          "name": "from",
          "type": "address"
        },
        {
          "internalType": "address",
          "name": "to",
          "type": "address"
        },
        {
          "internalType": "uint256",
          "name": "tokenId",
          "type": "uint256"
        }
      ],
      "name": "safeTransferFrom",
      "outputs": [],
      "stateMutability": "nonpayable",
      "type": "function"
    },
    {
      "inputs": [
        {
          "internalType": "address",
          "name": "from",
          "type": "address"
        },
        {
          "internalType": "address",
          "name": "to",
          "type": "address"
        },
        {
          "internalType": "uint256",
          "name": "tokenId",
          "type": "uint256"
        },
        {
          "internalType": "bytes",
          "name": "_data",
          "type": "bytes"
        }
      ],
      "name": "safeTransferFrom",
      "outputs": [],
      "stateMutability": "nonpayable",
      "type": "function"
    },
    {
      "inputs": [
        {
          "internalType": "address",
          "name": "operator",
          "type": "address"
        },
        {
          "internalType": "bool",
          "name": "approved",
          "type": "bool"
        }
      ],
      "name": "setApprovalForAll",
      "outputs": [],
      "stateMutability": "nonpayable",
      "type": "function"
    },
    {
      "inputs": [
        {
          "internalType": "bytes4",
          "name": "interfaceId",
          "type": "bytes4"
        }
      ],
      "name": "supportsInterface",
      "outputs": [
        {
          "internalType": "bool",
          "name": "",
          "type": "bool"
        }
      ],
      "stateMutability": "view",
      "type": "function"
    },
    {
      "inputs": [],
      "name": "symbol",
      "outputs": [
        {
          "internalType": "string",
          "name": "",
          "type": "string"
        }
      ],
      "stateMutability": "view",
      "type": "function"
    },
    {
      "inputs": [
        {
          "internalType": "uint256",
          "name": "tokenId",
          "type": "uint256"
        }
      ],
      "name": "tokenURI",
      "outputs": [
        {
          "internalType": "string",
          "name": "",
          "type": "string"
        }
      ],
      "stateMutability": "view",
      "type": "function"
    },
    {
      "inputs": [
        {
          "internalType": "address",
          "name": "from",
          "type": "address"
        },
        {
          "internalType": "address",
          "name": "to",
          "type": "address"
        },
        {
          "internalType": "uint256",
          "name": "tokenId",
          "type": "uint256"
        }
      ],
      "name": "transferFrom",
      "outputs": [],
      "stateMutability": "nonpayable",
      "type": "function"
    }
  ],
  "bytecode": "0x608060405234801561001057600080fd5b50612719806100206000396000f3fe608060405234801561001057600080fd5b50600436106100f55760003560e01c80636352211e11610097578063b88d4fde11610066578063b88d4fde14610296578063b9c4d9fb146102b2578063c87b56dd146102e2578063e985e9c514610312576100f5565b80636352211e146101fc57806370a082311461022c57806395d89b411461025c578063a22cb4651461027a576100f5565b8063095ea7b3116100d3578063095ea7b3146101785780630ebd4c7f1461019457806323b872dd146101c457806342842e0e146101e0576100f5565b806301ffc9a7146100fa57806306fdde031461012a578063081812fc14610148575b600080fd5b610114600480360381019061010f91906118d7565b610342565b604051610121919061209d565b60405180910390f35b6101326103bc565b60405161013f91906120b8565b60405180910390f35b610162600480360381019061015d9190611929565b61044e565b60405161016f9190611ff2565b60405180910390f35b610192600480360381019061018d919061189b565b6104d3565b005b6101ae60048036038101906101a99190611929565b6105eb565b6040516101bb919061207b565b60405180910390f35b6101de60048036038101906101d99190611795565b61067c565b005b6101fa60048036038101906101f59190611795565b6106dc565b005b61021660048036038101906102119190611929565b6106fc565b6040516102239190611ff2565b60405180910390f35b61024660048036038101906102419190611730565b6107ae565b604051610253919061225a565b60405180910390f35b610264610866565b60405161027191906120b8565b60405180910390f35b610294600480360381019061028f919061185f565b6108f8565b005b6102b060048036038101906102ab91906117e4565b610a79565b005b6102cc60048036038101906102c79190611929565b610adb565b6040516102d99190612059565b60405180910390f35b6102fc60048036038101906102f79190611929565b610ba2565b60405161030991906120b8565b60405180910390f35b61032c60048036038101906103279190611759565b610c49565b604051610339919061209d565b60405180910390f35b60007fb7799584000000000000000000000000000000000000000000000000000000007bffffffffffffffffffffffffffffffffffffffffffffffffffffffff1916827bffffffffffffffffffffffffffffffffffffffffffffffffffffffff191614806103b557506103b482610cdd565b5b9050919050565b6060606580546103cb9061250e565b80601f01602080910402602001604051908101604052809291908181526020018280546103f79061250e565b80156104445780601f1061041957610100808354040283529160200191610444565b820191906000526020600020905b81548152906001019060200180831161042757829003601f168201915b5050505050905090565b600061045982610dbf565b610498576040517f08c379a000000000000000000000000000000000000000000000000000000000815260040161048f906121ba565b60405180910390fd5b6069600083815260200190815260200160002060009054906101000a900473ffffffffffffffffffffffffffffffffffffffff169050919050565b60006104de826106fc565b90508073ffffffffffffffffffffffffffffffffffffffff168373ffffffffffffffffffffffffffffffffffffffff16141561054f576040517f08c379a00000000000000000000000000000000000000000000000000000000081526004016105469061221a565b60405180910390fd5b8073ffffffffffffffffffffffffffffffffffffffff1661056e610e2b565b73ffffffffffffffffffffffffffffffffffffffff16148061059d575061059c81610597610e2b565b610c49565b5b6105dc576040517f08c379a00000000000000000000000000000000000000000000000000000000081526004016105d39061215a565b60405180910390fd5b6105e68383610e33565b505050565b60606000609a60008481526020019081526020016000208054905011610612576098610626565b609a60008381526020019081526020016000205b80548060200260200160405190810160405280929190818152602001828054801561067057602002820191906000526020600020905b81548152602001906001019080831161065c575b50505050509050919050565b61068d610687610e2b565b82610eec565b6106cc576040517f08c379a00000000000000000000000000000000000000000000000000000000081526004016106c39061223a565b60405180910390fd5b6106d7838383610fca565b505050565b6106f783838360405180602001604052806000815250610a79565b505050565b6000806067600084815260200190815260200160002060009054906101000a900473ffffffffffffffffffffffffffffffffffffffff169050600073ffffffffffffffffffffffffffffffffffffffff168173ffffffffffffffffffffffffffffffffffffffff1614156107a5576040517f08c379a000000000000000000000000000000000000000000000000000000000815260040161079c9061219a565b60405180910390fd5b80915050919050565b60008073ffffffffffffffffffffffffffffffffffffffff168273ffffffffffffffffffffffffffffffffffffffff16141561081f576040517f08c379a00000000000000000000000000000000000000000000000000000000081526004016108169061217a565b60405180910390fd5b606860008373ffffffffffffffffffffffffffffffffffffffff1673ffffffffffffffffffffffffffffffffffffffff168152602001908152602001600020549050919050565b6060606680546108759061250e565b80601f01602080910402602001604051908101604052809291908181526020018280546108a19061250e565b80156108ee5780601f106108c3576101008083540402835291602001916108ee565b820191906000526020600020905b8154815290600101906020018083116108d157829003601f168201915b5050505050905090565b610900610e2b565b73ffffffffffffffffffffffffffffffffffffffff168273ffffffffffffffffffffffffffffffffffffffff16141561096e576040517f08c379a00000000000000000000000000000000000000000000000000000000081526004016109659061211a565b60405180910390fd5b80606a600061097b610e2b565b73ffffffffffffffffffffffffffffffffffffffff1673ffffffffffffffffffffffffffffffffffffffff16815260200190815260200160002060008473ffffffffffffffffffffffffffffffffffffffff1673ffffffffffffffffffffffffffffffffffffffff16815260200190815260200160002060006101000a81548160ff0219169083151502179055508173ffffffffffffffffffffffffffffffffffffffff16610a28610e2b565b73ffffffffffffffffffffffffffffffffffffffff167f17307eab39ab6107e8899845ad3d59bd9653f200f220920489ca2b5937696c3183604051610a6d919061209d565b60405180910390a35050565b610a8a610a84610e2b565b83610eec565b610ac9576040517f08c379a0000000000000000000000000000000000000000000000000000000008152600401610ac09061223a565b60405180910390fd5b610ad584848484611226565b50505050565b60606000609960008481526020019081526020016000208054905011610b02576097610b16565b609960008381526020019081526020016000205b805480602002602001604051908101604052809291908181526020018280548015610b9657602002820191906000526020600020905b8160009054906101000a900473ffffffffffffffffffffffffffffffffffffffff1673ffffffffffffffffffffffffffffffffffffffff1681526020019060010190808311610b4c575b50505050509050919050565b6060610bad82610dbf565b610bec576040517f08c379a0000000000000000000000000000000000000000000000000000000008152600401610be3906121fa565b60405180910390fd5b6000610bf6611282565b90506000815111610c165760405180602001604052806000815250610c41565b80610c2084611299565b604051602001610c31929190611fce565b6040516020818303038152906040525b915050919050565b6000606a60008473ffffffffffffffffffffffffffffffffffffffff1673ffffffffffffffffffffffffffffffffffffffff16815260200190815260200160002060008373ffffffffffffffffffffffffffffffffffffffff1673ffffffffffffffffffffffffffffffffffffffff16815260200190815260200160002060009054906101000a900460ff16905092915050565b60007f80ac58cd000000000000000000000000000000000000000000000000000000007bffffffffffffffffffffffffffffffffffffffffffffffffffffffff1916827bffffffffffffffffffffffffffffffffffffffffffffffffffffffff19161480610da857507f5b5e139f000000000000000000000000000000000000000000000000000000007bffffffffffffffffffffffffffffffffffffffffffffffffffffffff1916827bffffffffffffffffffffffffffffffffffffffffffffffffffffffff1916145b80610db85750610db782611446565b5b9050919050565b60008073ffffffffffffffffffffffffffffffffffffffff166067600084815260200190815260200160002060009054906101000a900473ffffffffffffffffffffffffffffffffffffffff1673ffffffffffffffffffffffffffffffffffffffff1614159050919050565b600033905090565b816069600083815260200190815260200160002060006101000a81548173ffffffffffffffffffffffffffffffffffffffff021916908373ffffffffffffffffffffffffffffffffffffffff160217905550808273ffffffffffffffffffffffffffffffffffffffff16610ea6836106fc565b73ffffffffffffffffffffffffffffffffffffffff167f8c5be1e5ebec7d5bd14f71427d1e84f3dd0314c0f7b2291e5b200ac8c7c3b92560405160405180910390a45050565b6000610ef782610dbf565b610f36576040517f08c379a0000000000000000000000000000000000000000000000000000000008152600401610f2d9061213a565b60405180910390fd5b6000610f41836106fc565b90508073ffffffffffffffffffffffffffffffffffffffff168473ffffffffffffffffffffffffffffffffffffffff161480610fb057508373ffffffffffffffffffffffffffffffffffffffff16610f988461044e565b73ffffffffffffffffffffffffffffffffffffffff16145b80610fc15750610fc08185610c49565b5b91505092915050565b8273ffffffffffffffffffffffffffffffffffffffff16610fea826106fc565b73ffffffffffffffffffffffffffffffffffffffff1614611040576040517f08c379a0000000000000000000000000000000000000000000000000000000008152600401611037906121da565b60405180910390fd5b600073ffffffffffffffffffffffffffffffffffffffff168273ffffffffffffffffffffffffffffffffffffffff1614156110b0576040517f08c379a00000000000000000000000000000000000000000000000000000000081526004016110a7906120fa565b60405180910390fd5b6110bb8383836114b0565b6110c6600082610e33565b6001606860008573ffffffffffffffffffffffffffffffffffffffff1673ffffffffffffffffffffffffffffffffffffffff16815260200190815260200160002060008282546111169190612412565b925050819055506001606860008473ffffffffffffffffffffffffffffffffffffffff1673ffffffffffffffffffffffffffffffffffffffff168152602001908152602001600020600082825461116d919061238b565b92505081905550816067600083815260200190815260200160002060006101000a81548173ffffffffffffffffffffffffffffffffffffffff021916908373ffffffffffffffffffffffffffffffffffffffff160217905550808273ffffffffffffffffffffffffffffffffffffffff168473ffffffffffffffffffffffffffffffffffffffff167fddf252ad1be2c89b69c2b068fc378daa952ba7f163c4a11628f55a4df523b3ef60405160405180910390a4505050565b611231848484610fca565b61123d848484846114b5565b61127c576040517f08c379a0000000000000000000000000000000000000000000000000000000008152600401611273906120da565b60405180910390fd5b50505050565b606060405180602001604052806000815250905090565b606060008214156112e1576040518060400160405280600181526020017f30000000000000000000000000000000000000000000000000000000000000008152509050611441565b600082905060005b600082146113135780806112fc90612540565b915050600a8261130c91906123e1565b91506112e9565b60008167ffffffffffffffff811115611355577f4e487b7100000000000000000000000000000000000000000000000000000000600052604160045260246000fd5b6040519080825280601f01601f1916602001820160405280156113875781602001600182028036833780820191505090505b5090505b6000851461143a576001826113a09190612412565b9150600a856113af9190612589565b60306113bb919061238b565b60f81b8183815181106113f7577f4e487b7100000000000000000000000000000000000000000000000000000000600052603260045260246000fd5b60200101907effffffffffffffffffffffffffffffffffffffffffffffffffffffffffffff1916908160001a905350600a8561143391906123e1565b945061138b565b8093505050505b919050565b60007f01ffc9a7000000000000000000000000000000000000000000000000000000007bffffffffffffffffffffffffffffffffffffffffffffffffffffffff1916827bffffffffffffffffffffffffffffffffffffffffffffffffffffffff1916149050919050565b505050565b60006114d68473ffffffffffffffffffffffffffffffffffffffff1661164c565b1561163f578373ffffffffffffffffffffffffffffffffffffffff1663150b7a026114ff610e2b565b8786866040518563ffffffff1660e01b8152600401611521949392919061200d565b602060405180830381600087803b15801561153b57600080fd5b505af192505050801561156c57506040513d601f19601f820116820180604052508101906115699190611900565b60015b6115ef573d806000811461159c576040519150601f19603f3d011682016040523d82523d6000602084013e6115a1565b606091505b506000815114156115e7576040517f08c379a00000000000000000000000000000000000000000000000000000000081526004016115de906120da565b60405180910390fd5b805181602001fd5b63150b7a0260e01b7bffffffffffffffffffffffffffffffffffffffffffffffffffffffff1916817bffffffffffffffffffffffffffffffffffffffffffffffffffffffff191614915050611644565b600190505b949350505050565b600080823b905060008111915050919050565b600061167261166d846122a6565b612275565b90508281526020810184848401111561168a57600080fd5b6116958482856124cc565b509392505050565b6000813590506116ac81612687565b92915050565b6000813590506116c18161269e565b92915050565b6000813590506116d6816126b5565b92915050565b6000815190506116eb816126b5565b92915050565b600082601f83011261170257600080fd5b813561171284826020860161165f565b91505092915050565b60008135905061172a816126cc565b92915050565b60006020828403121561174257600080fd5b60006117508482850161169d565b91505092915050565b6000806040838503121561176c57600080fd5b600061177a8582860161169d565b925050602061178b8582860161169d565b9150509250929050565b6000806000606084860312156117aa57600080fd5b60006117b88682870161169d565b93505060206117c98682870161169d565b92505060406117da8682870161171b565b9150509250925092565b600080600080608085870312156117fa57600080fd5b60006118088782880161169d565b94505060206118198782880161169d565b935050604061182a8782880161171b565b925050606085013567ffffffffffffffff81111561184757600080fd5b611853878288016116f1565b91505092959194509250565b6000806040838503121561187257600080fd5b60006118808582860161169d565b9250506020611891858286016116b2565b9150509250929050565b600080604083850312156118ae57600080fd5b60006118bc8582860161169d565b92505060206118cd8582860161171b565b9150509250929050565b6000602082840312156118e957600080fd5b60006118f7848285016116c7565b91505092915050565b60006020828403121561191257600080fd5b6000611920848285016116dc565b91505092915050565b60006020828403121561193b57600080fd5b60006119498482850161171b565b91505092915050565b600061195e8383611982565b60208301905092915050565b60006119768383611fb0565b60208301905092915050565b61198b81612458565b82525050565b61199a81612446565b82525050565b60006119ab826122f6565b6119b5818561233c565b93506119c0836122d6565b8060005b838110156119f15781516119d88882611952565b97506119e383612322565b9250506001810190506119c4565b5085935050505092915050565b6000611a0982612301565b611a13818561234d565b9350611a1e836122e6565b8060005b83811015611a4f578151611a36888261196a565b9750611a418361232f565b925050600181019050611a22565b5085935050505092915050565b611a658161246a565b82525050565b6000611a768261230c565b611a80818561235e565b9350611a908185602086016124db565b611a9981612676565b840191505092915050565b6000611aaf82612317565b611ab9818561236f565b9350611ac98185602086016124db565b611ad281612676565b840191505092915050565b6000611ae882612317565b611af28185612380565b9350611b028185602086016124db565b80840191505092915050565b6000611b1b60328361236f565b91507f4552433732313a207472616e7366657220746f206e6f6e20455243373231526560008301527f63656976657220696d706c656d656e74657200000000000000000000000000006020830152604082019050919050565b6000611b8160248361236f565b91507f4552433732313a207472616e7366657220746f20746865207a65726f2061646460008301527f72657373000000000000000000000000000000000000000000000000000000006020830152604082019050919050565b6000611be760198361236f565b91507f4552433732313a20617070726f766520746f2063616c6c6572000000000000006000830152602082019050919050565b6000611c27602c8361236f565b91507f4552433732313a206f70657261746f7220717565727920666f72206e6f6e657860008301527f697374656e7420746f6b656e00000000000000000000000000000000000000006020830152604082019050919050565b6000611c8d60388361236f565b91507f4552433732313a20617070726f76652063616c6c6572206973206e6f74206f7760008301527f6e6572206e6f7220617070726f76656420666f7220616c6c00000000000000006020830152604082019050919050565b6000611cf3602a8361236f565b91507f4552433732313a2062616c616e636520717565727920666f7220746865207a6560008301527f726f2061646472657373000000000000000000000000000000000000000000006020830152604082019050919050565b6000611d5960298361236f565b91507f4552433732313a206f776e657220717565727920666f72206e6f6e657869737460008301527f656e7420746f6b656e00000000000000000000000000000000000000000000006020830152604082019050919050565b6000611dbf602c8361236f565b91507f4552433732313a20617070726f76656420717565727920666f72206e6f6e657860008301527f697374656e7420746f6b656e00000000000000000000000000000000000000006020830152604082019050919050565b6000611e2560298361236f565b91507f4552433732313a207472616e73666572206f6620746f6b656e2074686174206960008301527f73206e6f74206f776e00000000000000000000000000000000000000000000006020830152604082019050919050565b6000611e8b602f8361236f565b91507f4552433732314d657461646174613a2055524920717565727920666f72206e6f60008301527f6e6578697374656e7420746f6b656e00000000000000000000000000000000006020830152604082019050919050565b6000611ef160218361236f565b91507f4552433732313a20617070726f76616c20746f2063757272656e74206f776e6560008301527f72000000000000000000000000000000000000000000000000000000000000006020830152604082019050919050565b6000611f5760318361236f565b91507f4552433732313a207472616e736665722063616c6c6572206973206e6f74206f60008301527f776e6572206e6f7220617070726f7665640000000000000000000000000000006020830152604082019050919050565b611fb9816124c2565b82525050565b611fc8816124c2565b82525050565b6000611fda8285611add565b9150611fe68284611add565b91508190509392505050565b60006020820190506120076000830184611991565b92915050565b60006080820190506120226000830187611991565b61202f6020830186611991565b61203c6040830185611fbf565b818103606083015261204e8184611a6b565b905095945050505050565b6000602082019050818103600083015261207381846119a0565b905092915050565b6000602082019050818103600083015261209581846119fe565b905092915050565b60006020820190506120b26000830184611a5c565b92915050565b600060208201905081810360008301526120d28184611aa4565b905092915050565b600060208201905081810360008301526120f381611b0e565b9050919050565b6000602082019050818103600083015261211381611b74565b9050919050565b6000602082019050818103600083015261213381611bda565b9050919050565b6000602082019050818103600083015261215381611c1a565b9050919050565b6000602082019050818103600083015261217381611c80565b9050919050565b6000602082019050818103600083015261219381611ce6565b9050919050565b600060208201905081810360008301526121b381611d4c565b9050919050565b600060208201905081810360008301526121d381611db2565b9050919050565b600060208201905081810360008301526121f381611e18565b9050919050565b6000602082019050818103600083015261221381611e7e565b9050919050565b6000602082019050818103600083015261223381611ee4565b9050919050565b6000602082019050818103600083015261225381611f4a565b9050919050565b600060208201905061226f6000830184611fbf565b92915050565b6000604051905081810181811067ffffffffffffffff8211171561229c5761229b612647565b5b8060405250919050565b600067ffffffffffffffff8211156122c1576122c0612647565b5b601f19601f8301169050602081019050919050565b6000819050602082019050919050565b6000819050602082019050919050565b600081519050919050565b600081519050919050565b600081519050919050565b600081519050919050565b6000602082019050919050565b6000602082019050919050565b600082825260208201905092915050565b600082825260208201905092915050565b600082825260208201905092915050565b600082825260208201905092915050565b600081905092915050565b6000612396826124c2565b91506123a1836124c2565b9250827fffffffffffffffffffffffffffffffffffffffffffffffffffffffffffffffff038211156123d6576123d56125ba565b5b828201905092915050565b60006123ec826124c2565b91506123f7836124c2565b925082612407576124066125e9565b5b828204905092915050565b600061241d826124c2565b9150612428836124c2565b92508282101561243b5761243a6125ba565b5b828203905092915050565b6000612451826124a2565b9050919050565b6000612463826124a2565b9050919050565b60008115159050919050565b60007fffffffff0000000000000000000000000000000000000000000000000000000082169050919050565b600073ffffffffffffffffffffffffffffffffffffffff82169050919050565b6000819050919050565b82818337600083830152505050565b60005b838110156124f95780820151818401526020810190506124de565b83811115612508576000848401525b50505050565b6000600282049050600182168061252657607f821691505b6020821081141561253a57612539612618565b5b50919050565b600061254b826124c2565b91507fffffffffffffffffffffffffffffffffffffffffffffffffffffffffffffffff82141561257e5761257d6125ba565b5b600182019050919050565b6000612594826124c2565b915061259f836124c2565b9250826125af576125ae6125e9565b5b828206905092915050565b7f4e487b7100000000000000000000000000000000000000000000000000000000600052601160045260246000fd5b7f4e487b7100000000000000000000000000000000000000000000000000000000600052601260045260246000fd5b7f4e487b7100000000000000000000000000000000000000000000000000000000600052602260045260246000fd5b7f4e487b7100000000000000000000000000000000000000000000000000000000600052604160045260246000fd5b6000601f19601f8301169050919050565b61269081612446565b811461269b57600080fd5b50565b6126a78161246a565b81146126b257600080fd5b50565b6126be81612476565b81146126c957600080fd5b50565b6126d5816124c2565b81146126e057600080fd5b5056fea2646970667358221220cc3c5dec1ca480eb8f3ad165b310ec865a83d59a90f92f44c9ecba439584861464736f6c63430008000033",
  "linkReferences": {},
  "deployedLinkReferences": {}
}