{
  "contractName": "DailyLimitExtension",
  "abi": [
    {
      "constant": true,
      "inputs": [],
      "name": "TRANSFER_FUNCTION_IDENTIFIER",
      "outputs": [
        {
          "name": "",
          "type": "bytes4"
        }
      ],
      "payable": false,
      "stateMutability": "view",
      "type": "function"
    },
    {
      "constant": true,
      "inputs": [],
      "name": "NAME",
      "outputs": [
        {
          "name": "",
          "type": "string"
        }
      ],
      "payable": false,
      "stateMutability": "view",
      "type": "function"
    },
    {
      "constant": true,
      "inputs": [],
      "name": "gnosisSafe",
      "outputs": [
        {
          "name": "",
          "type": "address"
        }
      ],
      "payable": false,
      "stateMutability": "view",
      "type": "function"
    },
    {
      "constant": true,
      "inputs": [
        {
          "name": "",
          "type": "address"
        }
      ],
      "name": "dailyLimits",
      "outputs": [
        {
          "name": "dailyLimit",
          "type": "uint256"
        },
        {
          "name": "spentToday",
          "type": "uint256"
        },
        {
          "name": "lastDay",
          "type": "uint256"
        }
      ],
      "payable": false,
      "stateMutability": "view",
      "type": "function"
    },
    {
      "constant": true,
      "inputs": [],
      "name": "VERSION",
      "outputs": [
        {
          "name": "",
          "type": "string"
        }
      ],
      "payable": false,
      "stateMutability": "view",
      "type": "function"
    },
    {
      "inputs": [
        {
          "name": "tokens",
          "type": "address[]"
        },
        {
          "name": "_dailyLimits",
          "type": "uint256[]"
        }
      ],
      "payable": false,
      "stateMutability": "nonpayable",
      "type": "constructor"
    },
    {
      "constant": false,
      "inputs": [
        {
          "name": "tokens",
          "type": "address[]"
        },
        {
          "name": "_dailyLimits",
          "type": "uint256[]"
        }
      ],
      "name": "setup",
      "outputs": [],
      "payable": false,
      "stateMutability": "nonpayable",
      "type": "function"
    },
    {
      "constant": false,
      "inputs": [
        {
          "name": "_masterCopy",
          "type": "address"
        }
      ],
      "name": "changeMasterCopy",
      "outputs": [],
      "payable": false,
      "stateMutability": "nonpayable",
      "type": "function"
    },
    {
      "constant": false,
      "inputs": [
        {
          "name": "token",
          "type": "address"
        },
        {
          "name": "dailyLimit",
          "type": "uint256"
        }
      ],
      "name": "changeDailyLimit",
      "outputs": [],
      "payable": false,
      "stateMutability": "nonpayable",
      "type": "function"
    },
    {
      "constant": false,
      "inputs": [
        {
          "name": "sender",
          "type": "address"
        },
        {
          "name": "to",
          "type": "address"
        },
        {
          "name": "value",
          "type": "uint256"
        },
        {
          "name": "data",
          "type": "bytes"
        },
        {
          "name": "operation",
          "type": "uint8"
        }
      ],
      "name": "isExecutable",
      "outputs": [
        {
          "name": "",
          "type": "bool"
        }
      ],
      "payable": false,
      "stateMutability": "nonpayable",
      "type": "function"
    },
    {
      "constant": true,
      "inputs": [],
      "name": "today",
      "outputs": [
        {
          "name": "",
          "type": "uint256"
        }
      ],
      "payable": false,
      "stateMutability": "view",
      "type": "function"
    }
  ],
  "bytecode": "0x6060604052341561000f57600080fd5b604051610dbf380380610dbf833981016040528080518201919060200180518201919050506100518282610058640100000000026104e2176401000000009004565b5050610176565b600080600160009054906101000a900473ffffffffffffffffffffffffffffffffffffffff1673ffffffffffffffffffffffffffffffffffffffff161415156100a057600080fd5b33600160006101000a81548173ffffffffffffffffffffffffffffffffffffffff021916908373ffffffffffffffffffffffffffffffffffffffff160217905550600090505b82518110156101715781818151811015156100fd57fe5b9060200190602002015160026000858481518110151561011957fe5b9060200190602002015173ffffffffffffffffffffffffffffffffffffffff1673ffffffffffffffffffffffffffffffffffffffff1681526020019081526020016000206000018190555080806001019150506100e6565b505050565b610c3a806101856000396000f3006060604052600436106100a4576000357c0100000000000000000000000000000000000000000000000000000000900463ffffffff16806328814f03146100a9578063430e47f8146101435780637de7edef146101aa57806381c5e03b146101e3578063a3f4df7e14610225578063a84173ae146102b3578063b74e452b14610308578063cde09ca914610331578063d7bffc92146103f9578063ffa1ad7414610454575b600080fd5b34156100b457600080fd5b610141600480803590602001908201803590602001908080602002602001604051908101604052809392919081815260200183836020028082843782019150505050505091908035906020019082018035906020019080806020026020016040519081016040528093929190818152602001838360200280828437820191505050505050919050506104e2565b005b341561014e57600080fd5b610156610600565b60405180827bffffffffffffffffffffffffffffffffffffffffffffffffffffffff19167bffffffffffffffffffffffffffffffffffffffffffffffffffffffff1916815260200191505060405180910390f35b34156101b557600080fd5b6101e1600480803573ffffffffffffffffffffffffffffffffffffffff16906020019091905050610624565b005b34156101ee57600080fd5b610223600480803573ffffffffffffffffffffffffffffffffffffffff169060200190919080359060200190919050506106e9565b005b341561023057600080fd5b610238610790565b6040518080602001828103825283818151815260200191508051906020019080838360005b8381101561027857808201518184015260208101905061025d565b50505050905090810190601f1680156102a55780820380516001836020036101000a031916815260200191505b509250505060405180910390f35b34156102be57600080fd5b6102c66107c9565b604051808273ffffffffffffffffffffffffffffffffffffffff1673ffffffffffffffffffffffffffffffffffffffff16815260200191505060405180910390f35b341561031357600080fd5b61031b6107ef565b6040518082815260200191505060405180910390f35b341561033c57600080fd5b6103df600480803573ffffffffffffffffffffffffffffffffffffffff1690602001909190803573ffffffffffffffffffffffffffffffffffffffff1690602001909190803590602001909190803590602001908201803590602001908080601f0160208091040260200160405190810160405280939291908181526020018383808284378201915050505050509190803560ff16906020019091905050610807565b604051808215151515815260200191505060405180910390f35b341561040457600080fd5b610430600480803573ffffffffffffffffffffffffffffffffffffffff16906020019091905050610afc565b60405180848152602001838152602001828152602001935050505060405180910390f35b341561045f57600080fd5b610467610b26565b6040518080602001828103825283818151815260200191508051906020019080838360005b838110156104a757808201518184015260208101905061048c565b50505050905090810190601f1680156104d45780820380516001836020036101000a031916815260200191505b509250505060405180910390f35b600080600160009054906101000a900473ffffffffffffffffffffffffffffffffffffffff1673ffffffffffffffffffffffffffffffffffffffff1614151561052a57600080fd5b33600160006101000a81548173ffffffffffffffffffffffffffffffffffffffff021916908373ffffffffffffffffffffffffffffffffffffffff160217905550600090505b82518110156105fb57818181518110151561058757fe5b906020019060200201516002600085848151811015156105a357fe5b9060200190602002015173ffffffffffffffffffffffffffffffffffffffff1673ffffffffffffffffffffffffffffffffffffffff168152602001908152602001600020600001819055508080600101915050610570565b505050565b7fa9059cbb0000000000000000000000000000000000000000000000000000000081565b600160009054906101000a900473ffffffffffffffffffffffffffffffffffffffff1673ffffffffffffffffffffffffffffffffffffffff163373ffffffffffffffffffffffffffffffffffffffff1614151561068057600080fd5b60008173ffffffffffffffffffffffffffffffffffffffff16141515156106a657600080fd5b806000806101000a81548173ffffffffffffffffffffffffffffffffffffffff021916908373ffffffffffffffffffffffffffffffffffffffff16021790555050565b600160009054906101000a900473ffffffffffffffffffffffffffffffffffffffff1673ffffffffffffffffffffffffffffffffffffffff163373ffffffffffffffffffffffffffffffffffffffff1614151561074557600080fd5b80600260008473ffffffffffffffffffffffffffffffffffffffff1673ffffffffffffffffffffffffffffffffffffffff168152602001908152602001600020600001819055505050565b6040805190810160405280601581526020017f4461696c79204c696d697420457874656e73696f6e000000000000000000000081525081565b600160009054906101000a900473ffffffffffffffffffffffffffffffffffffffff1681565b600062015180428115156107ff57fe5b064203905090565b6000806000806000600160009054906101000a900473ffffffffffffffffffffffffffffffffffffffff1673ffffffffffffffffffffffffffffffffffffffff163373ffffffffffffffffffffffffffffffffffffffff1614151561086b57600080fd5b600160009054906101000a900473ffffffffffffffffffffffffffffffffffffffff1673ffffffffffffffffffffffffffffffffffffffff16632f54bf6e8b6000604051602001526040518263ffffffff167c0100000000000000000000000000000000000000000000000000000000028152600401808273ffffffffffffffffffffffffffffffffffffffff1673ffffffffffffffffffffffffffffffffffffffff168152602001915050602060405180830381600087803b151561093057600080fd5b6102c65a03f1151561094157600080fd5b50505060405180519050151561095657600080fd5b6000600281111561096357fe5b86600281111561096f57fe5b14151561097b57600080fd5b6000875114801561098c5750600088115b806109a45750600087511180156109a35750600088145b5b15156109af57600080fd5b6000875114156109c85760009350889250879150610a4d565b8893506020870151905060248701519250604487015191507fa9059cbb000000000000000000000000000000000000000000000000000000007bffffffffffffffffffffffffffffffffffffffffffffffffffffffff1916817bffffffffffffffffffffffffffffffffffffffffffffffffffffffff1916141515610a4c57600080fd5b5b60008373ffffffffffffffffffffffffffffffffffffffff1614151515610a7357600080fd5b600082111515610a8257600080fd5b610a8c8483610b5f565b15610aea5781600260008673ffffffffffffffffffffffffffffffffffffffff1673ffffffffffffffffffffffffffffffffffffffff1681526020019081526020016000206001016000828254019250508190555060019450610aef565b600094505b5050505095945050505050565b60026020528060005260406000206000915090508060000154908060010154908060020154905083565b6040805190810160405280600581526020017f302e302e3100000000000000000000000000000000000000000000000000000081525081565b600080600260008573ffffffffffffffffffffffffffffffffffffffff1673ffffffffffffffffffffffffffffffffffffffff16815260200190815260200160002090508060020154610bb06107ef565b1115610bd157610bbe6107ef565b8160020181905550600081600101819055505b80600001548382600101540111158015610bf45750806001015483826001015401115b15610c025760019150610c07565b600091505b50929150505600a165627a7a72305820f7f238174a987b01a6474c913fd8e1b521a4e9437201243a233835e7739be3730029",
  "source": "pragma solidity 0.4.19;\nimport \"../Extension.sol\";\nimport \"../GnosisSafe.sol\";\n\n\n/// @title Daily Limit Extension - Allows to transfer limited amounts of ERC20 tokens and Ether without confirmations.\n/// @author Stefan George - <stefan@gnosis.pm>\ncontract DailyLimitExtension is Extension {\n\n    string public constant NAME = \"Daily Limit Extension\";\n    string public constant VERSION = \"0.0.1\";\n    bytes4 public constant TRANSFER_FUNCTION_IDENTIFIER = hex\"a9059cbb\";\n\n    DailyLimitExtension masterCopy;\n    GnosisSafe public gnosisSafe;\n\n    // dailyLimits mapping maps token address to daily limit settings.\n    mapping (address => DailyLimit) public dailyLimits;\n\n    struct DailyLimit {\n        uint256 dailyLimit;\n        uint256 spentToday;\n        uint256 lastDay;\n    }\n\n    modifier onlyGnosisSafe() {\n        require(msg.sender == address(gnosisSafe));\n        _;\n    }\n\n    /// @dev Constructor function triggers setup function.\n    /// @param tokens List of token addresses. Ether is represented with address 0x0.\n    /// @param _dailyLimits List of daily limits in smallest unit (e.g. Wei for Ether). \n    ///        First entry of array corresponds to first entry in token address array.\n    function DailyLimitExtension(address[] tokens, uint256[] _dailyLimits)\n        public\n    {\n        setup(tokens, _dailyLimits);\n    }\n\n    /// @dev Setup function sets initial storage of contract.\n    /// @param tokens List of token addresses. Ether is represented with address 0x0.\n    /// @param _dailyLimits List of daily limits in smalles units (e.g. Wei for Ether).\n    function setup(address[] tokens, uint256[] _dailyLimits)\n        public\n    {\n        // gnosisSafe can only be 0 at initalization of contract.\n        // Check ensures that setup function can only be called once.\n        require(address(gnosisSafe) == 0);\n        gnosisSafe = GnosisSafe(msg.sender);\n        for (uint256 i = 0; i < tokens.length; i++)\n            dailyLimits[tokens[i]].dailyLimit = _dailyLimits[i];\n    }\n\n    /// @dev Allows to upgrade the contract. This can only be done via a Safe transaction.\n    /// @param _masterCopy New contract address.\n    function changeMasterCopy(DailyLimitExtension _masterCopy)\n        public\n        onlyGnosisSafe\n    {\n        require(address(_masterCopy) != 0);\n        masterCopy = _masterCopy;\n    }\n\n    /// @dev Allows to update the daily limit for a specified token. This can only be done via a Safe transaction.\n    /// @param token Token contract address.\n    /// @param dailyLimit Daily limit in smallest token unit.\n    function changeDailyLimit(address token, uint256 dailyLimit)\n        public\n        onlyGnosisSafe\n    {\n        dailyLimits[token].dailyLimit = dailyLimit;\n    }\n\n    /// @dev Returns if Safe transaction is a valid daily limit transaction.\n    /// @param sender Safe owner sending Safe transaction.\n    /// @param to Receiver address in case of Ether transfer, token address in case of a token transfer.\n    /// @param value Ether value in case of an Ether transfer.\n    /// @param data Encoded token transfer. Empty in case of Ether transfer.\n    /// @param operation Only Call operations are allowed.\n    /// @return Returns if transaction can be executed.\n    function isExecutable(address sender, address to, uint256 value, bytes data, GnosisSafe.Operation operation)\n        public\n        onlyGnosisSafe\n        returns (bool)\n    {\n        // Only Safe owners are allowed to execute daily limit transactions.\n        require(gnosisSafe.isOwner(sender));\n        require(operation == GnosisSafe.Operation.Call);\n        // Data has to encode a token transfer or has to be empty.\n        require(data.length == 0 && value > 0 || data.length > 0 && value == 0);\n        address token;\n        address receiver;\n        uint256 amount;\n        if (data.length == 0) {\n            token = 0;\n            receiver = to;\n            amount = value;\n        }\n        else {\n            token = to;\n            bytes4 functionIdentifier;\n            assembly {\n                functionIdentifier := mload(add(data, 0x20))\n                receiver := mload(add(data, 0x24))\n                amount := mload(add(data, 0x44))\n            }\n            require(functionIdentifier == TRANSFER_FUNCTION_IDENTIFIER);\n        }\n        require(receiver != 0);\n        require(amount > 0);\n        // Validate that transfer is not exceeding daily limit.\n        if (isUnderLimit(token, amount)) {\n            dailyLimits[token].spentToday += amount;\n            return true;\n        }\n        return false;\n    }\n\n    function isUnderLimit(address token, uint256 amount)\n        internal\n        returns (bool)\n    {\n        DailyLimit storage dailyLimit = dailyLimits[token];\n        if (today() > dailyLimit.lastDay) {\n            dailyLimit.lastDay = today();\n            dailyLimit.spentToday = 0;\n        }\n        if (   dailyLimit.spentToday + amount <= dailyLimit.dailyLimit\n            && dailyLimit.spentToday + amount > dailyLimit.spentToday)\n            return true;\n        return false;\n    }\n\n    /// @dev Returns last midnight as Unix timestamp.\n    /// @return Unix timestamp.\n    function today()\n        public\n        view\n        returns (uint)\n    {\n        return now - (now % 1 days);\n    }\n}\n",
  "sourcePath": "/Users/apanizo/git/gnosis/safe-contracts/contracts/extensions/DailyLimitExtension.sol",
  "compiler": {
    "name": "solc",
    "version": "0.4.19+commit.c4cbbb05.Emscripten.clang"
  },
  "schemaVersion": "2.0.0",
  "updatedAt": "2018-05-08T14:18:44.022Z"
}