{
  "contractName": "MultiSendStruct",
  "abi": [
    {
      "constant": false,
      "inputs": [
        {
          "components": [
            {
              "name": "to",
              "type": "address"
            },
            {
              "name": "value",
              "type": "uint256"
            },
            {
              "name": "data",
              "type": "bytes"
            }
          ],
          "name": "transactions",
          "type": "tuple[]"
        }
      ],
      "name": "multiSend",
      "outputs": [],
      "payable": false,
      "stateMutability": "nonpayable",
      "type": "function"
    }
  ],
  "bytecode": "0x6060604052341561000f57600080fd5b6104338061001e6000396000f300606060405260043610610041576000357c0100000000000000000000000000000000000000000000000000000000900463ffffffff1680632f6fda4a14610046575b600080fd5b341561005157600080fd5b61006660046100619036906102d1565b610068565b005b60006100726100e8565b600091505b82518210156100c957828281518110151561008e57fe5b9060200190602002015190506100b18160000151826020015183604001516100ce565b15156100bc57600080fd5b8180600101925050610077565b505050565b60008060008351602085018688600019f190509392505050565b606060405190810160405280600073ffffffffffffffffffffffffffffffffffffffff16815260200160008152602001610120610126565b81525090565b602060405190810160405280600081525090565b600061014682356103c0565b905092915050565b600082601f8301126000811461016357610168565b600080fd5b50813561017c6101778261035a565b610324565b9150818183526020840193506020810190508360005b838110156101c257813586016101a88882610233565b845260208401935060208301925050600181019050610192565b5050505092915050565b600082601f830112600081146101e1576101e6565b600080fd5b5081356101fa6101f58261038b565b610324565b915080825260208301602083018583830111600181146102195761021e565b600080fd5b5061022a8382846103ea565b50505092915050565b6000606082840312600181146102485761024d565b600080fd5b506102586060610324565b905060006102688482850161013a565b600083015250602061027c848285016102bd565b602083015250604082013567ffffffffffffffff81116001811461029f576102a4565b600080fd5b506102b1848285016101cc565b60408301525092915050565b60006102c982356103e0565b905092915050565b6000602082840312600181146102e6576102eb565b600080fd5b50600082013567ffffffffffffffff8111600181146103095761030e565b600080fd5b5061031b8482850161014e565b91505092915050565b6000604051905081810181811067ffffffffffffffff8211176001811461034a5761034f565b600080fd5b508060405250919050565b600067ffffffffffffffff82116001811461037457610379565b600080fd5b50602082029050602081019050919050565b600067ffffffffffffffff8211600181146103a5576103aa565b600080fd5b50601f19601f8301169050602081019050919050565b600073ffffffffffffffffffffffffffffffffffffffff82169050919050565b6000819050919050565b828183376000838301525050505600a265627a7a72305820484c17df168e13c63e6cab3910c3609158f4993315f595b990932cc0a3f27c726c6578706572696d656e74616cf50037",
  "source": "pragma solidity ^0.4.19;\npragma experimental ABIEncoderV2;\n\n\n/// @title Multi Send - Allows to batch multiple transactions into one.\n/// @author Nick Dodson - <nick.dodson@consensys.net>\n/// @author Gonçalo Sá - <goncalo.sa@consensys.net>\n/// @author Stefan George - <stefan@gnosis.pm>\n/// @author Richard Meissner - <richard@gnosis.pm>\ncontract MultiSendStruct {\n\n    struct Transaction {\n      address to;\n      uint256 value;\n      bytes data;\n    }\n\n    /// @dev Sends multiple transactions and reverts all if one fails.\n    /// @param transactions Encoded transactions.\n    function multiSend(Transaction[] transactions)\n        public\n    {\n        for(uint256 i = 0; i < transactions.length; i++) {\n            Transaction memory transaction = transactions[i];\n            require(executeCall(transaction.to, transaction.value, transaction.data));\n        }\n    }\n\n    function executeCall(address to, uint256 value, bytes data)\n        internal\n        returns (bool success)\n    {\n        assembly {\n            success := call(not(0), to, value, add(data, 0x20), mload(data), 0, 0)\n        }\n    }\n}\n",
  "sourcePath": "/Users/apanizo/git/gnosis/safe-contracts/contracts/libraries/MultiSendStruct.sol",
  "compiler": {
    "name": "solc",
    "version": "0.4.19+commit.c4cbbb05.Emscripten.clang"
  },
  "schemaVersion": "2.0.0",
  "updatedAt": "2018-05-04T10:42:18.395Z"
}