{
  "contractName": "ProxyFactory",
  "abi": [
    {
      "anonymous": false,
      "inputs": [
        {
          "indexed": false,
          "name": "proxy",
          "type": "address"
        }
      ],
      "name": "ProxyCreation",
      "type": "event"
    },
    {
      "constant": false,
      "inputs": [
        {
          "name": "masterCopy",
          "type": "address"
        },
        {
          "name": "data",
          "type": "bytes"
        }
      ],
      "name": "createProxy",
      "outputs": [
        {
          "name": "proxy",
          "type": "address"
        }
      ],
      "payable": false,
      "stateMutability": "nonpayable",
      "type": "function"
    }
  ],
  "bytecode": "0x6060604052341561000f57600080fd5b61033e8061001e6000396000f300606060405260043610610041576000357c0100000000000000000000000000000000000000000000000000000000900463ffffffff16806361b69abd14610046575b600080fd5b341561005157600080fd5b6100c0600480803573ffffffffffffffffffffffffffffffffffffffff1690602001909190803590602001908201803590602001908080601f01602080910402602001604051908101604052809392919081815260200183838082843782019150505050505091905050610102565b604051808273ffffffffffffffffffffffffffffffffffffffff1673ffffffffffffffffffffffffffffffffffffffff16815260200191505060405180910390f35b60008261010d6101f2565b808273ffffffffffffffffffffffffffffffffffffffff1673ffffffffffffffffffffffffffffffffffffffff168152602001915050604051809103906000f080151561015957600080fd5b905060008251111561018957600080835160208501600085600019f16000811461018257610187565b600080fd5b505b7fa38789425dbeee0239e16ff2d2567e31720127fbc6430758c1a4efc6aef29f8081604051808273ffffffffffffffffffffffffffffffffffffffff1673ffffffffffffffffffffffffffffffffffffffff16815260200191505060405180910390a192915050565b604051610110806102038339019056006060604052341561000f57600080fd5b6040516020806101108339810160405280805190602001909190505060008173ffffffffffffffffffffffffffffffffffffffff161415151561005157600080fd5b806000806101000a81548173ffffffffffffffffffffffffffffffffffffffff021916908373ffffffffffffffffffffffffffffffffffffffff160217905550506070806100a06000396000f300606060405273ffffffffffffffffffffffffffffffffffffffff60005416366000803760008036600084600019f43d6000803e8060008114603f573d6000f35b3d6000fd00a165627a7a72305820daad8330a1c74b6650ef400638bc3fcb59dcd0b0341bff33bbe640bd2ffdaff60029a165627a7a7230582016c17d280f9b2d074d821cd6f6e791d8a9100e0da9af1a0cc86af635d90935070029",
  "source": "pragma solidity 0.4.19;\nimport \"./Proxy.sol\";\n\n\n/// @title Proxy Factory - Allows to create new proxy contact and execute a message call to the new proxy within one transaction.\n/// @author Stefan George - <stefan@gnosis.pm>\ncontract ProxyFactory {\n\n    event ProxyCreation(Proxy proxy);\n\n    /// @dev Allows to create new proxy contact and execute a message call to the new proxy within one transaction.\n    /// @param masterCopy Address of master copy.\n    /// @param data Payload for message call sent to new proxy contract.\n    function createProxy(address masterCopy, bytes data)\n        public\n        returns (Proxy proxy)\n    {\n        proxy = new Proxy(masterCopy);\n        if (data.length > 0)\n            assembly {\n                switch call(not(0), proxy, 0, add(data, 0x20), mload(data), 0, 0)\n                case 0 { revert(0, 0) }\n            }\n        ProxyCreation(proxy);\n    }\n}\n",
  "sourcePath": "/Users/apanizo/git/gnosis/safe-contracts/contracts/ProxyFactory.sol",
  "compiler": {
    "name": "solc",
    "version": "0.4.19+commit.c4cbbb05.Emscripten.clang"
  },
  "schemaVersion": "2.0.0",
  "updatedAt": "2018-05-08T14:18:44.019Z"
}