{
  "contractName": "SocialRecoveryExtension",
  "abi": [
    {
      "constant": true,
      "inputs": [],
      "name": "REPLACE_OWNER_FUNCTION_IDENTIFIER",
      "outputs": [
        {
          "name": "",
          "type": "bytes4"
        }
      ],
      "payable": false,
      "stateMutability": "view",
      "type": "function"
    },
    {
      "constant": true,
      "inputs": [],
      "name": "threshold",
      "outputs": [
        {
          "name": "",
          "type": "uint8"
        }
      ],
      "payable": false,
      "stateMutability": "view",
      "type": "function"
    },
    {
      "constant": true,
      "inputs": [
        {
          "name": "",
          "type": "address"
        }
      ],
      "name": "isFriend",
      "outputs": [
        {
          "name": "",
          "type": "bool"
        }
      ],
      "payable": false,
      "stateMutability": "view",
      "type": "function"
    },
    {
      "constant": true,
      "inputs": [],
      "name": "NAME",
      "outputs": [
        {
          "name": "",
          "type": "string"
        }
      ],
      "payable": false,
      "stateMutability": "view",
      "type": "function"
    },
    {
      "constant": true,
      "inputs": [],
      "name": "gnosisSafe",
      "outputs": [
        {
          "name": "",
          "type": "address"
        }
      ],
      "payable": false,
      "stateMutability": "view",
      "type": "function"
    },
    {
      "constant": true,
      "inputs": [
        {
          "name": "",
          "type": "bytes32"
        },
        {
          "name": "",
          "type": "address"
        }
      ],
      "name": "isConfirmed",
      "outputs": [
        {
          "name": "",
          "type": "bool"
        }
      ],
      "payable": false,
      "stateMutability": "view",
      "type": "function"
    },
    {
      "constant": true,
      "inputs": [
        {
          "name": "",
          "type": "uint256"
        }
      ],
      "name": "friends",
      "outputs": [
        {
          "name": "",
          "type": "address"
        }
      ],
      "payable": false,
      "stateMutability": "view",
      "type": "function"
    },
    {
      "constant": true,
      "inputs": [
        {
          "name": "",
          "type": "bytes32"
        }
      ],
      "name": "isExecuted",
      "outputs": [
        {
          "name": "",
          "type": "bool"
        }
      ],
      "payable": false,
      "stateMutability": "view",
      "type": "function"
    },
    {
      "constant": true,
      "inputs": [],
      "name": "VERSION",
      "outputs": [
        {
          "name": "",
          "type": "string"
        }
      ],
      "payable": false,
      "stateMutability": "view",
      "type": "function"
    },
    {
      "inputs": [
        {
          "name": "_friends",
          "type": "address[]"
        },
        {
          "name": "_threshold",
          "type": "uint8"
        }
      ],
      "payable": false,
      "stateMutability": "nonpayable",
      "type": "constructor"
    },
    {
      "constant": false,
      "inputs": [
        {
          "name": "_friends",
          "type": "address[]"
        },
        {
          "name": "_threshold",
          "type": "uint8"
        }
      ],
      "name": "setup",
      "outputs": [],
      "payable": false,
      "stateMutability": "nonpayable",
      "type": "function"
    },
    {
      "constant": false,
      "inputs": [
        {
          "name": "_masterCopy",
          "type": "address"
        }
      ],
      "name": "changeMasterCopy",
      "outputs": [],
      "payable": false,
      "stateMutability": "nonpayable",
      "type": "function"
    },
    {
      "constant": false,
      "inputs": [
        {
          "name": "dataHash",
          "type": "bytes32"
        }
      ],
      "name": "confirmTransaction",
      "outputs": [],
      "payable": false,
      "stateMutability": "nonpayable",
      "type": "function"
    },
    {
      "constant": false,
      "inputs": [
        {
          "name": "sender",
          "type": "address"
        },
        {
          "name": "to",
          "type": "address"
        },
        {
          "name": "value",
          "type": "uint256"
        },
        {
          "name": "data",
          "type": "bytes"
        },
        {
          "name": "operation",
          "type": "uint8"
        }
      ],
      "name": "isExecutable",
      "outputs": [
        {
          "name": "",
          "type": "bool"
        }
      ],
      "payable": false,
      "stateMutability": "nonpayable",
      "type": "function"
    },
    {
      "constant": true,
      "inputs": [
        {
          "name": "dataHash",
          "type": "bytes32"
        }
      ],
      "name": "isConfirmedByRequiredFriends",
      "outputs": [
        {
          "name": "",
          "type": "bool"
        }
      ],
      "payable": false,
      "stateMutability": "view",
      "type": "function"
    },
    {
      "constant": true,
      "inputs": [
        {
          "name": "data",
          "type": "bytes"
        }
      ],
      "name": "getDataHash",
      "outputs": [
        {
          "name": "",
          "type": "bytes32"
        }
      ],
      "payable": false,
      "stateMutability": "view",
      "type": "function"
    }
  ],
  "bytecode": "0x606060405234156200001057600080fd5b6040516200140738038062001407833981016040528080518201919060200180519060200190919050506200005a82826200006264010000000002620006a2176401000000009004565b505062000360565b600080600160009054906101000a900473ffffffffffffffffffffffffffffffffffffffff1673ffffffffffffffffffffffffffffffffffffffff16141515620000ab57600080fd5b82518260ff1611151515620000bf57600080fd5b60028260ff1610151515620000d357600080fd5b33600160006101000a81548173ffffffffffffffffffffffffffffffffffffffff021916908373ffffffffffffffffffffffffffffffffffffffff160217905550600090505b82518110156200025257600083828151811015156200013457fe5b9060200190602002015173ffffffffffffffffffffffffffffffffffffffff16141515156200016257600080fd5b6003600084838151811015156200017557fe5b9060200190602002015173ffffffffffffffffffffffffffffffffffffffff1673ffffffffffffffffffffffffffffffffffffffff16815260200190815260200160002060009054906101000a900460ff16151515620001d457600080fd5b6001600360008584815181101515620001e957fe5b9060200190602002015173ffffffffffffffffffffffffffffffffffffffff1673ffffffffffffffffffffffffffffffffffffffff16815260200190815260200160002060006101000a81548160ff021916908315150217905550808060010191505062000119565b82600290805190602001906200026a9291906200028b565b5081600160146101000a81548160ff021916908360ff160217905550505050565b82805482825590600052602060002090810192821562000307579160200282015b82811115620003065782518260006101000a81548173ffffffffffffffffffffffffffffffffffffffff021916908373ffffffffffffffffffffffffffffffffffffffff16021790555091602001919060010190620002ac565b5b5090506200031691906200031a565b5090565b6200035d91905b808211156200035957600081816101000a81549073ffffffffffffffffffffffffffffffffffffffff02191690555060010162000321565b5090565b90565b61109780620003706000396000f3006060604052600436106100db576000357c0100000000000000000000000000000000000000000000000000000000900463ffffffff16806336749c1a146100e05780633cf5b3091461014757806342cde4e8146101ad57806368125a1b146101dc57806379716e431461022d5780637de7edef146102545780639ca89d0d1461028d578063a3f4df7e146102cc578063a84173ae1461035a578063ae68b056146103af578063b79ffaff14610428578063cde09ca914610486578063ce1468281461054e578063e52cb36a146105b1578063ffa1ad74146105f0575b600080fd5b34156100eb57600080fd5b6100f361067e565b60405180827bffffffffffffffffffffffffffffffffffffffffffffffffffffffff19167bffffffffffffffffffffffffffffffffffffffffffffffffffffffff1916815260200191505060405180910390f35b341561015257600080fd5b6101ab60048080359060200190820180359060200190808060200260200160405190810160405280939291908181526020018383602002808284378201915050505050509190803560ff169060200190919050506106a2565b005b34156101b857600080fd5b6101c06108bf565b604051808260ff1660ff16815260200191505060405180910390f35b34156101e757600080fd5b610213600480803573ffffffffffffffffffffffffffffffffffffffff169060200190919050506108d2565b604051808215151515815260200191505060405180910390f35b341561023857600080fd5b6102526004808035600019169060200190919050506108f2565b005b341561025f57600080fd5b61028b600480803573ffffffffffffffffffffffffffffffffffffffff169060200190919050506109f3565b005b341561029857600080fd5b6102b2600480803560001916906020019091905050610ab8565b604051808215151515815260200191505060405180910390f35b34156102d757600080fd5b6102df610bb8565b6040518080602001828103825283818151815260200191508051906020019080838360005b8381101561031f578082015181840152602081019050610304565b50505050905090810190601f16801561034c5780820380516001836020036101000a031916815260200191505b509250505060405180910390f35b341561036557600080fd5b61036d610bf1565b604051808273ffffffffffffffffffffffffffffffffffffffff1673ffffffffffffffffffffffffffffffffffffffff16815260200191505060405180910390f35b34156103ba57600080fd5b61040a600480803590602001908201803590602001908080601f01602080910402602001604051908101604052809392919081815260200183838082843782019150505050505091905050610c17565b60405180826000191660001916815260200191505060405180910390f35b341561043357600080fd5b61046c60048080356000191690602001909190803573ffffffffffffffffffffffffffffffffffffffff16906020019091905050610c83565b604051808215151515815260200191505060405180910390f35b341561049157600080fd5b610534600480803573ffffffffffffffffffffffffffffffffffffffff1690602001909190803573ffffffffffffffffffffffffffffffffffffffff1690602001909190803590602001909190803590602001908201803590602001908080601f0160208091040260200160405190810160405280939291908181526020018383808284378201915050505050509190803560ff16906020019091905050610cb2565b604051808215151515815260200191505060405180910390f35b341561055957600080fd5b61056f6004808035906020019091905050610f06565b604051808273ffffffffffffffffffffffffffffffffffffffff1673ffffffffffffffffffffffffffffffffffffffff16815260200191505060405180910390f35b34156105bc57600080fd5b6105d6600480803560001916906020019091905050610f45565b604051808215151515815260200191505060405180910390f35b34156105fb57600080fd5b610603610f65565b6040518080602001828103825283818151815260200191508051906020019080838360005b83811015610643578082015181840152602081019050610628565b50505050905090810190601f1680156106705780820380516001836020036101000a031916815260200191505b509250505060405180910390f35b7f54e99c6e0000000000000000000000000000000000000000000000000000000081565b600080600160009054906101000a900473ffffffffffffffffffffffffffffffffffffffff1673ffffffffffffffffffffffffffffffffffffffff161415156106ea57600080fd5b82518260ff16111515156106fd57600080fd5b60028260ff161015151561071057600080fd5b33600160006101000a81548173ffffffffffffffffffffffffffffffffffffffff021916908373ffffffffffffffffffffffffffffffffffffffff160217905550600090505b8251811015610888576000838281518110151561076f57fe5b9060200190602002015173ffffffffffffffffffffffffffffffffffffffff161415151561079c57600080fd5b6003600084838151811015156107ae57fe5b9060200190602002015173ffffffffffffffffffffffffffffffffffffffff1673ffffffffffffffffffffffffffffffffffffffff16815260200190815260200160002060009054906101000a900460ff1615151561080c57600080fd5b600160036000858481518110151561082057fe5b9060200190602002015173ffffffffffffffffffffffffffffffffffffffff1673ffffffffffffffffffffffffffffffffffffffff16815260200190815260200160002060006101000a81548160ff0219169083151502179055508080600101915050610756565b826002908051906020019061089e929190610f9e565b5081600160146101000a81548160ff021916908360ff160217905550505050565b600160149054906101000a900460ff1681565b60036020528060005260406000206000915054906101000a900460ff1681565b600360003373ffffffffffffffffffffffffffffffffffffffff1673ffffffffffffffffffffffffffffffffffffffff16815260200190815260200160002060009054906101000a900460ff16151561094a57600080fd5b60046000826000191660001916815260200190815260200160002060009054906101000a900460ff1615151561097f57600080fd5b600160056000836000191660001916815260200190815260200160002060003373ffffffffffffffffffffffffffffffffffffffff1673ffffffffffffffffffffffffffffffffffffffff16815260200190815260200160002060006101000a81548160ff02191690831515021790555050565b600160009054906101000a900473ffffffffffffffffffffffffffffffffffffffff1673ffffffffffffffffffffffffffffffffffffffff163373ffffffffffffffffffffffffffffffffffffffff16141515610a4f57600080fd5b60008173ffffffffffffffffffffffffffffffffffffffff1614151515610a7557600080fd5b806000806101000a81548173ffffffffffffffffffffffffffffffffffffffff021916908373ffffffffffffffffffffffffffffffffffffffff16021790555050565b60008060008090505b600280549050811015610bac576005600085600019166000191681526020019081526020016000206000600283815481101515610afa57fe5b906000526020600020900160009054906101000a900473ffffffffffffffffffffffffffffffffffffffff1673ffffffffffffffffffffffffffffffffffffffff1673ffffffffffffffffffffffffffffffffffffffff16815260200190815260200160002060009054906101000a900460ff1615610b7c5781806001019250505b600160149054906101000a900460ff1660ff16821415610b9f5760019250610bb1565b8080600101915050610ac1565b600092505b5050919050565b6040805190810160405280601981526020017f536f6369616c205265636f7665727920457874656e73696f6e0000000000000081525081565b600160009054906101000a900473ffffffffffffffffffffffffffffffffffffffff1681565b6000816040518082805190602001908083835b602083101515610c4f5780518252602082019150602081019050602083039250610c2a565b6001836020036101000a03801982511681845116808217855250505050505090500191505060405180910390209050919050565b60056020528160005260406000206020528060005260406000206000915091509054906101000a900460ff1681565b6000806000600160009054906101000a900473ffffffffffffffffffffffffffffffffffffffff1673ffffffffffffffffffffffffffffffffffffffff163373ffffffffffffffffffffffffffffffffffffffff16141515610d1357600080fd5b600360008973ffffffffffffffffffffffffffffffffffffffff1673ffffffffffffffffffffffffffffffffffffffff16815260200190815260200160002060009054906101000a900460ff161515610d6b57600080fd5b600160009054906101000a900473ffffffffffffffffffffffffffffffffffffffff1673ffffffffffffffffffffffffffffffffffffffff168773ffffffffffffffffffffffffffffffffffffffff16141515610dc757600080fd5b600086141515610dd657600080fd5b60006002811115610de357fe5b846002811115610def57fe5b141515610dfb57600080fd5b602085015191507f54e99c6e000000000000000000000000000000000000000000000000000000007bffffffffffffffffffffffffffffffffffffffffffffffffffffffff1916827bffffffffffffffffffffffffffffffffffffffffffffffffffffffff1916141515610e6e57600080fd5b610e7785610c17565b905060046000826000191660001916815260200190815260200160002060009054906101000a900460ff16158015610eb45750610eb381610ab8565b5b15610ef657600160046000836000191660001916815260200190815260200160002060006101000a81548160ff02191690831515021790555060019250610efb565b600092505b505095945050505050565b600281815481101515610f1557fe5b90600052602060002090016000915054906101000a900473ffffffffffffffffffffffffffffffffffffffff1681565b60046020528060005260406000206000915054906101000a900460ff1681565b6040805190810160405280600581526020017f302e302e3100000000000000000000000000000000000000000000000000000081525081565b828054828255906000526020600020908101928215611017579160200282015b828111156110165782518260006101000a81548173ffffffffffffffffffffffffffffffffffffffff021916908373ffffffffffffffffffffffffffffffffffffffff16021790555091602001919060010190610fbe565b5b5090506110249190611028565b5090565b61106891905b8082111561106457600081816101000a81549073ffffffffffffffffffffffffffffffffffffffff02191690555060010161102e565b5090565b905600a165627a7a72305820f9a7137ea400c3cdaa59bb893ba2ca5055de1db780c2f3b4099da379d1b4ee460029",
  "source": "pragma solidity 0.4.19;\nimport \"../Extension.sol\";\nimport \"../GnosisSafe.sol\";\n\n\n/// @title Social Recovery Extension - Allows to replace an owner without Safe confirmations if friends approve the replacement.\n/// @author Stefan George - <stefan@gnosis.pm>\ncontract SocialRecoveryExtension is Extension {\n\n    string public constant NAME = \"Social Recovery Extension\";\n    string public constant VERSION = \"0.0.1\";\n    bytes4 public constant REPLACE_OWNER_FUNCTION_IDENTIFIER = hex\"54e99c6e\";\n\n    SocialRecoveryExtension masterCopy;\n    GnosisSafe public gnosisSafe;\n    uint8 public threshold;\n    address[] public friends;\n\n    // isFriend mapping maps friend's address to friend status.\n    mapping (address => bool) public isFriend;\n    // isExecuted mapping maps data hash to execution status.\n    mapping (bytes32 => bool) public isExecuted;\n    // isConfirmed mapping maps data hash to friend's address to confirmation status.\n    mapping (bytes32 => mapping (address => bool)) public isConfirmed;\n\n    modifier onlyGnosisSafe() {\n        require(msg.sender == address(gnosisSafe));\n        _;\n    }\n\n    modifier onlyFriend() {\n        require(isFriend[msg.sender]);\n        _;\n    }\n\n    /// @dev Constructor function triggers setup function.\n    /// @param _friends List of friends' addresses.\n    /// @param _threshold Required number of friends to confirm replacement.\n    function SocialRecoveryExtension(address[] _friends, uint8 _threshold)\n        public\n    {\n        setup(_friends, _threshold);\n    }\n\n    /// @dev Setup function sets initial storage of contract.\n    /// @param _friends List of friends' addresses.\n    /// @param _threshold Required number of friends to confirm replacement.\n    function setup(address[] _friends, uint8 _threshold)\n        public\n    {\n        // gnosisSafe can only be 0 at initalization of contract.\n        // Check ensures that setup function can only be called once.\n        require(address(gnosisSafe) == 0);\n        require(_threshold <= _friends.length);\n        require(_threshold >= 2);\n        gnosisSafe = GnosisSafe(msg.sender);\n        // Set allowed friends.\n        for (uint256 i = 0; i < _friends.length; i++) {\n            require(_friends[i] != 0);\n            require(!isFriend[_friends[i]]);\n            isFriend[_friends[i]] = true;\n        }\n        friends = _friends;\n        threshold = _threshold;\n    }\n\n    /// @dev Allows to upgrade the contract. This can only be done via a Safe transaction.\n    /// @param _masterCopy New contract address.\n    function changeMasterCopy(SocialRecoveryExtension _masterCopy)\n        public\n        onlyGnosisSafe\n    {\n        require(address(_masterCopy) != 0);\n        masterCopy = _masterCopy;\n    }\n\n    /// @dev Allows a friend to confirm a Safe transaction.\n    /// @param dataHash Safe transaction hash.\n    function confirmTransaction(bytes32 dataHash)\n        public\n        onlyFriend\n    {\n        require(!isExecuted[dataHash]);\n        isConfirmed[dataHash][msg.sender] = true;\n    }\n\n    /// @dev Returns if Safe transaction is a valid owner replacement transaction.\n    /// @param sender Friend's address.\n    /// @param to Gnosis Safe address.\n    /// @param value No Ether should be send.\n    /// @param data Encoded owner replacement transaction.\n    /// @param operation Only Call operations are allowed.\n    /// @return Returns if transaction can be executed.\n    function isExecutable(address sender, address to, uint256 value, bytes data, GnosisSafe.Operation operation)\n        public\n        onlyGnosisSafe\n        returns (bool)\n    {\n        // Only friends are allowed to execute the replacement.\n        require(isFriend[sender]);\n        require(to == address(gnosisSafe));\n        require(value == 0);\n        require(operation == GnosisSafe.Operation.Call);\n        // Validate that transaction is a owner replacement transaction.\n        bytes4 functionIdentifier;\n        assembly {\n            functionIdentifier := mload(add(data, 0x20))\n        }\n        require(functionIdentifier == REPLACE_OWNER_FUNCTION_IDENTIFIER);\n        bytes32 dataHash = getDataHash(data);\n        if (   !isExecuted[dataHash]\n            && isConfirmedByRequiredFriends(dataHash)) {\n            isExecuted[dataHash] = true;\n            return true;\n        }\n        return false;\n    }\n\n    /// @dev Returns if Safe transaction is a valid owner replacement transaction.\n    /// @param dataHash Data hash.\n    /// @return Confirmation status.\n    function isConfirmedByRequiredFriends(bytes32 dataHash)\n        public\n        view\n        returns (bool)\n    {\n        uint256 confirmationCount;\n        for (uint256 i = 0; i < friends.length; i++) {\n            if (isConfirmed[dataHash][friends[i]])\n                confirmationCount++;\n            if (confirmationCount == threshold)\n                return true;\n        }\n        return false;\n    }\n\n    /// @dev Returns hash of data encoding owner replacement.\n    /// @param data Data payload.\n    /// @return Data hash.\n    function getDataHash(bytes data)\n        public\n        view\n        returns (bytes32)\n    {\n        return keccak256(data);\n    }\n}\n",
  "sourcePath": "/Users/apanizo/git/gnosis/safe-contracts/contracts/extensions/SocialRecoveryExtension.sol",
  "compiler": {
    "name": "solc",
    "version": "0.4.19+commit.c4cbbb05.Emscripten.clang"
  },
  "schemaVersion": "2.0.0",
  "updatedAt": "2018-05-08T14:18:44.029Z"
}