{
  "contractName": "WhitelistExtension",
  "abi": [
    {
      "constant": true,
      "inputs": [
        {
          "name": "",
          "type": "address"
        }
      ],
      "name": "isWhitelisted",
      "outputs": [
        {
          "name": "",
          "type": "bool"
        }
      ],
      "payable": false,
      "stateMutability": "view",
      "type": "function"
    },
    {
      "constant": true,
      "inputs": [],
      "name": "NAME",
      "outputs": [
        {
          "name": "",
          "type": "string"
        }
      ],
      "payable": false,
      "stateMutability": "view",
      "type": "function"
    },
    {
      "constant": true,
      "inputs": [],
      "name": "gnosisSafe",
      "outputs": [
        {
          "name": "",
          "type": "address"
        }
      ],
      "payable": false,
      "stateMutability": "view",
      "type": "function"
    },
    {
      "constant": true,
      "inputs": [],
      "name": "VERSION",
      "outputs": [
        {
          "name": "",
          "type": "string"
        }
      ],
      "payable": false,
      "stateMutability": "view",
      "type": "function"
    },
    {
      "inputs": [
        {
          "name": "accounts",
          "type": "address[]"
        }
      ],
      "payable": false,
      "stateMutability": "nonpayable",
      "type": "constructor"
    },
    {
      "constant": false,
      "inputs": [
        {
          "name": "accounts",
          "type": "address[]"
        }
      ],
      "name": "setup",
      "outputs": [],
      "payable": false,
      "stateMutability": "nonpayable",
      "type": "function"
    },
    {
      "constant": false,
      "inputs": [
        {
          "name": "_masterCopy",
          "type": "address"
        }
      ],
      "name": "changeMasterCopy",
      "outputs": [],
      "payable": false,
      "stateMutability": "nonpayable",
      "type": "function"
    },
    {
      "constant": false,
      "inputs": [
        {
          "name": "account",
          "type": "address"
        }
      ],
      "name": "addToWhitelist",
      "outputs": [],
      "payable": false,
      "stateMutability": "nonpayable",
      "type": "function"
    },
    {
      "constant": false,
      "inputs": [
        {
          "name": "account",
          "type": "address"
        }
      ],
      "name": "removeFromWhitelist",
      "outputs": [],
      "payable": false,
      "stateMutability": "nonpayable",
      "type": "function"
    },
    {
      "constant": false,
      "inputs": [
        {
          "name": "sender",
          "type": "address"
        },
        {
          "name": "to",
          "type": "address"
        },
        {
          "name": "value",
          "type": "uint256"
        },
        {
          "name": "data",
          "type": "bytes"
        },
        {
          "name": "operation",
          "type": "uint8"
        }
      ],
      "name": "isExecutable",
      "outputs": [
        {
          "name": "",
          "type": "bool"
        }
      ],
      "payable": false,
      "stateMutability": "nonpayable",
      "type": "function"
    }
  ],
  "bytecode": "0x6060604052341561000f57600080fd5b604051610c9a380380610c9a833981016040528080518201919050506100478161004d64010000000002610680176401000000009004565b506101a1565b600080600160009054906101000a900473ffffffffffffffffffffffffffffffffffffffff1673ffffffffffffffffffffffffffffffffffffffff1614151561009557600080fd5b33600160006101000a81548173ffffffffffffffffffffffffffffffffffffffff021916908373ffffffffffffffffffffffffffffffffffffffff160217905550600090505b815181101561019d57600082828151811015156100f457fe5b9060200190602002015173ffffffffffffffffffffffffffffffffffffffff161415151561012157600080fd5b600160026000848481518110151561013557fe5b9060200190602002015173ffffffffffffffffffffffffffffffffffffffff1673ffffffffffffffffffffffffffffffffffffffff16815260200190815260200160002060006101000a81548160ff02191690831515021790555080806001019150506100db565b5050565b610aea806101b06000396000f300606060405260043610610099576000357c0100000000000000000000000000000000000000000000000000000000900463ffffffff1680633af32abf1461009e5780637de7edef146100ef5780638ab1d68114610128578063a3f4df7e14610161578063a84173ae146101ef578063bd5b853b14610244578063cde09ca91461029e578063e43252d714610366578063ffa1ad741461039f575b600080fd5b34156100a957600080fd5b6100d5600480803573ffffffffffffffffffffffffffffffffffffffff1690602001909190505061042d565b604051808215151515815260200191505060405180910390f35b34156100fa57600080fd5b610126600480803573ffffffffffffffffffffffffffffffffffffffff1690602001909190505061044d565b005b341561013357600080fd5b61015f600480803573ffffffffffffffffffffffffffffffffffffffff16906020019091905050610512565b005b341561016c57600080fd5b610174610621565b6040518080602001828103825283818151815260200191508051906020019080838360005b838110156101b4578082015181840152602081019050610199565b50505050905090810190601f1680156101e15780820380516001836020036101000a031916815260200191505b509250505060405180910390f35b34156101fa57600080fd5b61020261065a565b604051808273ffffffffffffffffffffffffffffffffffffffff1673ffffffffffffffffffffffffffffffffffffffff16815260200191505060405180910390f35b341561024f57600080fd5b61029c600480803590602001908201803590602001908080602002602001604051908101604052809392919081815260200183836020028082843782019150505050505091905050610680565b005b34156102a957600080fd5b61034c600480803573ffffffffffffffffffffffffffffffffffffffff1690602001909190803573ffffffffffffffffffffffffffffffffffffffff1690602001909190803590602001909190803590602001908201803590602001908080601f0160208091040260200160405190810160405280939291908181526020018383808284378201915050505050509190803560ff169060200190919050506107d4565b604051808215151515815260200191505060405180910390f35b341561037157600080fd5b61039d600480803573ffffffffffffffffffffffffffffffffffffffff1690602001909190505061094f565b005b34156103aa57600080fd5b6103b2610a85565b6040518080602001828103825283818151815260200191508051906020019080838360005b838110156103f25780820151818401526020810190506103d7565b50505050905090810190601f16801561041f5780820380516001836020036101000a031916815260200191505b509250505060405180910390f35b60026020528060005260406000206000915054906101000a900460ff1681565b600160009054906101000a900473ffffffffffffffffffffffffffffffffffffffff1673ffffffffffffffffffffffffffffffffffffffff163373ffffffffffffffffffffffffffffffffffffffff161415156104a957600080fd5b60008173ffffffffffffffffffffffffffffffffffffffff16141515156104cf57600080fd5b806000806101000a81548173ffffffffffffffffffffffffffffffffffffffff021916908373ffffffffffffffffffffffffffffffffffffffff16021790555050565b600160009054906101000a900473ffffffffffffffffffffffffffffffffffffffff1673ffffffffffffffffffffffffffffffffffffffff163373ffffffffffffffffffffffffffffffffffffffff1614151561056e57600080fd5b600260008273ffffffffffffffffffffffffffffffffffffffff1673ffffffffffffffffffffffffffffffffffffffff16815260200190815260200160002060009054906101000a900460ff1615156105c657600080fd5b6000600260008373ffffffffffffffffffffffffffffffffffffffff1673ffffffffffffffffffffffffffffffffffffffff16815260200190815260200160002060006101000a81548160ff02191690831515021790555050565b6040805190810160405280601381526020017f57686974656c69737420457874656e73696f6e0000000000000000000000000081525081565b600160009054906101000a900473ffffffffffffffffffffffffffffffffffffffff1681565b600080600160009054906101000a900473ffffffffffffffffffffffffffffffffffffffff1673ffffffffffffffffffffffffffffffffffffffff161415156106c857600080fd5b33600160006101000a81548173ffffffffffffffffffffffffffffffffffffffff021916908373ffffffffffffffffffffffffffffffffffffffff160217905550600090505b81518110156107d0576000828281518110151561072757fe5b9060200190602002015173ffffffffffffffffffffffffffffffffffffffff161415151561075457600080fd5b600160026000848481518110151561076857fe5b9060200190602002015173ffffffffffffffffffffffffffffffffffffffff1673ffffffffffffffffffffffffffffffffffffffff16815260200190815260200160002060006101000a81548160ff021916908315150217905550808060010191505061070e565b5050565b6000600160009054906101000a900473ffffffffffffffffffffffffffffffffffffffff1673ffffffffffffffffffffffffffffffffffffffff16632f54bf6e876000604051602001526040518263ffffffff167c0100000000000000000000000000000000000000000000000000000000028152600401808273ffffffffffffffffffffffffffffffffffffffff1673ffffffffffffffffffffffffffffffffffffffff168152602001915050602060405180830381600087803b151561089b57600080fd5b6102c65a03f115156108ac57600080fd5b5050506040518051905015156108c157600080fd5b600060028111156108ce57fe5b8260028111156108da57fe5b1415156108e657600080fd5b600260008673ffffffffffffffffffffffffffffffffffffffff1673ffffffffffffffffffffffffffffffffffffffff16815260200190815260200160002060009054906101000a900460ff16156109415760019050610946565b600090505b95945050505050565b600160009054906101000a900473ffffffffffffffffffffffffffffffffffffffff1673ffffffffffffffffffffffffffffffffffffffff163373ffffffffffffffffffffffffffffffffffffffff161415156109ab57600080fd5b60008173ffffffffffffffffffffffffffffffffffffffff16141515156109d157600080fd5b600260008273ffffffffffffffffffffffffffffffffffffffff1673ffffffffffffffffffffffffffffffffffffffff16815260200190815260200160002060009054906101000a900460ff16151515610a2a57600080fd5b6001600260008373ffffffffffffffffffffffffffffffffffffffff1673ffffffffffffffffffffffffffffffffffffffff16815260200190815260200160002060006101000a81548160ff02191690831515021790555050565b6040805190810160405280600581526020017f302e302e31000000000000000000000000000000000000000000000000000000815250815600a165627a7a723058201b57b6ee7b9d50f85b4f4aef604b3f927644cd770495870aa4014654c521c72a0029",
  "source": "pragma solidity 0.4.19;\nimport \"../Extension.sol\";\nimport \"../GnosisSafe.sol\";\n\n\n/// @title Whitelist Extension - Allows to execute transactions to whitelisted addresses without confirmations.\n/// @author Stefan George - <stefan@gnosis.pm>\ncontract WhitelistExtension is Extension {\n\n    string public constant NAME = \"Whitelist Extension\";\n    string public constant VERSION = \"0.0.1\";\n\n    WhitelistExtension masterCopy;\n    GnosisSafe public gnosisSafe;\n\n    // isWhitelisted mapping maps destination address to boolean.\n    mapping (address => bool) public isWhitelisted;\n\n    modifier onlyGnosisSafe() {\n        require(msg.sender == address(gnosisSafe));\n        _;\n    }\n\n    /// @dev Constructor function triggers setup function.\n    /// @param accounts List of whitelisted accounts.\n    function WhitelistExtension(address[] accounts)\n        public\n    {\n        setup(accounts);\n    }\n\n    /// @dev Setup function sets initial storage of contract.\n    /// @param accounts List of whitelisted accounts.\n    function setup(address[] accounts)\n        public\n    {\n        // gnosisSafe can only be 0 at initalization of contract.\n        // Check ensures that setup function can only be called once.\n        require(address(gnosisSafe) == 0);\n        // Set whitelisted destinations.\n        gnosisSafe = GnosisSafe(msg.sender);\n        for (uint256 i = 0; i < accounts.length; i++) {\n            require(accounts[i] != 0);\n            isWhitelisted[accounts[i]]= true;\n        }\n    }\n\n    /// @dev Allows to upgrade the contract. This can only be done via a Safe transaction.\n    /// @param _masterCopy New contract address.\n    function changeMasterCopy(WhitelistExtension _masterCopy)\n        public\n        onlyGnosisSafe\n    {\n        require(address(_masterCopy) != 0);\n        masterCopy = _masterCopy;\n    }\n\n    /// @dev Allows to add destination to whitelist. This can only be done via a Safe transaction.\n    /// @param account Destination address.\n    function addToWhitelist(address account)\n        public\n        onlyGnosisSafe\n    {\n        require(account != 0);\n        require(!isWhitelisted[account]);\n        isWhitelisted[account] = true;\n    }\n\n    /// @dev Allows to remove destination from whitelist. This can only be done via a Safe transaction.\n    /// @param account Destination address.\n    function removeFromWhitelist(address account)\n        public\n        onlyGnosisSafe\n    {\n        require(isWhitelisted[account]);\n        isWhitelisted[account] = false;\n    }\n\n    /// @dev Returns if Safe transaction is to a whitelisted destination.\n    /// @param sender Safe owner sending Safe transaction.\n    /// @param to Whitelisted destination address.\n    /// @param value Not checked.\n    /// @param data Not checked.\n    /// @param operation Only Call operations are allowed.\n    /// @return Returns if transaction can be executed.\n    function isExecutable(address sender, address to, uint256 value, bytes data, GnosisSafe.Operation operation)\n        public\n        returns (bool)\n    {\n        // Only Safe owners are allowed to execute transactions to whitelisted accounts.\n        require(gnosisSafe.isOwner(sender));\n        require(operation == GnosisSafe.Operation.Call);\n        if (isWhitelisted[to])\n            return true;\n        return false;\n    }\n}\n",
  "sourcePath": "/Users/apanizo/git/gnosis/safe-contracts/contracts/extensions/WhitelistExtension.sol",
  "compiler": {
    "name": "solc",
    "version": "0.4.19+commit.c4cbbb05.Emscripten.clang"
  },
  "schemaVersion": "2.0.0",
  "updatedAt": "2018-05-08T14:18:44.036Z"
}