{
  "contractName": "Proxied",
  "abi": [
    {
      "constant": true,
      "inputs": [],
      "name": "masterCopy",
      "outputs": [
        {
          "name": "",
          "type": "address"
        }
      ],
      "payable": false,
      "stateMutability": "view",
      "type": "function"
    }
  ],
  "bytecode": "0x6080604052348015600f57600080fd5b5060a48061001e6000396000f3fe6080604052348015600f57600080fd5b506004361060285760003560e01c8063a619486e14602d575b600080fd5b6033605c565b6040805173ffffffffffffffffffffffffffffffffffffffff9092168252519081900360200190f35b60005473ffffffffffffffffffffffffffffffffffffffff168156fea165627a7a7230582030927156db8f845fed095b245b70d15291cf8c9a8cdd88be16cdf598edc721190029",
  "source": "pragma solidity ^0.5.2;\n\n/// @title Proxied - indicates that a contract will be proxied. Also defines storage requirements for Proxy.\n/// @author Alan Lu - <alan@gnosis.pm>\ncontract Proxied {\n    address public masterCopy;\n}\n\n/// @title Proxy - Generic proxy contract allows to execute all transactions applying the code of a master contract.\n/// @author Stefan George - <stefan@gnosis.pm>\ncontract Proxy is Proxied {\n    /// @dev Constructor function sets address of master copy contract.\n    /// @param _masterCopy Master copy address.\n    constructor(address _masterCopy) public {\n        require(_masterCopy != address(0), \"The master copy is required\");\n        masterCopy = _masterCopy;\n    }\n\n    /// @dev Fallback function forwards all transactions and returns all received return data.\n    function() external payable {\n        address _masterCopy = masterCopy;\n        assembly {\n            calldatacopy(0, 0, calldatasize)\n            let success := delegatecall(not(0), _masterCopy, 0, calldatasize, 0, 0)\n            returndatacopy(0, 0, returndatasize)\n            switch success\n                case 0 {\n                    revert(0, returndatasize)\n                }\n                default {\n                    return(0, returndatasize)\n                }\n        }\n    }\n}\n",
  "sourcePath": "@gnosis.pm/util-contracts/contracts/Proxy.sol",
  "compiler": {
    "name": "solc",
    "version": "0.5.8+commit.23d335f2.Emscripten.clang"
  },
  "schemaVersion": "3.0.10",
  "updatedAt": "2019-06-03T08:59:02.136Z",
  "devdoc": {
    "author": "Alan Lu - <alan@gnosis.pm>",
    "methods": {},
    "title": "Proxied - indicates that a contract will be proxied. Also defines storage requirements for Proxy."
  },
  "userdoc": {
    "methods": {}
  }
}